{"sgn-v2-contracts/contracts/message/messagebus/MessageBusReceiver.sol":{"MessageBusReceiver":{"abi":[{"inputs":[{"internalType":"address","name":"_liquidityBridge","type":"address"},{"internalType":"address","name":"_pegBridge","type":"address"},{"internalType":"address","name":"_pegVault","type":"address"},{"internalType":"address","name":"_pegBridgeV2","type":"address"},{"internalType":"address","name":"_pegVaultV2","type":"address"}],"stateMutability":"nonpayable","type":"constructor"},{"anonymous":false,"inputs":[{"indexed":false,"internalType":"string","name":"reason","type":"string"}],"name":"CallReverted","type":"event"},{"anonymous":false,"inputs":[{"indexed":false,"internalType":"enum MsgDataTypes.MsgType","name":"msgType","type":"uint8"},{"indexed":false,"internalType":"bytes32","name":"msgId","type":"bytes32"},{"indexed":false,"internalType":"enum MsgDataTypes.TxStatus","name":"status","type":"uint8"},{"indexed":true,"internalType":"address","name":"receiver","type":"address"},{"indexed":false,"internalType":"uint64","name":"srcChainId","type":"uint64"},{"indexed":false,"internalType":"bytes32","name":"srcTxHash","type":"bytes32"}],"name":"Executed","type":"event"},{"anonymous":false,"inputs":[{"indexed":false,"internalType":"address","name":"liquidityBridge","type":"address"}],"name":"LiquidityBridgeUpdated","type":"event"},{"anonymous":false,"inputs":[{"indexed":false,"internalType":"enum MsgDataTypes.MsgType","name":"msgType","type":"uint8"},{"indexed":false,"internalType":"bytes32","name":"msgId","type":"bytes32"},{"indexed":false,"internalType":"uint64","name":"srcChainId","type":"uint64"},{"indexed":false,"internalType":"bytes32","name":"srcTxHash","type":"bytes32"}],"name":"NeedRetry","type":"event"},{"anonymous":false,"inputs":[{"indexed":true,"internalType":"address","name":"previousOwner","type":"address"},{"indexed":true,"internalType":"address","name":"newOwner","type":"address"}],"name":"OwnershipTransferred","type":"event"},{"anonymous":false,"inputs":[{"indexed":false,"internalType":"address","name":"pegBridge","type":"address"}],"name":"PegBridgeUpdated","type":"event"},{"anonymous":false,"inputs":[{"indexed":false,"internalType":"address","name":"pegBridgeV2","type":"address"}],"name":"PegBridgeV2Updated","type":"event"},{"anonymous":false,"inputs":[{"indexed":false,"internalType":"address","name":"pegVault","type":"address"}],"name":"PegVaultUpdated","type":"event"},{"anonymous":false,"inputs":[{"indexed":false,"internalType":"address","name":"pegVaultV2","type":"address"}],"name":"PegVaultV2Updated","type":"event"},{"inputs":[{"internalType":"bytes","name":"_message","type":"bytes"},{"components":[{"internalType":"address","name":"sender","type":"address"},{"internalType":"address","name":"receiver","type":"address"},{"internalType":"uint64","name":"srcChainId","type":"uint64"},{"internalType":"bytes32","name":"srcTxHash","type":"bytes32"}],"internalType":"struct MsgDataTypes.RouteInfo","name":"_route","type":"tuple"},{"internalType":"bytes[]","name":"_sigs","type":"bytes[]"},{"internalType":"address[]","name":"_signers","type":"address[]"},{"internalType":"uint256[]","name":"_powers","type":"uint256[]"}],"name":"executeMessage","outputs":[],"stateMutability":"payable","type":"function"},{"inputs":[{"internalType":"bytes","name":"_message","type":"bytes"},{"components":[{"internalType":"enum MsgDataTypes.TransferType","name":"t","type":"uint8"},{"internalType":"address","name":"sender","type":"address"},{"internalType":"address","name":"receiver","type":"address"},{"internalType":"address","name":"token","type":"address"},{"internalType":"uint256","name":"amount","type":"uint256"},{"internalType":"uint64","name":"wdseq","type":"uint64"},{"internalType":"uint64","name":"srcChainId","type":"uint64"},{"internalType":"bytes32","name":"refId","type":"bytes32"},{"internalType":"bytes32","name":"srcTxHash","type":"bytes32"}],"internalType":"struct MsgDataTypes.TransferInfo","name":"_transfer","type":"tuple"},{"internalType":"bytes[]","name":"_sigs","type":"bytes[]"},{"internalType":"address[]","name":"_signers","type":"address[]"},{"internalType":"uint256[]","name":"_powers","type":"uint256[]"}],"name":"executeMessageWithTransfer","outputs":[],"stateMutability":"payable","type":"function"},{"inputs":[{"internalType":"bytes","name":"_message","type":"bytes"},{"components":[{"internalType":"enum MsgDataTypes.TransferType","name":"t","type":"uint8"},{"internalType":"address","name":"sender","type":"address"},{"internalType":"address","name":"receiver","type":"address"},{"internalType":"address","name":"token","type":"address"},{"internalType":"uint256","name":"amount","type":"uint256"},{"internalType":"uint64","name":"wdseq","type":"uint64"},{"internalType":"uint64","name":"srcChainId","type":"uint64"},{"internalType":"bytes32","name":"refId","type":"bytes32"},{"internalType":"bytes32","name":"srcTxHash","type":"bytes32"}],"internalType":"struct MsgDataTypes.TransferInfo","name":"_transfer","type":"tuple"},{"internalType":"bytes[]","name":"_sigs","type":"bytes[]"},{"internalType":"address[]","name":"_signers","type":"address[]"},{"internalType":"uint256[]","name":"_powers","type":"uint256[]"}],"name":"executeMessageWithTransferRefund","outputs":[],"stateMutability":"payable","type":"function"},{"inputs":[{"internalType":"bytes32","name":"","type":"bytes32"}],"name":"executedMessages","outputs":[{"internalType":"enum MsgDataTypes.TxStatus","name":"","type":"uint8"}],"stateMutability":"view","type":"function"},{"inputs":[],"name":"liquidityBridge","outputs":[{"internalType":"address","name":"","type":"address"}],"stateMutability":"view","type":"function"},{"inputs":[],"name":"owner","outputs":[{"internalType":"address","name":"","type":"address"}],"stateMutability":"view","type":"function"},{"inputs":[],"name":"pegBridge","outputs":[{"internalType":"address","name":"","type":"address"}],"stateMutability":"view","type":"function"},{"inputs":[],"name":"pegBridgeV2","outputs":[{"internalType":"address","name":"","type":"address"}],"stateMutability":"view","type":"function"},{"inputs":[],"name":"pegVault","outputs":[{"internalType":"address","name":"","type":"address"}],"stateMutability":"view","type":"function"},{"inputs":[],"name":"pegVaultV2","outputs":[{"internalType":"address","name":"","type":"address"}],"stateMutability":"view","type":"function"},{"inputs":[],"name":"preExecuteMessageGasUsage","outputs":[{"internalType":"uint256","name":"","type":"uint256"}],"stateMutability":"view","type":"function"},{"inputs":[{"components":[{"internalType":"bytes","name":"request","type":"bytes"},{"internalType":"bytes[]","name":"sigs","type":"bytes[]"},{"internalType":"address[]","name":"signers","type":"address[]"},{"internalType":"uint256[]","name":"powers","type":"uint256[]"}],"internalType":"struct MsgDataTypes.BridgeTransferParams","name":"_transferParams","type":"tuple"},{"components":[{"internalType":"bytes","name":"message","type":"bytes"},{"components":[{"internalType":"enum MsgDataTypes.TransferType","name":"t","type":"uint8"},{"internalType":"address","name":"sender","type":"address"},{"internalType":"address","name":"receiver","type":"address"},{"internalType":"address","name":"token","type":"address"},{"internalType":"uint256","name":"amount","type":"uint256"},{"internalType":"uint64","name":"wdseq","type":"uint64"},{"internalType":"uint64","name":"srcChainId","type":"uint64"},{"internalType":"bytes32","name":"refId","type":"bytes32"},{"internalType":"bytes32","name":"srcTxHash","type":"bytes32"}],"internalType":"struct MsgDataTypes.TransferInfo","name":"transfer","type":"tuple"},{"internalType":"bytes[]","name":"sigs","type":"bytes[]"},{"internalType":"address[]","name":"signers","type":"address[]"},{"internalType":"uint256[]","name":"powers","type":"uint256[]"}],"internalType":"struct MsgDataTypes.MsgWithTransferExecutionParams","name":"_msgParams","type":"tuple"}],"name":"refundAndExecuteMsg","outputs":[],"stateMutability":"nonpayable","type":"function"},{"inputs":[{"internalType":"address","name":"_addr","type":"address"}],"name":"setLiquidityBridge","outputs":[],"stateMutability":"nonpayable","type":"function"},{"inputs":[{"internalType":"address","name":"_addr","type":"address"}],"name":"setPegBridge","outputs":[],"stateMutability":"nonpayable","type":"function"},{"inputs":[{"internalType":"address","name":"_addr","type":"address"}],"name":"setPegBridgeV2","outputs":[],"stateMutability":"nonpayable","type":"function"},{"inputs":[{"internalType":"address","name":"_addr","type":"address"}],"name":"setPegVault","outputs":[],"stateMutability":"nonpayable","type":"function"},{"inputs":[{"internalType":"address","name":"_addr","type":"address"}],"name":"setPegVaultV2","outputs":[],"stateMutability":"nonpayable","type":"function"},{"inputs":[{"internalType":"uint256","name":"_usage","type":"uint256"}],"name":"setPreExecuteMessageGasUsage","outputs":[],"stateMutability":"nonpayable","type":"function"},{"inputs":[{"components":[{"internalType":"bytes","name":"request","type":"bytes"},{"internalType":"bytes[]","name":"sigs","type":"bytes[]"},{"internalType":"address[]","name":"signers","type":"address[]"},{"internalType":"uint256[]","name":"powers","type":"uint256[]"}],"internalType":"struct MsgDataTypes.BridgeTransferParams","name":"_transferParams","type":"tuple"},{"components":[{"internalType":"bytes","name":"message","type":"bytes"},{"components":[{"internalType":"enum MsgDataTypes.TransferType","name":"t","type":"uint8"},{"internalType":"address","name":"sender","type":"address"},{"internalType":"address","name":"receiver","type":"address"},{"internalType":"address","name":"token","type":"address"},{"internalType":"uint256","name":"amount","type":"uint256"},{"internalType":"uint64","name":"wdseq","type":"uint64"},{"internalType":"uint64","name":"srcChainId","type":"uint64"},{"internalType":"bytes32","name":"refId","type":"bytes32"},{"internalType":"bytes32","name":"srcTxHash","type":"bytes32"}],"internalType":"struct MsgDataTypes.TransferInfo","name":"transfer","type":"tuple"},{"internalType":"bytes[]","name":"sigs","type":"bytes[]"},{"internalType":"address[]","name":"signers","type":"address[]"},{"internalType":"uint256[]","name":"powers","type":"uint256[]"}],"internalType":"struct MsgDataTypes.MsgWithTransferExecutionParams","name":"_msgParams","type":"tuple"}],"name":"transferAndExecuteMsg","outputs":[],"stateMutability":"nonpayable","type":"function"},{"inputs":[{"internalType":"address","name":"newOwner","type":"address"}],"name":"transferOwnership","outputs":[],"stateMutability":"nonpayable","type":"function"}],"devdoc":{"kind":"dev","methods":{"executeMessage(bytes,(address,address,uint64,bytes32),bytes[],address[],uint256[])":{"params":{"_message":"Arbitrary message bytes originated from and encoded by the source app contract","_powers":"The signing powers of the signers.","_signers":"The sorted list of signers.","_sigs":"The list of signatures sorted by signing addresses in ascending order. A relay must be signed-off by +2/3 of the sigsVerifier's current signing power to be delivered."}},"executeMessageWithTransfer(bytes,(uint8,address,address,address,uint256,uint64,uint64,bytes32,bytes32),bytes[],address[],uint256[])":{"params":{"_message":"Arbitrary message bytes originated from and encoded by the source app contract","_powers":"The signing powers of the signers.","_signers":"The sorted list of signers.","_sigs":"The list of signatures sorted by signing addresses in ascending order. A relay must be signed-off by +2/3 of the sigsVerifier's current signing power to be delivered.","_transfer":"The transfer info."}},"executeMessageWithTransferRefund(bytes,(uint8,address,address,address,uint256,uint64,uint64,bytes32,bytes32),bytes[],address[],uint256[])":{"params":{"_message":"Arbitrary message bytes originated from and encoded by the source app contract","_powers":"The signing powers of the signers.","_signers":"The sorted list of signers.","_sigs":"The list of signatures sorted by signing addresses in ascending order. A relay must be signed-off by +2/3 of the sigsVerifier's current signing power to be delivered.","_transfer":"The transfer info."}},"owner()":{"details":"Returns the address of the current owner."},"refundAndExecuteMsg((bytes,bytes[],address[],uint256[]),(bytes,(uint8,address,address,address,uint256,uint64,uint64,bytes32,bytes32),bytes[],address[],uint256[]))":{"details":"caller needs to get the required input params from SGN","params":{"_msgParams":"params to execute message for refund","_transferParams":"params to call bridge transfer for refund"}},"transferAndExecuteMsg((bytes,bytes[],address[],uint256[]),(bytes,(uint8,address,address,address,uint256,uint64,uint64,bytes32,bytes32),bytes[],address[],uint256[]))":{"details":"caller needs to get the required input params from SGN","params":{"_msgParams":"params to execute message","_transferParams":"params to call bridge transfer"}},"transferOwnership(address)":{"details":"Transfers ownership of the contract to a new account (`newOwner`). Can only be called by the current owner."}},"version":1},"evm":{"bytecode":{"linkReferences":{},"object":"60806040523480156200001157600080fd5b5060405162003a0138038062003a0183398101604081905262000034916200010f565b6200003f33620000a2565b600280546001600160a01b03199081166001600160a01b039788161790915560038054821695871695909517909455600480548516938616939093179092556005805484169185169190911790556006805490921692169190911790556200017f565b600080546001600160a01b038381166001600160a01b0319831681178455604051919092169283917f8be0079c531659141344cd1fd0a4f28419497f9722a3daafe3b4186f6b6457e09190a35050565b80516001600160a01b03811681146200010a57600080fd5b919050565b600080600080600060a086880312156200012857600080fd5b6200013386620000f2565b94506200014360208701620000f2565b93506200015360408701620000f2565b92506200016360608701620000f2565b91506200017360808701620000f2565b90509295509295909350565b613872806200018f6000396000f3fe60806040526004361061015f5760003560e01c806382efd502116100c0578063cd2abd6611610074578063dfa2dbaf11610059578063dfa2dbaf146103e9578063f2fde38b14610416578063f83b0fb91461043657600080fd5b8063cd2abd661461037f578063d8257d17146103bc57600080fd5b806395b12c27116100a557806395b12c27146103055780639b05a77514610332578063c66a9c5a1461035257600080fd5b806382efd502146102ba5780638da5cb5b146102da57600080fd5b8063584e45e111610117578063723d0a9d116100fc578063723d0a9d146102355780637b80ab201461025557806382980dc41461026857600080fd5b8063584e45e1146101ec578063588be02b1461021557600080fd5b806340d0d0261161014857806340d0d026146101995780634586f331146101b9578063468a2d04146101d957600080fd5b806303cbfe66146101645780633f395aff14610186575b600080fd5b34801561017057600080fd5b5061018461017f366004612c37565b610456565b005b610184610194366004612ce0565b6105ef565b3480156101a557600080fd5b506101846101b4366004612e07565b610985565b3480156101c557600080fd5b506101846101d4366004612e73565b6109dd565b6101846101e7366004612e8c565b610a7f565b3480156101f857600080fd5b5061020260075481565b6040519081526020015b60405180910390f35b34801561022157600080fd5b50610184610230366004612c37565b610dca565b34801561024157600080fd5b50610184610250366004612e07565b610f57565b610184610263366004612ce0565b610fa5565b34801561027457600080fd5b506002546102959073ffffffffffffffffffffffffffffffffffffffff1681565b60405173ffffffffffffffffffffffffffffffffffffffff909116815260200161020c565b3480156102c657600080fd5b506101846102d5366004612c37565b61123b565b3480156102e657600080fd5b5060005473ffffffffffffffffffffffffffffffffffffffff16610295565b34801561031157600080fd5b506005546102959073ffffffffffffffffffffffffffffffffffffffff1681565b34801561033e57600080fd5b5061018461034d366004612c37565b6113c8565b34801561035e57600080fd5b506006546102959073ffffffffffffffffffffffffffffffffffffffff1681565b34801561038b57600080fd5b506103af61039a366004612e73565b60016020526000908152604090205460ff1681565b60405161020c9190612f94565b3480156103c857600080fd5b506004546102959073ffffffffffffffffffffffffffffffffffffffff1681565b3480156103f557600080fd5b506003546102959073ffffffffffffffffffffffffffffffffffffffff1681565b34801561042257600080fd5b50610184610431366004612c37565b611555565b34801561044257600080fd5b50610184610451366004612c37565b6116a1565b3361047660005473ffffffffffffffffffffffffffffffffffffffff1690565b73ffffffffffffffffffffffffffffffffffffffff16146104f8576040517f08c379a000000000000000000000000000000000000000000000000000000000815260206004820181905260248201527f4f776e61626c653a2063616c6c6572206973206e6f7420746865206f776e657260448201526064015b60405180910390fd5b73ffffffffffffffffffffffffffffffffffffffff8116610575576040517f08c379a000000000000000000000000000000000000000000000000000000000815260206004820152600f60248201527f696e76616c69642061646472657373000000000000000000000000000000000060448201526064016104ef565b600380547fffffffffffffffffffffffff00000000000000000000000000000000000000001673ffffffffffffffffffffffffffffffffffffffff83169081179091556040519081527fd60e9ceb4f54f1bfb1741a4b35fc9d806d7ed48200b523203b92248ea38fa17d906020015b60405180910390a150565b60006105fa8861182e565b90506000808281526001602052604090205460ff16600481111561062057610620612f51565b14610687576040517f08c379a000000000000000000000000000000000000000000000000000000000815260206004820152601960248201527f7472616e7366657220616c72656164792065786563757465640000000000000060448201526064016104ef565b600081815260016020908152604080832080547fffffffffffffffffffffffffffffffffffffffffffffffffffffffffffffff00166004179055805146928101929092527fffffffffffffffffffffffffffffffffffffffff0000000000000000000000003060601b16908201527f4d657373616765576974685472616e73666572000000000000000000000000006054820152606701604051602081830303815290604052805190602001209050600260009054906101000a900473ffffffffffffffffffffffffffffffffffffffff1673ffffffffffffffffffffffffffffffffffffffff1663682dbc2282848e8e8e6101000135604051602001610792959493929190612fa2565b6040516020818303038152906040528a8a8a8a8a8a6040518863ffffffff1660e01b81526004016107c997969594939291906131fa565b60006040518083038186803b1580156107e157600080fd5b505afa1580156107f5573d6000803e3d6000fd5b505050506000806108078b8e8e61239d565b9050600181600281111561081d5761081d612f51565b141561082c5760019150610919565b600281600281111561084057610840612f51565b14156108e45760008481526001602081905260408220805490917fffffffffffffffffffffffffffffffffffffffffffffffffffffffffffffff0090911690835b02179055507fe49c2c954d381d1448cf824743aeff9da7a1d82078a7c9e5817269cc359bd26c6000858d60c00160208101906108bd9190613258565b8e61010001356040516108d39493929190613292565b60405180910390a15050505061097a565b6108ef8b8e8e612549565b9050600181600281111561090557610905612f51565b14156109145760039150610919565b600291505b6000848152600160208190526040909120805484927fffffffffffffffffffffffffffffffffffffffffffffffffffffffffffffff009091169083600481111561096557610965612f51565b021790555061097584838d6125aa565b505050505b505050505050505050565b61099e61099860408301602084016132c5565b83612629565b6109d96109ab82806132e6565b602084016109bd61014086018661334b565b6109cb61016088018861334b565b6102636101808a018a61334b565b5050565b336109fd60005473ffffffffffffffffffffffffffffffffffffffff1690565b73ffffffffffffffffffffffffffffffffffffffff1614610a7a576040517f08c379a000000000000000000000000000000000000000000000000000000000815260206004820181905260248201527f4f776e61626c653a2063616c6c6572206973206e6f7420746865206f776e657260448201526064016104ef565b600755565b6000610a8c888b8b6128d6565b90506000808281526001602052604090205460ff166004811115610ab257610ab2612f51565b14610b19576040517f08c379a000000000000000000000000000000000000000000000000000000000815260206004820152601860248201527f6d65737361676520616c7265616479206578656375746564000000000000000060448201526064016104ef565b600081815260016020908152604080832080547fffffffffffffffffffffffffffffffffffffffffffffffffffffffffffffff00166004179055805146928101929092527fffffffffffffffffffffffffffffffffffffffff0000000000000000000000003060601b16908201527f4d657373616765000000000000000000000000000000000000000000000000006054820152605b01604080517fffffffffffffffffffffffffffffffffffffffffffffffffffffffffffffffe0818403018152828252805160209182012060025491840181905283830186905282518085038401815260608501938490527f682dbc2200000000000000000000000000000000000000000000000000000000909352935073ffffffffffffffffffffffffffffffffffffffff169163682dbc2291610c61918c908c908c908c908c908c906064016131fa565b60006040518083038186803b158015610c7957600080fd5b505afa158015610c8d573d6000803e3d6000fd5b50505050600080610c9f8b8e8e612945565b90506001816002811115610cb557610cb5612f51565b1415610cc45760019150610d6e565b6002816002811115610cd857610cd8612f51565b1415610d695760008481526001602081905260408220805490917fffffffffffffffffffffffffffffffffffffffffffffffffffffffffffffff00909116908302179055507fe49c2c954d381d1448cf824743aeff9da7a1d82078a7c9e5817269cc359bd26c6001858d6040016020810190610d549190613258565b8e606001356040516108d39493929190613292565b600291505b6000848152600160208190526040909120805484927fffffffffffffffffffffffffffffffffffffffffffffffffffffffffffffff0090911690836004811115610dba57610dba612f51565b021790555061097584838d6129ca565b33610dea60005473ffffffffffffffffffffffffffffffffffffffff1690565b73ffffffffffffffffffffffffffffffffffffffff1614610e67576040517f08c379a000000000000000000000000000000000000000000000000000000000815260206004820181905260248201527f4f776e61626c653a2063616c6c6572206973206e6f7420746865206f776e657260448201526064016104ef565b73ffffffffffffffffffffffffffffffffffffffff8116610ee4576040517f08c379a000000000000000000000000000000000000000000000000000000000815260206004820152600f60248201527f696e76616c69642061646472657373000000000000000000000000000000000060448201526064016104ef565b600280547fffffffffffffffffffffffff00000000000000000000000000000000000000001673ffffffffffffffffffffffffffffffffffffffff83169081179091556040519081527fbf9977180dc6e6cff25598c8e59150cecd7f8e448e092633d38ab7ee223ae058906020016105e4565b610f6a61099860408301602084016132c5565b6109d9610f7782806132e6565b60208401610f8961014086018661334b565b610f9761016088018861334b565b6101946101808a018a61334b565b6000610fb08861182e565b90506000808281526001602052604090205460ff166004811115610fd657610fd6612f51565b1461103d576040517f08c379a000000000000000000000000000000000000000000000000000000000815260206004820152601960248201527f7472616e7366657220616c72656164792065786563757465640000000000000060448201526064016104ef565b600081815260016020908152604080832080547fffffffffffffffffffffffffffffffffffffffffffffffffffffffffffffff00166004179055805146928101929092527fffffffffffffffffffffffffffffffffffffffff0000000000000000000000003060601b16908201527f4d657373616765576974685472616e73666572526566756e64000000000000006054820152606d01604051602081830303815290604052805190602001209050600260009054906101000a900473ffffffffffffffffffffffffffffffffffffffff1673ffffffffffffffffffffffffffffffffffffffff1663682dbc2282848e8e8e6101000135604051602001611148959493929190612fa2565b6040516020818303038152906040528a8a8a8a8a8a6040518863ffffffff1660e01b815260040161117f97969594939291906131fa565b60006040518083038186803b15801561119757600080fd5b505afa1580156111ab573d6000803e3d6000fd5b505050506000806111bd8b8e8e612a3b565b905060018160028111156111d3576111d3612f51565b14156111e25760019150610919565b60028160028111156111f6576111f6612f51565b14156109145760008481526001602081905260408220805490917fffffffffffffffffffffffffffffffffffffffffffffffffffffffffffffff009091169083610881565b3361125b60005473ffffffffffffffffffffffffffffffffffffffff1690565b73ffffffffffffffffffffffffffffffffffffffff16146112d8576040517f08c379a000000000000000000000000000000000000000000000000000000000815260206004820181905260248201527f4f776e61626c653a2063616c6c6572206973206e6f7420746865206f776e657260448201526064016104ef565b73ffffffffffffffffffffffffffffffffffffffff8116611355576040517f08c379a000000000000000000000000000000000000000000000000000000000815260206004820152600f60248201527f696e76616c69642061646472657373000000000000000000000000000000000060448201526064016104ef565b600580547fffffffffffffffffffffffff00000000000000000000000000000000000000001673ffffffffffffffffffffffffffffffffffffffff83169081179091556040519081527ffb337a6c76476534518d5816caeb86263972470fedccfd047a35eb1825eaa9e8906020016105e4565b336113e860005473ffffffffffffffffffffffffffffffffffffffff1690565b73ffffffffffffffffffffffffffffffffffffffff1614611465576040517f08c379a000000000000000000000000000000000000000000000000000000000815260206004820181905260248201527f4f776e61626c653a2063616c6c6572206973206e6f7420746865206f776e657260448201526064016104ef565b73ffffffffffffffffffffffffffffffffffffffff81166114e2576040517f08c379a000000000000000000000000000000000000000000000000000000000815260206004820152600f60248201527f696e76616c69642061646472657373000000000000000000000000000000000060448201526064016104ef565b600480547fffffffffffffffffffffffff00000000000000000000000000000000000000001673ffffffffffffffffffffffffffffffffffffffff83169081179091556040519081527fa9db0c32d9c6c2f75f3b95047a9e67cc1c010eab792a4e6ca777ce918ad94aad906020016105e4565b3361157560005473ffffffffffffffffffffffffffffffffffffffff1690565b73ffffffffffffffffffffffffffffffffffffffff16146115f2576040517f08c379a000000000000000000000000000000000000000000000000000000000815260206004820181905260248201527f4f776e61626c653a2063616c6c6572206973206e6f7420746865206f776e657260448201526064016104ef565b73ffffffffffffffffffffffffffffffffffffffff8116611695576040517f08c379a000000000000000000000000000000000000000000000000000000000815260206004820152602660248201527f4f776e61626c653a206e6577206f776e657220697320746865207a65726f206160448201527f646472657373000000000000000000000000000000000000000000000000000060648201526084016104ef565b61169e81612ab8565b50565b336116c160005473ffffffffffffffffffffffffffffffffffffffff1690565b73ffffffffffffffffffffffffffffffffffffffff161461173e576040517f08c379a000000000000000000000000000000000000000000000000000000000815260206004820181905260248201527f4f776e61626c653a2063616c6c6572206973206e6f7420746865206f776e657260448201526064016104ef565b73ffffffffffffffffffffffffffffffffffffffff81166117bb576040517f08c379a000000000000000000000000000000000000000000000000000000000815260206004820152600f60248201527f696e76616c69642061646472657373000000000000000000000000000000000060448201526064016104ef565b600680547fffffffffffffffffffffffff00000000000000000000000000000000000000001673ffffffffffffffffffffffffffffffffffffffff83169081179091556040519081527f918a691a2a82482a10e11f43d7b627b2ba220dd08f251cb61933c42560f6fcb5906020016105e4565b60008080600161184160208601866132c5565b600681111561185257611852612f51565b1415611a7b576118686040850160208601612c37565b6118786060860160408701612c37565b6118886080870160608801612c37565b608087013561189d60e0890160c08a01613258565b6040517fffffffffffffffffffffffffffffffffffffffff000000000000000000000000606096871b8116602083015294861b851660348201529290941b9092166048820152605c8101919091527fffffffffffffffff00000000000000000000000000000000000000000000000060c092831b8116607c8301524690921b909116608482015260e0850135608c82015260ac01604080518083037fffffffffffffffffffffffffffffffffffffffffffffffffffffffffffffffe00181529082905280516020909101206002547f3c64f04b0000000000000000000000000000000000000000000000000000000083526004830182905290935073ffffffffffffffffffffffffffffffffffffffff1691508190633c64f04b9060240160206040518083038186803b1580156119d357600080fd5b505afa1580156119e7573d6000803e3d6000fd5b505050506040513d601f19601f82011682018060405250810190611a0b91906133b3565b1515600114611a76576040517f08c379a000000000000000000000000000000000000000000000000000000000815260206004820152601660248201527f6272696467652072656c6179206e6f742065786973740000000000000000000060448201526064016104ef565b612368565b6002611a8a60208601866132c5565b6006811115611a9b57611a9b612f51565b1415611c965746611ab260c0860160a08701613258565b611ac26060870160408801612c37565b611ad26080880160608901612c37565b6040517fffffffffffffffff00000000000000000000000000000000000000000000000060c095861b811660208301529390941b90921660288401527fffffffffffffffffffffffffffffffffffffffff000000000000000000000000606091821b8116603085015291901b16604482015260808501356058820152607801604080518083037fffffffffffffffffffffffffffffffffffffffffffffffffffffffffffffffe00181529082905280516020909101206002547fe09ab4280000000000000000000000000000000000000000000000000000000083526004830182905290935073ffffffffffffffffffffffffffffffffffffffff169150819063e09ab4289060240160206040518083038186803b158015611bf357600080fd5b505afa158015611c07573d6000803e3d6000fd5b505050506040513d601f19601f82011682018060405250810190611c2b91906133b3565b1515600114611a76576040517f08c379a000000000000000000000000000000000000000000000000000000000815260206004820152601960248201527f627269646765207769746864726177206e6f742065786973740000000000000060448201526064016104ef565b6003611ca560208601866132c5565b6006811115611cb657611cb6612f51565b1480611cdf57506004611ccc60208601866132c5565b6006811115611cdd57611cdd612f51565b145b1561202d57611cf46060850160408601612c37565b611d046080860160608701612c37565b6080860135611d196040880160208901612c37565b611d2960e0890160c08a01613258565b604051606095861b7fffffffffffffffffffffffffffffffffffffffff000000000000000000000000908116602083015294861b851660348201526048810193909352931b909116606882015260c09190911b7fffffffffffffffff00000000000000000000000000000000000000000000000016607c82015260e0850135608482015260a401604080517fffffffffffffffffffffffffffffffffffffffffffffffffffffffffffffffe0818403018152919052805160209091012091506003611df760208601866132c5565b6006811115611e0857611e08612f51565b1415611f1f57506003546040517f01e647250000000000000000000000000000000000000000000000000000000081526004810183905273ffffffffffffffffffffffffffffffffffffffff9091169081906301e64725906024015b60206040518083038186803b158015611e7c57600080fd5b505afa158015611e90573d6000803e3d6000fd5b505050506040513d601f19601f82011682018060405250810190611eb491906133b3565b1515600114611a76576040517f08c379a000000000000000000000000000000000000000000000000000000000815260206004820152601560248201527f6d696e74207265636f7264206e6f74206578697374000000000000000000000060448201526064016104ef565b50600480546040517f01e6472500000000000000000000000000000000000000000000000000000000815291820183905273ffffffffffffffffffffffffffffffffffffffff169081906301e647259060240160206040518083038186803b158015611f8a57600080fd5b505afa158015611f9e573d6000803e3d6000fd5b505050506040513d601f19601f82011682018060405250810190611fc291906133b3565b1515600114611a76576040517f08c379a000000000000000000000000000000000000000000000000000000000815260206004820152601960248201527f7769746864726177207265636f7264206e6f742065786973740000000000000060448201526064016104ef565b600561203c60208601866132c5565b600681111561204d5761204d612f51565b14806120765750600661206360208601866132c5565b600681111561207457612074612f51565b145b1561236857600561208a60208601866132c5565b600681111561209b5761209b612f51565b14156120c0575060055473ffffffffffffffffffffffffffffffffffffffff166120db565b5060065473ffffffffffffffffffffffffffffffffffffffff165b6120eb6060850160408601612c37565b6120fb6080860160608701612c37565b60808601356121106040880160208901612c37565b61212060e0890160c08a01613258565b604051606095861b7fffffffffffffffffffffffffffffffffffffffff000000000000000000000000908116602083015294861b85166034820152604881019390935290841b8316606883015260c01b7fffffffffffffffff00000000000000000000000000000000000000000000000016607c82015260e087013560848201529183901b1660a482015260b801604080517fffffffffffffffffffffffffffffffffffffffffffffffffffffffffffffffe08184030181529190528051602090910120915060056121f560208601866132c5565b600681111561220657612206612f51565b141561225f576040517f01e647250000000000000000000000000000000000000000000000000000000081526004810183905273ffffffffffffffffffffffffffffffffffffffff8216906301e6472590602401611e64565b6040517f01e647250000000000000000000000000000000000000000000000000000000081526004810183905273ffffffffffffffffffffffffffffffffffffffff8216906301e647259060240160206040518083038186803b1580156122c557600080fd5b505afa1580156122d9573d6000803e3d6000fd5b505050506040513d601f19601f820116820180604052508101906122fd91906133b3565b1515600114612368576040517f08c379a000000000000000000000000000000000000000000000000000000000815260206004820152601960248201527f7769746864726177207265636f7264206e6f742065786973740000000000000060448201526064016104ef565b6000818360405160200161237e939291906133ec565b6040516020818303038152906040528051906020012092505050919050565b6000805a90506000806123b66060880160408901612c37565b73ffffffffffffffffffffffffffffffffffffffff16347f7cd2bffc000000000000000000000000000000000000000000000000000000006123fe60408b0160208c01612c37565b61240e60808c0160608d01612c37565b60808c013561242360e08e0160c08f01613258565b8c8c3360405160240161243c9796959493929190613430565b604080517fffffffffffffffffffffffffffffffffffffffffffffffffffffffffffffffe08184030181529181526020820180517bffffffffffffffffffffffffffffffffffffffffffffffffffffffff167fffffffff000000000000000000000000000000000000000000000000000000009094169390931790925290516124c59190613496565b60006040518083038185875af1925050503d8060008114612502576040519150601f19603f3d011682016040523d82523d6000602084013e612507565b606091505b50915091508115612530578080602001905181019061252691906134b2565b9350505050612542565b61253a8382612b2d565b600093505050505b9392505050565b6000805a90506000806125626060880160408901612c37565b73ffffffffffffffffffffffffffffffffffffffff16347f5ab7afc6000000000000000000000000000000000000000000000000000000006123fe60408b0160208c01612c37565b6125ba6060820160408301612c37565b73ffffffffffffffffffffffffffffffffffffffff167fa635eb05143f74743822bbd96428928de4c8ee8cc578299749be9425c17bb34d6000858561260560e0870160c08801613258565b86610100013560405161261c9594939291906134d3565b60405180910390a2505050565b600182600681111561263d5761263d612f51565b14156126eb5760025473ffffffffffffffffffffffffffffffffffffffff1663cdd1b25d61266b83806132e6565b612678602086018661334b565b612685604088018861334b565b61269260608a018a61334b565b6040518963ffffffff1660e01b81526004016126b5989796959493929190613511565b600060405180830381600087803b1580156126cf57600080fd5b505af11580156126e3573d6000803e3d6000fd5b505050505050565b60028260068111156126ff576126ff612f51565b141561272d5760025473ffffffffffffffffffffffffffffffffffffffff1663a21a928061266b83806132e6565b600382600681111561274157612741612f51565b141561276f5760035473ffffffffffffffffffffffffffffffffffffffff1663f873430261266b83806132e6565b600582600681111561278357612783612f51565b14156128525760055473ffffffffffffffffffffffffffffffffffffffff1663f87343026127b183806132e6565b6127be602086018661334b565b6127cb604088018861334b565b6127d860608a018a61334b565b6040518963ffffffff1660e01b81526004016127fb989796959493929190613511565b602060405180830381600087803b15801561281557600080fd5b505af1158015612829573d6000803e3d6000fd5b505050506040513d601f19601f8201168201806040525081019061284d9190613571565b505050565b600482600681111561286657612866612f51565b14156128945760045473ffffffffffffffffffffffffffffffffffffffff1663a21a928061266b83806132e6565b60068260068111156128a8576128a8612f51565b14156109d95760065473ffffffffffffffffffffffffffffffffffffffff1663a21a92806127b183806132e6565b600060016128e76020860186612c37565b6128f76040870160208801612c37565b6129076060880160408901613258565b876060013546888860405160200161292698979695949392919061358a565b6040516020818303038152906040528051906020012090509392505050565b6000805a905060008061295e6040880160208901612c37565b73ffffffffffffffffffffffffffffffffffffffff16347f9c649fdf000000000000000000000000000000000000000000000000000000006129a360208b018b612c37565b6129b360608c0160408d01613258565b8a8a3360405160240161243c959493929190613629565b6129da6040820160208301612c37565b73ffffffffffffffffffffffffffffffffffffffff167fa635eb05143f74743822bbd96428928de4c8ee8cc578299749be9425c17bb34d60018585612a256060870160408801613258565b866060013560405161261c9594939291906134d3565b6000805a9050600080612a546060880160408901612c37565b73ffffffffffffffffffffffffffffffffffffffff16347f0bcb498200000000000000000000000000000000000000000000000000000000612a9c60808b0160608c01612c37565b8a608001358a8a3360405160240161243c95949392919061367f565b6000805473ffffffffffffffffffffffffffffffffffffffff8381167fffffffffffffffffffffffff0000000000000000000000000000000000000000831681178455604051919092169283917f8be0079c531659141344cd1fd0a4f28419497f9722a3daafe3b4186f6b6457e09190a35050565b60005a9050600060075445612b4291906136b6565b90508084108015612b5d5750612b596040856136f4565b8211155b15612b6457fe5b7fffdd6142bbb721f3400e3908b04b86f60649b2e4d191e3f4c50c32c3e6471d2f612b8e84612ba9565b604051612b9b919061372f565b60405180910390a150505050565b6060604482511015612bee57505060408051808201909152601d81527f5472616e73616374696f6e2072657665727465642073696c656e746c79000000602082015290565b60048201915081806020019051810190612c089190613771565b92915050565b803573ffffffffffffffffffffffffffffffffffffffff81168114612c3257600080fd5b919050565b600060208284031215612c4957600080fd5b61254282612c0e565b60008083601f840112612c6457600080fd5b50813567ffffffffffffffff811115612c7c57600080fd5b602083019150836020828501011115612c9457600080fd5b9250929050565b60008083601f840112612cad57600080fd5b50813567ffffffffffffffff811115612cc557600080fd5b6020830191508360208260051b8501011115612c9457600080fd5b6000806000806000806000806000898b036101a0811215612d0057600080fd5b8a3567ffffffffffffffff80821115612d1857600080fd5b612d248e838f01612c52565b909c509a508a91506101207fffffffffffffffffffffffffffffffffffffffffffffffffffffffffffffffe084011215612d5d57600080fd5b60208d0199506101408d0135925080831115612d7857600080fd5b612d848e848f01612c9b565b90995097506101608d0135925088915080831115612da157600080fd5b612dad8e848f01612c9b565b90975095506101808d0135925086915080831115612dca57600080fd5b5050612dd88c828d01612c9b565b915080935050809150509295985092959850929598565b600060808284031215612e0157600080fd5b50919050565b60008060408385031215612e1a57600080fd5b823567ffffffffffffffff80821115612e3257600080fd5b612e3e86838701612def565b93506020850135915080821115612e5457600080fd5b5083016101a08186031215612e6857600080fd5b809150509250929050565b600060208284031215612e8557600080fd5b5035919050565b60008060008060008060008060006101008a8c031215612eab57600080fd5b893567ffffffffffffffff80821115612ec357600080fd5b612ecf8d838e01612c52565b909b509950899150612ee48d60208e01612def565b985060a08c0135915080821115612efa57600080fd5b612f068d838e01612c9b565b909850965060c08c0135915080821115612f1f57600080fd5b612f2b8d838e01612c9b565b909650945060e08c0135915080821115612f4457600080fd5b50612dd88c828d01612c9b565b7f4e487b7100000000000000000000000000000000000000000000000000000000600052602160045260246000fd5b60058110612f9057612f90612f51565b9052565b60208101612c088284612f80565b8581528460208201528284604083013760409201918201526060019392505050565b60005b83811015612fdf578181015183820152602001612fc7565b83811115612fee576000848401525b50505050565b6000815180845261300c816020860160208601612fc4565b601f017fffffffffffffffffffffffffffffffffffffffffffffffffffffffffffffffe0169290920160200192915050565b8183528181602085013750600060208284010152600060207fffffffffffffffffffffffffffffffffffffffffffffffffffffffffffffffe0601f840116840101905092915050565b60008383855260208086019550808560051b8301018460005b8781101561314a577fffffffffffffffffffffffffffffffffffffffffffffffffffffffffffffffe085840301895281357fffffffffffffffffffffffffffffffffffffffffffffffffffffffffffffffe188360301811261310157600080fd5b8701803567ffffffffffffffff81111561311a57600080fd5b80360389131561312957600080fd5b613136858288850161303e565b9a86019a94505050908301906001016130a0565b5090979650505050505050565b8183526000602080850194508260005b858110156131a05773ffffffffffffffffffffffffffffffffffffffff61318d83612c0e565b1687529582019590820190600101613167565b509495945050505050565b81835260007f07ffffffffffffffffffffffffffffffffffffffffffffffffffffffffffffff8311156131dd57600080fd5b8260051b8083602087013760009401602001938452509192915050565b60808152600061320d608083018a612ff4565b828103602084015261322081898b613087565b90508281036040840152613235818789613157565b9050828103606084015261324a8185876131ab565b9a9950505050505050505050565b60006020828403121561326a57600080fd5b813567ffffffffffffffff8116811461254257600080fd5b60028110612f9057612f90612f51565b608081016132a08287613282565b84602083015267ffffffffffffffff8416604083015282606083015295945050505050565b6000602082840312156132d757600080fd5b81356007811061254257600080fd5b60008083357fffffffffffffffffffffffffffffffffffffffffffffffffffffffffffffffe184360301811261331b57600080fd5b83018035915067ffffffffffffffff82111561333657600080fd5b602001915036819003821315612c9457600080fd5b60008083357fffffffffffffffffffffffffffffffffffffffffffffffffffffffffffffffe184360301811261338057600080fd5b83018035915067ffffffffffffffff82111561339b57600080fd5b6020019150600581901b3603821315612c9457600080fd5b6000602082840312156133c557600080fd5b8151801515811461254257600080fd5b600281106133e5576133e5612f51565b60f81b9052565b6133f681856133d5565b60609290921b7fffffffffffffffffffffffffffffffffffffffff0000000000000000000000001660018301526015820152603501919050565b600073ffffffffffffffffffffffffffffffffffffffff808a168352808916602084015287604084015267ffffffffffffffff8716606084015260c0608084015261347f60c08401868861303e565b915080841660a08401525098975050505050505050565b600082516134a8818460208701612fc4565b9190910192915050565b6000602082840312156134c457600080fd5b81516003811061254257600080fd5b60a081016134e18288613282565b8560208301526134f46040830186612f80565b67ffffffffffffffff939093166060820152608001529392505050565b608081526000613525608083018a8c61303e565b828103602084015261353881898b613087565b9050828103604084015261354d818789613157565b905082810360608401526135628185876131ab565b9b9a5050505050505050505050565b60006020828403121561358357600080fd5b5051919050565b613594818a6133d5565b60007fffffffffffffffffffffffffffffffffffffffff000000000000000000000000808a60601b166001840152808960601b166015840152507fffffffffffffffff000000000000000000000000000000000000000000000000808860c01b166029840152866031840152808660c01b16605184015250828460598401375060009101605901908152979650505050505050565b600073ffffffffffffffffffffffffffffffffffffffff808816835267ffffffffffffffff871660208401526080604084015261366a60808401868861303e565b91508084166060840152509695505050505050565b600073ffffffffffffffffffffffffffffffffffffffff80881683528660208401526080604084015261366a60808401868861303e565b6000828210156136ef577f4e487b7100000000000000000000000000000000000000000000000000000000600052601160045260246000fd5b500390565b60008261372a577f4e487b7100000000000000000000000000000000000000000000000000000000600052601260045260246000fd5b500490565b6020815260006125426020830184612ff4565b7f4e487b7100000000000000000000000000000000000000000000000000000000600052604160045260246000fd5b60006020828403121561378357600080fd5b815167ffffffffffffffff8082111561379b57600080fd5b818401915084601f8301126137af57600080fd5b8151818111156137c1576137c1613742565b604051601f82017fffffffffffffffffffffffffffffffffffffffffffffffffffffffffffffffe0908116603f0116810190838211818310171561380757613807613742565b8160405282815287602084870101111561382057600080fd5b613831836020830160208801612fc4565b97965050505050505056fea26469706673582212207696d2741aa03d2073f910d946361cfe41ab85572d22dd1665a3a6c867da50ff64736f6c63430008090033","opcodes":"PUSH1 0x80 PUSH1 0x40 MSTORE CALLVALUE DUP1 ISZERO PUSH3 0x11 JUMPI PUSH1 0x0 DUP1 REVERT JUMPDEST POP PUSH1 0x40 MLOAD PUSH3 0x3A01 CODESIZE SUB DUP1 PUSH3 0x3A01 DUP4 CODECOPY DUP2 ADD PUSH1 0x40 DUP2 SWAP1 MSTORE PUSH3 0x34 SWAP2 PUSH3 0x10F JUMP JUMPDEST PUSH3 0x3F CALLER PUSH3 0xA2 JUMP JUMPDEST PUSH1 0x2 DUP1 SLOAD PUSH1 0x1 PUSH1 0x1 PUSH1 0xA0 SHL SUB NOT SWAP1 DUP2 AND PUSH1 0x1 PUSH1 0x1 PUSH1 0xA0 SHL SUB SWAP8 DUP9 AND OR SWAP1 SWAP2 SSTORE PUSH1 0x3 DUP1 SLOAD DUP3 AND SWAP6 DUP8 AND SWAP6 SWAP1 SWAP6 OR SWAP1 SWAP5 SSTORE PUSH1 0x4 DUP1 SLOAD DUP6 AND SWAP4 DUP7 AND SWAP4 SWAP1 SWAP4 OR SWAP1 SWAP3 SSTORE PUSH1 0x5 DUP1 SLOAD DUP5 AND SWAP2 DUP6 AND SWAP2 SWAP1 SWAP2 OR SWAP1 SSTORE PUSH1 0x6 DUP1 SLOAD SWAP1 SWAP3 AND SWAP3 AND SWAP2 SWAP1 SWAP2 OR SWAP1 SSTORE PUSH3 0x17F JUMP JUMPDEST PUSH1 0x0 DUP1 SLOAD PUSH1 0x1 PUSH1 0x1 PUSH1 0xA0 SHL SUB DUP4 DUP2 AND PUSH1 0x1 PUSH1 0x1 PUSH1 0xA0 SHL SUB NOT DUP4 AND DUP2 OR DUP5 SSTORE PUSH1 0x40 MLOAD SWAP2 SWAP1 SWAP3 AND SWAP3 DUP4 SWAP2 PUSH32 0x8BE0079C531659141344CD1FD0A4F28419497F9722A3DAAFE3B4186F6B6457E0 SWAP2 SWAP1 LOG3 POP POP JUMP JUMPDEST DUP1 MLOAD PUSH1 0x1 PUSH1 0x1 PUSH1 0xA0 SHL SUB DUP2 AND DUP2 EQ PUSH3 0x10A JUMPI PUSH1 0x0 DUP1 REVERT JUMPDEST SWAP2 SWAP1 POP JUMP JUMPDEST PUSH1 0x0 DUP1 PUSH1 0x0 DUP1 PUSH1 0x0 PUSH1 0xA0 DUP7 DUP9 SUB SLT ISZERO PUSH3 0x128 JUMPI PUSH1 0x0 DUP1 REVERT JUMPDEST PUSH3 0x133 DUP7 PUSH3 0xF2 JUMP JUMPDEST SWAP5 POP PUSH3 0x143 PUSH1 0x20 DUP8 ADD PUSH3 0xF2 JUMP JUMPDEST SWAP4 POP PUSH3 0x153 PUSH1 0x40 DUP8 ADD PUSH3 0xF2 JUMP JUMPDEST SWAP3 POP PUSH3 0x163 PUSH1 0x60 DUP8 ADD PUSH3 0xF2 JUMP JUMPDEST SWAP2 POP PUSH3 0x173 PUSH1 0x80 DUP8 ADD PUSH3 0xF2 JUMP JUMPDEST SWAP1 POP SWAP3 SWAP6 POP SWAP3 SWAP6 SWAP1 SWAP4 POP JUMP JUMPDEST PUSH2 0x3872 DUP1 PUSH3 0x18F PUSH1 0x0 CODECOPY PUSH1 0x0 RETURN INVALID PUSH1 0x80 PUSH1 0x40 MSTORE PUSH1 0x4 CALLDATASIZE LT PUSH2 0x15F JUMPI PUSH1 0x0 CALLDATALOAD PUSH1 0xE0 SHR DUP1 PUSH4 0x82EFD502 GT PUSH2 0xC0 JUMPI DUP1 PUSH4 0xCD2ABD66 GT PUSH2 0x74 JUMPI DUP1 PUSH4 0xDFA2DBAF GT PUSH2 0x59 JUMPI DUP1 PUSH4 0xDFA2DBAF EQ PUSH2 0x3E9 JUMPI DUP1 PUSH4 0xF2FDE38B EQ PUSH2 0x416 JUMPI DUP1 PUSH4 0xF83B0FB9 EQ PUSH2 0x436 JUMPI PUSH1 0x0 DUP1 REVERT JUMPDEST DUP1 PUSH4 0xCD2ABD66 EQ PUSH2 0x37F JUMPI DUP1 PUSH4 0xD8257D17 EQ PUSH2 0x3BC JUMPI PUSH1 0x0 DUP1 REVERT JUMPDEST DUP1 PUSH4 0x95B12C27 GT PUSH2 0xA5 JUMPI DUP1 PUSH4 0x95B12C27 EQ PUSH2 0x305 JUMPI DUP1 PUSH4 0x9B05A775 EQ PUSH2 0x332 JUMPI DUP1 PUSH4 0xC66A9C5A EQ PUSH2 0x352 JUMPI PUSH1 0x0 DUP1 REVERT JUMPDEST DUP1 PUSH4 0x82EFD502 EQ PUSH2 0x2BA JUMPI DUP1 PUSH4 0x8DA5CB5B EQ PUSH2 0x2DA JUMPI PUSH1 0x0 DUP1 REVERT JUMPDEST DUP1 PUSH4 0x584E45E1 GT PUSH2 0x117 JUMPI DUP1 PUSH4 0x723D0A9D GT PUSH2 0xFC JUMPI DUP1 PUSH4 0x723D0A9D EQ PUSH2 0x235 JUMPI DUP1 PUSH4 0x7B80AB20 EQ PUSH2 0x255 JUMPI DUP1 PUSH4 0x82980DC4 EQ PUSH2 0x268 JUMPI PUSH1 0x0 DUP1 REVERT JUMPDEST DUP1 PUSH4 0x584E45E1 EQ PUSH2 0x1EC JUMPI DUP1 PUSH4 0x588BE02B EQ PUSH2 0x215 JUMPI PUSH1 0x0 DUP1 REVERT JUMPDEST DUP1 PUSH4 0x40D0D026 GT PUSH2 0x148 JUMPI DUP1 PUSH4 0x40D0D026 EQ PUSH2 0x199 JUMPI DUP1 PUSH4 0x4586F331 EQ PUSH2 0x1B9 JUMPI DUP1 PUSH4 0x468A2D04 EQ PUSH2 0x1D9 JUMPI PUSH1 0x0 DUP1 REVERT JUMPDEST DUP1 PUSH4 0x3CBFE66 EQ PUSH2 0x164 JUMPI DUP1 PUSH4 0x3F395AFF EQ PUSH2 0x186 JUMPI JUMPDEST PUSH1 0x0 DUP1 REVERT JUMPDEST CALLVALUE DUP1 ISZERO PUSH2 0x170 JUMPI PUSH1 0x0 DUP1 REVERT JUMPDEST POP PUSH2 0x184 PUSH2 0x17F CALLDATASIZE PUSH1 0x4 PUSH2 0x2C37 JUMP JUMPDEST PUSH2 0x456 JUMP JUMPDEST STOP JUMPDEST PUSH2 0x184 PUSH2 0x194 CALLDATASIZE PUSH1 0x4 PUSH2 0x2CE0 JUMP JUMPDEST PUSH2 0x5EF JUMP JUMPDEST CALLVALUE DUP1 ISZERO PUSH2 0x1A5 JUMPI PUSH1 0x0 DUP1 REVERT JUMPDEST POP PUSH2 0x184 PUSH2 0x1B4 CALLDATASIZE PUSH1 0x4 PUSH2 0x2E07 JUMP JUMPDEST PUSH2 0x985 JUMP JUMPDEST CALLVALUE DUP1 ISZERO PUSH2 0x1C5 JUMPI PUSH1 0x0 DUP1 REVERT JUMPDEST POP PUSH2 0x184 PUSH2 0x1D4 CALLDATASIZE PUSH1 0x4 PUSH2 0x2E73 JUMP JUMPDEST PUSH2 0x9DD JUMP JUMPDEST PUSH2 0x184 PUSH2 0x1E7 CALLDATASIZE PUSH1 0x4 PUSH2 0x2E8C JUMP JUMPDEST PUSH2 0xA7F JUMP JUMPDEST CALLVALUE DUP1 ISZERO PUSH2 0x1F8 JUMPI PUSH1 0x0 DUP1 REVERT JUMPDEST POP PUSH2 0x202 PUSH1 0x7 SLOAD DUP2 JUMP JUMPDEST PUSH1 0x40 MLOAD SWAP1 DUP2 MSTORE PUSH1 0x20 ADD JUMPDEST PUSH1 0x40 MLOAD DUP1 SWAP2 SUB SWAP1 RETURN JUMPDEST CALLVALUE DUP1 ISZERO PUSH2 0x221 JUMPI PUSH1 0x0 DUP1 REVERT JUMPDEST POP PUSH2 0x184 PUSH2 0x230 CALLDATASIZE PUSH1 0x4 PUSH2 0x2C37 JUMP JUMPDEST PUSH2 0xDCA JUMP JUMPDEST CALLVALUE DUP1 ISZERO PUSH2 0x241 JUMPI PUSH1 0x0 DUP1 REVERT JUMPDEST POP PUSH2 0x184 PUSH2 0x250 CALLDATASIZE PUSH1 0x4 PUSH2 0x2E07 JUMP JUMPDEST PUSH2 0xF57 JUMP JUMPDEST PUSH2 0x184 PUSH2 0x263 CALLDATASIZE PUSH1 0x4 PUSH2 0x2CE0 JUMP JUMPDEST PUSH2 0xFA5 JUMP JUMPDEST CALLVALUE DUP1 ISZERO PUSH2 0x274 JUMPI PUSH1 0x0 DUP1 REVERT JUMPDEST POP PUSH1 0x2 SLOAD PUSH2 0x295 SWAP1 PUSH20 0xFFFFFFFFFFFFFFFFFFFFFFFFFFFFFFFFFFFFFFFF AND DUP2 JUMP JUMPDEST PUSH1 0x40 MLOAD PUSH20 0xFFFFFFFFFFFFFFFFFFFFFFFFFFFFFFFFFFFFFFFF SWAP1 SWAP2 AND DUP2 MSTORE PUSH1 0x20 ADD PUSH2 0x20C JUMP JUMPDEST CALLVALUE DUP1 ISZERO PUSH2 0x2C6 JUMPI PUSH1 0x0 DUP1 REVERT JUMPDEST POP PUSH2 0x184 PUSH2 0x2D5 CALLDATASIZE PUSH1 0x4 PUSH2 0x2C37 JUMP JUMPDEST PUSH2 0x123B JUMP JUMPDEST CALLVALUE DUP1 ISZERO PUSH2 0x2E6 JUMPI PUSH1 0x0 DUP1 REVERT JUMPDEST POP PUSH1 0x0 SLOAD PUSH20 0xFFFFFFFFFFFFFFFFFFFFFFFFFFFFFFFFFFFFFFFF AND PUSH2 0x295 JUMP JUMPDEST CALLVALUE DUP1 ISZERO PUSH2 0x311 JUMPI PUSH1 0x0 DUP1 REVERT JUMPDEST POP PUSH1 0x5 SLOAD PUSH2 0x295 SWAP1 PUSH20 0xFFFFFFFFFFFFFFFFFFFFFFFFFFFFFFFFFFFFFFFF AND DUP2 JUMP JUMPDEST CALLVALUE DUP1 ISZERO PUSH2 0x33E JUMPI PUSH1 0x0 DUP1 REVERT JUMPDEST POP PUSH2 0x184 PUSH2 0x34D CALLDATASIZE PUSH1 0x4 PUSH2 0x2C37 JUMP JUMPDEST PUSH2 0x13C8 JUMP JUMPDEST CALLVALUE DUP1 ISZERO PUSH2 0x35E JUMPI PUSH1 0x0 DUP1 REVERT JUMPDEST POP PUSH1 0x6 SLOAD PUSH2 0x295 SWAP1 PUSH20 0xFFFFFFFFFFFFFFFFFFFFFFFFFFFFFFFFFFFFFFFF AND DUP2 JUMP JUMPDEST CALLVALUE DUP1 ISZERO PUSH2 0x38B JUMPI PUSH1 0x0 DUP1 REVERT JUMPDEST POP PUSH2 0x3AF PUSH2 0x39A CALLDATASIZE PUSH1 0x4 PUSH2 0x2E73 JUMP JUMPDEST PUSH1 0x1 PUSH1 0x20 MSTORE PUSH1 0x0 SWAP1 DUP2 MSTORE PUSH1 0x40 SWAP1 KECCAK256 SLOAD PUSH1 0xFF AND DUP2 JUMP JUMPDEST PUSH1 0x40 MLOAD PUSH2 0x20C SWAP2 SWAP1 PUSH2 0x2F94 JUMP JUMPDEST CALLVALUE DUP1 ISZERO PUSH2 0x3C8 JUMPI PUSH1 0x0 DUP1 REVERT JUMPDEST POP PUSH1 0x4 SLOAD PUSH2 0x295 SWAP1 PUSH20 0xFFFFFFFFFFFFFFFFFFFFFFFFFFFFFFFFFFFFFFFF AND DUP2 JUMP JUMPDEST CALLVALUE DUP1 ISZERO PUSH2 0x3F5 JUMPI PUSH1 0x0 DUP1 REVERT JUMPDEST POP PUSH1 0x3 SLOAD PUSH2 0x295 SWAP1 PUSH20 0xFFFFFFFFFFFFFFFFFFFFFFFFFFFFFFFFFFFFFFFF AND DUP2 JUMP JUMPDEST CALLVALUE DUP1 ISZERO PUSH2 0x422 JUMPI PUSH1 0x0 DUP1 REVERT JUMPDEST POP PUSH2 0x184 PUSH2 0x431 CALLDATASIZE PUSH1 0x4 PUSH2 0x2C37 JUMP JUMPDEST PUSH2 0x1555 JUMP JUMPDEST CALLVALUE DUP1 ISZERO PUSH2 0x442 JUMPI PUSH1 0x0 DUP1 REVERT JUMPDEST POP PUSH2 0x184 PUSH2 0x451 CALLDATASIZE PUSH1 0x4 PUSH2 0x2C37 JUMP JUMPDEST PUSH2 0x16A1 JUMP JUMPDEST CALLER PUSH2 0x476 PUSH1 0x0 SLOAD PUSH20 0xFFFFFFFFFFFFFFFFFFFFFFFFFFFFFFFFFFFFFFFF AND SWAP1 JUMP JUMPDEST PUSH20 0xFFFFFFFFFFFFFFFFFFFFFFFFFFFFFFFFFFFFFFFF AND EQ PUSH2 0x4F8 JUMPI PUSH1 0x40 MLOAD PUSH32 0x8C379A000000000000000000000000000000000000000000000000000000000 DUP2 MSTORE PUSH1 0x20 PUSH1 0x4 DUP3 ADD DUP2 SWAP1 MSTORE PUSH1 0x24 DUP3 ADD MSTORE PUSH32 0x4F776E61626C653A2063616C6C6572206973206E6F7420746865206F776E6572 PUSH1 0x44 DUP3 ADD MSTORE PUSH1 0x64 ADD JUMPDEST PUSH1 0x40 MLOAD DUP1 SWAP2 SUB SWAP1 REVERT JUMPDEST PUSH20 0xFFFFFFFFFFFFFFFFFFFFFFFFFFFFFFFFFFFFFFFF DUP2 AND PUSH2 0x575 JUMPI PUSH1 0x40 MLOAD PUSH32 0x8C379A000000000000000000000000000000000000000000000000000000000 DUP2 MSTORE PUSH1 0x20 PUSH1 0x4 DUP3 ADD MSTORE PUSH1 0xF PUSH1 0x24 DUP3 ADD MSTORE PUSH32 0x696E76616C696420616464726573730000000000000000000000000000000000 PUSH1 0x44 DUP3 ADD MSTORE PUSH1 0x64 ADD PUSH2 0x4EF JUMP JUMPDEST PUSH1 0x3 DUP1 SLOAD PUSH32 0xFFFFFFFFFFFFFFFFFFFFFFFF0000000000000000000000000000000000000000 AND PUSH20 0xFFFFFFFFFFFFFFFFFFFFFFFFFFFFFFFFFFFFFFFF DUP4 AND SWAP1 DUP2 OR SWAP1 SWAP2 SSTORE PUSH1 0x40 MLOAD SWAP1 DUP2 MSTORE PUSH32 0xD60E9CEB4F54F1BFB1741A4B35FC9D806D7ED48200B523203B92248EA38FA17D SWAP1 PUSH1 0x20 ADD JUMPDEST PUSH1 0x40 MLOAD DUP1 SWAP2 SUB SWAP1 LOG1 POP JUMP JUMPDEST PUSH1 0x0 PUSH2 0x5FA DUP9 PUSH2 0x182E JUMP JUMPDEST SWAP1 POP PUSH1 0x0 DUP1 DUP3 DUP2 MSTORE PUSH1 0x1 PUSH1 0x20 MSTORE PUSH1 0x40 SWAP1 KECCAK256 SLOAD PUSH1 0xFF AND PUSH1 0x4 DUP2 GT ISZERO PUSH2 0x620 JUMPI PUSH2 0x620 PUSH2 0x2F51 JUMP JUMPDEST EQ PUSH2 0x687 JUMPI PUSH1 0x40 MLOAD PUSH32 0x8C379A000000000000000000000000000000000000000000000000000000000 DUP2 MSTORE PUSH1 0x20 PUSH1 0x4 DUP3 ADD MSTORE PUSH1 0x19 PUSH1 0x24 DUP3 ADD MSTORE PUSH32 0x7472616E7366657220616C726561647920657865637574656400000000000000 PUSH1 0x44 DUP3 ADD MSTORE PUSH1 0x64 ADD PUSH2 0x4EF JUMP JUMPDEST PUSH1 0x0 DUP2 DUP2 MSTORE PUSH1 0x1 PUSH1 0x20 SWAP1 DUP2 MSTORE PUSH1 0x40 DUP1 DUP4 KECCAK256 DUP1 SLOAD PUSH32 0xFFFFFFFFFFFFFFFFFFFFFFFFFFFFFFFFFFFFFFFFFFFFFFFFFFFFFFFFFFFFFF00 AND PUSH1 0x4 OR SWAP1 SSTORE DUP1 MLOAD CHAINID SWAP3 DUP2 ADD SWAP3 SWAP1 SWAP3 MSTORE PUSH32 0xFFFFFFFFFFFFFFFFFFFFFFFFFFFFFFFFFFFFFFFF000000000000000000000000 ADDRESS PUSH1 0x60 SHL AND SWAP1 DUP3 ADD MSTORE PUSH32 0x4D657373616765576974685472616E7366657200000000000000000000000000 PUSH1 0x54 DUP3 ADD MSTORE PUSH1 0x67 ADD PUSH1 0x40 MLOAD PUSH1 0x20 DUP2 DUP4 SUB SUB DUP2 MSTORE SWAP1 PUSH1 0x40 MSTORE DUP1 MLOAD SWAP1 PUSH1 0x20 ADD KECCAK256 SWAP1 POP PUSH1 0x2 PUSH1 0x0 SWAP1 SLOAD SWAP1 PUSH2 0x100 EXP SWAP1 DIV PUSH20 0xFFFFFFFFFFFFFFFFFFFFFFFFFFFFFFFFFFFFFFFF AND PUSH20 0xFFFFFFFFFFFFFFFFFFFFFFFFFFFFFFFFFFFFFFFF AND PUSH4 0x682DBC22 DUP3 DUP5 DUP15 DUP15 DUP15 PUSH2 0x100 ADD CALLDATALOAD PUSH1 0x40 MLOAD PUSH1 0x20 ADD PUSH2 0x792 SWAP6 SWAP5 SWAP4 SWAP3 SWAP2 SWAP1 PUSH2 0x2FA2 JUMP JUMPDEST PUSH1 0x40 MLOAD PUSH1 0x20 DUP2 DUP4 SUB SUB DUP2 MSTORE SWAP1 PUSH1 0x40 MSTORE DUP11 DUP11 DUP11 DUP11 DUP11 DUP11 PUSH1 0x40 MLOAD DUP9 PUSH4 0xFFFFFFFF AND PUSH1 0xE0 SHL DUP2 MSTORE PUSH1 0x4 ADD PUSH2 0x7C9 SWAP8 SWAP7 SWAP6 SWAP5 SWAP4 SWAP3 SWAP2 SWAP1 PUSH2 0x31FA JUMP JUMPDEST PUSH1 0x0 PUSH1 0x40 MLOAD DUP1 DUP4 SUB DUP2 DUP7 DUP1 EXTCODESIZE ISZERO DUP1 ISZERO PUSH2 0x7E1 JUMPI PUSH1 0x0 DUP1 REVERT JUMPDEST POP GAS STATICCALL ISZERO DUP1 ISZERO PUSH2 0x7F5 JUMPI RETURNDATASIZE PUSH1 0x0 DUP1 RETURNDATACOPY RETURNDATASIZE PUSH1 0x0 REVERT JUMPDEST POP POP POP POP PUSH1 0x0 DUP1 PUSH2 0x807 DUP12 DUP15 DUP15 PUSH2 0x239D JUMP JUMPDEST SWAP1 POP PUSH1 0x1 DUP2 PUSH1 0x2 DUP2 GT ISZERO PUSH2 0x81D JUMPI PUSH2 0x81D PUSH2 0x2F51 JUMP JUMPDEST EQ ISZERO PUSH2 0x82C JUMPI PUSH1 0x1 SWAP2 POP PUSH2 0x919 JUMP JUMPDEST PUSH1 0x2 DUP2 PUSH1 0x2 DUP2 GT ISZERO PUSH2 0x840 JUMPI PUSH2 0x840 PUSH2 0x2F51 JUMP JUMPDEST EQ ISZERO PUSH2 0x8E4 JUMPI PUSH1 0x0 DUP5 DUP2 MSTORE PUSH1 0x1 PUSH1 0x20 DUP2 SWAP1 MSTORE PUSH1 0x40 DUP3 KECCAK256 DUP1 SLOAD SWAP1 SWAP2 PUSH32 0xFFFFFFFFFFFFFFFFFFFFFFFFFFFFFFFFFFFFFFFFFFFFFFFFFFFFFFFFFFFFFF00 SWAP1 SWAP2 AND SWAP1 DUP4 JUMPDEST MUL OR SWAP1 SSTORE POP PUSH32 0xE49C2C954D381D1448CF824743AEFF9DA7A1D82078A7C9E5817269CC359BD26C PUSH1 0x0 DUP6 DUP14 PUSH1 0xC0 ADD PUSH1 0x20 DUP2 ADD SWAP1 PUSH2 0x8BD SWAP2 SWAP1 PUSH2 0x3258 JUMP JUMPDEST DUP15 PUSH2 0x100 ADD CALLDATALOAD PUSH1 0x40 MLOAD PUSH2 0x8D3 SWAP5 SWAP4 SWAP3 SWAP2 SWAP1 PUSH2 0x3292 JUMP JUMPDEST PUSH1 0x40 MLOAD DUP1 SWAP2 SUB SWAP1 LOG1 POP POP POP POP PUSH2 0x97A JUMP JUMPDEST PUSH2 0x8EF DUP12 DUP15 DUP15 PUSH2 0x2549 JUMP JUMPDEST SWAP1 POP PUSH1 0x1 DUP2 PUSH1 0x2 DUP2 GT ISZERO PUSH2 0x905 JUMPI PUSH2 0x905 PUSH2 0x2F51 JUMP JUMPDEST EQ ISZERO PUSH2 0x914 JUMPI PUSH1 0x3 SWAP2 POP PUSH2 0x919 JUMP JUMPDEST PUSH1 0x2 SWAP2 POP JUMPDEST PUSH1 0x0 DUP5 DUP2 MSTORE PUSH1 0x1 PUSH1 0x20 DUP2 SWAP1 MSTORE PUSH1 0x40 SWAP1 SWAP2 KECCAK256 DUP1 SLOAD DUP5 SWAP3 PUSH32 0xFFFFFFFFFFFFFFFFFFFFFFFFFFFFFFFFFFFFFFFFFFFFFFFFFFFFFFFFFFFFFF00 SWAP1 SWAP2 AND SWAP1 DUP4 PUSH1 0x4 DUP2 GT ISZERO PUSH2 0x965 JUMPI PUSH2 0x965 PUSH2 0x2F51 JUMP JUMPDEST MUL OR SWAP1 SSTORE POP PUSH2 0x975 DUP5 DUP4 DUP14 PUSH2 0x25AA JUMP JUMPDEST POP POP POP POP JUMPDEST POP POP POP POP POP POP POP POP POP JUMP JUMPDEST PUSH2 0x99E PUSH2 0x998 PUSH1 0x40 DUP4 ADD PUSH1 0x20 DUP5 ADD PUSH2 0x32C5 JUMP JUMPDEST DUP4 PUSH2 0x2629 JUMP JUMPDEST PUSH2 0x9D9 PUSH2 0x9AB DUP3 DUP1 PUSH2 0x32E6 JUMP JUMPDEST PUSH1 0x20 DUP5 ADD PUSH2 0x9BD PUSH2 0x140 DUP7 ADD DUP7 PUSH2 0x334B JUMP JUMPDEST PUSH2 0x9CB PUSH2 0x160 DUP9 ADD DUP9 PUSH2 0x334B JUMP JUMPDEST PUSH2 0x263 PUSH2 0x180 DUP11 ADD DUP11 PUSH2 0x334B JUMP JUMPDEST POP POP JUMP JUMPDEST CALLER PUSH2 0x9FD PUSH1 0x0 SLOAD PUSH20 0xFFFFFFFFFFFFFFFFFFFFFFFFFFFFFFFFFFFFFFFF AND SWAP1 JUMP JUMPDEST PUSH20 0xFFFFFFFFFFFFFFFFFFFFFFFFFFFFFFFFFFFFFFFF AND EQ PUSH2 0xA7A JUMPI PUSH1 0x40 MLOAD PUSH32 0x8C379A000000000000000000000000000000000000000000000000000000000 DUP2 MSTORE PUSH1 0x20 PUSH1 0x4 DUP3 ADD DUP2 SWAP1 MSTORE PUSH1 0x24 DUP3 ADD MSTORE PUSH32 0x4F776E61626C653A2063616C6C6572206973206E6F7420746865206F776E6572 PUSH1 0x44 DUP3 ADD MSTORE PUSH1 0x64 ADD PUSH2 0x4EF JUMP JUMPDEST PUSH1 0x7 SSTORE JUMP JUMPDEST PUSH1 0x0 PUSH2 0xA8C DUP9 DUP12 DUP12 PUSH2 0x28D6 JUMP JUMPDEST SWAP1 POP PUSH1 0x0 DUP1 DUP3 DUP2 MSTORE PUSH1 0x1 PUSH1 0x20 MSTORE PUSH1 0x40 SWAP1 KECCAK256 SLOAD PUSH1 0xFF AND PUSH1 0x4 DUP2 GT ISZERO PUSH2 0xAB2 JUMPI PUSH2 0xAB2 PUSH2 0x2F51 JUMP JUMPDEST EQ PUSH2 0xB19 JUMPI PUSH1 0x40 MLOAD PUSH32 0x8C379A000000000000000000000000000000000000000000000000000000000 DUP2 MSTORE PUSH1 0x20 PUSH1 0x4 DUP3 ADD MSTORE PUSH1 0x18 PUSH1 0x24 DUP3 ADD MSTORE PUSH32 0x6D65737361676520616C72656164792065786563757465640000000000000000 PUSH1 0x44 DUP3 ADD MSTORE PUSH1 0x64 ADD PUSH2 0x4EF JUMP JUMPDEST PUSH1 0x0 DUP2 DUP2 MSTORE PUSH1 0x1 PUSH1 0x20 SWAP1 DUP2 MSTORE PUSH1 0x40 DUP1 DUP4 KECCAK256 DUP1 SLOAD PUSH32 0xFFFFFFFFFFFFFFFFFFFFFFFFFFFFFFFFFFFFFFFFFFFFFFFFFFFFFFFFFFFFFF00 AND PUSH1 0x4 OR SWAP1 SSTORE DUP1 MLOAD CHAINID SWAP3 DUP2 ADD SWAP3 SWAP1 SWAP3 MSTORE PUSH32 0xFFFFFFFFFFFFFFFFFFFFFFFFFFFFFFFFFFFFFFFF000000000000000000000000 ADDRESS PUSH1 0x60 SHL AND SWAP1 DUP3 ADD MSTORE PUSH32 0x4D65737361676500000000000000000000000000000000000000000000000000 PUSH1 0x54 DUP3 ADD MSTORE PUSH1 0x5B ADD PUSH1 0x40 DUP1 MLOAD PUSH32 0xFFFFFFFFFFFFFFFFFFFFFFFFFFFFFFFFFFFFFFFFFFFFFFFFFFFFFFFFFFFFFFE0 DUP2 DUP5 SUB ADD DUP2 MSTORE DUP3 DUP3 MSTORE DUP1 MLOAD PUSH1 0x20 SWAP2 DUP3 ADD KECCAK256 PUSH1 0x2 SLOAD SWAP2 DUP5 ADD DUP2 SWAP1 MSTORE DUP4 DUP4 ADD DUP7 SWAP1 MSTORE DUP3 MLOAD DUP1 DUP6 SUB DUP5 ADD DUP2 MSTORE PUSH1 0x60 DUP6 ADD SWAP4 DUP5 SWAP1 MSTORE PUSH32 0x682DBC2200000000000000000000000000000000000000000000000000000000 SWAP1 SWAP4 MSTORE SWAP4 POP PUSH20 0xFFFFFFFFFFFFFFFFFFFFFFFFFFFFFFFFFFFFFFFF AND SWAP2 PUSH4 0x682DBC22 SWAP2 PUSH2 0xC61 SWAP2 DUP13 SWAP1 DUP13 SWAP1 DUP13 SWAP1 DUP13 SWAP1 DUP13 SWAP1 DUP13 SWAP1 PUSH1 0x64 ADD PUSH2 0x31FA JUMP JUMPDEST PUSH1 0x0 PUSH1 0x40 MLOAD DUP1 DUP4 SUB DUP2 DUP7 DUP1 EXTCODESIZE ISZERO DUP1 ISZERO PUSH2 0xC79 JUMPI PUSH1 0x0 DUP1 REVERT JUMPDEST POP GAS STATICCALL ISZERO DUP1 ISZERO PUSH2 0xC8D JUMPI RETURNDATASIZE PUSH1 0x0 DUP1 RETURNDATACOPY RETURNDATASIZE PUSH1 0x0 REVERT JUMPDEST POP POP POP POP PUSH1 0x0 DUP1 PUSH2 0xC9F DUP12 DUP15 DUP15 PUSH2 0x2945 JUMP JUMPDEST SWAP1 POP PUSH1 0x1 DUP2 PUSH1 0x2 DUP2 GT ISZERO PUSH2 0xCB5 JUMPI PUSH2 0xCB5 PUSH2 0x2F51 JUMP JUMPDEST EQ ISZERO PUSH2 0xCC4 JUMPI PUSH1 0x1 SWAP2 POP PUSH2 0xD6E JUMP JUMPDEST PUSH1 0x2 DUP2 PUSH1 0x2 DUP2 GT ISZERO PUSH2 0xCD8 JUMPI PUSH2 0xCD8 PUSH2 0x2F51 JUMP JUMPDEST EQ ISZERO PUSH2 0xD69 JUMPI PUSH1 0x0 DUP5 DUP2 MSTORE PUSH1 0x1 PUSH1 0x20 DUP2 SWAP1 MSTORE PUSH1 0x40 DUP3 KECCAK256 DUP1 SLOAD SWAP1 SWAP2 PUSH32 0xFFFFFFFFFFFFFFFFFFFFFFFFFFFFFFFFFFFFFFFFFFFFFFFFFFFFFFFFFFFFFF00 SWAP1 SWAP2 AND SWAP1 DUP4 MUL OR SWAP1 SSTORE POP PUSH32 0xE49C2C954D381D1448CF824743AEFF9DA7A1D82078A7C9E5817269CC359BD26C PUSH1 0x1 DUP6 DUP14 PUSH1 0x40 ADD PUSH1 0x20 DUP2 ADD SWAP1 PUSH2 0xD54 SWAP2 SWAP1 PUSH2 0x3258 JUMP JUMPDEST DUP15 PUSH1 0x60 ADD CALLDATALOAD PUSH1 0x40 MLOAD PUSH2 0x8D3 SWAP5 SWAP4 SWAP3 SWAP2 SWAP1 PUSH2 0x3292 JUMP JUMPDEST PUSH1 0x2 SWAP2 POP JUMPDEST PUSH1 0x0 DUP5 DUP2 MSTORE PUSH1 0x1 PUSH1 0x20 DUP2 SWAP1 MSTORE PUSH1 0x40 SWAP1 SWAP2 KECCAK256 DUP1 SLOAD DUP5 SWAP3 PUSH32 0xFFFFFFFFFFFFFFFFFFFFFFFFFFFFFFFFFFFFFFFFFFFFFFFFFFFFFFFFFFFFFF00 SWAP1 SWAP2 AND SWAP1 DUP4 PUSH1 0x4 DUP2 GT ISZERO PUSH2 0xDBA JUMPI PUSH2 0xDBA PUSH2 0x2F51 JUMP JUMPDEST MUL OR SWAP1 SSTORE POP PUSH2 0x975 DUP5 DUP4 DUP14 PUSH2 0x29CA JUMP JUMPDEST CALLER PUSH2 0xDEA PUSH1 0x0 SLOAD PUSH20 0xFFFFFFFFFFFFFFFFFFFFFFFFFFFFFFFFFFFFFFFF AND SWAP1 JUMP JUMPDEST PUSH20 0xFFFFFFFFFFFFFFFFFFFFFFFFFFFFFFFFFFFFFFFF AND EQ PUSH2 0xE67 JUMPI PUSH1 0x40 MLOAD PUSH32 0x8C379A000000000000000000000000000000000000000000000000000000000 DUP2 MSTORE PUSH1 0x20 PUSH1 0x4 DUP3 ADD DUP2 SWAP1 MSTORE PUSH1 0x24 DUP3 ADD MSTORE PUSH32 0x4F776E61626C653A2063616C6C6572206973206E6F7420746865206F776E6572 PUSH1 0x44 DUP3 ADD MSTORE PUSH1 0x64 ADD PUSH2 0x4EF JUMP JUMPDEST PUSH20 0xFFFFFFFFFFFFFFFFFFFFFFFFFFFFFFFFFFFFFFFF DUP2 AND PUSH2 0xEE4 JUMPI PUSH1 0x40 MLOAD PUSH32 0x8C379A000000000000000000000000000000000000000000000000000000000 DUP2 MSTORE PUSH1 0x20 PUSH1 0x4 DUP3 ADD MSTORE PUSH1 0xF PUSH1 0x24 DUP3 ADD MSTORE PUSH32 0x696E76616C696420616464726573730000000000000000000000000000000000 PUSH1 0x44 DUP3 ADD MSTORE PUSH1 0x64 ADD PUSH2 0x4EF JUMP JUMPDEST PUSH1 0x2 DUP1 SLOAD PUSH32 0xFFFFFFFFFFFFFFFFFFFFFFFF0000000000000000000000000000000000000000 AND PUSH20 0xFFFFFFFFFFFFFFFFFFFFFFFFFFFFFFFFFFFFFFFF DUP4 AND SWAP1 DUP2 OR SWAP1 SWAP2 SSTORE PUSH1 0x40 MLOAD SWAP1 DUP2 MSTORE PUSH32 0xBF9977180DC6E6CFF25598C8E59150CECD7F8E448E092633D38AB7EE223AE058 SWAP1 PUSH1 0x20 ADD PUSH2 0x5E4 JUMP JUMPDEST PUSH2 0xF6A PUSH2 0x998 PUSH1 0x40 DUP4 ADD PUSH1 0x20 DUP5 ADD PUSH2 0x32C5 JUMP JUMPDEST PUSH2 0x9D9 PUSH2 0xF77 DUP3 DUP1 PUSH2 0x32E6 JUMP JUMPDEST PUSH1 0x20 DUP5 ADD PUSH2 0xF89 PUSH2 0x140 DUP7 ADD DUP7 PUSH2 0x334B JUMP JUMPDEST PUSH2 0xF97 PUSH2 0x160 DUP9 ADD DUP9 PUSH2 0x334B JUMP JUMPDEST PUSH2 0x194 PUSH2 0x180 DUP11 ADD DUP11 PUSH2 0x334B JUMP JUMPDEST PUSH1 0x0 PUSH2 0xFB0 DUP9 PUSH2 0x182E JUMP JUMPDEST SWAP1 POP PUSH1 0x0 DUP1 DUP3 DUP2 MSTORE PUSH1 0x1 PUSH1 0x20 MSTORE PUSH1 0x40 SWAP1 KECCAK256 SLOAD PUSH1 0xFF AND PUSH1 0x4 DUP2 GT ISZERO PUSH2 0xFD6 JUMPI PUSH2 0xFD6 PUSH2 0x2F51 JUMP JUMPDEST EQ PUSH2 0x103D JUMPI PUSH1 0x40 MLOAD PUSH32 0x8C379A000000000000000000000000000000000000000000000000000000000 DUP2 MSTORE PUSH1 0x20 PUSH1 0x4 DUP3 ADD MSTORE PUSH1 0x19 PUSH1 0x24 DUP3 ADD MSTORE PUSH32 0x7472616E7366657220616C726561647920657865637574656400000000000000 PUSH1 0x44 DUP3 ADD MSTORE PUSH1 0x64 ADD PUSH2 0x4EF JUMP JUMPDEST PUSH1 0x0 DUP2 DUP2 MSTORE PUSH1 0x1 PUSH1 0x20 SWAP1 DUP2 MSTORE PUSH1 0x40 DUP1 DUP4 KECCAK256 DUP1 SLOAD PUSH32 0xFFFFFFFFFFFFFFFFFFFFFFFFFFFFFFFFFFFFFFFFFFFFFFFFFFFFFFFFFFFFFF00 AND PUSH1 0x4 OR SWAP1 SSTORE DUP1 MLOAD CHAINID SWAP3 DUP2 ADD SWAP3 SWAP1 SWAP3 MSTORE PUSH32 0xFFFFFFFFFFFFFFFFFFFFFFFFFFFFFFFFFFFFFFFF000000000000000000000000 ADDRESS PUSH1 0x60 SHL AND SWAP1 DUP3 ADD MSTORE PUSH32 0x4D657373616765576974685472616E73666572526566756E6400000000000000 PUSH1 0x54 DUP3 ADD MSTORE PUSH1 0x6D ADD PUSH1 0x40 MLOAD PUSH1 0x20 DUP2 DUP4 SUB SUB DUP2 MSTORE SWAP1 PUSH1 0x40 MSTORE DUP1 MLOAD SWAP1 PUSH1 0x20 ADD KECCAK256 SWAP1 POP PUSH1 0x2 PUSH1 0x0 SWAP1 SLOAD SWAP1 PUSH2 0x100 EXP SWAP1 DIV PUSH20 0xFFFFFFFFFFFFFFFFFFFFFFFFFFFFFFFFFFFFFFFF AND PUSH20 0xFFFFFFFFFFFFFFFFFFFFFFFFFFFFFFFFFFFFFFFF AND PUSH4 0x682DBC22 DUP3 DUP5 DUP15 DUP15 DUP15 PUSH2 0x100 ADD CALLDATALOAD PUSH1 0x40 MLOAD PUSH1 0x20 ADD PUSH2 0x1148 SWAP6 SWAP5 SWAP4 SWAP3 SWAP2 SWAP1 PUSH2 0x2FA2 JUMP JUMPDEST PUSH1 0x40 MLOAD PUSH1 0x20 DUP2 DUP4 SUB SUB DUP2 MSTORE SWAP1 PUSH1 0x40 MSTORE DUP11 DUP11 DUP11 DUP11 DUP11 DUP11 PUSH1 0x40 MLOAD DUP9 PUSH4 0xFFFFFFFF AND PUSH1 0xE0 SHL DUP2 MSTORE PUSH1 0x4 ADD PUSH2 0x117F SWAP8 SWAP7 SWAP6 SWAP5 SWAP4 SWAP3 SWAP2 SWAP1 PUSH2 0x31FA JUMP JUMPDEST PUSH1 0x0 PUSH1 0x40 MLOAD DUP1 DUP4 SUB DUP2 DUP7 DUP1 EXTCODESIZE ISZERO DUP1 ISZERO PUSH2 0x1197 JUMPI PUSH1 0x0 DUP1 REVERT JUMPDEST POP GAS STATICCALL ISZERO DUP1 ISZERO PUSH2 0x11AB JUMPI RETURNDATASIZE PUSH1 0x0 DUP1 RETURNDATACOPY RETURNDATASIZE PUSH1 0x0 REVERT JUMPDEST POP POP POP POP PUSH1 0x0 DUP1 PUSH2 0x11BD DUP12 DUP15 DUP15 PUSH2 0x2A3B JUMP JUMPDEST SWAP1 POP PUSH1 0x1 DUP2 PUSH1 0x2 DUP2 GT ISZERO PUSH2 0x11D3 JUMPI PUSH2 0x11D3 PUSH2 0x2F51 JUMP JUMPDEST EQ ISZERO PUSH2 0x11E2 JUMPI PUSH1 0x1 SWAP2 POP PUSH2 0x919 JUMP JUMPDEST PUSH1 0x2 DUP2 PUSH1 0x2 DUP2 GT ISZERO PUSH2 0x11F6 JUMPI PUSH2 0x11F6 PUSH2 0x2F51 JUMP JUMPDEST EQ ISZERO PUSH2 0x914 JUMPI PUSH1 0x0 DUP5 DUP2 MSTORE PUSH1 0x1 PUSH1 0x20 DUP2 SWAP1 MSTORE PUSH1 0x40 DUP3 KECCAK256 DUP1 SLOAD SWAP1 SWAP2 PUSH32 0xFFFFFFFFFFFFFFFFFFFFFFFFFFFFFFFFFFFFFFFFFFFFFFFFFFFFFFFFFFFFFF00 SWAP1 SWAP2 AND SWAP1 DUP4 PUSH2 0x881 JUMP JUMPDEST CALLER PUSH2 0x125B PUSH1 0x0 SLOAD PUSH20 0xFFFFFFFFFFFFFFFFFFFFFFFFFFFFFFFFFFFFFFFF AND SWAP1 JUMP JUMPDEST PUSH20 0xFFFFFFFFFFFFFFFFFFFFFFFFFFFFFFFFFFFFFFFF AND EQ PUSH2 0x12D8 JUMPI PUSH1 0x40 MLOAD PUSH32 0x8C379A000000000000000000000000000000000000000000000000000000000 DUP2 MSTORE PUSH1 0x20 PUSH1 0x4 DUP3 ADD DUP2 SWAP1 MSTORE PUSH1 0x24 DUP3 ADD MSTORE PUSH32 0x4F776E61626C653A2063616C6C6572206973206E6F7420746865206F776E6572 PUSH1 0x44 DUP3 ADD MSTORE PUSH1 0x64 ADD PUSH2 0x4EF JUMP JUMPDEST PUSH20 0xFFFFFFFFFFFFFFFFFFFFFFFFFFFFFFFFFFFFFFFF DUP2 AND PUSH2 0x1355 JUMPI PUSH1 0x40 MLOAD PUSH32 0x8C379A000000000000000000000000000000000000000000000000000000000 DUP2 MSTORE PUSH1 0x20 PUSH1 0x4 DUP3 ADD MSTORE PUSH1 0xF PUSH1 0x24 DUP3 ADD MSTORE PUSH32 0x696E76616C696420616464726573730000000000000000000000000000000000 PUSH1 0x44 DUP3 ADD MSTORE PUSH1 0x64 ADD PUSH2 0x4EF JUMP JUMPDEST PUSH1 0x5 DUP1 SLOAD PUSH32 0xFFFFFFFFFFFFFFFFFFFFFFFF0000000000000000000000000000000000000000 AND PUSH20 0xFFFFFFFFFFFFFFFFFFFFFFFFFFFFFFFFFFFFFFFF DUP4 AND SWAP1 DUP2 OR SWAP1 SWAP2 SSTORE PUSH1 0x40 MLOAD SWAP1 DUP2 MSTORE PUSH32 0xFB337A6C76476534518D5816CAEB86263972470FEDCCFD047A35EB1825EAA9E8 SWAP1 PUSH1 0x20 ADD PUSH2 0x5E4 JUMP JUMPDEST CALLER PUSH2 0x13E8 PUSH1 0x0 SLOAD PUSH20 0xFFFFFFFFFFFFFFFFFFFFFFFFFFFFFFFFFFFFFFFF AND SWAP1 JUMP JUMPDEST PUSH20 0xFFFFFFFFFFFFFFFFFFFFFFFFFFFFFFFFFFFFFFFF AND EQ PUSH2 0x1465 JUMPI PUSH1 0x40 MLOAD PUSH32 0x8C379A000000000000000000000000000000000000000000000000000000000 DUP2 MSTORE PUSH1 0x20 PUSH1 0x4 DUP3 ADD DUP2 SWAP1 MSTORE PUSH1 0x24 DUP3 ADD MSTORE PUSH32 0x4F776E61626C653A2063616C6C6572206973206E6F7420746865206F776E6572 PUSH1 0x44 DUP3 ADD MSTORE PUSH1 0x64 ADD PUSH2 0x4EF JUMP JUMPDEST PUSH20 0xFFFFFFFFFFFFFFFFFFFFFFFFFFFFFFFFFFFFFFFF DUP2 AND PUSH2 0x14E2 JUMPI PUSH1 0x40 MLOAD PUSH32 0x8C379A000000000000000000000000000000000000000000000000000000000 DUP2 MSTORE PUSH1 0x20 PUSH1 0x4 DUP3 ADD MSTORE PUSH1 0xF PUSH1 0x24 DUP3 ADD MSTORE PUSH32 0x696E76616C696420616464726573730000000000000000000000000000000000 PUSH1 0x44 DUP3 ADD MSTORE PUSH1 0x64 ADD PUSH2 0x4EF JUMP JUMPDEST PUSH1 0x4 DUP1 SLOAD PUSH32 0xFFFFFFFFFFFFFFFFFFFFFFFF0000000000000000000000000000000000000000 AND PUSH20 0xFFFFFFFFFFFFFFFFFFFFFFFFFFFFFFFFFFFFFFFF DUP4 AND SWAP1 DUP2 OR SWAP1 SWAP2 SSTORE PUSH1 0x40 MLOAD SWAP1 DUP2 MSTORE PUSH32 0xA9DB0C32D9C6C2F75F3B95047A9E67CC1C010EAB792A4E6CA777CE918AD94AAD SWAP1 PUSH1 0x20 ADD PUSH2 0x5E4 JUMP JUMPDEST CALLER PUSH2 0x1575 PUSH1 0x0 SLOAD PUSH20 0xFFFFFFFFFFFFFFFFFFFFFFFFFFFFFFFFFFFFFFFF AND SWAP1 JUMP JUMPDEST PUSH20 0xFFFFFFFFFFFFFFFFFFFFFFFFFFFFFFFFFFFFFFFF AND EQ PUSH2 0x15F2 JUMPI PUSH1 0x40 MLOAD PUSH32 0x8C379A000000000000000000000000000000000000000000000000000000000 DUP2 MSTORE PUSH1 0x20 PUSH1 0x4 DUP3 ADD DUP2 SWAP1 MSTORE PUSH1 0x24 DUP3 ADD MSTORE PUSH32 0x4F776E61626C653A2063616C6C6572206973206E6F7420746865206F776E6572 PUSH1 0x44 DUP3 ADD MSTORE PUSH1 0x64 ADD PUSH2 0x4EF JUMP JUMPDEST PUSH20 0xFFFFFFFFFFFFFFFFFFFFFFFFFFFFFFFFFFFFFFFF DUP2 AND PUSH2 0x1695 JUMPI PUSH1 0x40 MLOAD PUSH32 0x8C379A000000000000000000000000000000000000000000000000000000000 DUP2 MSTORE PUSH1 0x20 PUSH1 0x4 DUP3 ADD MSTORE PUSH1 0x26 PUSH1 0x24 DUP3 ADD MSTORE PUSH32 0x4F776E61626C653A206E6577206F776E657220697320746865207A65726F2061 PUSH1 0x44 DUP3 ADD MSTORE PUSH32 0x6464726573730000000000000000000000000000000000000000000000000000 PUSH1 0x64 DUP3 ADD MSTORE PUSH1 0x84 ADD PUSH2 0x4EF JUMP JUMPDEST PUSH2 0x169E DUP2 PUSH2 0x2AB8 JUMP JUMPDEST POP JUMP JUMPDEST CALLER PUSH2 0x16C1 PUSH1 0x0 SLOAD PUSH20 0xFFFFFFFFFFFFFFFFFFFFFFFFFFFFFFFFFFFFFFFF AND SWAP1 JUMP JUMPDEST PUSH20 0xFFFFFFFFFFFFFFFFFFFFFFFFFFFFFFFFFFFFFFFF AND EQ PUSH2 0x173E JUMPI PUSH1 0x40 MLOAD PUSH32 0x8C379A000000000000000000000000000000000000000000000000000000000 DUP2 MSTORE PUSH1 0x20 PUSH1 0x4 DUP3 ADD DUP2 SWAP1 MSTORE PUSH1 0x24 DUP3 ADD MSTORE PUSH32 0x4F776E61626C653A2063616C6C6572206973206E6F7420746865206F776E6572 PUSH1 0x44 DUP3 ADD MSTORE PUSH1 0x64 ADD PUSH2 0x4EF JUMP JUMPDEST PUSH20 0xFFFFFFFFFFFFFFFFFFFFFFFFFFFFFFFFFFFFFFFF DUP2 AND PUSH2 0x17BB JUMPI PUSH1 0x40 MLOAD PUSH32 0x8C379A000000000000000000000000000000000000000000000000000000000 DUP2 MSTORE PUSH1 0x20 PUSH1 0x4 DUP3 ADD MSTORE PUSH1 0xF PUSH1 0x24 DUP3 ADD MSTORE PUSH32 0x696E76616C696420616464726573730000000000000000000000000000000000 PUSH1 0x44 DUP3 ADD MSTORE PUSH1 0x64 ADD PUSH2 0x4EF JUMP JUMPDEST PUSH1 0x6 DUP1 SLOAD PUSH32 0xFFFFFFFFFFFFFFFFFFFFFFFF0000000000000000000000000000000000000000 AND PUSH20 0xFFFFFFFFFFFFFFFFFFFFFFFFFFFFFFFFFFFFFFFF DUP4 AND SWAP1 DUP2 OR SWAP1 SWAP2 SSTORE PUSH1 0x40 MLOAD SWAP1 DUP2 MSTORE PUSH32 0x918A691A2A82482A10E11F43D7B627B2BA220DD08F251CB61933C42560F6FCB5 SWAP1 PUSH1 0x20 ADD PUSH2 0x5E4 JUMP JUMPDEST PUSH1 0x0 DUP1 DUP1 PUSH1 0x1 PUSH2 0x1841 PUSH1 0x20 DUP7 ADD DUP7 PUSH2 0x32C5 JUMP JUMPDEST PUSH1 0x6 DUP2 GT ISZERO PUSH2 0x1852 JUMPI PUSH2 0x1852 PUSH2 0x2F51 JUMP JUMPDEST EQ ISZERO PUSH2 0x1A7B JUMPI PUSH2 0x1868 PUSH1 0x40 DUP6 ADD PUSH1 0x20 DUP7 ADD PUSH2 0x2C37 JUMP JUMPDEST PUSH2 0x1878 PUSH1 0x60 DUP7 ADD PUSH1 0x40 DUP8 ADD PUSH2 0x2C37 JUMP JUMPDEST PUSH2 0x1888 PUSH1 0x80 DUP8 ADD PUSH1 0x60 DUP9 ADD PUSH2 0x2C37 JUMP JUMPDEST PUSH1 0x80 DUP8 ADD CALLDATALOAD PUSH2 0x189D PUSH1 0xE0 DUP10 ADD PUSH1 0xC0 DUP11 ADD PUSH2 0x3258 JUMP JUMPDEST PUSH1 0x40 MLOAD PUSH32 0xFFFFFFFFFFFFFFFFFFFFFFFFFFFFFFFFFFFFFFFF000000000000000000000000 PUSH1 0x60 SWAP7 DUP8 SHL DUP2 AND PUSH1 0x20 DUP4 ADD MSTORE SWAP5 DUP7 SHL DUP6 AND PUSH1 0x34 DUP3 ADD MSTORE SWAP3 SWAP1 SWAP5 SHL SWAP1 SWAP3 AND PUSH1 0x48 DUP3 ADD MSTORE PUSH1 0x5C DUP2 ADD SWAP2 SWAP1 SWAP2 MSTORE PUSH32 0xFFFFFFFFFFFFFFFF000000000000000000000000000000000000000000000000 PUSH1 0xC0 SWAP3 DUP4 SHL DUP2 AND PUSH1 0x7C DUP4 ADD MSTORE CHAINID SWAP1 SWAP3 SHL SWAP1 SWAP2 AND PUSH1 0x84 DUP3 ADD MSTORE PUSH1 0xE0 DUP6 ADD CALLDATALOAD PUSH1 0x8C DUP3 ADD MSTORE PUSH1 0xAC ADD PUSH1 0x40 DUP1 MLOAD DUP1 DUP4 SUB PUSH32 0xFFFFFFFFFFFFFFFFFFFFFFFFFFFFFFFFFFFFFFFFFFFFFFFFFFFFFFFFFFFFFFE0 ADD DUP2 MSTORE SWAP1 DUP3 SWAP1 MSTORE DUP1 MLOAD PUSH1 0x20 SWAP1 SWAP2 ADD KECCAK256 PUSH1 0x2 SLOAD PUSH32 0x3C64F04B00000000000000000000000000000000000000000000000000000000 DUP4 MSTORE PUSH1 0x4 DUP4 ADD DUP3 SWAP1 MSTORE SWAP1 SWAP4 POP PUSH20 0xFFFFFFFFFFFFFFFFFFFFFFFFFFFFFFFFFFFFFFFF AND SWAP2 POP DUP2 SWAP1 PUSH4 0x3C64F04B SWAP1 PUSH1 0x24 ADD PUSH1 0x20 PUSH1 0x40 MLOAD DUP1 DUP4 SUB DUP2 DUP7 DUP1 EXTCODESIZE ISZERO DUP1 ISZERO PUSH2 0x19D3 JUMPI PUSH1 0x0 DUP1 REVERT JUMPDEST POP GAS STATICCALL ISZERO DUP1 ISZERO PUSH2 0x19E7 JUMPI RETURNDATASIZE PUSH1 0x0 DUP1 RETURNDATACOPY RETURNDATASIZE PUSH1 0x0 REVERT JUMPDEST POP POP POP POP PUSH1 0x40 MLOAD RETURNDATASIZE PUSH1 0x1F NOT PUSH1 0x1F DUP3 ADD AND DUP3 ADD DUP1 PUSH1 0x40 MSTORE POP DUP2 ADD SWAP1 PUSH2 0x1A0B SWAP2 SWAP1 PUSH2 0x33B3 JUMP JUMPDEST ISZERO ISZERO PUSH1 0x1 EQ PUSH2 0x1A76 JUMPI PUSH1 0x40 MLOAD PUSH32 0x8C379A000000000000000000000000000000000000000000000000000000000 DUP2 MSTORE PUSH1 0x20 PUSH1 0x4 DUP3 ADD MSTORE PUSH1 0x16 PUSH1 0x24 DUP3 ADD MSTORE PUSH32 0x6272696467652072656C6179206E6F7420657869737400000000000000000000 PUSH1 0x44 DUP3 ADD MSTORE PUSH1 0x64 ADD PUSH2 0x4EF JUMP JUMPDEST PUSH2 0x2368 JUMP JUMPDEST PUSH1 0x2 PUSH2 0x1A8A PUSH1 0x20 DUP7 ADD DUP7 PUSH2 0x32C5 JUMP JUMPDEST PUSH1 0x6 DUP2 GT ISZERO PUSH2 0x1A9B JUMPI PUSH2 0x1A9B PUSH2 0x2F51 JUMP JUMPDEST EQ ISZERO PUSH2 0x1C96 JUMPI CHAINID PUSH2 0x1AB2 PUSH1 0xC0 DUP7 ADD PUSH1 0xA0 DUP8 ADD PUSH2 0x3258 JUMP JUMPDEST PUSH2 0x1AC2 PUSH1 0x60 DUP8 ADD PUSH1 0x40 DUP9 ADD PUSH2 0x2C37 JUMP JUMPDEST PUSH2 0x1AD2 PUSH1 0x80 DUP9 ADD PUSH1 0x60 DUP10 ADD PUSH2 0x2C37 JUMP JUMPDEST PUSH1 0x40 MLOAD PUSH32 0xFFFFFFFFFFFFFFFF000000000000000000000000000000000000000000000000 PUSH1 0xC0 SWAP6 DUP7 SHL DUP2 AND PUSH1 0x20 DUP4 ADD MSTORE SWAP4 SWAP1 SWAP5 SHL SWAP1 SWAP3 AND PUSH1 0x28 DUP5 ADD MSTORE PUSH32 0xFFFFFFFFFFFFFFFFFFFFFFFFFFFFFFFFFFFFFFFF000000000000000000000000 PUSH1 0x60 SWAP2 DUP3 SHL DUP2 AND PUSH1 0x30 DUP6 ADD MSTORE SWAP2 SWAP1 SHL AND PUSH1 0x44 DUP3 ADD MSTORE PUSH1 0x80 DUP6 ADD CALLDATALOAD PUSH1 0x58 DUP3 ADD MSTORE PUSH1 0x78 ADD PUSH1 0x40 DUP1 MLOAD DUP1 DUP4 SUB PUSH32 0xFFFFFFFFFFFFFFFFFFFFFFFFFFFFFFFFFFFFFFFFFFFFFFFFFFFFFFFFFFFFFFE0 ADD DUP2 MSTORE SWAP1 DUP3 SWAP1 MSTORE DUP1 MLOAD PUSH1 0x20 SWAP1 SWAP2 ADD KECCAK256 PUSH1 0x2 SLOAD PUSH32 0xE09AB42800000000000000000000000000000000000000000000000000000000 DUP4 MSTORE PUSH1 0x4 DUP4 ADD DUP3 SWAP1 MSTORE SWAP1 SWAP4 POP PUSH20 0xFFFFFFFFFFFFFFFFFFFFFFFFFFFFFFFFFFFFFFFF AND SWAP2 POP DUP2 SWAP1 PUSH4 0xE09AB428 SWAP1 PUSH1 0x24 ADD PUSH1 0x20 PUSH1 0x40 MLOAD DUP1 DUP4 SUB DUP2 DUP7 DUP1 EXTCODESIZE ISZERO DUP1 ISZERO PUSH2 0x1BF3 JUMPI PUSH1 0x0 DUP1 REVERT JUMPDEST POP GAS STATICCALL ISZERO DUP1 ISZERO PUSH2 0x1C07 JUMPI RETURNDATASIZE PUSH1 0x0 DUP1 RETURNDATACOPY RETURNDATASIZE PUSH1 0x0 REVERT JUMPDEST POP POP POP POP PUSH1 0x40 MLOAD RETURNDATASIZE PUSH1 0x1F NOT PUSH1 0x1F DUP3 ADD AND DUP3 ADD DUP1 PUSH1 0x40 MSTORE POP DUP2 ADD SWAP1 PUSH2 0x1C2B SWAP2 SWAP1 PUSH2 0x33B3 JUMP JUMPDEST ISZERO ISZERO PUSH1 0x1 EQ PUSH2 0x1A76 JUMPI PUSH1 0x40 MLOAD PUSH32 0x8C379A000000000000000000000000000000000000000000000000000000000 DUP2 MSTORE PUSH1 0x20 PUSH1 0x4 DUP3 ADD MSTORE PUSH1 0x19 PUSH1 0x24 DUP3 ADD MSTORE PUSH32 0x627269646765207769746864726177206E6F7420657869737400000000000000 PUSH1 0x44 DUP3 ADD MSTORE PUSH1 0x64 ADD PUSH2 0x4EF JUMP JUMPDEST PUSH1 0x3 PUSH2 0x1CA5 PUSH1 0x20 DUP7 ADD DUP7 PUSH2 0x32C5 JUMP JUMPDEST PUSH1 0x6 DUP2 GT ISZERO PUSH2 0x1CB6 JUMPI PUSH2 0x1CB6 PUSH2 0x2F51 JUMP JUMPDEST EQ DUP1 PUSH2 0x1CDF JUMPI POP PUSH1 0x4 PUSH2 0x1CCC PUSH1 0x20 DUP7 ADD DUP7 PUSH2 0x32C5 JUMP JUMPDEST PUSH1 0x6 DUP2 GT ISZERO PUSH2 0x1CDD JUMPI PUSH2 0x1CDD PUSH2 0x2F51 JUMP JUMPDEST EQ JUMPDEST ISZERO PUSH2 0x202D JUMPI PUSH2 0x1CF4 PUSH1 0x60 DUP6 ADD PUSH1 0x40 DUP7 ADD PUSH2 0x2C37 JUMP JUMPDEST PUSH2 0x1D04 PUSH1 0x80 DUP7 ADD PUSH1 0x60 DUP8 ADD PUSH2 0x2C37 JUMP JUMPDEST PUSH1 0x80 DUP7 ADD CALLDATALOAD PUSH2 0x1D19 PUSH1 0x40 DUP9 ADD PUSH1 0x20 DUP10 ADD PUSH2 0x2C37 JUMP JUMPDEST PUSH2 0x1D29 PUSH1 0xE0 DUP10 ADD PUSH1 0xC0 DUP11 ADD PUSH2 0x3258 JUMP JUMPDEST PUSH1 0x40 MLOAD PUSH1 0x60 SWAP6 DUP7 SHL PUSH32 0xFFFFFFFFFFFFFFFFFFFFFFFFFFFFFFFFFFFFFFFF000000000000000000000000 SWAP1 DUP2 AND PUSH1 0x20 DUP4 ADD MSTORE SWAP5 DUP7 SHL DUP6 AND PUSH1 0x34 DUP3 ADD MSTORE PUSH1 0x48 DUP2 ADD SWAP4 SWAP1 SWAP4 MSTORE SWAP4 SHL SWAP1 SWAP2 AND PUSH1 0x68 DUP3 ADD MSTORE PUSH1 0xC0 SWAP2 SWAP1 SWAP2 SHL PUSH32 0xFFFFFFFFFFFFFFFF000000000000000000000000000000000000000000000000 AND PUSH1 0x7C DUP3 ADD MSTORE PUSH1 0xE0 DUP6 ADD CALLDATALOAD PUSH1 0x84 DUP3 ADD MSTORE PUSH1 0xA4 ADD PUSH1 0x40 DUP1 MLOAD PUSH32 0xFFFFFFFFFFFFFFFFFFFFFFFFFFFFFFFFFFFFFFFFFFFFFFFFFFFFFFFFFFFFFFE0 DUP2 DUP5 SUB ADD DUP2 MSTORE SWAP2 SWAP1 MSTORE DUP1 MLOAD PUSH1 0x20 SWAP1 SWAP2 ADD KECCAK256 SWAP2 POP PUSH1 0x3 PUSH2 0x1DF7 PUSH1 0x20 DUP7 ADD DUP7 PUSH2 0x32C5 JUMP JUMPDEST PUSH1 0x6 DUP2 GT ISZERO PUSH2 0x1E08 JUMPI PUSH2 0x1E08 PUSH2 0x2F51 JUMP JUMPDEST EQ ISZERO PUSH2 0x1F1F JUMPI POP PUSH1 0x3 SLOAD PUSH1 0x40 MLOAD PUSH32 0x1E6472500000000000000000000000000000000000000000000000000000000 DUP2 MSTORE PUSH1 0x4 DUP2 ADD DUP4 SWAP1 MSTORE PUSH20 0xFFFFFFFFFFFFFFFFFFFFFFFFFFFFFFFFFFFFFFFF SWAP1 SWAP2 AND SWAP1 DUP2 SWAP1 PUSH4 0x1E64725 SWAP1 PUSH1 0x24 ADD JUMPDEST PUSH1 0x20 PUSH1 0x40 MLOAD DUP1 DUP4 SUB DUP2 DUP7 DUP1 EXTCODESIZE ISZERO DUP1 ISZERO PUSH2 0x1E7C JUMPI PUSH1 0x0 DUP1 REVERT JUMPDEST POP GAS STATICCALL ISZERO DUP1 ISZERO PUSH2 0x1E90 JUMPI RETURNDATASIZE PUSH1 0x0 DUP1 RETURNDATACOPY RETURNDATASIZE PUSH1 0x0 REVERT JUMPDEST POP POP POP POP PUSH1 0x40 MLOAD RETURNDATASIZE PUSH1 0x1F NOT PUSH1 0x1F DUP3 ADD AND DUP3 ADD DUP1 PUSH1 0x40 MSTORE POP DUP2 ADD SWAP1 PUSH2 0x1EB4 SWAP2 SWAP1 PUSH2 0x33B3 JUMP JUMPDEST ISZERO ISZERO PUSH1 0x1 EQ PUSH2 0x1A76 JUMPI PUSH1 0x40 MLOAD PUSH32 0x8C379A000000000000000000000000000000000000000000000000000000000 DUP2 MSTORE PUSH1 0x20 PUSH1 0x4 DUP3 ADD MSTORE PUSH1 0x15 PUSH1 0x24 DUP3 ADD MSTORE PUSH32 0x6D696E74207265636F7264206E6F742065786973740000000000000000000000 PUSH1 0x44 DUP3 ADD MSTORE PUSH1 0x64 ADD PUSH2 0x4EF JUMP JUMPDEST POP PUSH1 0x4 DUP1 SLOAD PUSH1 0x40 MLOAD PUSH32 0x1E6472500000000000000000000000000000000000000000000000000000000 DUP2 MSTORE SWAP2 DUP3 ADD DUP4 SWAP1 MSTORE PUSH20 0xFFFFFFFFFFFFFFFFFFFFFFFFFFFFFFFFFFFFFFFF AND SWAP1 DUP2 SWAP1 PUSH4 0x1E64725 SWAP1 PUSH1 0x24 ADD PUSH1 0x20 PUSH1 0x40 MLOAD DUP1 DUP4 SUB DUP2 DUP7 DUP1 EXTCODESIZE ISZERO DUP1 ISZERO PUSH2 0x1F8A JUMPI PUSH1 0x0 DUP1 REVERT JUMPDEST POP GAS STATICCALL ISZERO DUP1 ISZERO PUSH2 0x1F9E JUMPI RETURNDATASIZE PUSH1 0x0 DUP1 RETURNDATACOPY RETURNDATASIZE PUSH1 0x0 REVERT JUMPDEST POP POP POP POP PUSH1 0x40 MLOAD RETURNDATASIZE PUSH1 0x1F NOT PUSH1 0x1F DUP3 ADD AND DUP3 ADD DUP1 PUSH1 0x40 MSTORE POP DUP2 ADD SWAP1 PUSH2 0x1FC2 SWAP2 SWAP1 PUSH2 0x33B3 JUMP JUMPDEST ISZERO ISZERO PUSH1 0x1 EQ PUSH2 0x1A76 JUMPI PUSH1 0x40 MLOAD PUSH32 0x8C379A000000000000000000000000000000000000000000000000000000000 DUP2 MSTORE PUSH1 0x20 PUSH1 0x4 DUP3 ADD MSTORE PUSH1 0x19 PUSH1 0x24 DUP3 ADD MSTORE PUSH32 0x7769746864726177207265636F7264206E6F7420657869737400000000000000 PUSH1 0x44 DUP3 ADD MSTORE PUSH1 0x64 ADD PUSH2 0x4EF JUMP JUMPDEST PUSH1 0x5 PUSH2 0x203C PUSH1 0x20 DUP7 ADD DUP7 PUSH2 0x32C5 JUMP JUMPDEST PUSH1 0x6 DUP2 GT ISZERO PUSH2 0x204D JUMPI PUSH2 0x204D PUSH2 0x2F51 JUMP JUMPDEST EQ DUP1 PUSH2 0x2076 JUMPI POP PUSH1 0x6 PUSH2 0x2063 PUSH1 0x20 DUP7 ADD DUP7 PUSH2 0x32C5 JUMP JUMPDEST PUSH1 0x6 DUP2 GT ISZERO PUSH2 0x2074 JUMPI PUSH2 0x2074 PUSH2 0x2F51 JUMP JUMPDEST EQ JUMPDEST ISZERO PUSH2 0x2368 JUMPI PUSH1 0x5 PUSH2 0x208A PUSH1 0x20 DUP7 ADD DUP7 PUSH2 0x32C5 JUMP JUMPDEST PUSH1 0x6 DUP2 GT ISZERO PUSH2 0x209B JUMPI PUSH2 0x209B PUSH2 0x2F51 JUMP JUMPDEST EQ ISZERO PUSH2 0x20C0 JUMPI POP PUSH1 0x5 SLOAD PUSH20 0xFFFFFFFFFFFFFFFFFFFFFFFFFFFFFFFFFFFFFFFF AND PUSH2 0x20DB JUMP JUMPDEST POP PUSH1 0x6 SLOAD PUSH20 0xFFFFFFFFFFFFFFFFFFFFFFFFFFFFFFFFFFFFFFFF AND JUMPDEST PUSH2 0x20EB PUSH1 0x60 DUP6 ADD PUSH1 0x40 DUP7 ADD PUSH2 0x2C37 JUMP JUMPDEST PUSH2 0x20FB PUSH1 0x80 DUP7 ADD PUSH1 0x60 DUP8 ADD PUSH2 0x2C37 JUMP JUMPDEST PUSH1 0x80 DUP7 ADD CALLDATALOAD PUSH2 0x2110 PUSH1 0x40 DUP9 ADD PUSH1 0x20 DUP10 ADD PUSH2 0x2C37 JUMP JUMPDEST PUSH2 0x2120 PUSH1 0xE0 DUP10 ADD PUSH1 0xC0 DUP11 ADD PUSH2 0x3258 JUMP JUMPDEST PUSH1 0x40 MLOAD PUSH1 0x60 SWAP6 DUP7 SHL PUSH32 0xFFFFFFFFFFFFFFFFFFFFFFFFFFFFFFFFFFFFFFFF000000000000000000000000 SWAP1 DUP2 AND PUSH1 0x20 DUP4 ADD MSTORE SWAP5 DUP7 SHL DUP6 AND PUSH1 0x34 DUP3 ADD MSTORE PUSH1 0x48 DUP2 ADD SWAP4 SWAP1 SWAP4 MSTORE SWAP1 DUP5 SHL DUP4 AND PUSH1 0x68 DUP4 ADD MSTORE PUSH1 0xC0 SHL PUSH32 0xFFFFFFFFFFFFFFFF000000000000000000000000000000000000000000000000 AND PUSH1 0x7C DUP3 ADD MSTORE PUSH1 0xE0 DUP8 ADD CALLDATALOAD PUSH1 0x84 DUP3 ADD MSTORE SWAP2 DUP4 SWAP1 SHL AND PUSH1 0xA4 DUP3 ADD MSTORE PUSH1 0xB8 ADD PUSH1 0x40 DUP1 MLOAD PUSH32 0xFFFFFFFFFFFFFFFFFFFFFFFFFFFFFFFFFFFFFFFFFFFFFFFFFFFFFFFFFFFFFFE0 DUP2 DUP5 SUB ADD DUP2 MSTORE SWAP2 SWAP1 MSTORE DUP1 MLOAD PUSH1 0x20 SWAP1 SWAP2 ADD KECCAK256 SWAP2 POP PUSH1 0x5 PUSH2 0x21F5 PUSH1 0x20 DUP7 ADD DUP7 PUSH2 0x32C5 JUMP JUMPDEST PUSH1 0x6 DUP2 GT ISZERO PUSH2 0x2206 JUMPI PUSH2 0x2206 PUSH2 0x2F51 JUMP JUMPDEST EQ ISZERO PUSH2 0x225F JUMPI PUSH1 0x40 MLOAD PUSH32 0x1E6472500000000000000000000000000000000000000000000000000000000 DUP2 MSTORE PUSH1 0x4 DUP2 ADD DUP4 SWAP1 MSTORE PUSH20 0xFFFFFFFFFFFFFFFFFFFFFFFFFFFFFFFFFFFFFFFF DUP3 AND SWAP1 PUSH4 0x1E64725 SWAP1 PUSH1 0x24 ADD PUSH2 0x1E64 JUMP JUMPDEST PUSH1 0x40 MLOAD PUSH32 0x1E6472500000000000000000000000000000000000000000000000000000000 DUP2 MSTORE PUSH1 0x4 DUP2 ADD DUP4 SWAP1 MSTORE PUSH20 0xFFFFFFFFFFFFFFFFFFFFFFFFFFFFFFFFFFFFFFFF DUP3 AND SWAP1 PUSH4 0x1E64725 SWAP1 PUSH1 0x24 ADD PUSH1 0x20 PUSH1 0x40 MLOAD DUP1 DUP4 SUB DUP2 DUP7 DUP1 EXTCODESIZE ISZERO DUP1 ISZERO PUSH2 0x22C5 JUMPI PUSH1 0x0 DUP1 REVERT JUMPDEST POP GAS STATICCALL ISZERO DUP1 ISZERO PUSH2 0x22D9 JUMPI RETURNDATASIZE PUSH1 0x0 DUP1 RETURNDATACOPY RETURNDATASIZE PUSH1 0x0 REVERT JUMPDEST POP POP POP POP PUSH1 0x40 MLOAD RETURNDATASIZE PUSH1 0x1F NOT PUSH1 0x1F DUP3 ADD AND DUP3 ADD DUP1 PUSH1 0x40 MSTORE POP DUP2 ADD SWAP1 PUSH2 0x22FD SWAP2 SWAP1 PUSH2 0x33B3 JUMP JUMPDEST ISZERO ISZERO PUSH1 0x1 EQ PUSH2 0x2368 JUMPI PUSH1 0x40 MLOAD PUSH32 0x8C379A000000000000000000000000000000000000000000000000000000000 DUP2 MSTORE PUSH1 0x20 PUSH1 0x4 DUP3 ADD MSTORE PUSH1 0x19 PUSH1 0x24 DUP3 ADD MSTORE PUSH32 0x7769746864726177207265636F7264206E6F7420657869737400000000000000 PUSH1 0x44 DUP3 ADD MSTORE PUSH1 0x64 ADD PUSH2 0x4EF JUMP JUMPDEST PUSH1 0x0 DUP2 DUP4 PUSH1 0x40 MLOAD PUSH1 0x20 ADD PUSH2 0x237E SWAP4 SWAP3 SWAP2 SWAP1 PUSH2 0x33EC JUMP JUMPDEST PUSH1 0x40 MLOAD PUSH1 0x20 DUP2 DUP4 SUB SUB DUP2 MSTORE SWAP1 PUSH1 0x40 MSTORE DUP1 MLOAD SWAP1 PUSH1 0x20 ADD KECCAK256 SWAP3 POP POP POP SWAP2 SWAP1 POP JUMP JUMPDEST PUSH1 0x0 DUP1 GAS SWAP1 POP PUSH1 0x0 DUP1 PUSH2 0x23B6 PUSH1 0x60 DUP9 ADD PUSH1 0x40 DUP10 ADD PUSH2 0x2C37 JUMP JUMPDEST PUSH20 0xFFFFFFFFFFFFFFFFFFFFFFFFFFFFFFFFFFFFFFFF AND CALLVALUE PUSH32 0x7CD2BFFC00000000000000000000000000000000000000000000000000000000 PUSH2 0x23FE PUSH1 0x40 DUP12 ADD PUSH1 0x20 DUP13 ADD PUSH2 0x2C37 JUMP JUMPDEST PUSH2 0x240E PUSH1 0x80 DUP13 ADD PUSH1 0x60 DUP14 ADD PUSH2 0x2C37 JUMP JUMPDEST PUSH1 0x80 DUP13 ADD CALLDATALOAD PUSH2 0x2423 PUSH1 0xE0 DUP15 ADD PUSH1 0xC0 DUP16 ADD PUSH2 0x3258 JUMP JUMPDEST DUP13 DUP13 CALLER PUSH1 0x40 MLOAD PUSH1 0x24 ADD PUSH2 0x243C SWAP8 SWAP7 SWAP6 SWAP5 SWAP4 SWAP3 SWAP2 SWAP1 PUSH2 0x3430 JUMP JUMPDEST PUSH1 0x40 DUP1 MLOAD PUSH32 0xFFFFFFFFFFFFFFFFFFFFFFFFFFFFFFFFFFFFFFFFFFFFFFFFFFFFFFFFFFFFFFE0 DUP2 DUP5 SUB ADD DUP2 MSTORE SWAP2 DUP2 MSTORE PUSH1 0x20 DUP3 ADD DUP1 MLOAD PUSH28 0xFFFFFFFFFFFFFFFFFFFFFFFFFFFFFFFFFFFFFFFFFFFFFFFFFFFFFFFF AND PUSH32 0xFFFFFFFF00000000000000000000000000000000000000000000000000000000 SWAP1 SWAP5 AND SWAP4 SWAP1 SWAP4 OR SWAP1 SWAP3 MSTORE SWAP1 MLOAD PUSH2 0x24C5 SWAP2 SWAP1 PUSH2 0x3496 JUMP JUMPDEST PUSH1 0x0 PUSH1 0x40 MLOAD DUP1 DUP4 SUB DUP2 DUP6 DUP8 GAS CALL SWAP3 POP POP POP RETURNDATASIZE DUP1 PUSH1 0x0 DUP2 EQ PUSH2 0x2502 JUMPI PUSH1 0x40 MLOAD SWAP2 POP PUSH1 0x1F NOT PUSH1 0x3F RETURNDATASIZE ADD AND DUP3 ADD PUSH1 0x40 MSTORE RETURNDATASIZE DUP3 MSTORE RETURNDATASIZE PUSH1 0x0 PUSH1 0x20 DUP5 ADD RETURNDATACOPY PUSH2 0x2507 JUMP JUMPDEST PUSH1 0x60 SWAP2 POP JUMPDEST POP SWAP2 POP SWAP2 POP DUP2 ISZERO PUSH2 0x2530 JUMPI DUP1 DUP1 PUSH1 0x20 ADD SWAP1 MLOAD DUP2 ADD SWAP1 PUSH2 0x2526 SWAP2 SWAP1 PUSH2 0x34B2 JUMP JUMPDEST SWAP4 POP POP POP POP PUSH2 0x2542 JUMP JUMPDEST PUSH2 0x253A DUP4 DUP3 PUSH2 0x2B2D JUMP JUMPDEST PUSH1 0x0 SWAP4 POP POP POP POP JUMPDEST SWAP4 SWAP3 POP POP POP JUMP JUMPDEST PUSH1 0x0 DUP1 GAS SWAP1 POP PUSH1 0x0 DUP1 PUSH2 0x2562 PUSH1 0x60 DUP9 ADD PUSH1 0x40 DUP10 ADD PUSH2 0x2C37 JUMP JUMPDEST PUSH20 0xFFFFFFFFFFFFFFFFFFFFFFFFFFFFFFFFFFFFFFFF AND CALLVALUE PUSH32 0x5AB7AFC600000000000000000000000000000000000000000000000000000000 PUSH2 0x23FE PUSH1 0x40 DUP12 ADD PUSH1 0x20 DUP13 ADD PUSH2 0x2C37 JUMP JUMPDEST PUSH2 0x25BA PUSH1 0x60 DUP3 ADD PUSH1 0x40 DUP4 ADD PUSH2 0x2C37 JUMP JUMPDEST PUSH20 0xFFFFFFFFFFFFFFFFFFFFFFFFFFFFFFFFFFFFFFFF AND PUSH32 0xA635EB05143F74743822BBD96428928DE4C8EE8CC578299749BE9425C17BB34D PUSH1 0x0 DUP6 DUP6 PUSH2 0x2605 PUSH1 0xE0 DUP8 ADD PUSH1 0xC0 DUP9 ADD PUSH2 0x3258 JUMP JUMPDEST DUP7 PUSH2 0x100 ADD CALLDATALOAD PUSH1 0x40 MLOAD PUSH2 0x261C SWAP6 SWAP5 SWAP4 SWAP3 SWAP2 SWAP1 PUSH2 0x34D3 JUMP JUMPDEST PUSH1 0x40 MLOAD DUP1 SWAP2 SUB SWAP1 LOG2 POP POP POP JUMP JUMPDEST PUSH1 0x1 DUP3 PUSH1 0x6 DUP2 GT ISZERO PUSH2 0x263D JUMPI PUSH2 0x263D PUSH2 0x2F51 JUMP JUMPDEST EQ ISZERO PUSH2 0x26EB JUMPI PUSH1 0x2 SLOAD PUSH20 0xFFFFFFFFFFFFFFFFFFFFFFFFFFFFFFFFFFFFFFFF AND PUSH4 0xCDD1B25D PUSH2 0x266B DUP4 DUP1 PUSH2 0x32E6 JUMP JUMPDEST PUSH2 0x2678 PUSH1 0x20 DUP7 ADD DUP7 PUSH2 0x334B JUMP JUMPDEST PUSH2 0x2685 PUSH1 0x40 DUP9 ADD DUP9 PUSH2 0x334B JUMP JUMPDEST PUSH2 0x2692 PUSH1 0x60 DUP11 ADD DUP11 PUSH2 0x334B JUMP JUMPDEST PUSH1 0x40 MLOAD DUP10 PUSH4 0xFFFFFFFF AND PUSH1 0xE0 SHL DUP2 MSTORE PUSH1 0x4 ADD PUSH2 0x26B5 SWAP9 SWAP8 SWAP7 SWAP6 SWAP5 SWAP4 SWAP3 SWAP2 SWAP1 PUSH2 0x3511 JUMP JUMPDEST PUSH1 0x0 PUSH1 0x40 MLOAD DUP1 DUP4 SUB DUP2 PUSH1 0x0 DUP8 DUP1 EXTCODESIZE ISZERO DUP1 ISZERO PUSH2 0x26CF JUMPI PUSH1 0x0 DUP1 REVERT JUMPDEST POP GAS CALL ISZERO DUP1 ISZERO PUSH2 0x26E3 JUMPI RETURNDATASIZE PUSH1 0x0 DUP1 RETURNDATACOPY RETURNDATASIZE PUSH1 0x0 REVERT JUMPDEST POP POP POP POP POP POP JUMP JUMPDEST PUSH1 0x2 DUP3 PUSH1 0x6 DUP2 GT ISZERO PUSH2 0x26FF JUMPI PUSH2 0x26FF PUSH2 0x2F51 JUMP JUMPDEST EQ ISZERO PUSH2 0x272D JUMPI PUSH1 0x2 SLOAD PUSH20 0xFFFFFFFFFFFFFFFFFFFFFFFFFFFFFFFFFFFFFFFF AND PUSH4 0xA21A9280 PUSH2 0x266B DUP4 DUP1 PUSH2 0x32E6 JUMP JUMPDEST PUSH1 0x3 DUP3 PUSH1 0x6 DUP2 GT ISZERO PUSH2 0x2741 JUMPI PUSH2 0x2741 PUSH2 0x2F51 JUMP JUMPDEST EQ ISZERO PUSH2 0x276F JUMPI PUSH1 0x3 SLOAD PUSH20 0xFFFFFFFFFFFFFFFFFFFFFFFFFFFFFFFFFFFFFFFF AND PUSH4 0xF8734302 PUSH2 0x266B DUP4 DUP1 PUSH2 0x32E6 JUMP JUMPDEST PUSH1 0x5 DUP3 PUSH1 0x6 DUP2 GT ISZERO PUSH2 0x2783 JUMPI PUSH2 0x2783 PUSH2 0x2F51 JUMP JUMPDEST EQ ISZERO PUSH2 0x2852 JUMPI PUSH1 0x5 SLOAD PUSH20 0xFFFFFFFFFFFFFFFFFFFFFFFFFFFFFFFFFFFFFFFF AND PUSH4 0xF8734302 PUSH2 0x27B1 DUP4 DUP1 PUSH2 0x32E6 JUMP JUMPDEST PUSH2 0x27BE PUSH1 0x20 DUP7 ADD DUP7 PUSH2 0x334B JUMP JUMPDEST PUSH2 0x27CB PUSH1 0x40 DUP9 ADD DUP9 PUSH2 0x334B JUMP JUMPDEST PUSH2 0x27D8 PUSH1 0x60 DUP11 ADD DUP11 PUSH2 0x334B JUMP JUMPDEST PUSH1 0x40 MLOAD DUP10 PUSH4 0xFFFFFFFF AND PUSH1 0xE0 SHL DUP2 MSTORE PUSH1 0x4 ADD PUSH2 0x27FB SWAP9 SWAP8 SWAP7 SWAP6 SWAP5 SWAP4 SWAP3 SWAP2 SWAP1 PUSH2 0x3511 JUMP JUMPDEST PUSH1 0x20 PUSH1 0x40 MLOAD DUP1 DUP4 SUB DUP2 PUSH1 0x0 DUP8 DUP1 EXTCODESIZE ISZERO DUP1 ISZERO PUSH2 0x2815 JUMPI PUSH1 0x0 DUP1 REVERT JUMPDEST POP GAS CALL ISZERO DUP1 ISZERO PUSH2 0x2829 JUMPI RETURNDATASIZE PUSH1 0x0 DUP1 RETURNDATACOPY RETURNDATASIZE PUSH1 0x0 REVERT JUMPDEST POP POP POP POP PUSH1 0x40 MLOAD RETURNDATASIZE PUSH1 0x1F NOT PUSH1 0x1F DUP3 ADD AND DUP3 ADD DUP1 PUSH1 0x40 MSTORE POP DUP2 ADD SWAP1 PUSH2 0x284D SWAP2 SWAP1 PUSH2 0x3571 JUMP JUMPDEST POP POP POP JUMP JUMPDEST PUSH1 0x4 DUP3 PUSH1 0x6 DUP2 GT ISZERO PUSH2 0x2866 JUMPI PUSH2 0x2866 PUSH2 0x2F51 JUMP JUMPDEST EQ ISZERO PUSH2 0x2894 JUMPI PUSH1 0x4 SLOAD PUSH20 0xFFFFFFFFFFFFFFFFFFFFFFFFFFFFFFFFFFFFFFFF AND PUSH4 0xA21A9280 PUSH2 0x266B DUP4 DUP1 PUSH2 0x32E6 JUMP JUMPDEST PUSH1 0x6 DUP3 PUSH1 0x6 DUP2 GT ISZERO PUSH2 0x28A8 JUMPI PUSH2 0x28A8 PUSH2 0x2F51 JUMP JUMPDEST EQ ISZERO PUSH2 0x9D9 JUMPI PUSH1 0x6 SLOAD PUSH20 0xFFFFFFFFFFFFFFFFFFFFFFFFFFFFFFFFFFFFFFFF AND PUSH4 0xA21A9280 PUSH2 0x27B1 DUP4 DUP1 PUSH2 0x32E6 JUMP JUMPDEST PUSH1 0x0 PUSH1 0x1 PUSH2 0x28E7 PUSH1 0x20 DUP7 ADD DUP7 PUSH2 0x2C37 JUMP JUMPDEST PUSH2 0x28F7 PUSH1 0x40 DUP8 ADD PUSH1 0x20 DUP9 ADD PUSH2 0x2C37 JUMP JUMPDEST PUSH2 0x2907 PUSH1 0x60 DUP9 ADD PUSH1 0x40 DUP10 ADD PUSH2 0x3258 JUMP JUMPDEST DUP8 PUSH1 0x60 ADD CALLDATALOAD CHAINID DUP9 DUP9 PUSH1 0x40 MLOAD PUSH1 0x20 ADD PUSH2 0x2926 SWAP9 SWAP8 SWAP7 SWAP6 SWAP5 SWAP4 SWAP3 SWAP2 SWAP1 PUSH2 0x358A JUMP JUMPDEST PUSH1 0x40 MLOAD PUSH1 0x20 DUP2 DUP4 SUB SUB DUP2 MSTORE SWAP1 PUSH1 0x40 MSTORE DUP1 MLOAD SWAP1 PUSH1 0x20 ADD KECCAK256 SWAP1 POP SWAP4 SWAP3 POP POP POP JUMP JUMPDEST PUSH1 0x0 DUP1 GAS SWAP1 POP PUSH1 0x0 DUP1 PUSH2 0x295E PUSH1 0x40 DUP9 ADD PUSH1 0x20 DUP10 ADD PUSH2 0x2C37 JUMP JUMPDEST PUSH20 0xFFFFFFFFFFFFFFFFFFFFFFFFFFFFFFFFFFFFFFFF AND CALLVALUE PUSH32 0x9C649FDF00000000000000000000000000000000000000000000000000000000 PUSH2 0x29A3 PUSH1 0x20 DUP12 ADD DUP12 PUSH2 0x2C37 JUMP JUMPDEST PUSH2 0x29B3 PUSH1 0x60 DUP13 ADD PUSH1 0x40 DUP14 ADD PUSH2 0x3258 JUMP JUMPDEST DUP11 DUP11 CALLER PUSH1 0x40 MLOAD PUSH1 0x24 ADD PUSH2 0x243C SWAP6 SWAP5 SWAP4 SWAP3 SWAP2 SWAP1 PUSH2 0x3629 JUMP JUMPDEST PUSH2 0x29DA PUSH1 0x40 DUP3 ADD PUSH1 0x20 DUP4 ADD PUSH2 0x2C37 JUMP JUMPDEST PUSH20 0xFFFFFFFFFFFFFFFFFFFFFFFFFFFFFFFFFFFFFFFF AND PUSH32 0xA635EB05143F74743822BBD96428928DE4C8EE8CC578299749BE9425C17BB34D PUSH1 0x1 DUP6 DUP6 PUSH2 0x2A25 PUSH1 0x60 DUP8 ADD PUSH1 0x40 DUP9 ADD PUSH2 0x3258 JUMP JUMPDEST DUP7 PUSH1 0x60 ADD CALLDATALOAD PUSH1 0x40 MLOAD PUSH2 0x261C SWAP6 SWAP5 SWAP4 SWAP3 SWAP2 SWAP1 PUSH2 0x34D3 JUMP JUMPDEST PUSH1 0x0 DUP1 GAS SWAP1 POP PUSH1 0x0 DUP1 PUSH2 0x2A54 PUSH1 0x60 DUP9 ADD PUSH1 0x40 DUP10 ADD PUSH2 0x2C37 JUMP JUMPDEST PUSH20 0xFFFFFFFFFFFFFFFFFFFFFFFFFFFFFFFFFFFFFFFF AND CALLVALUE PUSH32 0xBCB498200000000000000000000000000000000000000000000000000000000 PUSH2 0x2A9C PUSH1 0x80 DUP12 ADD PUSH1 0x60 DUP13 ADD PUSH2 0x2C37 JUMP JUMPDEST DUP11 PUSH1 0x80 ADD CALLDATALOAD DUP11 DUP11 CALLER PUSH1 0x40 MLOAD PUSH1 0x24 ADD PUSH2 0x243C SWAP6 SWAP5 SWAP4 SWAP3 SWAP2 SWAP1 PUSH2 0x367F JUMP JUMPDEST PUSH1 0x0 DUP1 SLOAD PUSH20 0xFFFFFFFFFFFFFFFFFFFFFFFFFFFFFFFFFFFFFFFF DUP4 DUP2 AND PUSH32 0xFFFFFFFFFFFFFFFFFFFFFFFF0000000000000000000000000000000000000000 DUP4 AND DUP2 OR DUP5 SSTORE PUSH1 0x40 MLOAD SWAP2 SWAP1 SWAP3 AND SWAP3 DUP4 SWAP2 PUSH32 0x8BE0079C531659141344CD1FD0A4F28419497F9722A3DAAFE3B4186F6B6457E0 SWAP2 SWAP1 LOG3 POP POP JUMP JUMPDEST PUSH1 0x0 GAS SWAP1 POP PUSH1 0x0 PUSH1 0x7 SLOAD GASLIMIT PUSH2 0x2B42 SWAP2 SWAP1 PUSH2 0x36B6 JUMP JUMPDEST SWAP1 POP DUP1 DUP5 LT DUP1 ISZERO PUSH2 0x2B5D JUMPI POP PUSH2 0x2B59 PUSH1 0x40 DUP6 PUSH2 0x36F4 JUMP JUMPDEST DUP3 GT ISZERO JUMPDEST ISZERO PUSH2 0x2B64 JUMPI INVALID JUMPDEST PUSH32 0xFFDD6142BBB721F3400E3908B04B86F60649B2E4D191E3F4C50C32C3E6471D2F PUSH2 0x2B8E DUP5 PUSH2 0x2BA9 JUMP JUMPDEST PUSH1 0x40 MLOAD PUSH2 0x2B9B SWAP2 SWAP1 PUSH2 0x372F JUMP JUMPDEST PUSH1 0x40 MLOAD DUP1 SWAP2 SUB SWAP1 LOG1 POP POP POP POP JUMP JUMPDEST PUSH1 0x60 PUSH1 0x44 DUP3 MLOAD LT ISZERO PUSH2 0x2BEE JUMPI POP POP PUSH1 0x40 DUP1 MLOAD DUP1 DUP3 ADD SWAP1 SWAP2 MSTORE PUSH1 0x1D DUP2 MSTORE PUSH32 0x5472616E73616374696F6E2072657665727465642073696C656E746C79000000 PUSH1 0x20 DUP3 ADD MSTORE SWAP1 JUMP JUMPDEST PUSH1 0x4 DUP3 ADD SWAP2 POP DUP2 DUP1 PUSH1 0x20 ADD SWAP1 MLOAD DUP2 ADD SWAP1 PUSH2 0x2C08 SWAP2 SWAP1 PUSH2 0x3771 JUMP JUMPDEST SWAP3 SWAP2 POP POP JUMP JUMPDEST DUP1 CALLDATALOAD PUSH20 0xFFFFFFFFFFFFFFFFFFFFFFFFFFFFFFFFFFFFFFFF DUP2 AND DUP2 EQ PUSH2 0x2C32 JUMPI PUSH1 0x0 DUP1 REVERT JUMPDEST SWAP2 SWAP1 POP JUMP JUMPDEST PUSH1 0x0 PUSH1 0x20 DUP3 DUP5 SUB SLT ISZERO PUSH2 0x2C49 JUMPI PUSH1 0x0 DUP1 REVERT JUMPDEST PUSH2 0x2542 DUP3 PUSH2 0x2C0E JUMP JUMPDEST PUSH1 0x0 DUP1 DUP4 PUSH1 0x1F DUP5 ADD SLT PUSH2 0x2C64 JUMPI PUSH1 0x0 DUP1 REVERT JUMPDEST POP DUP2 CALLDATALOAD PUSH8 0xFFFFFFFFFFFFFFFF DUP2 GT ISZERO PUSH2 0x2C7C JUMPI PUSH1 0x0 DUP1 REVERT JUMPDEST PUSH1 0x20 DUP4 ADD SWAP2 POP DUP4 PUSH1 0x20 DUP3 DUP6 ADD ADD GT ISZERO PUSH2 0x2C94 JUMPI PUSH1 0x0 DUP1 REVERT JUMPDEST SWAP3 POP SWAP3 SWAP1 POP JUMP JUMPDEST PUSH1 0x0 DUP1 DUP4 PUSH1 0x1F DUP5 ADD SLT PUSH2 0x2CAD JUMPI PUSH1 0x0 DUP1 REVERT JUMPDEST POP DUP2 CALLDATALOAD PUSH8 0xFFFFFFFFFFFFFFFF DUP2 GT ISZERO PUSH2 0x2CC5 JUMPI PUSH1 0x0 DUP1 REVERT JUMPDEST PUSH1 0x20 DUP4 ADD SWAP2 POP DUP4 PUSH1 0x20 DUP3 PUSH1 0x5 SHL DUP6 ADD ADD GT ISZERO PUSH2 0x2C94 JUMPI PUSH1 0x0 DUP1 REVERT JUMPDEST PUSH1 0x0 DUP1 PUSH1 0x0 DUP1 PUSH1 0x0 DUP1 PUSH1 0x0 DUP1 PUSH1 0x0 DUP10 DUP12 SUB PUSH2 0x1A0 DUP2 SLT ISZERO PUSH2 0x2D00 JUMPI PUSH1 0x0 DUP1 REVERT JUMPDEST DUP11 CALLDATALOAD PUSH8 0xFFFFFFFFFFFFFFFF DUP1 DUP3 GT ISZERO PUSH2 0x2D18 JUMPI PUSH1 0x0 DUP1 REVERT JUMPDEST PUSH2 0x2D24 DUP15 DUP4 DUP16 ADD PUSH2 0x2C52 JUMP JUMPDEST SWAP1 SWAP13 POP SWAP11 POP DUP11 SWAP2 POP PUSH2 0x120 PUSH32 0xFFFFFFFFFFFFFFFFFFFFFFFFFFFFFFFFFFFFFFFFFFFFFFFFFFFFFFFFFFFFFFE0 DUP5 ADD SLT ISZERO PUSH2 0x2D5D JUMPI PUSH1 0x0 DUP1 REVERT JUMPDEST PUSH1 0x20 DUP14 ADD SWAP10 POP PUSH2 0x140 DUP14 ADD CALLDATALOAD SWAP3 POP DUP1 DUP4 GT ISZERO PUSH2 0x2D78 JUMPI PUSH1 0x0 DUP1 REVERT JUMPDEST PUSH2 0x2D84 DUP15 DUP5 DUP16 ADD PUSH2 0x2C9B JUMP JUMPDEST SWAP1 SWAP10 POP SWAP8 POP PUSH2 0x160 DUP14 ADD CALLDATALOAD SWAP3 POP DUP9 SWAP2 POP DUP1 DUP4 GT ISZERO PUSH2 0x2DA1 JUMPI PUSH1 0x0 DUP1 REVERT JUMPDEST PUSH2 0x2DAD DUP15 DUP5 DUP16 ADD PUSH2 0x2C9B JUMP JUMPDEST SWAP1 SWAP8 POP SWAP6 POP PUSH2 0x180 DUP14 ADD CALLDATALOAD SWAP3 POP DUP7 SWAP2 POP DUP1 DUP4 GT ISZERO PUSH2 0x2DCA JUMPI PUSH1 0x0 DUP1 REVERT JUMPDEST POP POP PUSH2 0x2DD8 DUP13 DUP3 DUP14 ADD PUSH2 0x2C9B JUMP JUMPDEST SWAP2 POP DUP1 SWAP4 POP POP DUP1 SWAP2 POP POP SWAP3 SWAP6 SWAP9 POP SWAP3 SWAP6 SWAP9 POP SWAP3 SWAP6 SWAP9 JUMP JUMPDEST PUSH1 0x0 PUSH1 0x80 DUP3 DUP5 SUB SLT ISZERO PUSH2 0x2E01 JUMPI PUSH1 0x0 DUP1 REVERT JUMPDEST POP SWAP2 SWAP1 POP JUMP JUMPDEST PUSH1 0x0 DUP1 PUSH1 0x40 DUP4 DUP6 SUB SLT ISZERO PUSH2 0x2E1A JUMPI PUSH1 0x0 DUP1 REVERT JUMPDEST DUP3 CALLDATALOAD PUSH8 0xFFFFFFFFFFFFFFFF DUP1 DUP3 GT ISZERO PUSH2 0x2E32 JUMPI PUSH1 0x0 DUP1 REVERT JUMPDEST PUSH2 0x2E3E DUP7 DUP4 DUP8 ADD PUSH2 0x2DEF JUMP JUMPDEST SWAP4 POP PUSH1 0x20 DUP6 ADD CALLDATALOAD SWAP2 POP DUP1 DUP3 GT ISZERO PUSH2 0x2E54 JUMPI PUSH1 0x0 DUP1 REVERT JUMPDEST POP DUP4 ADD PUSH2 0x1A0 DUP2 DUP7 SUB SLT ISZERO PUSH2 0x2E68 JUMPI PUSH1 0x0 DUP1 REVERT JUMPDEST DUP1 SWAP2 POP POP SWAP3 POP SWAP3 SWAP1 POP JUMP JUMPDEST PUSH1 0x0 PUSH1 0x20 DUP3 DUP5 SUB SLT ISZERO PUSH2 0x2E85 JUMPI PUSH1 0x0 DUP1 REVERT JUMPDEST POP CALLDATALOAD SWAP2 SWAP1 POP JUMP JUMPDEST PUSH1 0x0 DUP1 PUSH1 0x0 DUP1 PUSH1 0x0 DUP1 PUSH1 0x0 DUP1 PUSH1 0x0 PUSH2 0x100 DUP11 DUP13 SUB SLT ISZERO PUSH2 0x2EAB JUMPI PUSH1 0x0 DUP1 REVERT JUMPDEST DUP10 CALLDATALOAD PUSH8 0xFFFFFFFFFFFFFFFF DUP1 DUP3 GT ISZERO PUSH2 0x2EC3 JUMPI PUSH1 0x0 DUP1 REVERT JUMPDEST PUSH2 0x2ECF DUP14 DUP4 DUP15 ADD PUSH2 0x2C52 JUMP JUMPDEST SWAP1 SWAP12 POP SWAP10 POP DUP10 SWAP2 POP PUSH2 0x2EE4 DUP14 PUSH1 0x20 DUP15 ADD PUSH2 0x2DEF JUMP JUMPDEST SWAP9 POP PUSH1 0xA0 DUP13 ADD CALLDATALOAD SWAP2 POP DUP1 DUP3 GT ISZERO PUSH2 0x2EFA JUMPI PUSH1 0x0 DUP1 REVERT JUMPDEST PUSH2 0x2F06 DUP14 DUP4 DUP15 ADD PUSH2 0x2C9B JUMP JUMPDEST SWAP1 SWAP9 POP SWAP7 POP PUSH1 0xC0 DUP13 ADD CALLDATALOAD SWAP2 POP DUP1 DUP3 GT ISZERO PUSH2 0x2F1F JUMPI PUSH1 0x0 DUP1 REVERT JUMPDEST PUSH2 0x2F2B DUP14 DUP4 DUP15 ADD PUSH2 0x2C9B JUMP JUMPDEST SWAP1 SWAP7 POP SWAP5 POP PUSH1 0xE0 DUP13 ADD CALLDATALOAD SWAP2 POP DUP1 DUP3 GT ISZERO PUSH2 0x2F44 JUMPI PUSH1 0x0 DUP1 REVERT JUMPDEST POP PUSH2 0x2DD8 DUP13 DUP3 DUP14 ADD PUSH2 0x2C9B JUMP JUMPDEST PUSH32 0x4E487B7100000000000000000000000000000000000000000000000000000000 PUSH1 0x0 MSTORE PUSH1 0x21 PUSH1 0x4 MSTORE PUSH1 0x24 PUSH1 0x0 REVERT JUMPDEST PUSH1 0x5 DUP2 LT PUSH2 0x2F90 JUMPI PUSH2 0x2F90 PUSH2 0x2F51 JUMP JUMPDEST SWAP1 MSTORE JUMP JUMPDEST PUSH1 0x20 DUP2 ADD PUSH2 0x2C08 DUP3 DUP5 PUSH2 0x2F80 JUMP JUMPDEST DUP6 DUP2 MSTORE DUP5 PUSH1 0x20 DUP3 ADD MSTORE DUP3 DUP5 PUSH1 0x40 DUP4 ADD CALLDATACOPY PUSH1 0x40 SWAP3 ADD SWAP2 DUP3 ADD MSTORE PUSH1 0x60 ADD SWAP4 SWAP3 POP POP POP JUMP JUMPDEST PUSH1 0x0 JUMPDEST DUP4 DUP2 LT ISZERO PUSH2 0x2FDF JUMPI DUP2 DUP2 ADD MLOAD DUP4 DUP3 ADD MSTORE PUSH1 0x20 ADD PUSH2 0x2FC7 JUMP JUMPDEST DUP4 DUP2 GT ISZERO PUSH2 0x2FEE JUMPI PUSH1 0x0 DUP5 DUP5 ADD MSTORE JUMPDEST POP POP POP POP JUMP JUMPDEST PUSH1 0x0 DUP2 MLOAD DUP1 DUP5 MSTORE PUSH2 0x300C DUP2 PUSH1 0x20 DUP7 ADD PUSH1 0x20 DUP7 ADD PUSH2 0x2FC4 JUMP JUMPDEST PUSH1 0x1F ADD PUSH32 0xFFFFFFFFFFFFFFFFFFFFFFFFFFFFFFFFFFFFFFFFFFFFFFFFFFFFFFFFFFFFFFE0 AND SWAP3 SWAP1 SWAP3 ADD PUSH1 0x20 ADD SWAP3 SWAP2 POP POP JUMP JUMPDEST DUP2 DUP4 MSTORE DUP2 DUP2 PUSH1 0x20 DUP6 ADD CALLDATACOPY POP PUSH1 0x0 PUSH1 0x20 DUP3 DUP5 ADD ADD MSTORE PUSH1 0x0 PUSH1 0x20 PUSH32 0xFFFFFFFFFFFFFFFFFFFFFFFFFFFFFFFFFFFFFFFFFFFFFFFFFFFFFFFFFFFFFFE0 PUSH1 0x1F DUP5 ADD AND DUP5 ADD ADD SWAP1 POP SWAP3 SWAP2 POP POP JUMP JUMPDEST PUSH1 0x0 DUP4 DUP4 DUP6 MSTORE PUSH1 0x20 DUP1 DUP7 ADD SWAP6 POP DUP1 DUP6 PUSH1 0x5 SHL DUP4 ADD ADD DUP5 PUSH1 0x0 JUMPDEST DUP8 DUP2 LT ISZERO PUSH2 0x314A JUMPI PUSH32 0xFFFFFFFFFFFFFFFFFFFFFFFFFFFFFFFFFFFFFFFFFFFFFFFFFFFFFFFFFFFFFFE0 DUP6 DUP5 SUB ADD DUP10 MSTORE DUP2 CALLDATALOAD PUSH32 0xFFFFFFFFFFFFFFFFFFFFFFFFFFFFFFFFFFFFFFFFFFFFFFFFFFFFFFFFFFFFFFE1 DUP9 CALLDATASIZE SUB ADD DUP2 SLT PUSH2 0x3101 JUMPI PUSH1 0x0 DUP1 REVERT JUMPDEST DUP8 ADD DUP1 CALLDATALOAD PUSH8 0xFFFFFFFFFFFFFFFF DUP2 GT ISZERO PUSH2 0x311A JUMPI PUSH1 0x0 DUP1 REVERT JUMPDEST DUP1 CALLDATASIZE SUB DUP10 SGT ISZERO PUSH2 0x3129 JUMPI PUSH1 0x0 DUP1 REVERT JUMPDEST PUSH2 0x3136 DUP6 DUP3 DUP9 DUP6 ADD PUSH2 0x303E JUMP JUMPDEST SWAP11 DUP7 ADD SWAP11 SWAP5 POP POP POP SWAP1 DUP4 ADD SWAP1 PUSH1 0x1 ADD PUSH2 0x30A0 JUMP JUMPDEST POP SWAP1 SWAP8 SWAP7 POP POP POP POP POP POP POP JUMP JUMPDEST DUP2 DUP4 MSTORE PUSH1 0x0 PUSH1 0x20 DUP1 DUP6 ADD SWAP5 POP DUP3 PUSH1 0x0 JUMPDEST DUP6 DUP2 LT ISZERO PUSH2 0x31A0 JUMPI PUSH20 0xFFFFFFFFFFFFFFFFFFFFFFFFFFFFFFFFFFFFFFFF PUSH2 0x318D DUP4 PUSH2 0x2C0E JUMP JUMPDEST AND DUP8 MSTORE SWAP6 DUP3 ADD SWAP6 SWAP1 DUP3 ADD SWAP1 PUSH1 0x1 ADD PUSH2 0x3167 JUMP JUMPDEST POP SWAP5 SWAP6 SWAP5 POP POP POP POP POP JUMP JUMPDEST DUP2 DUP4 MSTORE PUSH1 0x0 PUSH32 0x7FFFFFFFFFFFFFFFFFFFFFFFFFFFFFFFFFFFFFFFFFFFFFFFFFFFFFFFFFFFFFF DUP4 GT ISZERO PUSH2 0x31DD JUMPI PUSH1 0x0 DUP1 REVERT JUMPDEST DUP3 PUSH1 0x5 SHL DUP1 DUP4 PUSH1 0x20 DUP8 ADD CALLDATACOPY PUSH1 0x0 SWAP5 ADD PUSH1 0x20 ADD SWAP4 DUP5 MSTORE POP SWAP2 SWAP3 SWAP2 POP POP JUMP JUMPDEST PUSH1 0x80 DUP2 MSTORE PUSH1 0x0 PUSH2 0x320D PUSH1 0x80 DUP4 ADD DUP11 PUSH2 0x2FF4 JUMP JUMPDEST DUP3 DUP2 SUB PUSH1 0x20 DUP5 ADD MSTORE PUSH2 0x3220 DUP2 DUP10 DUP12 PUSH2 0x3087 JUMP JUMPDEST SWAP1 POP DUP3 DUP2 SUB PUSH1 0x40 DUP5 ADD MSTORE PUSH2 0x3235 DUP2 DUP8 DUP10 PUSH2 0x3157 JUMP JUMPDEST SWAP1 POP DUP3 DUP2 SUB PUSH1 0x60 DUP5 ADD MSTORE PUSH2 0x324A DUP2 DUP6 DUP8 PUSH2 0x31AB JUMP JUMPDEST SWAP11 SWAP10 POP POP POP POP POP POP POP POP POP POP JUMP JUMPDEST PUSH1 0x0 PUSH1 0x20 DUP3 DUP5 SUB SLT ISZERO PUSH2 0x326A JUMPI PUSH1 0x0 DUP1 REVERT JUMPDEST DUP2 CALLDATALOAD PUSH8 0xFFFFFFFFFFFFFFFF DUP2 AND DUP2 EQ PUSH2 0x2542 JUMPI PUSH1 0x0 DUP1 REVERT JUMPDEST PUSH1 0x2 DUP2 LT PUSH2 0x2F90 JUMPI PUSH2 0x2F90 PUSH2 0x2F51 JUMP JUMPDEST PUSH1 0x80 DUP2 ADD PUSH2 0x32A0 DUP3 DUP8 PUSH2 0x3282 JUMP JUMPDEST DUP5 PUSH1 0x20 DUP4 ADD MSTORE PUSH8 0xFFFFFFFFFFFFFFFF DUP5 AND PUSH1 0x40 DUP4 ADD MSTORE DUP3 PUSH1 0x60 DUP4 ADD MSTORE SWAP6 SWAP5 POP POP POP POP POP JUMP JUMPDEST PUSH1 0x0 PUSH1 0x20 DUP3 DUP5 SUB SLT ISZERO PUSH2 0x32D7 JUMPI PUSH1 0x0 DUP1 REVERT JUMPDEST DUP2 CALLDATALOAD PUSH1 0x7 DUP2 LT PUSH2 0x2542 JUMPI PUSH1 0x0 DUP1 REVERT JUMPDEST PUSH1 0x0 DUP1 DUP4 CALLDATALOAD PUSH32 0xFFFFFFFFFFFFFFFFFFFFFFFFFFFFFFFFFFFFFFFFFFFFFFFFFFFFFFFFFFFFFFE1 DUP5 CALLDATASIZE SUB ADD DUP2 SLT PUSH2 0x331B JUMPI PUSH1 0x0 DUP1 REVERT JUMPDEST DUP4 ADD DUP1 CALLDATALOAD SWAP2 POP PUSH8 0xFFFFFFFFFFFFFFFF DUP3 GT ISZERO PUSH2 0x3336 JUMPI PUSH1 0x0 DUP1 REVERT JUMPDEST PUSH1 0x20 ADD SWAP2 POP CALLDATASIZE DUP2 SWAP1 SUB DUP3 SGT ISZERO PUSH2 0x2C94 JUMPI PUSH1 0x0 DUP1 REVERT JUMPDEST PUSH1 0x0 DUP1 DUP4 CALLDATALOAD PUSH32 0xFFFFFFFFFFFFFFFFFFFFFFFFFFFFFFFFFFFFFFFFFFFFFFFFFFFFFFFFFFFFFFE1 DUP5 CALLDATASIZE SUB ADD DUP2 SLT PUSH2 0x3380 JUMPI PUSH1 0x0 DUP1 REVERT JUMPDEST DUP4 ADD DUP1 CALLDATALOAD SWAP2 POP PUSH8 0xFFFFFFFFFFFFFFFF DUP3 GT ISZERO PUSH2 0x339B JUMPI PUSH1 0x0 DUP1 REVERT JUMPDEST PUSH1 0x20 ADD SWAP2 POP PUSH1 0x5 DUP2 SWAP1 SHL CALLDATASIZE SUB DUP3 SGT ISZERO PUSH2 0x2C94 JUMPI PUSH1 0x0 DUP1 REVERT JUMPDEST PUSH1 0x0 PUSH1 0x20 DUP3 DUP5 SUB SLT ISZERO PUSH2 0x33C5 JUMPI PUSH1 0x0 DUP1 REVERT JUMPDEST DUP2 MLOAD DUP1 ISZERO ISZERO DUP2 EQ PUSH2 0x2542 JUMPI PUSH1 0x0 DUP1 REVERT JUMPDEST PUSH1 0x2 DUP2 LT PUSH2 0x33E5 JUMPI PUSH2 0x33E5 PUSH2 0x2F51 JUMP JUMPDEST PUSH1 0xF8 SHL SWAP1 MSTORE JUMP JUMPDEST PUSH2 0x33F6 DUP2 DUP6 PUSH2 0x33D5 JUMP JUMPDEST PUSH1 0x60 SWAP3 SWAP1 SWAP3 SHL PUSH32 0xFFFFFFFFFFFFFFFFFFFFFFFFFFFFFFFFFFFFFFFF000000000000000000000000 AND PUSH1 0x1 DUP4 ADD MSTORE PUSH1 0x15 DUP3 ADD MSTORE PUSH1 0x35 ADD SWAP2 SWAP1 POP JUMP JUMPDEST PUSH1 0x0 PUSH20 0xFFFFFFFFFFFFFFFFFFFFFFFFFFFFFFFFFFFFFFFF DUP1 DUP11 AND DUP4 MSTORE DUP1 DUP10 AND PUSH1 0x20 DUP5 ADD MSTORE DUP8 PUSH1 0x40 DUP5 ADD MSTORE PUSH8 0xFFFFFFFFFFFFFFFF DUP8 AND PUSH1 0x60 DUP5 ADD MSTORE PUSH1 0xC0 PUSH1 0x80 DUP5 ADD MSTORE PUSH2 0x347F PUSH1 0xC0 DUP5 ADD DUP7 DUP9 PUSH2 0x303E JUMP JUMPDEST SWAP2 POP DUP1 DUP5 AND PUSH1 0xA0 DUP5 ADD MSTORE POP SWAP9 SWAP8 POP POP POP POP POP POP POP POP JUMP JUMPDEST PUSH1 0x0 DUP3 MLOAD PUSH2 0x34A8 DUP2 DUP5 PUSH1 0x20 DUP8 ADD PUSH2 0x2FC4 JUMP JUMPDEST SWAP2 SWAP1 SWAP2 ADD SWAP3 SWAP2 POP POP JUMP JUMPDEST PUSH1 0x0 PUSH1 0x20 DUP3 DUP5 SUB SLT ISZERO PUSH2 0x34C4 JUMPI PUSH1 0x0 DUP1 REVERT JUMPDEST DUP2 MLOAD PUSH1 0x3 DUP2 LT PUSH2 0x2542 JUMPI PUSH1 0x0 DUP1 REVERT JUMPDEST PUSH1 0xA0 DUP2 ADD PUSH2 0x34E1 DUP3 DUP9 PUSH2 0x3282 JUMP JUMPDEST DUP6 PUSH1 0x20 DUP4 ADD MSTORE PUSH2 0x34F4 PUSH1 0x40 DUP4 ADD DUP7 PUSH2 0x2F80 JUMP JUMPDEST PUSH8 0xFFFFFFFFFFFFFFFF SWAP4 SWAP1 SWAP4 AND PUSH1 0x60 DUP3 ADD MSTORE PUSH1 0x80 ADD MSTORE SWAP4 SWAP3 POP POP POP JUMP JUMPDEST PUSH1 0x80 DUP2 MSTORE PUSH1 0x0 PUSH2 0x3525 PUSH1 0x80 DUP4 ADD DUP11 DUP13 PUSH2 0x303E JUMP JUMPDEST DUP3 DUP2 SUB PUSH1 0x20 DUP5 ADD MSTORE PUSH2 0x3538 DUP2 DUP10 DUP12 PUSH2 0x3087 JUMP JUMPDEST SWAP1 POP DUP3 DUP2 SUB PUSH1 0x40 DUP5 ADD MSTORE PUSH2 0x354D DUP2 DUP8 DUP10 PUSH2 0x3157 JUMP JUMPDEST SWAP1 POP DUP3 DUP2 SUB PUSH1 0x60 DUP5 ADD MSTORE PUSH2 0x3562 DUP2 DUP6 DUP8 PUSH2 0x31AB JUMP JUMPDEST SWAP12 SWAP11 POP POP POP POP POP POP POP POP POP POP POP JUMP JUMPDEST PUSH1 0x0 PUSH1 0x20 DUP3 DUP5 SUB SLT ISZERO PUSH2 0x3583 JUMPI PUSH1 0x0 DUP1 REVERT JUMPDEST POP MLOAD SWAP2 SWAP1 POP JUMP JUMPDEST PUSH2 0x3594 DUP2 DUP11 PUSH2 0x33D5 JUMP JUMPDEST PUSH1 0x0 PUSH32 0xFFFFFFFFFFFFFFFFFFFFFFFFFFFFFFFFFFFFFFFF000000000000000000000000 DUP1 DUP11 PUSH1 0x60 SHL AND PUSH1 0x1 DUP5 ADD MSTORE DUP1 DUP10 PUSH1 0x60 SHL AND PUSH1 0x15 DUP5 ADD MSTORE POP PUSH32 0xFFFFFFFFFFFFFFFF000000000000000000000000000000000000000000000000 DUP1 DUP9 PUSH1 0xC0 SHL AND PUSH1 0x29 DUP5 ADD MSTORE DUP7 PUSH1 0x31 DUP5 ADD MSTORE DUP1 DUP7 PUSH1 0xC0 SHL AND PUSH1 0x51 DUP5 ADD MSTORE POP DUP3 DUP5 PUSH1 0x59 DUP5 ADD CALLDATACOPY POP PUSH1 0x0 SWAP2 ADD PUSH1 0x59 ADD SWAP1 DUP2 MSTORE SWAP8 SWAP7 POP POP POP POP POP POP POP JUMP JUMPDEST PUSH1 0x0 PUSH20 0xFFFFFFFFFFFFFFFFFFFFFFFFFFFFFFFFFFFFFFFF DUP1 DUP9 AND DUP4 MSTORE PUSH8 0xFFFFFFFFFFFFFFFF DUP8 AND PUSH1 0x20 DUP5 ADD MSTORE PUSH1 0x80 PUSH1 0x40 DUP5 ADD MSTORE PUSH2 0x366A PUSH1 0x80 DUP5 ADD DUP7 DUP9 PUSH2 0x303E JUMP JUMPDEST SWAP2 POP DUP1 DUP5 AND PUSH1 0x60 DUP5 ADD MSTORE POP SWAP7 SWAP6 POP POP POP POP POP POP JUMP JUMPDEST PUSH1 0x0 PUSH20 0xFFFFFFFFFFFFFFFFFFFFFFFFFFFFFFFFFFFFFFFF DUP1 DUP9 AND DUP4 MSTORE DUP7 PUSH1 0x20 DUP5 ADD MSTORE PUSH1 0x80 PUSH1 0x40 DUP5 ADD MSTORE PUSH2 0x366A PUSH1 0x80 DUP5 ADD DUP7 DUP9 PUSH2 0x303E JUMP JUMPDEST PUSH1 0x0 DUP3 DUP3 LT ISZERO PUSH2 0x36EF JUMPI PUSH32 0x4E487B7100000000000000000000000000000000000000000000000000000000 PUSH1 0x0 MSTORE PUSH1 0x11 PUSH1 0x4 MSTORE PUSH1 0x24 PUSH1 0x0 REVERT JUMPDEST POP SUB SWAP1 JUMP JUMPDEST PUSH1 0x0 DUP3 PUSH2 0x372A JUMPI PUSH32 0x4E487B7100000000000000000000000000000000000000000000000000000000 PUSH1 0x0 MSTORE PUSH1 0x12 PUSH1 0x4 MSTORE PUSH1 0x24 PUSH1 0x0 REVERT JUMPDEST POP DIV SWAP1 JUMP JUMPDEST PUSH1 0x20 DUP2 MSTORE PUSH1 0x0 PUSH2 0x2542 PUSH1 0x20 DUP4 ADD DUP5 PUSH2 0x2FF4 JUMP JUMPDEST PUSH32 0x4E487B7100000000000000000000000000000000000000000000000000000000 PUSH1 0x0 MSTORE PUSH1 0x41 PUSH1 0x4 MSTORE PUSH1 0x24 PUSH1 0x0 REVERT JUMPDEST PUSH1 0x0 PUSH1 0x20 DUP3 DUP5 SUB SLT ISZERO PUSH2 0x3783 JUMPI PUSH1 0x0 DUP1 REVERT JUMPDEST DUP2 MLOAD PUSH8 0xFFFFFFFFFFFFFFFF DUP1 DUP3 GT ISZERO PUSH2 0x379B JUMPI PUSH1 0x0 DUP1 REVERT JUMPDEST DUP2 DUP5 ADD SWAP2 POP DUP5 PUSH1 0x1F DUP4 ADD SLT PUSH2 0x37AF JUMPI PUSH1 0x0 DUP1 REVERT JUMPDEST DUP2 MLOAD DUP2 DUP2 GT ISZERO PUSH2 0x37C1 JUMPI PUSH2 0x37C1 PUSH2 0x3742 JUMP JUMPDEST PUSH1 0x40 MLOAD PUSH1 0x1F DUP3 ADD PUSH32 0xFFFFFFFFFFFFFFFFFFFFFFFFFFFFFFFFFFFFFFFFFFFFFFFFFFFFFFFFFFFFFFE0 SWAP1 DUP2 AND PUSH1 0x3F ADD AND DUP2 ADD SWAP1 DUP4 DUP3 GT DUP2 DUP4 LT OR ISZERO PUSH2 0x3807 JUMPI PUSH2 0x3807 PUSH2 0x3742 JUMP JUMPDEST DUP2 PUSH1 0x40 MSTORE DUP3 DUP2 MSTORE DUP8 PUSH1 0x20 DUP5 DUP8 ADD ADD GT ISZERO PUSH2 0x3820 JUMPI PUSH1 0x0 DUP1 REVERT JUMPDEST PUSH2 0x3831 DUP4 PUSH1 0x20 DUP4 ADD PUSH1 0x20 DUP9 ADD PUSH2 0x2FC4 JUMP JUMPDEST SWAP8 SWAP7 POP POP POP POP POP POP POP JUMP INVALID LOG2 PUSH5 0x6970667358 0x22 SLT KECCAK256 PUSH23 0x96D2741AA03D2073F910D946361CFE41AB85572D22DD16 PUSH6 0xA3A6C867DA50 SELFDESTRUCT PUSH5 0x736F6C6343 STOP ADDMOD MULMOD STOP CALLER "},"methodIdentifiers":{"executeMessage(bytes,(address,address,uint64,bytes32),bytes[],address[],uint256[])":"468a2d04","executeMessageWithTransfer(bytes,(uint8,address,address,address,uint256,uint64,uint64,bytes32,bytes32),bytes[],address[],uint256[])":"3f395aff","executeMessageWithTransferRefund(bytes,(uint8,address,address,address,uint256,uint64,uint64,bytes32,bytes32),bytes[],address[],uint256[])":"7b80ab20","executedMessages(bytes32)":"cd2abd66","liquidityBridge()":"82980dc4","owner()":"8da5cb5b","pegBridge()":"dfa2dbaf","pegBridgeV2()":"95b12c27","pegVault()":"d8257d17","pegVaultV2()":"c66a9c5a","preExecuteMessageGasUsage()":"584e45e1","refundAndExecuteMsg((bytes,bytes[],address[],uint256[]),(bytes,(uint8,address,address,address,uint256,uint64,uint64,bytes32,bytes32),bytes[],address[],uint256[]))":"40d0d026","setLiquidityBridge(address)":"588be02b","setPegBridge(address)":"03cbfe66","setPegBridgeV2(address)":"82efd502","setPegVault(address)":"9b05a775","setPegVaultV2(address)":"f83b0fb9","setPreExecuteMessageGasUsage(uint256)":"4586f331","transferAndExecuteMsg((bytes,bytes[],address[],uint256[]),(bytes,(uint8,address,address,address,uint256,uint64,uint64,bytes32,bytes32),bytes[],address[],uint256[]))":"723d0a9d","transferOwnership(address)":"f2fde38b"}}}}}