{"sgn-v2-contracts/contracts/message/messagebus/MessageBus.sol":{"MessageBus":{"abi":[{"inputs":[{"internalType":"contract ISigsVerifier","name":"_sigsVerifier","type":"address"},{"internalType":"address","name":"_liquidityBridge","type":"address"},{"internalType":"address","name":"_pegBridge","type":"address"},{"internalType":"address","name":"_pegVault","type":"address"},{"internalType":"address","name":"_pegBridgeV2","type":"address"},{"internalType":"address","name":"_pegVaultV2","type":"address"}],"stateMutability":"nonpayable","type":"constructor"},{"anonymous":false,"inputs":[{"indexed":false,"internalType":"string","name":"reason","type":"string"}],"name":"CallReverted","type":"event"},{"anonymous":false,"inputs":[{"indexed":false,"internalType":"enum MsgDataTypes.MsgType","name":"msgType","type":"uint8"},{"indexed":false,"internalType":"bytes32","name":"msgId","type":"bytes32"},{"indexed":false,"internalType":"enum MsgDataTypes.TxStatus","name":"status","type":"uint8"},{"indexed":true,"internalType":"address","name":"receiver","type":"address"},{"indexed":false,"internalType":"uint64","name":"srcChainId","type":"uint64"},{"indexed":false,"internalType":"bytes32","name":"srcTxHash","type":"bytes32"}],"name":"Executed","type":"event"},{"anonymous":false,"inputs":[{"indexed":false,"internalType":"uint256","name":"feeBase","type":"uint256"}],"name":"FeeBaseUpdated","type":"event"},{"anonymous":false,"inputs":[{"indexed":false,"internalType":"uint256","name":"feePerByte","type":"uint256"}],"name":"FeePerByteUpdated","type":"event"},{"anonymous":false,"inputs":[{"indexed":false,"internalType":"address","name":"liquidityBridge","type":"address"}],"name":"LiquidityBridgeUpdated","type":"event"},{"anonymous":false,"inputs":[{"indexed":true,"internalType":"address","name":"sender","type":"address"},{"indexed":false,"internalType":"address","name":"receiver","type":"address"},{"indexed":false,"internalType":"uint256","name":"dstChainId","type":"uint256"},{"indexed":false,"internalType":"bytes","name":"message","type":"bytes"},{"indexed":false,"internalType":"uint256","name":"fee","type":"uint256"}],"name":"Message","type":"event"},{"anonymous":false,"inputs":[{"indexed":true,"internalType":"address","name":"sender","type":"address"},{"indexed":false,"internalType":"address","name":"receiver","type":"address"},{"indexed":false,"internalType":"uint256","name":"dstChainId","type":"uint256"},{"indexed":false,"internalType":"address","name":"bridge","type":"address"},{"indexed":false,"internalType":"bytes32","name":"srcTransferId","type":"bytes32"},{"indexed":false,"internalType":"bytes","name":"message","type":"bytes"},{"indexed":false,"internalType":"uint256","name":"fee","type":"uint256"}],"name":"MessageWithTransfer","type":"event"},{"anonymous":false,"inputs":[{"indexed":false,"internalType":"enum MsgDataTypes.MsgType","name":"msgType","type":"uint8"},{"indexed":false,"internalType":"bytes32","name":"msgId","type":"bytes32"},{"indexed":false,"internalType":"uint64","name":"srcChainId","type":"uint64"},{"indexed":false,"internalType":"bytes32","name":"srcTxHash","type":"bytes32"}],"name":"NeedRetry","type":"event"},{"anonymous":false,"inputs":[{"indexed":true,"internalType":"address","name":"previousOwner","type":"address"},{"indexed":true,"internalType":"address","name":"newOwner","type":"address"}],"name":"OwnershipTransferred","type":"event"},{"anonymous":false,"inputs":[{"indexed":false,"internalType":"address","name":"pegBridge","type":"address"}],"name":"PegBridgeUpdated","type":"event"},{"anonymous":false,"inputs":[{"indexed":false,"internalType":"address","name":"pegBridgeV2","type":"address"}],"name":"PegBridgeV2Updated","type":"event"},{"anonymous":false,"inputs":[{"indexed":false,"internalType":"address","name":"pegVault","type":"address"}],"name":"PegVaultUpdated","type":"event"},{"anonymous":false,"inputs":[{"indexed":false,"internalType":"address","name":"pegVaultV2","type":"address"}],"name":"PegVaultV2Updated","type":"event"},{"inputs":[{"internalType":"bytes","name":"_message","type":"bytes"}],"name":"calcFee","outputs":[{"internalType":"uint256","name":"","type":"uint256"}],"stateMutability":"view","type":"function"},{"inputs":[{"internalType":"bytes","name":"_message","type":"bytes"},{"components":[{"internalType":"address","name":"sender","type":"address"},{"internalType":"address","name":"receiver","type":"address"},{"internalType":"uint64","name":"srcChainId","type":"uint64"},{"internalType":"bytes32","name":"srcTxHash","type":"bytes32"}],"internalType":"struct MsgDataTypes.RouteInfo","name":"_route","type":"tuple"},{"internalType":"bytes[]","name":"_sigs","type":"bytes[]"},{"internalType":"address[]","name":"_signers","type":"address[]"},{"internalType":"uint256[]","name":"_powers","type":"uint256[]"}],"name":"executeMessage","outputs":[],"stateMutability":"payable","type":"function"},{"inputs":[{"internalType":"bytes","name":"_message","type":"bytes"},{"components":[{"internalType":"enum MsgDataTypes.TransferType","name":"t","type":"uint8"},{"internalType":"address","name":"sender","type":"address"},{"internalType":"address","name":"receiver","type":"address"},{"internalType":"address","name":"token","type":"address"},{"internalType":"uint256","name":"amount","type":"uint256"},{"internalType":"uint64","name":"wdseq","type":"uint64"},{"internalType":"uint64","name":"srcChainId","type":"uint64"},{"internalType":"bytes32","name":"refId","type":"bytes32"},{"internalType":"bytes32","name":"srcTxHash","type":"bytes32"}],"internalType":"struct MsgDataTypes.TransferInfo","name":"_transfer","type":"tuple"},{"internalType":"bytes[]","name":"_sigs","type":"bytes[]"},{"internalType":"address[]","name":"_signers","type":"address[]"},{"internalType":"uint256[]","name":"_powers","type":"uint256[]"}],"name":"executeMessageWithTransfer","outputs":[],"stateMutability":"payable","type":"function"},{"inputs":[{"internalType":"bytes","name":"_message","type":"bytes"},{"components":[{"internalType":"enum MsgDataTypes.TransferType","name":"t","type":"uint8"},{"internalType":"address","name":"sender","type":"address"},{"internalType":"address","name":"receiver","type":"address"},{"internalType":"address","name":"token","type":"address"},{"internalType":"uint256","name":"amount","type":"uint256"},{"internalType":"uint64","name":"wdseq","type":"uint64"},{"internalType":"uint64","name":"srcChainId","type":"uint64"},{"internalType":"bytes32","name":"refId","type":"bytes32"},{"internalType":"bytes32","name":"srcTxHash","type":"bytes32"}],"internalType":"struct MsgDataTypes.TransferInfo","name":"_transfer","type":"tuple"},{"internalType":"bytes[]","name":"_sigs","type":"bytes[]"},{"internalType":"address[]","name":"_signers","type":"address[]"},{"internalType":"uint256[]","name":"_powers","type":"uint256[]"}],"name":"executeMessageWithTransferRefund","outputs":[],"stateMutability":"payable","type":"function"},{"inputs":[{"internalType":"bytes32","name":"","type":"bytes32"}],"name":"executedMessages","outputs":[{"internalType":"enum MsgDataTypes.TxStatus","name":"","type":"uint8"}],"stateMutability":"view","type":"function"},{"inputs":[],"name":"feeBase","outputs":[{"internalType":"uint256","name":"","type":"uint256"}],"stateMutability":"view","type":"function"},{"inputs":[],"name":"feePerByte","outputs":[{"internalType":"uint256","name":"","type":"uint256"}],"stateMutability":"view","type":"function"},{"inputs":[{"internalType":"address","name":"_liquidityBridge","type":"address"},{"internalType":"address","name":"_pegBridge","type":"address"},{"internalType":"address","name":"_pegVault","type":"address"},{"internalType":"address","name":"_pegBridgeV2","type":"address"},{"internalType":"address","name":"_pegVaultV2","type":"address"}],"name":"init","outputs":[],"stateMutability":"nonpayable","type":"function"},{"inputs":[],"name":"liquidityBridge","outputs":[{"internalType":"address","name":"","type":"address"}],"stateMutability":"view","type":"function"},{"inputs":[],"name":"owner","outputs":[{"internalType":"address","name":"","type":"address"}],"stateMutability":"view","type":"function"},{"inputs":[],"name":"pegBridge","outputs":[{"internalType":"address","name":"","type":"address"}],"stateMutability":"view","type":"function"},{"inputs":[],"name":"pegBridgeV2","outputs":[{"internalType":"address","name":"","type":"address"}],"stateMutability":"view","type":"function"},{"inputs":[],"name":"pegVault","outputs":[{"internalType":"address","name":"","type":"address"}],"stateMutability":"view","type":"function"},{"inputs":[],"name":"pegVaultV2","outputs":[{"internalType":"address","name":"","type":"address"}],"stateMutability":"view","type":"function"},{"inputs":[],"name":"preExecuteMessageGasUsage","outputs":[{"internalType":"uint256","name":"","type":"uint256"}],"stateMutability":"view","type":"function"},{"inputs":[{"components":[{"internalType":"bytes","name":"request","type":"bytes"},{"internalType":"bytes[]","name":"sigs","type":"bytes[]"},{"internalType":"address[]","name":"signers","type":"address[]"},{"internalType":"uint256[]","name":"powers","type":"uint256[]"}],"internalType":"struct MsgDataTypes.BridgeTransferParams","name":"_transferParams","type":"tuple"},{"components":[{"internalType":"bytes","name":"message","type":"bytes"},{"components":[{"internalType":"enum MsgDataTypes.TransferType","name":"t","type":"uint8"},{"internalType":"address","name":"sender","type":"address"},{"internalType":"address","name":"receiver","type":"address"},{"internalType":"address","name":"token","type":"address"},{"internalType":"uint256","name":"amount","type":"uint256"},{"internalType":"uint64","name":"wdseq","type":"uint64"},{"internalType":"uint64","name":"srcChainId","type":"uint64"},{"internalType":"bytes32","name":"refId","type":"bytes32"},{"internalType":"bytes32","name":"srcTxHash","type":"bytes32"}],"internalType":"struct MsgDataTypes.TransferInfo","name":"transfer","type":"tuple"},{"internalType":"bytes[]","name":"sigs","type":"bytes[]"},{"internalType":"address[]","name":"signers","type":"address[]"},{"internalType":"uint256[]","name":"powers","type":"uint256[]"}],"internalType":"struct MsgDataTypes.MsgWithTransferExecutionParams","name":"_msgParams","type":"tuple"}],"name":"refundAndExecuteMsg","outputs":[],"stateMutability":"nonpayable","type":"function"},{"inputs":[{"internalType":"address","name":"_receiver","type":"address"},{"internalType":"uint256","name":"_dstChainId","type":"uint256"},{"internalType":"bytes","name":"_message","type":"bytes"}],"name":"sendMessage","outputs":[],"stateMutability":"payable","type":"function"},{"inputs":[{"internalType":"address","name":"_receiver","type":"address"},{"internalType":"uint256","name":"_dstChainId","type":"uint256"},{"internalType":"address","name":"_srcBridge","type":"address"},{"internalType":"bytes32","name":"_srcTransferId","type":"bytes32"},{"internalType":"bytes","name":"_message","type":"bytes"}],"name":"sendMessageWithTransfer","outputs":[],"stateMutability":"payable","type":"function"},{"inputs":[{"internalType":"uint256","name":"_fee","type":"uint256"}],"name":"setFeeBase","outputs":[],"stateMutability":"nonpayable","type":"function"},{"inputs":[{"internalType":"uint256","name":"_fee","type":"uint256"}],"name":"setFeePerByte","outputs":[],"stateMutability":"nonpayable","type":"function"},{"inputs":[{"internalType":"address","name":"_addr","type":"address"}],"name":"setLiquidityBridge","outputs":[],"stateMutability":"nonpayable","type":"function"},{"inputs":[{"internalType":"address","name":"_addr","type":"address"}],"name":"setPegBridge","outputs":[],"stateMutability":"nonpayable","type":"function"},{"inputs":[{"internalType":"address","name":"_addr","type":"address"}],"name":"setPegBridgeV2","outputs":[],"stateMutability":"nonpayable","type":"function"},{"inputs":[{"internalType":"address","name":"_addr","type":"address"}],"name":"setPegVault","outputs":[],"stateMutability":"nonpayable","type":"function"},{"inputs":[{"internalType":"address","name":"_addr","type":"address"}],"name":"setPegVaultV2","outputs":[],"stateMutability":"nonpayable","type":"function"},{"inputs":[{"internalType":"uint256","name":"_usage","type":"uint256"}],"name":"setPreExecuteMessageGasUsage","outputs":[],"stateMutability":"nonpayable","type":"function"},{"inputs":[],"name":"sigsVerifier","outputs":[{"internalType":"contract ISigsVerifier","name":"","type":"address"}],"stateMutability":"view","type":"function"},{"inputs":[{"components":[{"internalType":"bytes","name":"request","type":"bytes"},{"internalType":"bytes[]","name":"sigs","type":"bytes[]"},{"internalType":"address[]","name":"signers","type":"address[]"},{"internalType":"uint256[]","name":"powers","type":"uint256[]"}],"internalType":"struct MsgDataTypes.BridgeTransferParams","name":"_transferParams","type":"tuple"},{"components":[{"internalType":"bytes","name":"message","type":"bytes"},{"components":[{"internalType":"enum MsgDataTypes.TransferType","name":"t","type":"uint8"},{"internalType":"address","name":"sender","type":"address"},{"internalType":"address","name":"receiver","type":"address"},{"internalType":"address","name":"token","type":"address"},{"internalType":"uint256","name":"amount","type":"uint256"},{"internalType":"uint64","name":"wdseq","type":"uint64"},{"internalType":"uint64","name":"srcChainId","type":"uint64"},{"internalType":"bytes32","name":"refId","type":"bytes32"},{"internalType":"bytes32","name":"srcTxHash","type":"bytes32"}],"internalType":"struct MsgDataTypes.TransferInfo","name":"transfer","type":"tuple"},{"internalType":"bytes[]","name":"sigs","type":"bytes[]"},{"internalType":"address[]","name":"signers","type":"address[]"},{"internalType":"uint256[]","name":"powers","type":"uint256[]"}],"internalType":"struct MsgDataTypes.MsgWithTransferExecutionParams","name":"_msgParams","type":"tuple"}],"name":"transferAndExecuteMsg","outputs":[],"stateMutability":"nonpayable","type":"function"},{"inputs":[{"internalType":"address","name":"newOwner","type":"address"}],"name":"transferOwnership","outputs":[],"stateMutability":"nonpayable","type":"function"},{"inputs":[{"internalType":"address","name":"_account","type":"address"},{"internalType":"uint256","name":"_cumulativeFee","type":"uint256"},{"internalType":"bytes[]","name":"_sigs","type":"bytes[]"},{"internalType":"address[]","name":"_signers","type":"address[]"},{"internalType":"uint256[]","name":"_powers","type":"uint256[]"}],"name":"withdrawFee","outputs":[],"stateMutability":"nonpayable","type":"function"},{"inputs":[{"internalType":"address","name":"","type":"address"}],"name":"withdrawnFees","outputs":[{"internalType":"uint256","name":"","type":"uint256"}],"stateMutability":"view","type":"function"}],"devdoc":{"kind":"dev","methods":{"calcFee(bytes)":{"params":{"_message":"Arbitrary message bytes to be decoded by the destination app contract. @return The required fee."}},"executeMessage(bytes,(address,address,uint64,bytes32),bytes[],address[],uint256[])":{"params":{"_message":"Arbitrary message bytes originated from and encoded by the source app contract","_powers":"The signing powers of the signers.","_signers":"The sorted list of signers.","_sigs":"The list of signatures sorted by signing addresses in ascending order. A relay must be signed-off by +2/3 of the sigsVerifier's current signing power to be delivered."}},"executeMessageWithTransfer(bytes,(uint8,address,address,address,uint256,uint64,uint64,bytes32,bytes32),bytes[],address[],uint256[])":{"params":{"_message":"Arbitrary message bytes originated from and encoded by the source app contract","_powers":"The signing powers of the signers.","_signers":"The sorted list of signers.","_sigs":"The list of signatures sorted by signing addresses in ascending order. A relay must be signed-off by +2/3 of the sigsVerifier's current signing power to be delivered.","_transfer":"The transfer info."}},"executeMessageWithTransferRefund(bytes,(uint8,address,address,address,uint256,uint64,uint64,bytes32,bytes32),bytes[],address[],uint256[])":{"params":{"_message":"Arbitrary message bytes originated from and encoded by the source app contract","_powers":"The signing powers of the signers.","_signers":"The sorted list of signers.","_sigs":"The list of signatures sorted by signing addresses in ascending order. A relay must be signed-off by +2/3 of the sigsVerifier's current signing power to be delivered.","_transfer":"The transfer info."}},"owner()":{"details":"Returns the address of the current owner."},"refundAndExecuteMsg((bytes,bytes[],address[],uint256[]),(bytes,(uint8,address,address,address,uint256,uint64,uint64,bytes32,bytes32),bytes[],address[],uint256[]))":{"details":"caller needs to get the required input params from SGN","params":{"_msgParams":"params to execute message for refund","_transferParams":"params to call bridge transfer for refund"}},"sendMessage(address,uint256,bytes)":{"params":{"_dstChainId":"The destination chain ID.","_message":"Arbitrary message bytes to be decoded by the destination app contract.","_receiver":"The address of the destination app contract."}},"sendMessageWithTransfer(address,uint256,address,bytes32,bytes)":{"params":{"_dstChainId":"The destination chain ID.","_message":"Arbitrary message bytes to be decoded by the destination app contract.","_receiver":"The address of the destination app contract.","_srcBridge":"The bridge contract to send the transfer with.","_srcTransferId":"The transfer ID."}},"transferAndExecuteMsg((bytes,bytes[],address[],uint256[]),(bytes,(uint8,address,address,address,uint256,uint64,uint64,bytes32,bytes32),bytes[],address[],uint256[]))":{"details":"caller needs to get the required input params from SGN","params":{"_msgParams":"params to execute message","_transferParams":"params to call bridge transfer"}},"transferOwnership(address)":{"details":"Transfers ownership of the contract to a new account (`newOwner`). Can only be called by the current owner."},"withdrawFee(address,uint256,bytes[],address[],uint256[])":{"params":{"_account":"The address receiving the fee.","_cumulativeFee":"The cumulative fee credited to the account. Tracked by SGN.","_powers":"The signing powers of the signers.","_signers":"The sorted list of signers.","_sigs":"The list of signatures sorted by signing addresses in ascending order. A withdrawal must be signed-off by +2/3 of the sigsVerifier's current signing power to be delivered."}}},"version":1},"evm":{"bytecode":{"linkReferences":{},"object":"60a06040523480156200001157600080fd5b50604051620048143803806200481483398101604081905262000034916200011d565b84848484848a6200004533620000b4565b6001600160a01b03908116608052600580546001600160a01b0319908116978316979097179055600680548716958216959095179094556007805486169385169390931790925560088054851691841691909117905560098054909316911617905550620001b1945050505050565b600080546001600160a01b038381166001600160a01b0319831681178455604051919092169283917f8be0079c531659141344cd1fd0a4f28419497f9722a3daafe3b4186f6b6457e09190a35050565b6001600160a01b03811681146200011a57600080fd5b50565b60008060008060008060c087890312156200013757600080fd5b8651620001448162000104565b6020880151909650620001578162000104565b60408801519095506200016a8162000104565b60608801519094506200017d8162000104565b6080880151909350620001908162000104565b60a0880151909250620001a38162000104565b809150509295509295509295565b608051614640620001d4600039600081816104f3015261099f01526146406000f3fe6080604052600436106101d85760003560e01c806382980dc411610102578063ccf2683b11610095578063e2c1ed2511610064578063e2c1ed25146105ac578063f2fde38b146105cc578063f60bbe2a146105ec578063f83b0fb91461060257600080fd5b8063ccf2683b146104e1578063cd2abd6614610515578063d8257d1714610552578063dfa2dbaf1461057f57600080fd5b806395e911a8116100d157806395e911a81461046b5780639b05a775146104815780639f3ce55a146104a1578063c66a9c5a146104b457600080fd5b806382980dc4146103a157806382efd502146103f35780638da5cb5b1461041357806395b12c271461043e57600080fd5b80634586f3311161017a578063588be02b11610149578063588be02b146103215780635b3e5f5014610341578063723d0a9d1461036e5780637b80ab201461038e57600080fd5b80634586f331146102a5578063468a2d04146102c55780635335dca2146102d8578063584e45e11461030b57600080fd5b8063359ef75b116101b6578063359ef75b1461023f5780633f395aff1461025f57806340d0d026146102725780634289fbb31461029257600080fd5b806303cbfe66146101dd57806306c28bd6146101ff5780632ff4c4111461021f575b600080fd5b3480156101e957600080fd5b506101fd6101f83660046136fa565b610622565b005b34801561020b57600080fd5b506101fd61021a366004613715565b6107bb565b34801561022b57600080fd5b506101fd61023a36600461377a565b61088d565b34801561024b57600080fd5b506101fd61025a36600461382e565b610ba8565b6101fd61026d3660046138d5565b610bc4565b34801561027e57600080fd5b506101fd61028d3660046139fc565b610f5d565b6101fd6102a0366004613a68565b610fb5565b3480156102b157600080fd5b506101fd6102c0366004613715565b6110fa565b6101fd6102d3366004613ae0565b61119c565b3480156102e457600080fd5b506102f86102f3366004613ba5565b6114ca565b6040519081526020015b60405180910390f35b34801561031757600080fd5b506102f8600a5481565b34801561032d57600080fd5b506101fd61033c3660046136fa565b6114f0565b34801561034d57600080fd5b506102f861035c3660046136fa565b60036020526000908152604090205481565b34801561037a57600080fd5b506101fd6103893660046139fc565b61167d565b6101fd61039c3660046138d5565b6116cb565b3480156103ad57600080fd5b506005546103ce9073ffffffffffffffffffffffffffffffffffffffff1681565b60405173ffffffffffffffffffffffffffffffffffffffff9091168152602001610302565b3480156103ff57600080fd5b506101fd61040e3660046136fa565b611962565b34801561041f57600080fd5b5060005473ffffffffffffffffffffffffffffffffffffffff166103ce565b34801561044a57600080fd5b506008546103ce9073ffffffffffffffffffffffffffffffffffffffff1681565b34801561047757600080fd5b506102f860015481565b34801561048d57600080fd5b506101fd61049c3660046136fa565b611aef565b6101fd6104af366004613be7565b611c7c565b3480156104c057600080fd5b506009546103ce9073ffffffffffffffffffffffffffffffffffffffff1681565b3480156104ed57600080fd5b506103ce7f000000000000000000000000000000000000000000000000000000000000000081565b34801561052157600080fd5b50610545610530366004613715565b60046020526000908152604090205460ff1681565b6040516103029190613c84565b34801561055e57600080fd5b506007546103ce9073ffffffffffffffffffffffffffffffffffffffff1681565b34801561058b57600080fd5b506006546103ce9073ffffffffffffffffffffffffffffffffffffffff1681565b3480156105b857600080fd5b506101fd6105c7366004613715565b611dbb565b3480156105d857600080fd5b506101fd6105e73660046136fa565b611e8d565b3480156105f857600080fd5b506102f860025481565b34801561060e57600080fd5b506101fd61061d3660046136fa565b611fd9565b3361064260005473ffffffffffffffffffffffffffffffffffffffff1690565b73ffffffffffffffffffffffffffffffffffffffff16146106c4576040517f08c379a000000000000000000000000000000000000000000000000000000000815260206004820181905260248201527f4f776e61626c653a2063616c6c6572206973206e6f7420746865206f776e657260448201526064015b60405180910390fd5b73ffffffffffffffffffffffffffffffffffffffff8116610741576040517f08c379a000000000000000000000000000000000000000000000000000000000815260206004820152600f60248201527f696e76616c69642061646472657373000000000000000000000000000000000060448201526064016106bb565b600680547fffffffffffffffffffffffff00000000000000000000000000000000000000001673ffffffffffffffffffffffffffffffffffffffff83169081179091556040519081527fd60e9ceb4f54f1bfb1741a4b35fc9d806d7ed48200b523203b92248ea38fa17d906020015b60405180910390a150565b336107db60005473ffffffffffffffffffffffffffffffffffffffff1690565b73ffffffffffffffffffffffffffffffffffffffff1614610858576040517f08c379a000000000000000000000000000000000000000000000000000000000815260206004820181905260248201527f4f776e61626c653a2063616c6c6572206973206e6f7420746865206f776e657260448201526064016106bb565b60018190556040518181527f892dfdc99ecd3bb4f2f2cb118dca02f0bd16640ff156d3c6459d4282e336a5f2906020016107b0565b600046306040516020016108f692919091825260601b7fffffffffffffffffffffffffffffffffffffffff0000000000000000000000001660208201527f77697468647261774665650000000000000000000000000000000000000000006034820152603f0190565b604080518083037fffffffffffffffffffffffffffffffffffffffffffffffffffffffffffffffe0018152828252805160209182012090830181905260608c901b7fffffffffffffffffffffffffffffffffffffffff000000000000000000000000168383015260548084018c90528251808503909101815260748401928390527f682dbc220000000000000000000000000000000000000000000000000000000090925292507f000000000000000000000000000000000000000000000000000000000000000073ffffffffffffffffffffffffffffffffffffffff169163682dbc22916109f3918b908b908b908b908b908b90607801613ea7565b60006040518083038186803b158015610a0b57600080fd5b505afa158015610a1f573d6000803e3d6000fd5b5050505073ffffffffffffffffffffffffffffffffffffffff8916600090815260036020526040812054610a53908a613f34565b905060008111610abf576040517f08c379a000000000000000000000000000000000000000000000000000000000815260206004820152601960248201527f4e6f206e657720616d6f756e7420746f2077697468647261770000000000000060448201526064016106bb565b73ffffffffffffffffffffffffffffffffffffffff8a166000818152600360205260408082208c90555190919061c35090849084818181858888f193505050503d8060008114610b2b576040519150601f19603f3d011682016040523d82523d6000602084013e610b30565b606091505b5050905080610b9b576040517f08c379a000000000000000000000000000000000000000000000000000000000815260206004820152601660248201527f6661696c656420746f207769746864726177206665650000000000000000000060448201526064016106bb565b5050505050505050505050565b610bb0612166565b610bbd85858585856121f1565b5050505050565b6000610bcf886122f5565b90506000808281526004602081905260409091205460ff1690811115610bf757610bf7613c41565b14610c5e576040517f08c379a000000000000000000000000000000000000000000000000000000000815260206004820152601960248201527f7472616e7366657220616c72656164792065786563757465640000000000000060448201526064016106bb565b600081815260046020818152604080842080547fffffffffffffffffffffffffffffffffffffffffffffffffffffffffffffff0016909317909255815146918101919091527fffffffffffffffffffffffffffffffffffffffff0000000000000000000000003060601b16918101919091527f4d657373616765576974685472616e73666572000000000000000000000000006054820152606701604051602081830303815290604052805190602001209050600560009054906101000a900473ffffffffffffffffffffffffffffffffffffffff1673ffffffffffffffffffffffffffffffffffffffff1663682dbc2282848e8e8e6101000135604051602001610d6d959493929190613f4b565b6040516020818303038152906040528a8a8a8a8a8a6040518863ffffffff1660e01b8152600401610da49796959493929190613ea7565b60006040518083038186803b158015610dbc57600080fd5b505afa158015610dd0573d6000803e3d6000fd5b50505050600080610de28b8e8e612e66565b90506001816002811115610df857610df8613c41565b1415610e075760019150610eef565b6002816002811115610e1b57610e1b613c41565b1415610eba57600084815260046020526040812080547fffffffffffffffffffffffffffffffffffffffffffffffffffffffffffffff00166001835b02179055507fe49c2c954d381d1448cf824743aeff9da7a1d82078a7c9e5817269cc359bd26c6000858d60c0016020810190610e939190613f6d565b8e6101000135604051610ea99493929190613fa7565b60405180910390a150505050610f52565b610ec58b8e8e613012565b90506001816002811115610edb57610edb613c41565b1415610eea5760039150610eef565b600291505b6000848152600460208190526040909120805484927fffffffffffffffffffffffffffffffffffffffffffffffffffffffffffffff00909116906001908490811115610f3d57610f3d613c41565b0217905550610f4d84838d613073565b505050505b505050505050505050565b610f76610f706040830160208401613fda565b836130f2565b610fb1610f838280613ffb565b60208401610f95610140860186614060565b610fa3610160880188614060565b61039c6101808a018a614060565b5050565b4685141561101f576040517f08c379a000000000000000000000000000000000000000000000000000000000815260206004820152600f60248201527f496e76616c696420636861696e4964000000000000000000000000000000000060448201526064016106bb565b600061102b83836114ca565b905080341015611097576040517f08c379a000000000000000000000000000000000000000000000000000000000815260206004820152601060248201527f496e73756666696369656e74206665650000000000000000000000000000000060448201526064016106bb565b3373ffffffffffffffffffffffffffffffffffffffff167f172762498a59a3bc4fed3f2b63f94f17ea0193cffdc304fe7d3eaf4d342d2f66888888888888346040516110e997969594939291906140c8565b60405180910390a250505050505050565b3361111a60005473ffffffffffffffffffffffffffffffffffffffff1690565b73ffffffffffffffffffffffffffffffffffffffff1614611197576040517f08c379a000000000000000000000000000000000000000000000000000000000815260206004820181905260248201527f4f776e61626c653a2063616c6c6572206973206e6f7420746865206f776e657260448201526064016106bb565b600a55565b60006111a9888b8b61339f565b90506000808281526004602081905260409091205460ff16908111156111d1576111d1613c41565b14611238576040517f08c379a000000000000000000000000000000000000000000000000000000000815260206004820152601860248201527f6d65737361676520616c7265616479206578656375746564000000000000000060448201526064016106bb565b60008181526004602081815260409283902080547fffffffffffffffffffffffffffffffffffffffffffffffffffffffffffffff0016909217909155815146818301523060601b7fffffffffffffffffffffffffffffffffffffffff00000000000000000000000016818401527f4d6573736167650000000000000000000000000000000000000000000000000060548201528251603b818303018152605b820184528051920191909120600554607b8301829052609b8084018690528451808503909101815260bb8401948590527f682dbc2200000000000000000000000000000000000000000000000000000000909452909273ffffffffffffffffffffffffffffffffffffffff9091169163682dbc2291611364918c908c908c908c908c908c9060bf01613ea7565b60006040518083038186803b15801561137c57600080fd5b505afa158015611390573d6000803e3d6000fd5b505050506000806113a28b8e8e61340e565b905060018160028111156113b8576113b8613c41565b14156113c7576001915061146c565b60028160028111156113db576113db613c41565b141561146757600084815260046020526040812080547fffffffffffffffffffffffffffffffffffffffffffffffffffffffffffffff001660018302179055507fe49c2c954d381d1448cf824743aeff9da7a1d82078a7c9e5817269cc359bd26c6001858d60400160208101906114529190613f6d565b8e60600135604051610ea99493929190613fa7565b600291505b6000848152600460208190526040909120805484927fffffffffffffffffffffffffffffffffffffffffffffffffffffffffffffff009091169060019084908111156114ba576114ba613c41565b0217905550610f4d84838d613493565b6002546000906114da9083614122565b6001546114e7919061415f565b90505b92915050565b3361151060005473ffffffffffffffffffffffffffffffffffffffff1690565b73ffffffffffffffffffffffffffffffffffffffff161461158d576040517f08c379a000000000000000000000000000000000000000000000000000000000815260206004820181905260248201527f4f776e61626c653a2063616c6c6572206973206e6f7420746865206f776e657260448201526064016106bb565b73ffffffffffffffffffffffffffffffffffffffff811661160a576040517f08c379a000000000000000000000000000000000000000000000000000000000815260206004820152600f60248201527f696e76616c69642061646472657373000000000000000000000000000000000060448201526064016106bb565b600580547fffffffffffffffffffffffff00000000000000000000000000000000000000001673ffffffffffffffffffffffffffffffffffffffff83169081179091556040519081527fbf9977180dc6e6cff25598c8e59150cecd7f8e448e092633d38ab7ee223ae058906020016107b0565b611690610f706040830160208401613fda565b610fb161169d8280613ffb565b602084016116af610140860186614060565b6116bd610160880188614060565b61026d6101808a018a614060565b60006116d6886122f5565b90506000808281526004602081905260409091205460ff16908111156116fe576116fe613c41565b14611765576040517f08c379a000000000000000000000000000000000000000000000000000000000815260206004820152601960248201527f7472616e7366657220616c72656164792065786563757465640000000000000060448201526064016106bb565b600081815260046020818152604080842080547fffffffffffffffffffffffffffffffffffffffffffffffffffffffffffffff0016909317909255815146918101919091527fffffffffffffffffffffffffffffffffffffffff0000000000000000000000003060601b16918101919091527f4d657373616765576974685472616e73666572526566756e64000000000000006054820152606d01604051602081830303815290604052805190602001209050600560009054906101000a900473ffffffffffffffffffffffffffffffffffffffff1673ffffffffffffffffffffffffffffffffffffffff1663682dbc2282848e8e8e6101000135604051602001611874959493929190613f4b565b6040516020818303038152906040528a8a8a8a8a8a6040518863ffffffff1660e01b81526004016118ab9796959493929190613ea7565b60006040518083038186803b1580156118c357600080fd5b505afa1580156118d7573d6000803e3d6000fd5b505050506000806118e98b8e8e613504565b905060018160028111156118ff576118ff613c41565b141561190e5760019150610eef565b600281600281111561192257611922613c41565b1415610eea57600084815260046020526040812080547fffffffffffffffffffffffffffffffffffffffffffffffffffffffffffffff0016600183610e57565b3361198260005473ffffffffffffffffffffffffffffffffffffffff1690565b73ffffffffffffffffffffffffffffffffffffffff16146119ff576040517f08c379a000000000000000000000000000000000000000000000000000000000815260206004820181905260248201527f4f776e61626c653a2063616c6c6572206973206e6f7420746865206f776e657260448201526064016106bb565b73ffffffffffffffffffffffffffffffffffffffff8116611a7c576040517f08c379a000000000000000000000000000000000000000000000000000000000815260206004820152600f60248201527f696e76616c69642061646472657373000000000000000000000000000000000060448201526064016106bb565b600880547fffffffffffffffffffffffff00000000000000000000000000000000000000001673ffffffffffffffffffffffffffffffffffffffff83169081179091556040519081527ffb337a6c76476534518d5816caeb86263972470fedccfd047a35eb1825eaa9e8906020016107b0565b33611b0f60005473ffffffffffffffffffffffffffffffffffffffff1690565b73ffffffffffffffffffffffffffffffffffffffff1614611b8c576040517f08c379a000000000000000000000000000000000000000000000000000000000815260206004820181905260248201527f4f776e61626c653a2063616c6c6572206973206e6f7420746865206f776e657260448201526064016106bb565b73ffffffffffffffffffffffffffffffffffffffff8116611c09576040517f08c379a000000000000000000000000000000000000000000000000000000000815260206004820152600f60248201527f696e76616c69642061646472657373000000000000000000000000000000000060448201526064016106bb565b600780547fffffffffffffffffffffffff00000000000000000000000000000000000000001673ffffffffffffffffffffffffffffffffffffffff83169081179091556040519081527fa9db0c32d9c6c2f75f3b95047a9e67cc1c010eab792a4e6ca777ce918ad94aad906020016107b0565b46831415611ce6576040517f08c379a000000000000000000000000000000000000000000000000000000000815260206004820152600f60248201527f496e76616c696420636861696e4964000000000000000000000000000000000060448201526064016106bb565b6000611cf283836114ca565b905080341015611d5e576040517f08c379a000000000000000000000000000000000000000000000000000000000815260206004820152601060248201527f496e73756666696369656e74206665650000000000000000000000000000000060448201526064016106bb565b3373ffffffffffffffffffffffffffffffffffffffff167fce3972bfffe49d317e1d128047a97a3d86b25c94f6f04409f988ef854d25e0e48686868634604051611dac959493929190614177565b60405180910390a25050505050565b33611ddb60005473ffffffffffffffffffffffffffffffffffffffff1690565b73ffffffffffffffffffffffffffffffffffffffff1614611e58576040517f08c379a000000000000000000000000000000000000000000000000000000000815260206004820181905260248201527f4f776e61626c653a2063616c6c6572206973206e6f7420746865206f776e657260448201526064016106bb565b60028190556040518181527f210d4d5d2d36d571207dac98e383e2441c684684c885fb2d7c54f8d24422074c906020016107b0565b33611ead60005473ffffffffffffffffffffffffffffffffffffffff1690565b73ffffffffffffffffffffffffffffffffffffffff1614611f2a576040517f08c379a000000000000000000000000000000000000000000000000000000000815260206004820181905260248201527f4f776e61626c653a2063616c6c6572206973206e6f7420746865206f776e657260448201526064016106bb565b73ffffffffffffffffffffffffffffffffffffffff8116611fcd576040517f08c379a000000000000000000000000000000000000000000000000000000000815260206004820152602660248201527f4f776e61626c653a206e6577206f776e657220697320746865207a65726f206160448201527f646472657373000000000000000000000000000000000000000000000000000060648201526084016106bb565b611fd681613581565b50565b33611ff960005473ffffffffffffffffffffffffffffffffffffffff1690565b73ffffffffffffffffffffffffffffffffffffffff1614612076576040517f08c379a000000000000000000000000000000000000000000000000000000000815260206004820181905260248201527f4f776e61626c653a2063616c6c6572206973206e6f7420746865206f776e657260448201526064016106bb565b73ffffffffffffffffffffffffffffffffffffffff81166120f3576040517f08c379a000000000000000000000000000000000000000000000000000000000815260206004820152600f60248201527f696e76616c69642061646472657373000000000000000000000000000000000060448201526064016106bb565b600980547fffffffffffffffffffffffff00000000000000000000000000000000000000001673ffffffffffffffffffffffffffffffffffffffff83169081179091556040519081527f918a691a2a82482a10e11f43d7b627b2ba220dd08f251cb61933c42560f6fcb5906020016107b0565b60005473ffffffffffffffffffffffffffffffffffffffff16156121e6576040517f08c379a000000000000000000000000000000000000000000000000000000000815260206004820152601160248201527f6f776e657220616c72656164792073657400000000000000000000000000000060448201526064016106bb565b6121ef33613581565b565b60055473ffffffffffffffffffffffffffffffffffffffff1615612271576040517f08c379a000000000000000000000000000000000000000000000000000000000815260206004820152601b60248201527f6c697175696469747942726964676520616c726561647920736574000000000060448201526064016106bb565b600580547fffffffffffffffffffffffff000000000000000000000000000000000000000090811673ffffffffffffffffffffffffffffffffffffffff978816179091556006805482169587169590951790945560078054851693861693909317909255600880548416918516919091179055600980549092169216919091179055565b6000808060016123086020860186613fda565b600681111561231957612319613c41565b14156125425761232f60408501602086016136fa565b61233f60608601604087016136fa565b61234f60808701606088016136fa565b608087013561236460e0890160c08a01613f6d565b6040517fffffffffffffffffffffffffffffffffffffffff000000000000000000000000606096871b8116602083015294861b851660348201529290941b9092166048820152605c8101919091527fffffffffffffffff00000000000000000000000000000000000000000000000060c092831b8116607c8301524690921b909116608482015260e0850135608c82015260ac01604080518083037fffffffffffffffffffffffffffffffffffffffffffffffffffffffffffffffe00181529082905280516020909101206005547f3c64f04b0000000000000000000000000000000000000000000000000000000083526004830182905290935073ffffffffffffffffffffffffffffffffffffffff1691508190633c64f04b9060240160206040518083038186803b15801561249a57600080fd5b505afa1580156124ae573d6000803e3d6000fd5b505050506040513d601f19601f820116820180604052508101906124d291906141bf565b151560011461253d576040517f08c379a000000000000000000000000000000000000000000000000000000000815260206004820152601660248201527f6272696467652072656c6179206e6f742065786973740000000000000000000060448201526064016106bb565b612e31565b60026125516020860186613fda565b600681111561256257612562613c41565b141561275d574661257960c0860160a08701613f6d565b61258960608701604088016136fa565b61259960808801606089016136fa565b6040517fffffffffffffffff00000000000000000000000000000000000000000000000060c095861b811660208301529390941b90921660288401527fffffffffffffffffffffffffffffffffffffffff000000000000000000000000606091821b8116603085015291901b16604482015260808501356058820152607801604080518083037fffffffffffffffffffffffffffffffffffffffffffffffffffffffffffffffe00181529082905280516020909101206005547fe09ab4280000000000000000000000000000000000000000000000000000000083526004830182905290935073ffffffffffffffffffffffffffffffffffffffff169150819063e09ab4289060240160206040518083038186803b1580156126ba57600080fd5b505afa1580156126ce573d6000803e3d6000fd5b505050506040513d601f19601f820116820180604052508101906126f291906141bf565b151560011461253d576040517f08c379a000000000000000000000000000000000000000000000000000000000815260206004820152601960248201527f627269646765207769746864726177206e6f742065786973740000000000000060448201526064016106bb565b600361276c6020860186613fda565b600681111561277d5761277d613c41565b14806127a6575060046127936020860186613fda565b60068111156127a4576127a4613c41565b145b15612af6576127bb60608501604086016136fa565b6127cb60808601606087016136fa565b60808601356127e060408801602089016136fa565b6127f060e0890160c08a01613f6d565b604051606095861b7fffffffffffffffffffffffffffffffffffffffff000000000000000000000000908116602083015294861b851660348201526048810193909352931b909116606882015260c09190911b7fffffffffffffffff00000000000000000000000000000000000000000000000016607c82015260e0850135608482015260a401604080517fffffffffffffffffffffffffffffffffffffffffffffffffffffffffffffffe08184030181529190528051602090910120915060036128be6020860186613fda565b60068111156128cf576128cf613c41565b14156129e657506006546040517f01e647250000000000000000000000000000000000000000000000000000000081526004810183905273ffffffffffffffffffffffffffffffffffffffff9091169081906301e64725906024015b60206040518083038186803b15801561294357600080fd5b505afa158015612957573d6000803e3d6000fd5b505050506040513d601f19601f8201168201806040525081019061297b91906141bf565b151560011461253d576040517f08c379a000000000000000000000000000000000000000000000000000000000815260206004820152601560248201527f6d696e74207265636f7264206e6f74206578697374000000000000000000000060448201526064016106bb565b506007546040517f01e647250000000000000000000000000000000000000000000000000000000081526004810183905273ffffffffffffffffffffffffffffffffffffffff9091169081906301e647259060240160206040518083038186803b158015612a5357600080fd5b505afa158015612a67573d6000803e3d6000fd5b505050506040513d601f19601f82011682018060405250810190612a8b91906141bf565b151560011461253d576040517f08c379a000000000000000000000000000000000000000000000000000000000815260206004820152601960248201527f7769746864726177207265636f7264206e6f742065786973740000000000000060448201526064016106bb565b6005612b056020860186613fda565b6006811115612b1657612b16613c41565b1480612b3f57506006612b2c6020860186613fda565b6006811115612b3d57612b3d613c41565b145b15612e31576005612b536020860186613fda565b6006811115612b6457612b64613c41565b1415612b89575060085473ffffffffffffffffffffffffffffffffffffffff16612ba4565b5060095473ffffffffffffffffffffffffffffffffffffffff165b612bb460608501604086016136fa565b612bc460808601606087016136fa565b6080860135612bd960408801602089016136fa565b612be960e0890160c08a01613f6d565b604051606095861b7fffffffffffffffffffffffffffffffffffffffff000000000000000000000000908116602083015294861b85166034820152604881019390935290841b8316606883015260c01b7fffffffffffffffff00000000000000000000000000000000000000000000000016607c82015260e087013560848201529183901b1660a482015260b801604080517fffffffffffffffffffffffffffffffffffffffffffffffffffffffffffffffe0818403018152919052805160209091012091506005612cbe6020860186613fda565b6006811115612ccf57612ccf613c41565b1415612d28576040517f01e647250000000000000000000000000000000000000000000000000000000081526004810183905273ffffffffffffffffffffffffffffffffffffffff8216906301e647259060240161292b565b6040517f01e647250000000000000000000000000000000000000000000000000000000081526004810183905273ffffffffffffffffffffffffffffffffffffffff8216906301e647259060240160206040518083038186803b158015612d8e57600080fd5b505afa158015612da2573d6000803e3d6000fd5b505050506040513d601f19601f82011682018060405250810190612dc691906141bf565b1515600114612e31576040517f08c379a000000000000000000000000000000000000000000000000000000000815260206004820152601960248201527f7769746864726177207265636f7264206e6f742065786973740000000000000060448201526064016106bb565b60008183604051602001612e47939291906141f8565b6040516020818303038152906040528051906020012092505050919050565b6000805a9050600080612e7f60608801604089016136fa565b73ffffffffffffffffffffffffffffffffffffffff16347f7cd2bffc00000000000000000000000000000000000000000000000000000000612ec760408b0160208c016136fa565b612ed760808c0160608d016136fa565b60808c0135612eec60e08e0160c08f01613f6d565b8c8c33604051602401612f05979695949392919061423c565b604080517fffffffffffffffffffffffffffffffffffffffffffffffffffffffffffffffe08184030181529181526020820180517bffffffffffffffffffffffffffffffffffffffffffffffffffffffff167fffffffff00000000000000000000000000000000000000000000000000000000909416939093179092529051612f8e91906142a2565b60006040518083038185875af1925050503d8060008114612fcb576040519150601f19603f3d011682016040523d82523d6000602084013e612fd0565b606091505b50915091508115612ff95780806020019051810190612fef91906142be565b935050505061300b565b61300383826135f6565b600093505050505b9392505050565b6000805a905060008061302b60608801604089016136fa565b73ffffffffffffffffffffffffffffffffffffffff16347f5ab7afc600000000000000000000000000000000000000000000000000000000612ec760408b0160208c016136fa565b61308360608201604083016136fa565b73ffffffffffffffffffffffffffffffffffffffff167fa635eb05143f74743822bbd96428928de4c8ee8cc578299749be9425c17bb34d600085856130ce60e0870160c08801613f6d565b8661010001356040516130e59594939291906142df565b60405180910390a2505050565b600182600681111561310657613106613c41565b14156131b45760055473ffffffffffffffffffffffffffffffffffffffff1663cdd1b25d6131348380613ffb565b6131416020860186614060565b61314e6040880188614060565b61315b60608a018a614060565b6040518963ffffffff1660e01b815260040161317e98979695949392919061431d565b600060405180830381600087803b15801561319857600080fd5b505af11580156131ac573d6000803e3d6000fd5b505050505050565b60028260068111156131c8576131c8613c41565b14156131f65760055473ffffffffffffffffffffffffffffffffffffffff1663a21a92806131348380613ffb565b600382600681111561320a5761320a613c41565b14156132385760065473ffffffffffffffffffffffffffffffffffffffff1663f87343026131348380613ffb565b600582600681111561324c5761324c613c41565b141561331b5760085473ffffffffffffffffffffffffffffffffffffffff1663f873430261327a8380613ffb565b6132876020860186614060565b6132946040880188614060565b6132a160608a018a614060565b6040518963ffffffff1660e01b81526004016132c498979695949392919061431d565b602060405180830381600087803b1580156132de57600080fd5b505af11580156132f2573d6000803e3d6000fd5b505050506040513d601f19601f82011682018060405250810190613316919061437d565b505050565b600482600681111561332f5761332f613c41565b141561335d5760075473ffffffffffffffffffffffffffffffffffffffff1663a21a92806131348380613ffb565b600682600681111561337157613371613c41565b1415610fb15760095473ffffffffffffffffffffffffffffffffffffffff1663a21a928061327a8380613ffb565b600060016133b060208601866136fa565b6133c060408701602088016136fa565b6133d06060880160408901613f6d565b87606001354688886040516020016133ef989796959493929190614396565b6040516020818303038152906040528051906020012090509392505050565b6000805a905060008061342760408801602089016136fa565b73ffffffffffffffffffffffffffffffffffffffff16347f9c649fdf0000000000000000000000000000000000000000000000000000000061346c60208b018b6136fa565b61347c60608c0160408d01613f6d565b8a8a33604051602401612f05959493929190614435565b6134a360408201602083016136fa565b73ffffffffffffffffffffffffffffffffffffffff167fa635eb05143f74743822bbd96428928de4c8ee8cc578299749be9425c17bb34d600185856134ee6060870160408801613f6d565b86606001356040516130e59594939291906142df565b6000805a905060008061351d60608801604089016136fa565b73ffffffffffffffffffffffffffffffffffffffff16347f0bcb49820000000000000000000000000000000000000000000000000000000061356560808b0160608c016136fa565b8a608001358a8a33604051602401612f0595949392919061448b565b6000805473ffffffffffffffffffffffffffffffffffffffff8381167fffffffffffffffffffffffff0000000000000000000000000000000000000000831681178455604051919092169283917f8be0079c531659141344cd1fd0a4f28419497f9722a3daafe3b4186f6b6457e09190a35050565b60005a90506000600a544561360b9190613f34565b9050808410801561362657506136226040856144c2565b8211155b1561362d57fe5b7fffdd6142bbb721f3400e3908b04b86f60649b2e4d191e3f4c50c32c3e6471d2f61365784613672565b60405161366491906144fd565b60405180910390a150505050565b60606044825110156136b757505060408051808201909152601d81527f5472616e73616374696f6e2072657665727465642073696c656e746c79000000602082015290565b600482019150818060200190518101906114ea919061453f565b803573ffffffffffffffffffffffffffffffffffffffff811681146136f557600080fd5b919050565b60006020828403121561370c57600080fd5b6114e7826136d1565b60006020828403121561372757600080fd5b5035919050565b60008083601f84011261374057600080fd5b50813567ffffffffffffffff81111561375857600080fd5b6020830191508360208260051b850101111561377357600080fd5b9250929050565b60008060008060008060008060a0898b03121561379657600080fd5b61379f896136d1565b975060208901359650604089013567ffffffffffffffff808211156137c357600080fd5b6137cf8c838d0161372e565b909850965060608b01359150808211156137e857600080fd5b6137f48c838d0161372e565b909650945060808b013591508082111561380d57600080fd5b5061381a8b828c0161372e565b999c989b5096995094979396929594505050565b600080600080600060a0868803121561384657600080fd5b61384f866136d1565b945061385d602087016136d1565b935061386b604087016136d1565b9250613879606087016136d1565b9150613887608087016136d1565b90509295509295909350565b60008083601f8401126138a557600080fd5b50813567ffffffffffffffff8111156138bd57600080fd5b60208301915083602082850101111561377357600080fd5b6000806000806000806000806000898b036101a08112156138f557600080fd5b8a3567ffffffffffffffff8082111561390d57600080fd5b6139198e838f01613893565b909c509a508a91506101207fffffffffffffffffffffffffffffffffffffffffffffffffffffffffffffffe08401121561395257600080fd5b60208d0199506101408d013592508083111561396d57600080fd5b6139798e848f0161372e565b90995097506101608d013592508891508083111561399657600080fd5b6139a28e848f0161372e565b90975095506101808d01359250869150808311156139bf57600080fd5b50506139cd8c828d0161372e565b915080935050809150509295985092959850929598565b6000608082840312156139f657600080fd5b50919050565b60008060408385031215613a0f57600080fd5b823567ffffffffffffffff80821115613a2757600080fd5b613a33868387016139e4565b93506020850135915080821115613a4957600080fd5b5083016101a08186031215613a5d57600080fd5b809150509250929050565b60008060008060008060a08789031215613a8157600080fd5b613a8a876136d1565b955060208701359450613a9f604088016136d1565b935060608701359250608087013567ffffffffffffffff811115613ac257600080fd5b613ace89828a01613893565b979a9699509497509295939492505050565b60008060008060008060008060006101008a8c031215613aff57600080fd5b893567ffffffffffffffff80821115613b1757600080fd5b613b238d838e01613893565b909b509950899150613b388d60208e016139e4565b985060a08c0135915080821115613b4e57600080fd5b613b5a8d838e0161372e565b909850965060c08c0135915080821115613b7357600080fd5b613b7f8d838e0161372e565b909650945060e08c0135915080821115613b9857600080fd5b506139cd8c828d0161372e565b60008060208385031215613bb857600080fd5b823567ffffffffffffffff811115613bcf57600080fd5b613bdb85828601613893565b90969095509350505050565b60008060008060608587031215613bfd57600080fd5b613c06856136d1565b935060208501359250604085013567ffffffffffffffff811115613c2957600080fd5b613c3587828801613893565b95989497509550505050565b7f4e487b7100000000000000000000000000000000000000000000000000000000600052602160045260246000fd5b60058110613c8057613c80613c41565b9052565b602081016114ea8284613c70565b60005b83811015613cad578181015183820152602001613c95565b83811115613cbc576000848401525b50505050565b60008151808452613cda816020860160208601613c92565b601f017fffffffffffffffffffffffffffffffffffffffffffffffffffffffffffffffe0169290920160200192915050565b8183528181602085013750600060208284010152600060207fffffffffffffffffffffffffffffffffffffffffffffffffffffffffffffffe0601f840116840101905092915050565b81835260006020808501808196508560051b810191508460005b87811015613df757828403895281357fffffffffffffffffffffffffffffffffffffffffffffffffffffffffffffffe1883603018112613dae57600080fd5b8701803567ffffffffffffffff811115613dc757600080fd5b803603891315613dd657600080fd5b613de38682898501613d0c565b9a87019a9550505090840190600101613d6f565b5091979650505050505050565b8183526000602080850194508260005b85811015613e4d5773ffffffffffffffffffffffffffffffffffffffff613e3a836136d1565b1687529582019590820190600101613e14565b509495945050505050565b81835260007f07ffffffffffffffffffffffffffffffffffffffffffffffffffffffffffffff831115613e8a57600080fd5b8260051b8083602087013760009401602001938452509192915050565b608081526000613eba608083018a613cc2565b8281036020840152613ecd81898b613d55565b90508281036040840152613ee2818789613e04565b90508281036060840152613ef7818587613e58565b9a9950505050505050505050565b7f4e487b7100000000000000000000000000000000000000000000000000000000600052601160045260246000fd5b600082821015613f4657613f46613f05565b500390565b8581528460208201528284604083013760409201918201526060019392505050565b600060208284031215613f7f57600080fd5b813567ffffffffffffffff8116811461300b57600080fd5b60028110613c8057613c80613c41565b60808101613fb58287613f97565b84602083015267ffffffffffffffff8416604083015282606083015295945050505050565b600060208284031215613fec57600080fd5b81356007811061300b57600080fd5b60008083357fffffffffffffffffffffffffffffffffffffffffffffffffffffffffffffffe184360301811261403057600080fd5b83018035915067ffffffffffffffff82111561404b57600080fd5b60200191503681900382131561377357600080fd5b60008083357fffffffffffffffffffffffffffffffffffffffffffffffffffffffffffffffe184360301811261409557600080fd5b83018035915067ffffffffffffffff8211156140b057600080fd5b6020019150600581901b360382131561377357600080fd5b600073ffffffffffffffffffffffffffffffffffffffff808a16835288602084015280881660408401525085606083015260c0608083015261410e60c083018587613d0c565b90508260a083015298975050505050505050565b6000817fffffffffffffffffffffffffffffffffffffffffffffffffffffffffffffffff048311821515161561415a5761415a613f05565b500290565b6000821982111561417257614172613f05565b500190565b73ffffffffffffffffffffffffffffffffffffffff861681528460208201526080604082015260006141ad608083018587613d0c565b90508260608301529695505050505050565b6000602082840312156141d157600080fd5b8151801515811461300b57600080fd5b600281106141f1576141f1613c41565b60f81b9052565b61420281856141e1565b60609290921b7fffffffffffffffffffffffffffffffffffffffff0000000000000000000000001660018301526015820152603501919050565b600073ffffffffffffffffffffffffffffffffffffffff808a168352808916602084015287604084015267ffffffffffffffff8716606084015260c0608084015261428b60c084018688613d0c565b915080841660a08401525098975050505050505050565b600082516142b4818460208701613c92565b9190910192915050565b6000602082840312156142d057600080fd5b81516003811061300b57600080fd5b60a081016142ed8288613f97565b8560208301526143006040830186613c70565b67ffffffffffffffff939093166060820152608001529392505050565b608081526000614331608083018a8c613d0c565b828103602084015261434481898b613d55565b90508281036040840152614359818789613e04565b9050828103606084015261436e818587613e58565b9b9a5050505050505050505050565b60006020828403121561438f57600080fd5b5051919050565b6143a0818a6141e1565b60007fffffffffffffffffffffffffffffffffffffffff000000000000000000000000808a60601b166001840152808960601b166015840152507fffffffffffffffff000000000000000000000000000000000000000000000000808860c01b166029840152866031840152808660c01b16605184015250828460598401375060009101605901908152979650505050505050565b600073ffffffffffffffffffffffffffffffffffffffff808816835267ffffffffffffffff8716602084015260806040840152614476608084018688613d0c565b91508084166060840152509695505050505050565b600073ffffffffffffffffffffffffffffffffffffffff808816835286602084015260806040840152614476608084018688613d0c565b6000826144f8577f4e487b7100000000000000000000000000000000000000000000000000000000600052601260045260246000fd5b500490565b6020815260006114e76020830184613cc2565b7f4e487b7100000000000000000000000000000000000000000000000000000000600052604160045260246000fd5b60006020828403121561455157600080fd5b815167ffffffffffffffff8082111561456957600080fd5b818401915084601f83011261457d57600080fd5b81518181111561458f5761458f614510565b604051601f82017fffffffffffffffffffffffffffffffffffffffffffffffffffffffffffffffe0908116603f011681019083821181831017156145d5576145d5614510565b816040528281528760208487010111156145ee57600080fd5b6145ff836020830160208801613c92565b97965050505050505056fea2646970667358221220e31df05bdea298d1f6e9470d4c75a9e2d70fd2e795a681042bfcf1f3d88a278564736f6c63430008090033","opcodes":"PUSH1 0xA0 PUSH1 0x40 MSTORE CALLVALUE DUP1 ISZERO PUSH3 0x11 JUMPI PUSH1 0x0 DUP1 REVERT JUMPDEST POP PUSH1 0x40 MLOAD PUSH3 0x4814 CODESIZE SUB DUP1 PUSH3 0x4814 DUP4 CODECOPY DUP2 ADD PUSH1 0x40 DUP2 SWAP1 MSTORE PUSH3 0x34 SWAP2 PUSH3 0x11D JUMP JUMPDEST DUP5 DUP5 DUP5 DUP5 DUP5 DUP11 PUSH3 0x45 CALLER PUSH3 0xB4 JUMP JUMPDEST PUSH1 0x1 PUSH1 0x1 PUSH1 0xA0 SHL SUB SWAP1 DUP2 AND PUSH1 0x80 MSTORE PUSH1 0x5 DUP1 SLOAD PUSH1 0x1 PUSH1 0x1 PUSH1 0xA0 SHL SUB NOT SWAP1 DUP2 AND SWAP8 DUP4 AND SWAP8 SWAP1 SWAP8 OR SWAP1 SSTORE PUSH1 0x6 DUP1 SLOAD DUP8 AND SWAP6 DUP3 AND SWAP6 SWAP1 SWAP6 OR SWAP1 SWAP5 SSTORE PUSH1 0x7 DUP1 SLOAD DUP7 AND SWAP4 DUP6 AND SWAP4 SWAP1 SWAP4 OR SWAP1 SWAP3 SSTORE PUSH1 0x8 DUP1 SLOAD DUP6 AND SWAP2 DUP5 AND SWAP2 SWAP1 SWAP2 OR SWAP1 SSTORE PUSH1 0x9 DUP1 SLOAD SWAP1 SWAP4 AND SWAP2 AND OR SWAP1 SSTORE POP PUSH3 0x1B1 SWAP5 POP POP POP POP POP JUMP JUMPDEST PUSH1 0x0 DUP1 SLOAD PUSH1 0x1 PUSH1 0x1 PUSH1 0xA0 SHL SUB DUP4 DUP2 AND PUSH1 0x1 PUSH1 0x1 PUSH1 0xA0 SHL SUB NOT DUP4 AND DUP2 OR DUP5 SSTORE PUSH1 0x40 MLOAD SWAP2 SWAP1 SWAP3 AND SWAP3 DUP4 SWAP2 PUSH32 0x8BE0079C531659141344CD1FD0A4F28419497F9722A3DAAFE3B4186F6B6457E0 SWAP2 SWAP1 LOG3 POP POP JUMP JUMPDEST PUSH1 0x1 PUSH1 0x1 PUSH1 0xA0 SHL SUB DUP2 AND DUP2 EQ PUSH3 0x11A JUMPI PUSH1 0x0 DUP1 REVERT JUMPDEST POP JUMP JUMPDEST PUSH1 0x0 DUP1 PUSH1 0x0 DUP1 PUSH1 0x0 DUP1 PUSH1 0xC0 DUP8 DUP10 SUB SLT ISZERO PUSH3 0x137 JUMPI PUSH1 0x0 DUP1 REVERT JUMPDEST DUP7 MLOAD PUSH3 0x144 DUP2 PUSH3 0x104 JUMP JUMPDEST PUSH1 0x20 DUP9 ADD MLOAD SWAP1 SWAP7 POP PUSH3 0x157 DUP2 PUSH3 0x104 JUMP JUMPDEST PUSH1 0x40 DUP9 ADD MLOAD SWAP1 SWAP6 POP PUSH3 0x16A DUP2 PUSH3 0x104 JUMP JUMPDEST PUSH1 0x60 DUP9 ADD MLOAD SWAP1 SWAP5 POP PUSH3 0x17D DUP2 PUSH3 0x104 JUMP JUMPDEST PUSH1 0x80 DUP9 ADD MLOAD SWAP1 SWAP4 POP PUSH3 0x190 DUP2 PUSH3 0x104 JUMP JUMPDEST PUSH1 0xA0 DUP9 ADD MLOAD SWAP1 SWAP3 POP PUSH3 0x1A3 DUP2 PUSH3 0x104 JUMP JUMPDEST DUP1 SWAP2 POP POP SWAP3 SWAP6 POP SWAP3 SWAP6 POP SWAP3 SWAP6 JUMP JUMPDEST PUSH1 0x80 MLOAD PUSH2 0x4640 PUSH3 0x1D4 PUSH1 0x0 CODECOPY PUSH1 0x0 DUP2 DUP2 PUSH2 0x4F3 ADD MSTORE PUSH2 0x99F ADD MSTORE PUSH2 0x4640 PUSH1 0x0 RETURN INVALID PUSH1 0x80 PUSH1 0x40 MSTORE PUSH1 0x4 CALLDATASIZE LT PUSH2 0x1D8 JUMPI PUSH1 0x0 CALLDATALOAD PUSH1 0xE0 SHR DUP1 PUSH4 0x82980DC4 GT PUSH2 0x102 JUMPI DUP1 PUSH4 0xCCF2683B GT PUSH2 0x95 JUMPI DUP1 PUSH4 0xE2C1ED25 GT PUSH2 0x64 JUMPI DUP1 PUSH4 0xE2C1ED25 EQ PUSH2 0x5AC JUMPI DUP1 PUSH4 0xF2FDE38B EQ PUSH2 0x5CC JUMPI DUP1 PUSH4 0xF60BBE2A EQ PUSH2 0x5EC JUMPI DUP1 PUSH4 0xF83B0FB9 EQ PUSH2 0x602 JUMPI PUSH1 0x0 DUP1 REVERT JUMPDEST DUP1 PUSH4 0xCCF2683B EQ PUSH2 0x4E1 JUMPI DUP1 PUSH4 0xCD2ABD66 EQ PUSH2 0x515 JUMPI DUP1 PUSH4 0xD8257D17 EQ PUSH2 0x552 JUMPI DUP1 PUSH4 0xDFA2DBAF EQ PUSH2 0x57F JUMPI PUSH1 0x0 DUP1 REVERT JUMPDEST DUP1 PUSH4 0x95E911A8 GT PUSH2 0xD1 JUMPI DUP1 PUSH4 0x95E911A8 EQ PUSH2 0x46B JUMPI DUP1 PUSH4 0x9B05A775 EQ PUSH2 0x481 JUMPI DUP1 PUSH4 0x9F3CE55A EQ PUSH2 0x4A1 JUMPI DUP1 PUSH4 0xC66A9C5A EQ PUSH2 0x4B4 JUMPI PUSH1 0x0 DUP1 REVERT JUMPDEST DUP1 PUSH4 0x82980DC4 EQ PUSH2 0x3A1 JUMPI DUP1 PUSH4 0x82EFD502 EQ PUSH2 0x3F3 JUMPI DUP1 PUSH4 0x8DA5CB5B EQ PUSH2 0x413 JUMPI DUP1 PUSH4 0x95B12C27 EQ PUSH2 0x43E JUMPI PUSH1 0x0 DUP1 REVERT JUMPDEST DUP1 PUSH4 0x4586F331 GT PUSH2 0x17A JUMPI DUP1 PUSH4 0x588BE02B GT PUSH2 0x149 JUMPI DUP1 PUSH4 0x588BE02B EQ PUSH2 0x321 JUMPI DUP1 PUSH4 0x5B3E5F50 EQ PUSH2 0x341 JUMPI DUP1 PUSH4 0x723D0A9D EQ PUSH2 0x36E JUMPI DUP1 PUSH4 0x7B80AB20 EQ PUSH2 0x38E JUMPI PUSH1 0x0 DUP1 REVERT JUMPDEST DUP1 PUSH4 0x4586F331 EQ PUSH2 0x2A5 JUMPI DUP1 PUSH4 0x468A2D04 EQ PUSH2 0x2C5 JUMPI DUP1 PUSH4 0x5335DCA2 EQ PUSH2 0x2D8 JUMPI DUP1 PUSH4 0x584E45E1 EQ PUSH2 0x30B JUMPI PUSH1 0x0 DUP1 REVERT JUMPDEST DUP1 PUSH4 0x359EF75B GT PUSH2 0x1B6 JUMPI DUP1 PUSH4 0x359EF75B EQ PUSH2 0x23F JUMPI DUP1 PUSH4 0x3F395AFF EQ PUSH2 0x25F JUMPI DUP1 PUSH4 0x40D0D026 EQ PUSH2 0x272 JUMPI DUP1 PUSH4 0x4289FBB3 EQ PUSH2 0x292 JUMPI PUSH1 0x0 DUP1 REVERT JUMPDEST DUP1 PUSH4 0x3CBFE66 EQ PUSH2 0x1DD JUMPI DUP1 PUSH4 0x6C28BD6 EQ PUSH2 0x1FF JUMPI DUP1 PUSH4 0x2FF4C411 EQ PUSH2 0x21F JUMPI JUMPDEST PUSH1 0x0 DUP1 REVERT JUMPDEST CALLVALUE DUP1 ISZERO PUSH2 0x1E9 JUMPI PUSH1 0x0 DUP1 REVERT JUMPDEST POP PUSH2 0x1FD PUSH2 0x1F8 CALLDATASIZE PUSH1 0x4 PUSH2 0x36FA JUMP JUMPDEST PUSH2 0x622 JUMP JUMPDEST STOP JUMPDEST CALLVALUE DUP1 ISZERO PUSH2 0x20B JUMPI PUSH1 0x0 DUP1 REVERT JUMPDEST POP PUSH2 0x1FD PUSH2 0x21A CALLDATASIZE PUSH1 0x4 PUSH2 0x3715 JUMP JUMPDEST PUSH2 0x7BB JUMP JUMPDEST CALLVALUE DUP1 ISZERO PUSH2 0x22B JUMPI PUSH1 0x0 DUP1 REVERT JUMPDEST POP PUSH2 0x1FD PUSH2 0x23A CALLDATASIZE PUSH1 0x4 PUSH2 0x377A JUMP JUMPDEST PUSH2 0x88D JUMP JUMPDEST CALLVALUE DUP1 ISZERO PUSH2 0x24B JUMPI PUSH1 0x0 DUP1 REVERT JUMPDEST POP PUSH2 0x1FD PUSH2 0x25A CALLDATASIZE PUSH1 0x4 PUSH2 0x382E JUMP JUMPDEST PUSH2 0xBA8 JUMP JUMPDEST PUSH2 0x1FD PUSH2 0x26D CALLDATASIZE PUSH1 0x4 PUSH2 0x38D5 JUMP JUMPDEST PUSH2 0xBC4 JUMP JUMPDEST CALLVALUE DUP1 ISZERO PUSH2 0x27E JUMPI PUSH1 0x0 DUP1 REVERT JUMPDEST POP PUSH2 0x1FD PUSH2 0x28D CALLDATASIZE PUSH1 0x4 PUSH2 0x39FC JUMP JUMPDEST PUSH2 0xF5D JUMP JUMPDEST PUSH2 0x1FD PUSH2 0x2A0 CALLDATASIZE PUSH1 0x4 PUSH2 0x3A68 JUMP JUMPDEST PUSH2 0xFB5 JUMP JUMPDEST CALLVALUE DUP1 ISZERO PUSH2 0x2B1 JUMPI PUSH1 0x0 DUP1 REVERT JUMPDEST POP PUSH2 0x1FD PUSH2 0x2C0 CALLDATASIZE PUSH1 0x4 PUSH2 0x3715 JUMP JUMPDEST PUSH2 0x10FA JUMP JUMPDEST PUSH2 0x1FD PUSH2 0x2D3 CALLDATASIZE PUSH1 0x4 PUSH2 0x3AE0 JUMP JUMPDEST PUSH2 0x119C JUMP JUMPDEST CALLVALUE DUP1 ISZERO PUSH2 0x2E4 JUMPI PUSH1 0x0 DUP1 REVERT JUMPDEST POP PUSH2 0x2F8 PUSH2 0x2F3 CALLDATASIZE PUSH1 0x4 PUSH2 0x3BA5 JUMP JUMPDEST PUSH2 0x14CA JUMP JUMPDEST PUSH1 0x40 MLOAD SWAP1 DUP2 MSTORE PUSH1 0x20 ADD JUMPDEST PUSH1 0x40 MLOAD DUP1 SWAP2 SUB SWAP1 RETURN JUMPDEST CALLVALUE DUP1 ISZERO PUSH2 0x317 JUMPI PUSH1 0x0 DUP1 REVERT JUMPDEST POP PUSH2 0x2F8 PUSH1 0xA SLOAD DUP2 JUMP JUMPDEST CALLVALUE DUP1 ISZERO PUSH2 0x32D JUMPI PUSH1 0x0 DUP1 REVERT JUMPDEST POP PUSH2 0x1FD PUSH2 0x33C CALLDATASIZE PUSH1 0x4 PUSH2 0x36FA JUMP JUMPDEST PUSH2 0x14F0 JUMP JUMPDEST CALLVALUE DUP1 ISZERO PUSH2 0x34D JUMPI PUSH1 0x0 DUP1 REVERT JUMPDEST POP PUSH2 0x2F8 PUSH2 0x35C CALLDATASIZE PUSH1 0x4 PUSH2 0x36FA JUMP JUMPDEST PUSH1 0x3 PUSH1 0x20 MSTORE PUSH1 0x0 SWAP1 DUP2 MSTORE PUSH1 0x40 SWAP1 KECCAK256 SLOAD DUP2 JUMP JUMPDEST CALLVALUE DUP1 ISZERO PUSH2 0x37A JUMPI PUSH1 0x0 DUP1 REVERT JUMPDEST POP PUSH2 0x1FD PUSH2 0x389 CALLDATASIZE PUSH1 0x4 PUSH2 0x39FC JUMP JUMPDEST PUSH2 0x167D JUMP JUMPDEST PUSH2 0x1FD PUSH2 0x39C CALLDATASIZE PUSH1 0x4 PUSH2 0x38D5 JUMP JUMPDEST PUSH2 0x16CB JUMP JUMPDEST CALLVALUE DUP1 ISZERO PUSH2 0x3AD JUMPI PUSH1 0x0 DUP1 REVERT JUMPDEST POP PUSH1 0x5 SLOAD PUSH2 0x3CE SWAP1 PUSH20 0xFFFFFFFFFFFFFFFFFFFFFFFFFFFFFFFFFFFFFFFF AND DUP2 JUMP JUMPDEST PUSH1 0x40 MLOAD PUSH20 0xFFFFFFFFFFFFFFFFFFFFFFFFFFFFFFFFFFFFFFFF SWAP1 SWAP2 AND DUP2 MSTORE PUSH1 0x20 ADD PUSH2 0x302 JUMP JUMPDEST CALLVALUE DUP1 ISZERO PUSH2 0x3FF JUMPI PUSH1 0x0 DUP1 REVERT JUMPDEST POP PUSH2 0x1FD PUSH2 0x40E CALLDATASIZE PUSH1 0x4 PUSH2 0x36FA JUMP JUMPDEST PUSH2 0x1962 JUMP JUMPDEST CALLVALUE DUP1 ISZERO PUSH2 0x41F JUMPI PUSH1 0x0 DUP1 REVERT JUMPDEST POP PUSH1 0x0 SLOAD PUSH20 0xFFFFFFFFFFFFFFFFFFFFFFFFFFFFFFFFFFFFFFFF AND PUSH2 0x3CE JUMP JUMPDEST CALLVALUE DUP1 ISZERO PUSH2 0x44A JUMPI PUSH1 0x0 DUP1 REVERT JUMPDEST POP PUSH1 0x8 SLOAD PUSH2 0x3CE SWAP1 PUSH20 0xFFFFFFFFFFFFFFFFFFFFFFFFFFFFFFFFFFFFFFFF AND DUP2 JUMP JUMPDEST CALLVALUE DUP1 ISZERO PUSH2 0x477 JUMPI PUSH1 0x0 DUP1 REVERT JUMPDEST POP PUSH2 0x2F8 PUSH1 0x1 SLOAD DUP2 JUMP JUMPDEST CALLVALUE DUP1 ISZERO PUSH2 0x48D JUMPI PUSH1 0x0 DUP1 REVERT JUMPDEST POP PUSH2 0x1FD PUSH2 0x49C CALLDATASIZE PUSH1 0x4 PUSH2 0x36FA JUMP JUMPDEST PUSH2 0x1AEF JUMP JUMPDEST PUSH2 0x1FD PUSH2 0x4AF CALLDATASIZE PUSH1 0x4 PUSH2 0x3BE7 JUMP JUMPDEST PUSH2 0x1C7C JUMP JUMPDEST CALLVALUE DUP1 ISZERO PUSH2 0x4C0 JUMPI PUSH1 0x0 DUP1 REVERT JUMPDEST POP PUSH1 0x9 SLOAD PUSH2 0x3CE SWAP1 PUSH20 0xFFFFFFFFFFFFFFFFFFFFFFFFFFFFFFFFFFFFFFFF AND DUP2 JUMP JUMPDEST CALLVALUE DUP1 ISZERO PUSH2 0x4ED JUMPI PUSH1 0x0 DUP1 REVERT JUMPDEST POP PUSH2 0x3CE PUSH32 0x0 DUP2 JUMP JUMPDEST CALLVALUE DUP1 ISZERO PUSH2 0x521 JUMPI PUSH1 0x0 DUP1 REVERT JUMPDEST POP PUSH2 0x545 PUSH2 0x530 CALLDATASIZE PUSH1 0x4 PUSH2 0x3715 JUMP JUMPDEST PUSH1 0x4 PUSH1 0x20 MSTORE PUSH1 0x0 SWAP1 DUP2 MSTORE PUSH1 0x40 SWAP1 KECCAK256 SLOAD PUSH1 0xFF AND DUP2 JUMP JUMPDEST PUSH1 0x40 MLOAD PUSH2 0x302 SWAP2 SWAP1 PUSH2 0x3C84 JUMP JUMPDEST CALLVALUE DUP1 ISZERO PUSH2 0x55E JUMPI PUSH1 0x0 DUP1 REVERT JUMPDEST POP PUSH1 0x7 SLOAD PUSH2 0x3CE SWAP1 PUSH20 0xFFFFFFFFFFFFFFFFFFFFFFFFFFFFFFFFFFFFFFFF AND DUP2 JUMP JUMPDEST CALLVALUE DUP1 ISZERO PUSH2 0x58B JUMPI PUSH1 0x0 DUP1 REVERT JUMPDEST POP PUSH1 0x6 SLOAD PUSH2 0x3CE SWAP1 PUSH20 0xFFFFFFFFFFFFFFFFFFFFFFFFFFFFFFFFFFFFFFFF AND DUP2 JUMP JUMPDEST CALLVALUE DUP1 ISZERO PUSH2 0x5B8 JUMPI PUSH1 0x0 DUP1 REVERT JUMPDEST POP PUSH2 0x1FD PUSH2 0x5C7 CALLDATASIZE PUSH1 0x4 PUSH2 0x3715 JUMP JUMPDEST PUSH2 0x1DBB JUMP JUMPDEST CALLVALUE DUP1 ISZERO PUSH2 0x5D8 JUMPI PUSH1 0x0 DUP1 REVERT JUMPDEST POP PUSH2 0x1FD PUSH2 0x5E7 CALLDATASIZE PUSH1 0x4 PUSH2 0x36FA JUMP JUMPDEST PUSH2 0x1E8D JUMP JUMPDEST CALLVALUE DUP1 ISZERO PUSH2 0x5F8 JUMPI PUSH1 0x0 DUP1 REVERT JUMPDEST POP PUSH2 0x2F8 PUSH1 0x2 SLOAD DUP2 JUMP JUMPDEST CALLVALUE DUP1 ISZERO PUSH2 0x60E JUMPI PUSH1 0x0 DUP1 REVERT JUMPDEST POP PUSH2 0x1FD PUSH2 0x61D CALLDATASIZE PUSH1 0x4 PUSH2 0x36FA JUMP JUMPDEST PUSH2 0x1FD9 JUMP JUMPDEST CALLER PUSH2 0x642 PUSH1 0x0 SLOAD PUSH20 0xFFFFFFFFFFFFFFFFFFFFFFFFFFFFFFFFFFFFFFFF AND SWAP1 JUMP JUMPDEST PUSH20 0xFFFFFFFFFFFFFFFFFFFFFFFFFFFFFFFFFFFFFFFF AND EQ PUSH2 0x6C4 JUMPI PUSH1 0x40 MLOAD PUSH32 0x8C379A000000000000000000000000000000000000000000000000000000000 DUP2 MSTORE PUSH1 0x20 PUSH1 0x4 DUP3 ADD DUP2 SWAP1 MSTORE PUSH1 0x24 DUP3 ADD MSTORE PUSH32 0x4F776E61626C653A2063616C6C6572206973206E6F7420746865206F776E6572 PUSH1 0x44 DUP3 ADD MSTORE PUSH1 0x64 ADD JUMPDEST PUSH1 0x40 MLOAD DUP1 SWAP2 SUB SWAP1 REVERT JUMPDEST PUSH20 0xFFFFFFFFFFFFFFFFFFFFFFFFFFFFFFFFFFFFFFFF DUP2 AND PUSH2 0x741 JUMPI PUSH1 0x40 MLOAD PUSH32 0x8C379A000000000000000000000000000000000000000000000000000000000 DUP2 MSTORE PUSH1 0x20 PUSH1 0x4 DUP3 ADD MSTORE PUSH1 0xF PUSH1 0x24 DUP3 ADD MSTORE PUSH32 0x696E76616C696420616464726573730000000000000000000000000000000000 PUSH1 0x44 DUP3 ADD MSTORE PUSH1 0x64 ADD PUSH2 0x6BB JUMP JUMPDEST PUSH1 0x6 DUP1 SLOAD PUSH32 0xFFFFFFFFFFFFFFFFFFFFFFFF0000000000000000000000000000000000000000 AND PUSH20 0xFFFFFFFFFFFFFFFFFFFFFFFFFFFFFFFFFFFFFFFF DUP4 AND SWAP1 DUP2 OR SWAP1 SWAP2 SSTORE PUSH1 0x40 MLOAD SWAP1 DUP2 MSTORE PUSH32 0xD60E9CEB4F54F1BFB1741A4B35FC9D806D7ED48200B523203B92248EA38FA17D SWAP1 PUSH1 0x20 ADD JUMPDEST PUSH1 0x40 MLOAD DUP1 SWAP2 SUB SWAP1 LOG1 POP JUMP JUMPDEST CALLER PUSH2 0x7DB PUSH1 0x0 SLOAD PUSH20 0xFFFFFFFFFFFFFFFFFFFFFFFFFFFFFFFFFFFFFFFF AND SWAP1 JUMP JUMPDEST PUSH20 0xFFFFFFFFFFFFFFFFFFFFFFFFFFFFFFFFFFFFFFFF AND EQ PUSH2 0x858 JUMPI PUSH1 0x40 MLOAD PUSH32 0x8C379A000000000000000000000000000000000000000000000000000000000 DUP2 MSTORE PUSH1 0x20 PUSH1 0x4 DUP3 ADD DUP2 SWAP1 MSTORE PUSH1 0x24 DUP3 ADD MSTORE PUSH32 0x4F776E61626C653A2063616C6C6572206973206E6F7420746865206F776E6572 PUSH1 0x44 DUP3 ADD MSTORE PUSH1 0x64 ADD PUSH2 0x6BB JUMP JUMPDEST PUSH1 0x1 DUP2 SWAP1 SSTORE PUSH1 0x40 MLOAD DUP2 DUP2 MSTORE PUSH32 0x892DFDC99ECD3BB4F2F2CB118DCA02F0BD16640FF156D3C6459D4282E336A5F2 SWAP1 PUSH1 0x20 ADD PUSH2 0x7B0 JUMP JUMPDEST PUSH1 0x0 CHAINID ADDRESS PUSH1 0x40 MLOAD PUSH1 0x20 ADD PUSH2 0x8F6 SWAP3 SWAP2 SWAP1 SWAP2 DUP3 MSTORE PUSH1 0x60 SHL PUSH32 0xFFFFFFFFFFFFFFFFFFFFFFFFFFFFFFFFFFFFFFFF000000000000000000000000 AND PUSH1 0x20 DUP3 ADD MSTORE PUSH32 0x7769746864726177466565000000000000000000000000000000000000000000 PUSH1 0x34 DUP3 ADD MSTORE PUSH1 0x3F ADD SWAP1 JUMP JUMPDEST PUSH1 0x40 DUP1 MLOAD DUP1 DUP4 SUB PUSH32 0xFFFFFFFFFFFFFFFFFFFFFFFFFFFFFFFFFFFFFFFFFFFFFFFFFFFFFFFFFFFFFFE0 ADD DUP2 MSTORE DUP3 DUP3 MSTORE DUP1 MLOAD PUSH1 0x20 SWAP2 DUP3 ADD KECCAK256 SWAP1 DUP4 ADD DUP2 SWAP1 MSTORE PUSH1 0x60 DUP13 SWAP1 SHL PUSH32 0xFFFFFFFFFFFFFFFFFFFFFFFFFFFFFFFFFFFFFFFF000000000000000000000000 AND DUP4 DUP4 ADD MSTORE PUSH1 0x54 DUP1 DUP5 ADD DUP13 SWAP1 MSTORE DUP3 MLOAD DUP1 DUP6 SUB SWAP1 SWAP2 ADD DUP2 MSTORE PUSH1 0x74 DUP5 ADD SWAP3 DUP4 SWAP1 MSTORE PUSH32 0x682DBC2200000000000000000000000000000000000000000000000000000000 SWAP1 SWAP3 MSTORE SWAP3 POP PUSH32 0x0 PUSH20 0xFFFFFFFFFFFFFFFFFFFFFFFFFFFFFFFFFFFFFFFF AND SWAP2 PUSH4 0x682DBC22 SWAP2 PUSH2 0x9F3 SWAP2 DUP12 SWAP1 DUP12 SWAP1 DUP12 SWAP1 DUP12 SWAP1 DUP12 SWAP1 DUP12 SWAP1 PUSH1 0x78 ADD PUSH2 0x3EA7 JUMP JUMPDEST PUSH1 0x0 PUSH1 0x40 MLOAD DUP1 DUP4 SUB DUP2 DUP7 DUP1 EXTCODESIZE ISZERO DUP1 ISZERO PUSH2 0xA0B JUMPI PUSH1 0x0 DUP1 REVERT JUMPDEST POP GAS STATICCALL ISZERO DUP1 ISZERO PUSH2 0xA1F JUMPI RETURNDATASIZE PUSH1 0x0 DUP1 RETURNDATACOPY RETURNDATASIZE PUSH1 0x0 REVERT JUMPDEST POP POP POP POP PUSH20 0xFFFFFFFFFFFFFFFFFFFFFFFFFFFFFFFFFFFFFFFF DUP10 AND PUSH1 0x0 SWAP1 DUP2 MSTORE PUSH1 0x3 PUSH1 0x20 MSTORE PUSH1 0x40 DUP2 KECCAK256 SLOAD PUSH2 0xA53 SWAP1 DUP11 PUSH2 0x3F34 JUMP JUMPDEST SWAP1 POP PUSH1 0x0 DUP2 GT PUSH2 0xABF JUMPI PUSH1 0x40 MLOAD PUSH32 0x8C379A000000000000000000000000000000000000000000000000000000000 DUP2 MSTORE PUSH1 0x20 PUSH1 0x4 DUP3 ADD MSTORE PUSH1 0x19 PUSH1 0x24 DUP3 ADD MSTORE PUSH32 0x4E6F206E657720616D6F756E7420746F20776974686472617700000000000000 PUSH1 0x44 DUP3 ADD MSTORE PUSH1 0x64 ADD PUSH2 0x6BB JUMP JUMPDEST PUSH20 0xFFFFFFFFFFFFFFFFFFFFFFFFFFFFFFFFFFFFFFFF DUP11 AND PUSH1 0x0 DUP2 DUP2 MSTORE PUSH1 0x3 PUSH1 0x20 MSTORE PUSH1 0x40 DUP1 DUP3 KECCAK256 DUP13 SWAP1 SSTORE MLOAD SWAP1 SWAP2 SWAP1 PUSH2 0xC350 SWAP1 DUP5 SWAP1 DUP5 DUP2 DUP2 DUP2 DUP6 DUP9 DUP9 CALL SWAP4 POP POP POP POP RETURNDATASIZE DUP1 PUSH1 0x0 DUP2 EQ PUSH2 0xB2B JUMPI PUSH1 0x40 MLOAD SWAP2 POP PUSH1 0x1F NOT PUSH1 0x3F RETURNDATASIZE ADD AND DUP3 ADD PUSH1 0x40 MSTORE RETURNDATASIZE DUP3 MSTORE RETURNDATASIZE PUSH1 0x0 PUSH1 0x20 DUP5 ADD RETURNDATACOPY PUSH2 0xB30 JUMP JUMPDEST PUSH1 0x60 SWAP2 POP JUMPDEST POP POP SWAP1 POP DUP1 PUSH2 0xB9B JUMPI PUSH1 0x40 MLOAD PUSH32 0x8C379A000000000000000000000000000000000000000000000000000000000 DUP2 MSTORE PUSH1 0x20 PUSH1 0x4 DUP3 ADD MSTORE PUSH1 0x16 PUSH1 0x24 DUP3 ADD MSTORE PUSH32 0x6661696C656420746F2077697468647261772066656500000000000000000000 PUSH1 0x44 DUP3 ADD MSTORE PUSH1 0x64 ADD PUSH2 0x6BB JUMP JUMPDEST POP POP POP POP POP POP POP POP POP POP POP JUMP JUMPDEST PUSH2 0xBB0 PUSH2 0x2166 JUMP JUMPDEST PUSH2 0xBBD DUP6 DUP6 DUP6 DUP6 DUP6 PUSH2 0x21F1 JUMP JUMPDEST POP POP POP POP POP JUMP JUMPDEST PUSH1 0x0 PUSH2 0xBCF DUP9 PUSH2 0x22F5 JUMP JUMPDEST SWAP1 POP PUSH1 0x0 DUP1 DUP3 DUP2 MSTORE PUSH1 0x4 PUSH1 0x20 DUP2 SWAP1 MSTORE PUSH1 0x40 SWAP1 SWAP2 KECCAK256 SLOAD PUSH1 0xFF AND SWAP1 DUP2 GT ISZERO PUSH2 0xBF7 JUMPI PUSH2 0xBF7 PUSH2 0x3C41 JUMP JUMPDEST EQ PUSH2 0xC5E JUMPI PUSH1 0x40 MLOAD PUSH32 0x8C379A000000000000000000000000000000000000000000000000000000000 DUP2 MSTORE PUSH1 0x20 PUSH1 0x4 DUP3 ADD MSTORE PUSH1 0x19 PUSH1 0x24 DUP3 ADD MSTORE PUSH32 0x7472616E7366657220616C726561647920657865637574656400000000000000 PUSH1 0x44 DUP3 ADD MSTORE PUSH1 0x64 ADD PUSH2 0x6BB JUMP JUMPDEST PUSH1 0x0 DUP2 DUP2 MSTORE PUSH1 0x4 PUSH1 0x20 DUP2 DUP2 MSTORE PUSH1 0x40 DUP1 DUP5 KECCAK256 DUP1 SLOAD PUSH32 0xFFFFFFFFFFFFFFFFFFFFFFFFFFFFFFFFFFFFFFFFFFFFFFFFFFFFFFFFFFFFFF00 AND SWAP1 SWAP4 OR SWAP1 SWAP3 SSTORE DUP2 MLOAD CHAINID SWAP2 DUP2 ADD SWAP2 SWAP1 SWAP2 MSTORE PUSH32 0xFFFFFFFFFFFFFFFFFFFFFFFFFFFFFFFFFFFFFFFF000000000000000000000000 ADDRESS PUSH1 0x60 SHL AND SWAP2 DUP2 ADD SWAP2 SWAP1 SWAP2 MSTORE PUSH32 0x4D657373616765576974685472616E7366657200000000000000000000000000 PUSH1 0x54 DUP3 ADD MSTORE PUSH1 0x67 ADD PUSH1 0x40 MLOAD PUSH1 0x20 DUP2 DUP4 SUB SUB DUP2 MSTORE SWAP1 PUSH1 0x40 MSTORE DUP1 MLOAD SWAP1 PUSH1 0x20 ADD KECCAK256 SWAP1 POP PUSH1 0x5 PUSH1 0x0 SWAP1 SLOAD SWAP1 PUSH2 0x100 EXP SWAP1 DIV PUSH20 0xFFFFFFFFFFFFFFFFFFFFFFFFFFFFFFFFFFFFFFFF AND PUSH20 0xFFFFFFFFFFFFFFFFFFFFFFFFFFFFFFFFFFFFFFFF AND PUSH4 0x682DBC22 DUP3 DUP5 DUP15 DUP15 DUP15 PUSH2 0x100 ADD CALLDATALOAD PUSH1 0x40 MLOAD PUSH1 0x20 ADD PUSH2 0xD6D SWAP6 SWAP5 SWAP4 SWAP3 SWAP2 SWAP1 PUSH2 0x3F4B JUMP JUMPDEST PUSH1 0x40 MLOAD PUSH1 0x20 DUP2 DUP4 SUB SUB DUP2 MSTORE SWAP1 PUSH1 0x40 MSTORE DUP11 DUP11 DUP11 DUP11 DUP11 DUP11 PUSH1 0x40 MLOAD DUP9 PUSH4 0xFFFFFFFF AND PUSH1 0xE0 SHL DUP2 MSTORE PUSH1 0x4 ADD PUSH2 0xDA4 SWAP8 SWAP7 SWAP6 SWAP5 SWAP4 SWAP3 SWAP2 SWAP1 PUSH2 0x3EA7 JUMP JUMPDEST PUSH1 0x0 PUSH1 0x40 MLOAD DUP1 DUP4 SUB DUP2 DUP7 DUP1 EXTCODESIZE ISZERO DUP1 ISZERO PUSH2 0xDBC JUMPI PUSH1 0x0 DUP1 REVERT JUMPDEST POP GAS STATICCALL ISZERO DUP1 ISZERO PUSH2 0xDD0 JUMPI RETURNDATASIZE PUSH1 0x0 DUP1 RETURNDATACOPY RETURNDATASIZE PUSH1 0x0 REVERT JUMPDEST POP POP POP POP PUSH1 0x0 DUP1 PUSH2 0xDE2 DUP12 DUP15 DUP15 PUSH2 0x2E66 JUMP JUMPDEST SWAP1 POP PUSH1 0x1 DUP2 PUSH1 0x2 DUP2 GT ISZERO PUSH2 0xDF8 JUMPI PUSH2 0xDF8 PUSH2 0x3C41 JUMP JUMPDEST EQ ISZERO PUSH2 0xE07 JUMPI PUSH1 0x1 SWAP2 POP PUSH2 0xEEF JUMP JUMPDEST PUSH1 0x2 DUP2 PUSH1 0x2 DUP2 GT ISZERO PUSH2 0xE1B JUMPI PUSH2 0xE1B PUSH2 0x3C41 JUMP JUMPDEST EQ ISZERO PUSH2 0xEBA JUMPI PUSH1 0x0 DUP5 DUP2 MSTORE PUSH1 0x4 PUSH1 0x20 MSTORE PUSH1 0x40 DUP2 KECCAK256 DUP1 SLOAD PUSH32 0xFFFFFFFFFFFFFFFFFFFFFFFFFFFFFFFFFFFFFFFFFFFFFFFFFFFFFFFFFFFFFF00 AND PUSH1 0x1 DUP4 JUMPDEST MUL OR SWAP1 SSTORE POP PUSH32 0xE49C2C954D381D1448CF824743AEFF9DA7A1D82078A7C9E5817269CC359BD26C PUSH1 0x0 DUP6 DUP14 PUSH1 0xC0 ADD PUSH1 0x20 DUP2 ADD SWAP1 PUSH2 0xE93 SWAP2 SWAP1 PUSH2 0x3F6D JUMP JUMPDEST DUP15 PUSH2 0x100 ADD CALLDATALOAD PUSH1 0x40 MLOAD PUSH2 0xEA9 SWAP5 SWAP4 SWAP3 SWAP2 SWAP1 PUSH2 0x3FA7 JUMP JUMPDEST PUSH1 0x40 MLOAD DUP1 SWAP2 SUB SWAP1 LOG1 POP POP POP POP PUSH2 0xF52 JUMP JUMPDEST PUSH2 0xEC5 DUP12 DUP15 DUP15 PUSH2 0x3012 JUMP JUMPDEST SWAP1 POP PUSH1 0x1 DUP2 PUSH1 0x2 DUP2 GT ISZERO PUSH2 0xEDB JUMPI PUSH2 0xEDB PUSH2 0x3C41 JUMP JUMPDEST EQ ISZERO PUSH2 0xEEA JUMPI PUSH1 0x3 SWAP2 POP PUSH2 0xEEF JUMP JUMPDEST PUSH1 0x2 SWAP2 POP JUMPDEST PUSH1 0x0 DUP5 DUP2 MSTORE PUSH1 0x4 PUSH1 0x20 DUP2 SWAP1 MSTORE PUSH1 0x40 SWAP1 SWAP2 KECCAK256 DUP1 SLOAD DUP5 SWAP3 PUSH32 0xFFFFFFFFFFFFFFFFFFFFFFFFFFFFFFFFFFFFFFFFFFFFFFFFFFFFFFFFFFFFFF00 SWAP1 SWAP2 AND SWAP1 PUSH1 0x1 SWAP1 DUP5 SWAP1 DUP2 GT ISZERO PUSH2 0xF3D JUMPI PUSH2 0xF3D PUSH2 0x3C41 JUMP JUMPDEST MUL OR SWAP1 SSTORE POP PUSH2 0xF4D DUP5 DUP4 DUP14 PUSH2 0x3073 JUMP JUMPDEST POP POP POP POP JUMPDEST POP POP POP POP POP POP POP POP POP JUMP JUMPDEST PUSH2 0xF76 PUSH2 0xF70 PUSH1 0x40 DUP4 ADD PUSH1 0x20 DUP5 ADD PUSH2 0x3FDA JUMP JUMPDEST DUP4 PUSH2 0x30F2 JUMP JUMPDEST PUSH2 0xFB1 PUSH2 0xF83 DUP3 DUP1 PUSH2 0x3FFB JUMP JUMPDEST PUSH1 0x20 DUP5 ADD PUSH2 0xF95 PUSH2 0x140 DUP7 ADD DUP7 PUSH2 0x4060 JUMP JUMPDEST PUSH2 0xFA3 PUSH2 0x160 DUP9 ADD DUP9 PUSH2 0x4060 JUMP JUMPDEST PUSH2 0x39C PUSH2 0x180 DUP11 ADD DUP11 PUSH2 0x4060 JUMP JUMPDEST POP POP JUMP JUMPDEST CHAINID DUP6 EQ ISZERO PUSH2 0x101F JUMPI PUSH1 0x40 MLOAD PUSH32 0x8C379A000000000000000000000000000000000000000000000000000000000 DUP2 MSTORE PUSH1 0x20 PUSH1 0x4 DUP3 ADD MSTORE PUSH1 0xF PUSH1 0x24 DUP3 ADD MSTORE PUSH32 0x496E76616C696420636861696E49640000000000000000000000000000000000 PUSH1 0x44 DUP3 ADD MSTORE PUSH1 0x64 ADD PUSH2 0x6BB JUMP JUMPDEST PUSH1 0x0 PUSH2 0x102B DUP4 DUP4 PUSH2 0x14CA JUMP JUMPDEST SWAP1 POP DUP1 CALLVALUE LT ISZERO PUSH2 0x1097 JUMPI PUSH1 0x40 MLOAD PUSH32 0x8C379A000000000000000000000000000000000000000000000000000000000 DUP2 MSTORE PUSH1 0x20 PUSH1 0x4 DUP3 ADD MSTORE PUSH1 0x10 PUSH1 0x24 DUP3 ADD MSTORE PUSH32 0x496E73756666696369656E742066656500000000000000000000000000000000 PUSH1 0x44 DUP3 ADD MSTORE PUSH1 0x64 ADD PUSH2 0x6BB JUMP JUMPDEST CALLER PUSH20 0xFFFFFFFFFFFFFFFFFFFFFFFFFFFFFFFFFFFFFFFF AND PUSH32 0x172762498A59A3BC4FED3F2B63F94F17EA0193CFFDC304FE7D3EAF4D342D2F66 DUP9 DUP9 DUP9 DUP9 DUP9 DUP9 CALLVALUE PUSH1 0x40 MLOAD PUSH2 0x10E9 SWAP8 SWAP7 SWAP6 SWAP5 SWAP4 SWAP3 SWAP2 SWAP1 PUSH2 0x40C8 JUMP JUMPDEST PUSH1 0x40 MLOAD DUP1 SWAP2 SUB SWAP1 LOG2 POP POP POP POP POP POP POP JUMP JUMPDEST CALLER PUSH2 0x111A PUSH1 0x0 SLOAD PUSH20 0xFFFFFFFFFFFFFFFFFFFFFFFFFFFFFFFFFFFFFFFF AND SWAP1 JUMP JUMPDEST PUSH20 0xFFFFFFFFFFFFFFFFFFFFFFFFFFFFFFFFFFFFFFFF AND EQ PUSH2 0x1197 JUMPI PUSH1 0x40 MLOAD PUSH32 0x8C379A000000000000000000000000000000000000000000000000000000000 DUP2 MSTORE PUSH1 0x20 PUSH1 0x4 DUP3 ADD DUP2 SWAP1 MSTORE PUSH1 0x24 DUP3 ADD MSTORE PUSH32 0x4F776E61626C653A2063616C6C6572206973206E6F7420746865206F776E6572 PUSH1 0x44 DUP3 ADD MSTORE PUSH1 0x64 ADD PUSH2 0x6BB JUMP JUMPDEST PUSH1 0xA SSTORE JUMP JUMPDEST PUSH1 0x0 PUSH2 0x11A9 DUP9 DUP12 DUP12 PUSH2 0x339F JUMP JUMPDEST SWAP1 POP PUSH1 0x0 DUP1 DUP3 DUP2 MSTORE PUSH1 0x4 PUSH1 0x20 DUP2 SWAP1 MSTORE PUSH1 0x40 SWAP1 SWAP2 KECCAK256 SLOAD PUSH1 0xFF AND SWAP1 DUP2 GT ISZERO PUSH2 0x11D1 JUMPI PUSH2 0x11D1 PUSH2 0x3C41 JUMP JUMPDEST EQ PUSH2 0x1238 JUMPI PUSH1 0x40 MLOAD PUSH32 0x8C379A000000000000000000000000000000000000000000000000000000000 DUP2 MSTORE PUSH1 0x20 PUSH1 0x4 DUP3 ADD MSTORE PUSH1 0x18 PUSH1 0x24 DUP3 ADD MSTORE PUSH32 0x6D65737361676520616C72656164792065786563757465640000000000000000 PUSH1 0x44 DUP3 ADD MSTORE PUSH1 0x64 ADD PUSH2 0x6BB JUMP JUMPDEST PUSH1 0x0 DUP2 DUP2 MSTORE PUSH1 0x4 PUSH1 0x20 DUP2 DUP2 MSTORE PUSH1 0x40 SWAP3 DUP4 SWAP1 KECCAK256 DUP1 SLOAD PUSH32 0xFFFFFFFFFFFFFFFFFFFFFFFFFFFFFFFFFFFFFFFFFFFFFFFFFFFFFFFFFFFFFF00 AND SWAP1 SWAP3 OR SWAP1 SWAP2 SSTORE DUP2 MLOAD CHAINID DUP2 DUP4 ADD MSTORE ADDRESS PUSH1 0x60 SHL PUSH32 0xFFFFFFFFFFFFFFFFFFFFFFFFFFFFFFFFFFFFFFFF000000000000000000000000 AND DUP2 DUP5 ADD MSTORE PUSH32 0x4D65737361676500000000000000000000000000000000000000000000000000 PUSH1 0x54 DUP3 ADD MSTORE DUP3 MLOAD PUSH1 0x3B DUP2 DUP4 SUB ADD DUP2 MSTORE PUSH1 0x5B DUP3 ADD DUP5 MSTORE DUP1 MLOAD SWAP3 ADD SWAP2 SWAP1 SWAP2 KECCAK256 PUSH1 0x5 SLOAD PUSH1 0x7B DUP4 ADD DUP3 SWAP1 MSTORE PUSH1 0x9B DUP1 DUP5 ADD DUP7 SWAP1 MSTORE DUP5 MLOAD DUP1 DUP6 SUB SWAP1 SWAP2 ADD DUP2 MSTORE PUSH1 0xBB DUP5 ADD SWAP5 DUP6 SWAP1 MSTORE PUSH32 0x682DBC2200000000000000000000000000000000000000000000000000000000 SWAP1 SWAP5 MSTORE SWAP1 SWAP3 PUSH20 0xFFFFFFFFFFFFFFFFFFFFFFFFFFFFFFFFFFFFFFFF SWAP1 SWAP2 AND SWAP2 PUSH4 0x682DBC22 SWAP2 PUSH2 0x1364 SWAP2 DUP13 SWAP1 DUP13 SWAP1 DUP13 SWAP1 DUP13 SWAP1 DUP13 SWAP1 DUP13 SWAP1 PUSH1 0xBF ADD PUSH2 0x3EA7 JUMP JUMPDEST PUSH1 0x0 PUSH1 0x40 MLOAD DUP1 DUP4 SUB DUP2 DUP7 DUP1 EXTCODESIZE ISZERO DUP1 ISZERO PUSH2 0x137C JUMPI PUSH1 0x0 DUP1 REVERT JUMPDEST POP GAS STATICCALL ISZERO DUP1 ISZERO PUSH2 0x1390 JUMPI RETURNDATASIZE PUSH1 0x0 DUP1 RETURNDATACOPY RETURNDATASIZE PUSH1 0x0 REVERT JUMPDEST POP POP POP POP PUSH1 0x0 DUP1 PUSH2 0x13A2 DUP12 DUP15 DUP15 PUSH2 0x340E JUMP JUMPDEST SWAP1 POP PUSH1 0x1 DUP2 PUSH1 0x2 DUP2 GT ISZERO PUSH2 0x13B8 JUMPI PUSH2 0x13B8 PUSH2 0x3C41 JUMP JUMPDEST EQ ISZERO PUSH2 0x13C7 JUMPI PUSH1 0x1 SWAP2 POP PUSH2 0x146C JUMP JUMPDEST PUSH1 0x2 DUP2 PUSH1 0x2 DUP2 GT ISZERO PUSH2 0x13DB JUMPI PUSH2 0x13DB PUSH2 0x3C41 JUMP JUMPDEST EQ ISZERO PUSH2 0x1467 JUMPI PUSH1 0x0 DUP5 DUP2 MSTORE PUSH1 0x4 PUSH1 0x20 MSTORE PUSH1 0x40 DUP2 KECCAK256 DUP1 SLOAD PUSH32 0xFFFFFFFFFFFFFFFFFFFFFFFFFFFFFFFFFFFFFFFFFFFFFFFFFFFFFFFFFFFFFF00 AND PUSH1 0x1 DUP4 MUL OR SWAP1 SSTORE POP PUSH32 0xE49C2C954D381D1448CF824743AEFF9DA7A1D82078A7C9E5817269CC359BD26C PUSH1 0x1 DUP6 DUP14 PUSH1 0x40 ADD PUSH1 0x20 DUP2 ADD SWAP1 PUSH2 0x1452 SWAP2 SWAP1 PUSH2 0x3F6D JUMP JUMPDEST DUP15 PUSH1 0x60 ADD CALLDATALOAD PUSH1 0x40 MLOAD PUSH2 0xEA9 SWAP5 SWAP4 SWAP3 SWAP2 SWAP1 PUSH2 0x3FA7 JUMP JUMPDEST PUSH1 0x2 SWAP2 POP JUMPDEST PUSH1 0x0 DUP5 DUP2 MSTORE PUSH1 0x4 PUSH1 0x20 DUP2 SWAP1 MSTORE PUSH1 0x40 SWAP1 SWAP2 KECCAK256 DUP1 SLOAD DUP5 SWAP3 PUSH32 0xFFFFFFFFFFFFFFFFFFFFFFFFFFFFFFFFFFFFFFFFFFFFFFFFFFFFFFFFFFFFFF00 SWAP1 SWAP2 AND SWAP1 PUSH1 0x1 SWAP1 DUP5 SWAP1 DUP2 GT ISZERO PUSH2 0x14BA JUMPI PUSH2 0x14BA PUSH2 0x3C41 JUMP JUMPDEST MUL OR SWAP1 SSTORE POP PUSH2 0xF4D DUP5 DUP4 DUP14 PUSH2 0x3493 JUMP JUMPDEST PUSH1 0x2 SLOAD PUSH1 0x0 SWAP1 PUSH2 0x14DA SWAP1 DUP4 PUSH2 0x4122 JUMP JUMPDEST PUSH1 0x1 SLOAD PUSH2 0x14E7 SWAP2 SWAP1 PUSH2 0x415F JUMP JUMPDEST SWAP1 POP JUMPDEST SWAP3 SWAP2 POP POP JUMP JUMPDEST CALLER PUSH2 0x1510 PUSH1 0x0 SLOAD PUSH20 0xFFFFFFFFFFFFFFFFFFFFFFFFFFFFFFFFFFFFFFFF AND SWAP1 JUMP JUMPDEST PUSH20 0xFFFFFFFFFFFFFFFFFFFFFFFFFFFFFFFFFFFFFFFF AND EQ PUSH2 0x158D JUMPI PUSH1 0x40 MLOAD PUSH32 0x8C379A000000000000000000000000000000000000000000000000000000000 DUP2 MSTORE PUSH1 0x20 PUSH1 0x4 DUP3 ADD DUP2 SWAP1 MSTORE PUSH1 0x24 DUP3 ADD MSTORE PUSH32 0x4F776E61626C653A2063616C6C6572206973206E6F7420746865206F776E6572 PUSH1 0x44 DUP3 ADD MSTORE PUSH1 0x64 ADD PUSH2 0x6BB JUMP JUMPDEST PUSH20 0xFFFFFFFFFFFFFFFFFFFFFFFFFFFFFFFFFFFFFFFF DUP2 AND PUSH2 0x160A JUMPI PUSH1 0x40 MLOAD PUSH32 0x8C379A000000000000000000000000000000000000000000000000000000000 DUP2 MSTORE PUSH1 0x20 PUSH1 0x4 DUP3 ADD MSTORE PUSH1 0xF PUSH1 0x24 DUP3 ADD MSTORE PUSH32 0x696E76616C696420616464726573730000000000000000000000000000000000 PUSH1 0x44 DUP3 ADD MSTORE PUSH1 0x64 ADD PUSH2 0x6BB JUMP JUMPDEST PUSH1 0x5 DUP1 SLOAD PUSH32 0xFFFFFFFFFFFFFFFFFFFFFFFF0000000000000000000000000000000000000000 AND PUSH20 0xFFFFFFFFFFFFFFFFFFFFFFFFFFFFFFFFFFFFFFFF DUP4 AND SWAP1 DUP2 OR SWAP1 SWAP2 SSTORE PUSH1 0x40 MLOAD SWAP1 DUP2 MSTORE PUSH32 0xBF9977180DC6E6CFF25598C8E59150CECD7F8E448E092633D38AB7EE223AE058 SWAP1 PUSH1 0x20 ADD PUSH2 0x7B0 JUMP JUMPDEST PUSH2 0x1690 PUSH2 0xF70 PUSH1 0x40 DUP4 ADD PUSH1 0x20 DUP5 ADD PUSH2 0x3FDA JUMP JUMPDEST PUSH2 0xFB1 PUSH2 0x169D DUP3 DUP1 PUSH2 0x3FFB JUMP JUMPDEST PUSH1 0x20 DUP5 ADD PUSH2 0x16AF PUSH2 0x140 DUP7 ADD DUP7 PUSH2 0x4060 JUMP JUMPDEST PUSH2 0x16BD PUSH2 0x160 DUP9 ADD DUP9 PUSH2 0x4060 JUMP JUMPDEST PUSH2 0x26D PUSH2 0x180 DUP11 ADD DUP11 PUSH2 0x4060 JUMP JUMPDEST PUSH1 0x0 PUSH2 0x16D6 DUP9 PUSH2 0x22F5 JUMP JUMPDEST SWAP1 POP PUSH1 0x0 DUP1 DUP3 DUP2 MSTORE PUSH1 0x4 PUSH1 0x20 DUP2 SWAP1 MSTORE PUSH1 0x40 SWAP1 SWAP2 KECCAK256 SLOAD PUSH1 0xFF AND SWAP1 DUP2 GT ISZERO PUSH2 0x16FE JUMPI PUSH2 0x16FE PUSH2 0x3C41 JUMP JUMPDEST EQ PUSH2 0x1765 JUMPI PUSH1 0x40 MLOAD PUSH32 0x8C379A000000000000000000000000000000000000000000000000000000000 DUP2 MSTORE PUSH1 0x20 PUSH1 0x4 DUP3 ADD MSTORE PUSH1 0x19 PUSH1 0x24 DUP3 ADD MSTORE PUSH32 0x7472616E7366657220616C726561647920657865637574656400000000000000 PUSH1 0x44 DUP3 ADD MSTORE PUSH1 0x64 ADD PUSH2 0x6BB JUMP JUMPDEST PUSH1 0x0 DUP2 DUP2 MSTORE PUSH1 0x4 PUSH1 0x20 DUP2 DUP2 MSTORE PUSH1 0x40 DUP1 DUP5 KECCAK256 DUP1 SLOAD PUSH32 0xFFFFFFFFFFFFFFFFFFFFFFFFFFFFFFFFFFFFFFFFFFFFFFFFFFFFFFFFFFFFFF00 AND SWAP1 SWAP4 OR SWAP1 SWAP3 SSTORE DUP2 MLOAD CHAINID SWAP2 DUP2 ADD SWAP2 SWAP1 SWAP2 MSTORE PUSH32 0xFFFFFFFFFFFFFFFFFFFFFFFFFFFFFFFFFFFFFFFF000000000000000000000000 ADDRESS PUSH1 0x60 SHL AND SWAP2 DUP2 ADD SWAP2 SWAP1 SWAP2 MSTORE PUSH32 0x4D657373616765576974685472616E73666572526566756E6400000000000000 PUSH1 0x54 DUP3 ADD MSTORE PUSH1 0x6D ADD PUSH1 0x40 MLOAD PUSH1 0x20 DUP2 DUP4 SUB SUB DUP2 MSTORE SWAP1 PUSH1 0x40 MSTORE DUP1 MLOAD SWAP1 PUSH1 0x20 ADD KECCAK256 SWAP1 POP PUSH1 0x5 PUSH1 0x0 SWAP1 SLOAD SWAP1 PUSH2 0x100 EXP SWAP1 DIV PUSH20 0xFFFFFFFFFFFFFFFFFFFFFFFFFFFFFFFFFFFFFFFF AND PUSH20 0xFFFFFFFFFFFFFFFFFFFFFFFFFFFFFFFFFFFFFFFF AND PUSH4 0x682DBC22 DUP3 DUP5 DUP15 DUP15 DUP15 PUSH2 0x100 ADD CALLDATALOAD PUSH1 0x40 MLOAD PUSH1 0x20 ADD PUSH2 0x1874 SWAP6 SWAP5 SWAP4 SWAP3 SWAP2 SWAP1 PUSH2 0x3F4B JUMP JUMPDEST PUSH1 0x40 MLOAD PUSH1 0x20 DUP2 DUP4 SUB SUB DUP2 MSTORE SWAP1 PUSH1 0x40 MSTORE DUP11 DUP11 DUP11 DUP11 DUP11 DUP11 PUSH1 0x40 MLOAD DUP9 PUSH4 0xFFFFFFFF AND PUSH1 0xE0 SHL DUP2 MSTORE PUSH1 0x4 ADD PUSH2 0x18AB SWAP8 SWAP7 SWAP6 SWAP5 SWAP4 SWAP3 SWAP2 SWAP1 PUSH2 0x3EA7 JUMP JUMPDEST PUSH1 0x0 PUSH1 0x40 MLOAD DUP1 DUP4 SUB DUP2 DUP7 DUP1 EXTCODESIZE ISZERO DUP1 ISZERO PUSH2 0x18C3 JUMPI PUSH1 0x0 DUP1 REVERT JUMPDEST POP GAS STATICCALL ISZERO DUP1 ISZERO PUSH2 0x18D7 JUMPI RETURNDATASIZE PUSH1 0x0 DUP1 RETURNDATACOPY RETURNDATASIZE PUSH1 0x0 REVERT JUMPDEST POP POP POP POP PUSH1 0x0 DUP1 PUSH2 0x18E9 DUP12 DUP15 DUP15 PUSH2 0x3504 JUMP JUMPDEST SWAP1 POP PUSH1 0x1 DUP2 PUSH1 0x2 DUP2 GT ISZERO PUSH2 0x18FF JUMPI PUSH2 0x18FF PUSH2 0x3C41 JUMP JUMPDEST EQ ISZERO PUSH2 0x190E JUMPI PUSH1 0x1 SWAP2 POP PUSH2 0xEEF JUMP JUMPDEST PUSH1 0x2 DUP2 PUSH1 0x2 DUP2 GT ISZERO PUSH2 0x1922 JUMPI PUSH2 0x1922 PUSH2 0x3C41 JUMP JUMPDEST EQ ISZERO PUSH2 0xEEA JUMPI PUSH1 0x0 DUP5 DUP2 MSTORE PUSH1 0x4 PUSH1 0x20 MSTORE PUSH1 0x40 DUP2 KECCAK256 DUP1 SLOAD PUSH32 0xFFFFFFFFFFFFFFFFFFFFFFFFFFFFFFFFFFFFFFFFFFFFFFFFFFFFFFFFFFFFFF00 AND PUSH1 0x1 DUP4 PUSH2 0xE57 JUMP JUMPDEST CALLER PUSH2 0x1982 PUSH1 0x0 SLOAD PUSH20 0xFFFFFFFFFFFFFFFFFFFFFFFFFFFFFFFFFFFFFFFF AND SWAP1 JUMP JUMPDEST PUSH20 0xFFFFFFFFFFFFFFFFFFFFFFFFFFFFFFFFFFFFFFFF AND EQ PUSH2 0x19FF JUMPI PUSH1 0x40 MLOAD PUSH32 0x8C379A000000000000000000000000000000000000000000000000000000000 DUP2 MSTORE PUSH1 0x20 PUSH1 0x4 DUP3 ADD DUP2 SWAP1 MSTORE PUSH1 0x24 DUP3 ADD MSTORE PUSH32 0x4F776E61626C653A2063616C6C6572206973206E6F7420746865206F776E6572 PUSH1 0x44 DUP3 ADD MSTORE PUSH1 0x64 ADD PUSH2 0x6BB JUMP JUMPDEST PUSH20 0xFFFFFFFFFFFFFFFFFFFFFFFFFFFFFFFFFFFFFFFF DUP2 AND PUSH2 0x1A7C JUMPI PUSH1 0x40 MLOAD PUSH32 0x8C379A000000000000000000000000000000000000000000000000000000000 DUP2 MSTORE PUSH1 0x20 PUSH1 0x4 DUP3 ADD MSTORE PUSH1 0xF PUSH1 0x24 DUP3 ADD MSTORE PUSH32 0x696E76616C696420616464726573730000000000000000000000000000000000 PUSH1 0x44 DUP3 ADD MSTORE PUSH1 0x64 ADD PUSH2 0x6BB JUMP JUMPDEST PUSH1 0x8 DUP1 SLOAD PUSH32 0xFFFFFFFFFFFFFFFFFFFFFFFF0000000000000000000000000000000000000000 AND PUSH20 0xFFFFFFFFFFFFFFFFFFFFFFFFFFFFFFFFFFFFFFFF DUP4 AND SWAP1 DUP2 OR SWAP1 SWAP2 SSTORE PUSH1 0x40 MLOAD SWAP1 DUP2 MSTORE PUSH32 0xFB337A6C76476534518D5816CAEB86263972470FEDCCFD047A35EB1825EAA9E8 SWAP1 PUSH1 0x20 ADD PUSH2 0x7B0 JUMP JUMPDEST CALLER PUSH2 0x1B0F PUSH1 0x0 SLOAD PUSH20 0xFFFFFFFFFFFFFFFFFFFFFFFFFFFFFFFFFFFFFFFF AND SWAP1 JUMP JUMPDEST PUSH20 0xFFFFFFFFFFFFFFFFFFFFFFFFFFFFFFFFFFFFFFFF AND EQ PUSH2 0x1B8C JUMPI PUSH1 0x40 MLOAD PUSH32 0x8C379A000000000000000000000000000000000000000000000000000000000 DUP2 MSTORE PUSH1 0x20 PUSH1 0x4 DUP3 ADD DUP2 SWAP1 MSTORE PUSH1 0x24 DUP3 ADD MSTORE PUSH32 0x4F776E61626C653A2063616C6C6572206973206E6F7420746865206F776E6572 PUSH1 0x44 DUP3 ADD MSTORE PUSH1 0x64 ADD PUSH2 0x6BB JUMP JUMPDEST PUSH20 0xFFFFFFFFFFFFFFFFFFFFFFFFFFFFFFFFFFFFFFFF DUP2 AND PUSH2 0x1C09 JUMPI PUSH1 0x40 MLOAD PUSH32 0x8C379A000000000000000000000000000000000000000000000000000000000 DUP2 MSTORE PUSH1 0x20 PUSH1 0x4 DUP3 ADD MSTORE PUSH1 0xF PUSH1 0x24 DUP3 ADD MSTORE PUSH32 0x696E76616C696420616464726573730000000000000000000000000000000000 PUSH1 0x44 DUP3 ADD MSTORE PUSH1 0x64 ADD PUSH2 0x6BB JUMP JUMPDEST PUSH1 0x7 DUP1 SLOAD PUSH32 0xFFFFFFFFFFFFFFFFFFFFFFFF0000000000000000000000000000000000000000 AND PUSH20 0xFFFFFFFFFFFFFFFFFFFFFFFFFFFFFFFFFFFFFFFF DUP4 AND SWAP1 DUP2 OR SWAP1 SWAP2 SSTORE PUSH1 0x40 MLOAD SWAP1 DUP2 MSTORE PUSH32 0xA9DB0C32D9C6C2F75F3B95047A9E67CC1C010EAB792A4E6CA777CE918AD94AAD SWAP1 PUSH1 0x20 ADD PUSH2 0x7B0 JUMP JUMPDEST CHAINID DUP4 EQ ISZERO PUSH2 0x1CE6 JUMPI PUSH1 0x40 MLOAD PUSH32 0x8C379A000000000000000000000000000000000000000000000000000000000 DUP2 MSTORE PUSH1 0x20 PUSH1 0x4 DUP3 ADD MSTORE PUSH1 0xF PUSH1 0x24 DUP3 ADD MSTORE PUSH32 0x496E76616C696420636861696E49640000000000000000000000000000000000 PUSH1 0x44 DUP3 ADD MSTORE PUSH1 0x64 ADD PUSH2 0x6BB JUMP JUMPDEST PUSH1 0x0 PUSH2 0x1CF2 DUP4 DUP4 PUSH2 0x14CA JUMP JUMPDEST SWAP1 POP DUP1 CALLVALUE LT ISZERO PUSH2 0x1D5E JUMPI PUSH1 0x40 MLOAD PUSH32 0x8C379A000000000000000000000000000000000000000000000000000000000 DUP2 MSTORE PUSH1 0x20 PUSH1 0x4 DUP3 ADD MSTORE PUSH1 0x10 PUSH1 0x24 DUP3 ADD MSTORE PUSH32 0x496E73756666696369656E742066656500000000000000000000000000000000 PUSH1 0x44 DUP3 ADD MSTORE PUSH1 0x64 ADD PUSH2 0x6BB JUMP JUMPDEST CALLER PUSH20 0xFFFFFFFFFFFFFFFFFFFFFFFFFFFFFFFFFFFFFFFF AND PUSH32 0xCE3972BFFFE49D317E1D128047A97A3D86B25C94F6F04409F988EF854D25E0E4 DUP7 DUP7 DUP7 DUP7 CALLVALUE PUSH1 0x40 MLOAD PUSH2 0x1DAC SWAP6 SWAP5 SWAP4 SWAP3 SWAP2 SWAP1 PUSH2 0x4177 JUMP JUMPDEST PUSH1 0x40 MLOAD DUP1 SWAP2 SUB SWAP1 LOG2 POP POP POP POP POP JUMP JUMPDEST CALLER PUSH2 0x1DDB PUSH1 0x0 SLOAD PUSH20 0xFFFFFFFFFFFFFFFFFFFFFFFFFFFFFFFFFFFFFFFF AND SWAP1 JUMP JUMPDEST PUSH20 0xFFFFFFFFFFFFFFFFFFFFFFFFFFFFFFFFFFFFFFFF AND EQ PUSH2 0x1E58 JUMPI PUSH1 0x40 MLOAD PUSH32 0x8C379A000000000000000000000000000000000000000000000000000000000 DUP2 MSTORE PUSH1 0x20 PUSH1 0x4 DUP3 ADD DUP2 SWAP1 MSTORE PUSH1 0x24 DUP3 ADD MSTORE PUSH32 0x4F776E61626C653A2063616C6C6572206973206E6F7420746865206F776E6572 PUSH1 0x44 DUP3 ADD MSTORE PUSH1 0x64 ADD PUSH2 0x6BB JUMP JUMPDEST PUSH1 0x2 DUP2 SWAP1 SSTORE PUSH1 0x40 MLOAD DUP2 DUP2 MSTORE PUSH32 0x210D4D5D2D36D571207DAC98E383E2441C684684C885FB2D7C54F8D24422074C SWAP1 PUSH1 0x20 ADD PUSH2 0x7B0 JUMP JUMPDEST CALLER PUSH2 0x1EAD PUSH1 0x0 SLOAD PUSH20 0xFFFFFFFFFFFFFFFFFFFFFFFFFFFFFFFFFFFFFFFF AND SWAP1 JUMP JUMPDEST PUSH20 0xFFFFFFFFFFFFFFFFFFFFFFFFFFFFFFFFFFFFFFFF AND EQ PUSH2 0x1F2A JUMPI PUSH1 0x40 MLOAD PUSH32 0x8C379A000000000000000000000000000000000000000000000000000000000 DUP2 MSTORE PUSH1 0x20 PUSH1 0x4 DUP3 ADD DUP2 SWAP1 MSTORE PUSH1 0x24 DUP3 ADD MSTORE PUSH32 0x4F776E61626C653A2063616C6C6572206973206E6F7420746865206F776E6572 PUSH1 0x44 DUP3 ADD MSTORE PUSH1 0x64 ADD PUSH2 0x6BB JUMP JUMPDEST PUSH20 0xFFFFFFFFFFFFFFFFFFFFFFFFFFFFFFFFFFFFFFFF DUP2 AND PUSH2 0x1FCD JUMPI PUSH1 0x40 MLOAD PUSH32 0x8C379A000000000000000000000000000000000000000000000000000000000 DUP2 MSTORE PUSH1 0x20 PUSH1 0x4 DUP3 ADD MSTORE PUSH1 0x26 PUSH1 0x24 DUP3 ADD MSTORE PUSH32 0x4F776E61626C653A206E6577206F776E657220697320746865207A65726F2061 PUSH1 0x44 DUP3 ADD MSTORE PUSH32 0x6464726573730000000000000000000000000000000000000000000000000000 PUSH1 0x64 DUP3 ADD MSTORE PUSH1 0x84 ADD PUSH2 0x6BB JUMP JUMPDEST PUSH2 0x1FD6 DUP2 PUSH2 0x3581 JUMP JUMPDEST POP JUMP JUMPDEST CALLER PUSH2 0x1FF9 PUSH1 0x0 SLOAD PUSH20 0xFFFFFFFFFFFFFFFFFFFFFFFFFFFFFFFFFFFFFFFF AND SWAP1 JUMP JUMPDEST PUSH20 0xFFFFFFFFFFFFFFFFFFFFFFFFFFFFFFFFFFFFFFFF AND EQ PUSH2 0x2076 JUMPI PUSH1 0x40 MLOAD PUSH32 0x8C379A000000000000000000000000000000000000000000000000000000000 DUP2 MSTORE PUSH1 0x20 PUSH1 0x4 DUP3 ADD DUP2 SWAP1 MSTORE PUSH1 0x24 DUP3 ADD MSTORE PUSH32 0x4F776E61626C653A2063616C6C6572206973206E6F7420746865206F776E6572 PUSH1 0x44 DUP3 ADD MSTORE PUSH1 0x64 ADD PUSH2 0x6BB JUMP JUMPDEST PUSH20 0xFFFFFFFFFFFFFFFFFFFFFFFFFFFFFFFFFFFFFFFF DUP2 AND PUSH2 0x20F3 JUMPI PUSH1 0x40 MLOAD PUSH32 0x8C379A000000000000000000000000000000000000000000000000000000000 DUP2 MSTORE PUSH1 0x20 PUSH1 0x4 DUP3 ADD MSTORE PUSH1 0xF PUSH1 0x24 DUP3 ADD MSTORE PUSH32 0x696E76616C696420616464726573730000000000000000000000000000000000 PUSH1 0x44 DUP3 ADD MSTORE PUSH1 0x64 ADD PUSH2 0x6BB JUMP JUMPDEST PUSH1 0x9 DUP1 SLOAD PUSH32 0xFFFFFFFFFFFFFFFFFFFFFFFF0000000000000000000000000000000000000000 AND PUSH20 0xFFFFFFFFFFFFFFFFFFFFFFFFFFFFFFFFFFFFFFFF DUP4 AND SWAP1 DUP2 OR SWAP1 SWAP2 SSTORE PUSH1 0x40 MLOAD SWAP1 DUP2 MSTORE PUSH32 0x918A691A2A82482A10E11F43D7B627B2BA220DD08F251CB61933C42560F6FCB5 SWAP1 PUSH1 0x20 ADD PUSH2 0x7B0 JUMP JUMPDEST PUSH1 0x0 SLOAD PUSH20 0xFFFFFFFFFFFFFFFFFFFFFFFFFFFFFFFFFFFFFFFF AND ISZERO PUSH2 0x21E6 JUMPI PUSH1 0x40 MLOAD PUSH32 0x8C379A000000000000000000000000000000000000000000000000000000000 DUP2 MSTORE PUSH1 0x20 PUSH1 0x4 DUP3 ADD MSTORE PUSH1 0x11 PUSH1 0x24 DUP3 ADD MSTORE PUSH32 0x6F776E657220616C726561647920736574000000000000000000000000000000 PUSH1 0x44 DUP3 ADD MSTORE PUSH1 0x64 ADD PUSH2 0x6BB JUMP JUMPDEST PUSH2 0x21EF CALLER PUSH2 0x3581 JUMP JUMPDEST JUMP JUMPDEST PUSH1 0x5 SLOAD PUSH20 0xFFFFFFFFFFFFFFFFFFFFFFFFFFFFFFFFFFFFFFFF AND ISZERO PUSH2 0x2271 JUMPI PUSH1 0x40 MLOAD PUSH32 0x8C379A000000000000000000000000000000000000000000000000000000000 DUP2 MSTORE PUSH1 0x20 PUSH1 0x4 DUP3 ADD MSTORE PUSH1 0x1B PUSH1 0x24 DUP3 ADD MSTORE PUSH32 0x6C697175696469747942726964676520616C7265616479207365740000000000 PUSH1 0x44 DUP3 ADD MSTORE PUSH1 0x64 ADD PUSH2 0x6BB JUMP JUMPDEST PUSH1 0x5 DUP1 SLOAD PUSH32 0xFFFFFFFFFFFFFFFFFFFFFFFF0000000000000000000000000000000000000000 SWAP1 DUP2 AND PUSH20 0xFFFFFFFFFFFFFFFFFFFFFFFFFFFFFFFFFFFFFFFF SWAP8 DUP9 AND OR SWAP1 SWAP2 SSTORE PUSH1 0x6 DUP1 SLOAD DUP3 AND SWAP6 DUP8 AND SWAP6 SWAP1 SWAP6 OR SWAP1 SWAP5 SSTORE PUSH1 0x7 DUP1 SLOAD DUP6 AND SWAP4 DUP7 AND SWAP4 SWAP1 SWAP4 OR SWAP1 SWAP3 SSTORE PUSH1 0x8 DUP1 SLOAD DUP5 AND SWAP2 DUP6 AND SWAP2 SWAP1 SWAP2 OR SWAP1 SSTORE PUSH1 0x9 DUP1 SLOAD SWAP1 SWAP3 AND SWAP3 AND SWAP2 SWAP1 SWAP2 OR SWAP1 SSTORE JUMP JUMPDEST PUSH1 0x0 DUP1 DUP1 PUSH1 0x1 PUSH2 0x2308 PUSH1 0x20 DUP7 ADD DUP7 PUSH2 0x3FDA JUMP JUMPDEST PUSH1 0x6 DUP2 GT ISZERO PUSH2 0x2319 JUMPI PUSH2 0x2319 PUSH2 0x3C41 JUMP JUMPDEST EQ ISZERO PUSH2 0x2542 JUMPI PUSH2 0x232F PUSH1 0x40 DUP6 ADD PUSH1 0x20 DUP7 ADD PUSH2 0x36FA JUMP JUMPDEST PUSH2 0x233F PUSH1 0x60 DUP7 ADD PUSH1 0x40 DUP8 ADD PUSH2 0x36FA JUMP JUMPDEST PUSH2 0x234F PUSH1 0x80 DUP8 ADD PUSH1 0x60 DUP9 ADD PUSH2 0x36FA JUMP JUMPDEST PUSH1 0x80 DUP8 ADD CALLDATALOAD PUSH2 0x2364 PUSH1 0xE0 DUP10 ADD PUSH1 0xC0 DUP11 ADD PUSH2 0x3F6D JUMP JUMPDEST PUSH1 0x40 MLOAD PUSH32 0xFFFFFFFFFFFFFFFFFFFFFFFFFFFFFFFFFFFFFFFF000000000000000000000000 PUSH1 0x60 SWAP7 DUP8 SHL DUP2 AND PUSH1 0x20 DUP4 ADD MSTORE SWAP5 DUP7 SHL DUP6 AND PUSH1 0x34 DUP3 ADD MSTORE SWAP3 SWAP1 SWAP5 SHL SWAP1 SWAP3 AND PUSH1 0x48 DUP3 ADD MSTORE PUSH1 0x5C DUP2 ADD SWAP2 SWAP1 SWAP2 MSTORE PUSH32 0xFFFFFFFFFFFFFFFF000000000000000000000000000000000000000000000000 PUSH1 0xC0 SWAP3 DUP4 SHL DUP2 AND PUSH1 0x7C DUP4 ADD MSTORE CHAINID SWAP1 SWAP3 SHL SWAP1 SWAP2 AND PUSH1 0x84 DUP3 ADD MSTORE PUSH1 0xE0 DUP6 ADD CALLDATALOAD PUSH1 0x8C DUP3 ADD MSTORE PUSH1 0xAC ADD PUSH1 0x40 DUP1 MLOAD DUP1 DUP4 SUB PUSH32 0xFFFFFFFFFFFFFFFFFFFFFFFFFFFFFFFFFFFFFFFFFFFFFFFFFFFFFFFFFFFFFFE0 ADD DUP2 MSTORE SWAP1 DUP3 SWAP1 MSTORE DUP1 MLOAD PUSH1 0x20 SWAP1 SWAP2 ADD KECCAK256 PUSH1 0x5 SLOAD PUSH32 0x3C64F04B00000000000000000000000000000000000000000000000000000000 DUP4 MSTORE PUSH1 0x4 DUP4 ADD DUP3 SWAP1 MSTORE SWAP1 SWAP4 POP PUSH20 0xFFFFFFFFFFFFFFFFFFFFFFFFFFFFFFFFFFFFFFFF AND SWAP2 POP DUP2 SWAP1 PUSH4 0x3C64F04B SWAP1 PUSH1 0x24 ADD PUSH1 0x20 PUSH1 0x40 MLOAD DUP1 DUP4 SUB DUP2 DUP7 DUP1 EXTCODESIZE ISZERO DUP1 ISZERO PUSH2 0x249A JUMPI PUSH1 0x0 DUP1 REVERT JUMPDEST POP GAS STATICCALL ISZERO DUP1 ISZERO PUSH2 0x24AE JUMPI RETURNDATASIZE PUSH1 0x0 DUP1 RETURNDATACOPY RETURNDATASIZE PUSH1 0x0 REVERT JUMPDEST POP POP POP POP PUSH1 0x40 MLOAD RETURNDATASIZE PUSH1 0x1F NOT PUSH1 0x1F DUP3 ADD AND DUP3 ADD DUP1 PUSH1 0x40 MSTORE POP DUP2 ADD SWAP1 PUSH2 0x24D2 SWAP2 SWAP1 PUSH2 0x41BF JUMP JUMPDEST ISZERO ISZERO PUSH1 0x1 EQ PUSH2 0x253D JUMPI PUSH1 0x40 MLOAD PUSH32 0x8C379A000000000000000000000000000000000000000000000000000000000 DUP2 MSTORE PUSH1 0x20 PUSH1 0x4 DUP3 ADD MSTORE PUSH1 0x16 PUSH1 0x24 DUP3 ADD MSTORE PUSH32 0x6272696467652072656C6179206E6F7420657869737400000000000000000000 PUSH1 0x44 DUP3 ADD MSTORE PUSH1 0x64 ADD PUSH2 0x6BB JUMP JUMPDEST PUSH2 0x2E31 JUMP JUMPDEST PUSH1 0x2 PUSH2 0x2551 PUSH1 0x20 DUP7 ADD DUP7 PUSH2 0x3FDA JUMP JUMPDEST PUSH1 0x6 DUP2 GT ISZERO PUSH2 0x2562 JUMPI PUSH2 0x2562 PUSH2 0x3C41 JUMP JUMPDEST EQ ISZERO PUSH2 0x275D JUMPI CHAINID PUSH2 0x2579 PUSH1 0xC0 DUP7 ADD PUSH1 0xA0 DUP8 ADD PUSH2 0x3F6D JUMP JUMPDEST PUSH2 0x2589 PUSH1 0x60 DUP8 ADD PUSH1 0x40 DUP9 ADD PUSH2 0x36FA JUMP JUMPDEST PUSH2 0x2599 PUSH1 0x80 DUP9 ADD PUSH1 0x60 DUP10 ADD PUSH2 0x36FA JUMP JUMPDEST PUSH1 0x40 MLOAD PUSH32 0xFFFFFFFFFFFFFFFF000000000000000000000000000000000000000000000000 PUSH1 0xC0 SWAP6 DUP7 SHL DUP2 AND PUSH1 0x20 DUP4 ADD MSTORE SWAP4 SWAP1 SWAP5 SHL SWAP1 SWAP3 AND PUSH1 0x28 DUP5 ADD MSTORE PUSH32 0xFFFFFFFFFFFFFFFFFFFFFFFFFFFFFFFFFFFFFFFF000000000000000000000000 PUSH1 0x60 SWAP2 DUP3 SHL DUP2 AND PUSH1 0x30 DUP6 ADD MSTORE SWAP2 SWAP1 SHL AND PUSH1 0x44 DUP3 ADD MSTORE PUSH1 0x80 DUP6 ADD CALLDATALOAD PUSH1 0x58 DUP3 ADD MSTORE PUSH1 0x78 ADD PUSH1 0x40 DUP1 MLOAD DUP1 DUP4 SUB PUSH32 0xFFFFFFFFFFFFFFFFFFFFFFFFFFFFFFFFFFFFFFFFFFFFFFFFFFFFFFFFFFFFFFE0 ADD DUP2 MSTORE SWAP1 DUP3 SWAP1 MSTORE DUP1 MLOAD PUSH1 0x20 SWAP1 SWAP2 ADD KECCAK256 PUSH1 0x5 SLOAD PUSH32 0xE09AB42800000000000000000000000000000000000000000000000000000000 DUP4 MSTORE PUSH1 0x4 DUP4 ADD DUP3 SWAP1 MSTORE SWAP1 SWAP4 POP PUSH20 0xFFFFFFFFFFFFFFFFFFFFFFFFFFFFFFFFFFFFFFFF AND SWAP2 POP DUP2 SWAP1 PUSH4 0xE09AB428 SWAP1 PUSH1 0x24 ADD PUSH1 0x20 PUSH1 0x40 MLOAD DUP1 DUP4 SUB DUP2 DUP7 DUP1 EXTCODESIZE ISZERO DUP1 ISZERO PUSH2 0x26BA JUMPI PUSH1 0x0 DUP1 REVERT JUMPDEST POP GAS STATICCALL ISZERO DUP1 ISZERO PUSH2 0x26CE JUMPI RETURNDATASIZE PUSH1 0x0 DUP1 RETURNDATACOPY RETURNDATASIZE PUSH1 0x0 REVERT JUMPDEST POP POP POP POP PUSH1 0x40 MLOAD RETURNDATASIZE PUSH1 0x1F NOT PUSH1 0x1F DUP3 ADD AND DUP3 ADD DUP1 PUSH1 0x40 MSTORE POP DUP2 ADD SWAP1 PUSH2 0x26F2 SWAP2 SWAP1 PUSH2 0x41BF JUMP JUMPDEST ISZERO ISZERO PUSH1 0x1 EQ PUSH2 0x253D JUMPI PUSH1 0x40 MLOAD PUSH32 0x8C379A000000000000000000000000000000000000000000000000000000000 DUP2 MSTORE PUSH1 0x20 PUSH1 0x4 DUP3 ADD MSTORE PUSH1 0x19 PUSH1 0x24 DUP3 ADD MSTORE PUSH32 0x627269646765207769746864726177206E6F7420657869737400000000000000 PUSH1 0x44 DUP3 ADD MSTORE PUSH1 0x64 ADD PUSH2 0x6BB JUMP JUMPDEST PUSH1 0x3 PUSH2 0x276C PUSH1 0x20 DUP7 ADD DUP7 PUSH2 0x3FDA JUMP JUMPDEST PUSH1 0x6 DUP2 GT ISZERO PUSH2 0x277D JUMPI PUSH2 0x277D PUSH2 0x3C41 JUMP JUMPDEST EQ DUP1 PUSH2 0x27A6 JUMPI POP PUSH1 0x4 PUSH2 0x2793 PUSH1 0x20 DUP7 ADD DUP7 PUSH2 0x3FDA JUMP JUMPDEST PUSH1 0x6 DUP2 GT ISZERO PUSH2 0x27A4 JUMPI PUSH2 0x27A4 PUSH2 0x3C41 JUMP JUMPDEST EQ JUMPDEST ISZERO PUSH2 0x2AF6 JUMPI PUSH2 0x27BB PUSH1 0x60 DUP6 ADD PUSH1 0x40 DUP7 ADD PUSH2 0x36FA JUMP JUMPDEST PUSH2 0x27CB PUSH1 0x80 DUP7 ADD PUSH1 0x60 DUP8 ADD PUSH2 0x36FA JUMP JUMPDEST PUSH1 0x80 DUP7 ADD CALLDATALOAD PUSH2 0x27E0 PUSH1 0x40 DUP9 ADD PUSH1 0x20 DUP10 ADD PUSH2 0x36FA JUMP JUMPDEST PUSH2 0x27F0 PUSH1 0xE0 DUP10 ADD PUSH1 0xC0 DUP11 ADD PUSH2 0x3F6D JUMP JUMPDEST PUSH1 0x40 MLOAD PUSH1 0x60 SWAP6 DUP7 SHL PUSH32 0xFFFFFFFFFFFFFFFFFFFFFFFFFFFFFFFFFFFFFFFF000000000000000000000000 SWAP1 DUP2 AND PUSH1 0x20 DUP4 ADD MSTORE SWAP5 DUP7 SHL DUP6 AND PUSH1 0x34 DUP3 ADD MSTORE PUSH1 0x48 DUP2 ADD SWAP4 SWAP1 SWAP4 MSTORE SWAP4 SHL SWAP1 SWAP2 AND PUSH1 0x68 DUP3 ADD MSTORE PUSH1 0xC0 SWAP2 SWAP1 SWAP2 SHL PUSH32 0xFFFFFFFFFFFFFFFF000000000000000000000000000000000000000000000000 AND PUSH1 0x7C DUP3 ADD MSTORE PUSH1 0xE0 DUP6 ADD CALLDATALOAD PUSH1 0x84 DUP3 ADD MSTORE PUSH1 0xA4 ADD PUSH1 0x40 DUP1 MLOAD PUSH32 0xFFFFFFFFFFFFFFFFFFFFFFFFFFFFFFFFFFFFFFFFFFFFFFFFFFFFFFFFFFFFFFE0 DUP2 DUP5 SUB ADD DUP2 MSTORE SWAP2 SWAP1 MSTORE DUP1 MLOAD PUSH1 0x20 SWAP1 SWAP2 ADD KECCAK256 SWAP2 POP PUSH1 0x3 PUSH2 0x28BE PUSH1 0x20 DUP7 ADD DUP7 PUSH2 0x3FDA JUMP JUMPDEST PUSH1 0x6 DUP2 GT ISZERO PUSH2 0x28CF JUMPI PUSH2 0x28CF PUSH2 0x3C41 JUMP JUMPDEST EQ ISZERO PUSH2 0x29E6 JUMPI POP PUSH1 0x6 SLOAD PUSH1 0x40 MLOAD PUSH32 0x1E6472500000000000000000000000000000000000000000000000000000000 DUP2 MSTORE PUSH1 0x4 DUP2 ADD DUP4 SWAP1 MSTORE PUSH20 0xFFFFFFFFFFFFFFFFFFFFFFFFFFFFFFFFFFFFFFFF SWAP1 SWAP2 AND SWAP1 DUP2 SWAP1 PUSH4 0x1E64725 SWAP1 PUSH1 0x24 ADD JUMPDEST PUSH1 0x20 PUSH1 0x40 MLOAD DUP1 DUP4 SUB DUP2 DUP7 DUP1 EXTCODESIZE ISZERO DUP1 ISZERO PUSH2 0x2943 JUMPI PUSH1 0x0 DUP1 REVERT JUMPDEST POP GAS STATICCALL ISZERO DUP1 ISZERO PUSH2 0x2957 JUMPI RETURNDATASIZE PUSH1 0x0 DUP1 RETURNDATACOPY RETURNDATASIZE PUSH1 0x0 REVERT JUMPDEST POP POP POP POP PUSH1 0x40 MLOAD RETURNDATASIZE PUSH1 0x1F NOT PUSH1 0x1F DUP3 ADD AND DUP3 ADD DUP1 PUSH1 0x40 MSTORE POP DUP2 ADD SWAP1 PUSH2 0x297B SWAP2 SWAP1 PUSH2 0x41BF JUMP JUMPDEST ISZERO ISZERO PUSH1 0x1 EQ PUSH2 0x253D JUMPI PUSH1 0x40 MLOAD PUSH32 0x8C379A000000000000000000000000000000000000000000000000000000000 DUP2 MSTORE PUSH1 0x20 PUSH1 0x4 DUP3 ADD MSTORE PUSH1 0x15 PUSH1 0x24 DUP3 ADD MSTORE PUSH32 0x6D696E74207265636F7264206E6F742065786973740000000000000000000000 PUSH1 0x44 DUP3 ADD MSTORE PUSH1 0x64 ADD PUSH2 0x6BB JUMP JUMPDEST POP PUSH1 0x7 SLOAD PUSH1 0x40 MLOAD PUSH32 0x1E6472500000000000000000000000000000000000000000000000000000000 DUP2 MSTORE PUSH1 0x4 DUP2 ADD DUP4 SWAP1 MSTORE PUSH20 0xFFFFFFFFFFFFFFFFFFFFFFFFFFFFFFFFFFFFFFFF SWAP1 SWAP2 AND SWAP1 DUP2 SWAP1 PUSH4 0x1E64725 SWAP1 PUSH1 0x24 ADD PUSH1 0x20 PUSH1 0x40 MLOAD DUP1 DUP4 SUB DUP2 DUP7 DUP1 EXTCODESIZE ISZERO DUP1 ISZERO PUSH2 0x2A53 JUMPI PUSH1 0x0 DUP1 REVERT JUMPDEST POP GAS STATICCALL ISZERO DUP1 ISZERO PUSH2 0x2A67 JUMPI RETURNDATASIZE PUSH1 0x0 DUP1 RETURNDATACOPY RETURNDATASIZE PUSH1 0x0 REVERT JUMPDEST POP POP POP POP PUSH1 0x40 MLOAD RETURNDATASIZE PUSH1 0x1F NOT PUSH1 0x1F DUP3 ADD AND DUP3 ADD DUP1 PUSH1 0x40 MSTORE POP DUP2 ADD SWAP1 PUSH2 0x2A8B SWAP2 SWAP1 PUSH2 0x41BF JUMP JUMPDEST ISZERO ISZERO PUSH1 0x1 EQ PUSH2 0x253D JUMPI PUSH1 0x40 MLOAD PUSH32 0x8C379A000000000000000000000000000000000000000000000000000000000 DUP2 MSTORE PUSH1 0x20 PUSH1 0x4 DUP3 ADD MSTORE PUSH1 0x19 PUSH1 0x24 DUP3 ADD MSTORE PUSH32 0x7769746864726177207265636F7264206E6F7420657869737400000000000000 PUSH1 0x44 DUP3 ADD MSTORE PUSH1 0x64 ADD PUSH2 0x6BB JUMP JUMPDEST PUSH1 0x5 PUSH2 0x2B05 PUSH1 0x20 DUP7 ADD DUP7 PUSH2 0x3FDA JUMP JUMPDEST PUSH1 0x6 DUP2 GT ISZERO PUSH2 0x2B16 JUMPI PUSH2 0x2B16 PUSH2 0x3C41 JUMP JUMPDEST EQ DUP1 PUSH2 0x2B3F JUMPI POP PUSH1 0x6 PUSH2 0x2B2C PUSH1 0x20 DUP7 ADD DUP7 PUSH2 0x3FDA JUMP JUMPDEST PUSH1 0x6 DUP2 GT ISZERO PUSH2 0x2B3D JUMPI PUSH2 0x2B3D PUSH2 0x3C41 JUMP JUMPDEST EQ JUMPDEST ISZERO PUSH2 0x2E31 JUMPI PUSH1 0x5 PUSH2 0x2B53 PUSH1 0x20 DUP7 ADD DUP7 PUSH2 0x3FDA JUMP JUMPDEST PUSH1 0x6 DUP2 GT ISZERO PUSH2 0x2B64 JUMPI PUSH2 0x2B64 PUSH2 0x3C41 JUMP JUMPDEST EQ ISZERO PUSH2 0x2B89 JUMPI POP PUSH1 0x8 SLOAD PUSH20 0xFFFFFFFFFFFFFFFFFFFFFFFFFFFFFFFFFFFFFFFF AND PUSH2 0x2BA4 JUMP JUMPDEST POP PUSH1 0x9 SLOAD PUSH20 0xFFFFFFFFFFFFFFFFFFFFFFFFFFFFFFFFFFFFFFFF AND JUMPDEST PUSH2 0x2BB4 PUSH1 0x60 DUP6 ADD PUSH1 0x40 DUP7 ADD PUSH2 0x36FA JUMP JUMPDEST PUSH2 0x2BC4 PUSH1 0x80 DUP7 ADD PUSH1 0x60 DUP8 ADD PUSH2 0x36FA JUMP JUMPDEST PUSH1 0x80 DUP7 ADD CALLDATALOAD PUSH2 0x2BD9 PUSH1 0x40 DUP9 ADD PUSH1 0x20 DUP10 ADD PUSH2 0x36FA JUMP JUMPDEST PUSH2 0x2BE9 PUSH1 0xE0 DUP10 ADD PUSH1 0xC0 DUP11 ADD PUSH2 0x3F6D JUMP JUMPDEST PUSH1 0x40 MLOAD PUSH1 0x60 SWAP6 DUP7 SHL PUSH32 0xFFFFFFFFFFFFFFFFFFFFFFFFFFFFFFFFFFFFFFFF000000000000000000000000 SWAP1 DUP2 AND PUSH1 0x20 DUP4 ADD MSTORE SWAP5 DUP7 SHL DUP6 AND PUSH1 0x34 DUP3 ADD MSTORE PUSH1 0x48 DUP2 ADD SWAP4 SWAP1 SWAP4 MSTORE SWAP1 DUP5 SHL DUP4 AND PUSH1 0x68 DUP4 ADD MSTORE PUSH1 0xC0 SHL PUSH32 0xFFFFFFFFFFFFFFFF000000000000000000000000000000000000000000000000 AND PUSH1 0x7C DUP3 ADD MSTORE PUSH1 0xE0 DUP8 ADD CALLDATALOAD PUSH1 0x84 DUP3 ADD MSTORE SWAP2 DUP4 SWAP1 SHL AND PUSH1 0xA4 DUP3 ADD MSTORE PUSH1 0xB8 ADD PUSH1 0x40 DUP1 MLOAD PUSH32 0xFFFFFFFFFFFFFFFFFFFFFFFFFFFFFFFFFFFFFFFFFFFFFFFFFFFFFFFFFFFFFFE0 DUP2 DUP5 SUB ADD DUP2 MSTORE SWAP2 SWAP1 MSTORE DUP1 MLOAD PUSH1 0x20 SWAP1 SWAP2 ADD KECCAK256 SWAP2 POP PUSH1 0x5 PUSH2 0x2CBE PUSH1 0x20 DUP7 ADD DUP7 PUSH2 0x3FDA JUMP JUMPDEST PUSH1 0x6 DUP2 GT ISZERO PUSH2 0x2CCF JUMPI PUSH2 0x2CCF PUSH2 0x3C41 JUMP JUMPDEST EQ ISZERO PUSH2 0x2D28 JUMPI PUSH1 0x40 MLOAD PUSH32 0x1E6472500000000000000000000000000000000000000000000000000000000 DUP2 MSTORE PUSH1 0x4 DUP2 ADD DUP4 SWAP1 MSTORE PUSH20 0xFFFFFFFFFFFFFFFFFFFFFFFFFFFFFFFFFFFFFFFF DUP3 AND SWAP1 PUSH4 0x1E64725 SWAP1 PUSH1 0x24 ADD PUSH2 0x292B JUMP JUMPDEST PUSH1 0x40 MLOAD PUSH32 0x1E6472500000000000000000000000000000000000000000000000000000000 DUP2 MSTORE PUSH1 0x4 DUP2 ADD DUP4 SWAP1 MSTORE PUSH20 0xFFFFFFFFFFFFFFFFFFFFFFFFFFFFFFFFFFFFFFFF DUP3 AND SWAP1 PUSH4 0x1E64725 SWAP1 PUSH1 0x24 ADD PUSH1 0x20 PUSH1 0x40 MLOAD DUP1 DUP4 SUB DUP2 DUP7 DUP1 EXTCODESIZE ISZERO DUP1 ISZERO PUSH2 0x2D8E JUMPI PUSH1 0x0 DUP1 REVERT JUMPDEST POP GAS STATICCALL ISZERO DUP1 ISZERO PUSH2 0x2DA2 JUMPI RETURNDATASIZE PUSH1 0x0 DUP1 RETURNDATACOPY RETURNDATASIZE PUSH1 0x0 REVERT JUMPDEST POP POP POP POP PUSH1 0x40 MLOAD RETURNDATASIZE PUSH1 0x1F NOT PUSH1 0x1F DUP3 ADD AND DUP3 ADD DUP1 PUSH1 0x40 MSTORE POP DUP2 ADD SWAP1 PUSH2 0x2DC6 SWAP2 SWAP1 PUSH2 0x41BF JUMP JUMPDEST ISZERO ISZERO PUSH1 0x1 EQ PUSH2 0x2E31 JUMPI PUSH1 0x40 MLOAD PUSH32 0x8C379A000000000000000000000000000000000000000000000000000000000 DUP2 MSTORE PUSH1 0x20 PUSH1 0x4 DUP3 ADD MSTORE PUSH1 0x19 PUSH1 0x24 DUP3 ADD MSTORE PUSH32 0x7769746864726177207265636F7264206E6F7420657869737400000000000000 PUSH1 0x44 DUP3 ADD MSTORE PUSH1 0x64 ADD PUSH2 0x6BB JUMP JUMPDEST PUSH1 0x0 DUP2 DUP4 PUSH1 0x40 MLOAD PUSH1 0x20 ADD PUSH2 0x2E47 SWAP4 SWAP3 SWAP2 SWAP1 PUSH2 0x41F8 JUMP JUMPDEST PUSH1 0x40 MLOAD PUSH1 0x20 DUP2 DUP4 SUB SUB DUP2 MSTORE SWAP1 PUSH1 0x40 MSTORE DUP1 MLOAD SWAP1 PUSH1 0x20 ADD KECCAK256 SWAP3 POP POP POP SWAP2 SWAP1 POP JUMP JUMPDEST PUSH1 0x0 DUP1 GAS SWAP1 POP PUSH1 0x0 DUP1 PUSH2 0x2E7F PUSH1 0x60 DUP9 ADD PUSH1 0x40 DUP10 ADD PUSH2 0x36FA JUMP JUMPDEST PUSH20 0xFFFFFFFFFFFFFFFFFFFFFFFFFFFFFFFFFFFFFFFF AND CALLVALUE PUSH32 0x7CD2BFFC00000000000000000000000000000000000000000000000000000000 PUSH2 0x2EC7 PUSH1 0x40 DUP12 ADD PUSH1 0x20 DUP13 ADD PUSH2 0x36FA JUMP JUMPDEST PUSH2 0x2ED7 PUSH1 0x80 DUP13 ADD PUSH1 0x60 DUP14 ADD PUSH2 0x36FA JUMP JUMPDEST PUSH1 0x80 DUP13 ADD CALLDATALOAD PUSH2 0x2EEC PUSH1 0xE0 DUP15 ADD PUSH1 0xC0 DUP16 ADD PUSH2 0x3F6D JUMP JUMPDEST DUP13 DUP13 CALLER PUSH1 0x40 MLOAD PUSH1 0x24 ADD PUSH2 0x2F05 SWAP8 SWAP7 SWAP6 SWAP5 SWAP4 SWAP3 SWAP2 SWAP1 PUSH2 0x423C JUMP JUMPDEST PUSH1 0x40 DUP1 MLOAD PUSH32 0xFFFFFFFFFFFFFFFFFFFFFFFFFFFFFFFFFFFFFFFFFFFFFFFFFFFFFFFFFFFFFFE0 DUP2 DUP5 SUB ADD DUP2 MSTORE SWAP2 DUP2 MSTORE PUSH1 0x20 DUP3 ADD DUP1 MLOAD PUSH28 0xFFFFFFFFFFFFFFFFFFFFFFFFFFFFFFFFFFFFFFFFFFFFFFFFFFFFFFFF AND PUSH32 0xFFFFFFFF00000000000000000000000000000000000000000000000000000000 SWAP1 SWAP5 AND SWAP4 SWAP1 SWAP4 OR SWAP1 SWAP3 MSTORE SWAP1 MLOAD PUSH2 0x2F8E SWAP2 SWAP1 PUSH2 0x42A2 JUMP JUMPDEST PUSH1 0x0 PUSH1 0x40 MLOAD DUP1 DUP4 SUB DUP2 DUP6 DUP8 GAS CALL SWAP3 POP POP POP RETURNDATASIZE DUP1 PUSH1 0x0 DUP2 EQ PUSH2 0x2FCB JUMPI PUSH1 0x40 MLOAD SWAP2 POP PUSH1 0x1F NOT PUSH1 0x3F RETURNDATASIZE ADD AND DUP3 ADD PUSH1 0x40 MSTORE RETURNDATASIZE DUP3 MSTORE RETURNDATASIZE PUSH1 0x0 PUSH1 0x20 DUP5 ADD RETURNDATACOPY PUSH2 0x2FD0 JUMP JUMPDEST PUSH1 0x60 SWAP2 POP JUMPDEST POP SWAP2 POP SWAP2 POP DUP2 ISZERO PUSH2 0x2FF9 JUMPI DUP1 DUP1 PUSH1 0x20 ADD SWAP1 MLOAD DUP2 ADD SWAP1 PUSH2 0x2FEF SWAP2 SWAP1 PUSH2 0x42BE JUMP JUMPDEST SWAP4 POP POP POP POP PUSH2 0x300B JUMP JUMPDEST PUSH2 0x3003 DUP4 DUP3 PUSH2 0x35F6 JUMP JUMPDEST PUSH1 0x0 SWAP4 POP POP POP POP JUMPDEST SWAP4 SWAP3 POP POP POP JUMP JUMPDEST PUSH1 0x0 DUP1 GAS SWAP1 POP PUSH1 0x0 DUP1 PUSH2 0x302B PUSH1 0x60 DUP9 ADD PUSH1 0x40 DUP10 ADD PUSH2 0x36FA JUMP JUMPDEST PUSH20 0xFFFFFFFFFFFFFFFFFFFFFFFFFFFFFFFFFFFFFFFF AND CALLVALUE PUSH32 0x5AB7AFC600000000000000000000000000000000000000000000000000000000 PUSH2 0x2EC7 PUSH1 0x40 DUP12 ADD PUSH1 0x20 DUP13 ADD PUSH2 0x36FA JUMP JUMPDEST PUSH2 0x3083 PUSH1 0x60 DUP3 ADD PUSH1 0x40 DUP4 ADD PUSH2 0x36FA JUMP JUMPDEST PUSH20 0xFFFFFFFFFFFFFFFFFFFFFFFFFFFFFFFFFFFFFFFF AND PUSH32 0xA635EB05143F74743822BBD96428928DE4C8EE8CC578299749BE9425C17BB34D PUSH1 0x0 DUP6 DUP6 PUSH2 0x30CE PUSH1 0xE0 DUP8 ADD PUSH1 0xC0 DUP9 ADD PUSH2 0x3F6D JUMP JUMPDEST DUP7 PUSH2 0x100 ADD CALLDATALOAD PUSH1 0x40 MLOAD PUSH2 0x30E5 SWAP6 SWAP5 SWAP4 SWAP3 SWAP2 SWAP1 PUSH2 0x42DF JUMP JUMPDEST PUSH1 0x40 MLOAD DUP1 SWAP2 SUB SWAP1 LOG2 POP POP POP JUMP JUMPDEST PUSH1 0x1 DUP3 PUSH1 0x6 DUP2 GT ISZERO PUSH2 0x3106 JUMPI PUSH2 0x3106 PUSH2 0x3C41 JUMP JUMPDEST EQ ISZERO PUSH2 0x31B4 JUMPI PUSH1 0x5 SLOAD PUSH20 0xFFFFFFFFFFFFFFFFFFFFFFFFFFFFFFFFFFFFFFFF AND PUSH4 0xCDD1B25D PUSH2 0x3134 DUP4 DUP1 PUSH2 0x3FFB JUMP JUMPDEST PUSH2 0x3141 PUSH1 0x20 DUP7 ADD DUP7 PUSH2 0x4060 JUMP JUMPDEST PUSH2 0x314E PUSH1 0x40 DUP9 ADD DUP9 PUSH2 0x4060 JUMP JUMPDEST PUSH2 0x315B PUSH1 0x60 DUP11 ADD DUP11 PUSH2 0x4060 JUMP JUMPDEST PUSH1 0x40 MLOAD DUP10 PUSH4 0xFFFFFFFF AND PUSH1 0xE0 SHL DUP2 MSTORE PUSH1 0x4 ADD PUSH2 0x317E SWAP9 SWAP8 SWAP7 SWAP6 SWAP5 SWAP4 SWAP3 SWAP2 SWAP1 PUSH2 0x431D JUMP JUMPDEST PUSH1 0x0 PUSH1 0x40 MLOAD DUP1 DUP4 SUB DUP2 PUSH1 0x0 DUP8 DUP1 EXTCODESIZE ISZERO DUP1 ISZERO PUSH2 0x3198 JUMPI PUSH1 0x0 DUP1 REVERT JUMPDEST POP GAS CALL ISZERO DUP1 ISZERO PUSH2 0x31AC JUMPI RETURNDATASIZE PUSH1 0x0 DUP1 RETURNDATACOPY RETURNDATASIZE PUSH1 0x0 REVERT JUMPDEST POP POP POP POP POP POP JUMP JUMPDEST PUSH1 0x2 DUP3 PUSH1 0x6 DUP2 GT ISZERO PUSH2 0x31C8 JUMPI PUSH2 0x31C8 PUSH2 0x3C41 JUMP JUMPDEST EQ ISZERO PUSH2 0x31F6 JUMPI PUSH1 0x5 SLOAD PUSH20 0xFFFFFFFFFFFFFFFFFFFFFFFFFFFFFFFFFFFFFFFF AND PUSH4 0xA21A9280 PUSH2 0x3134 DUP4 DUP1 PUSH2 0x3FFB JUMP JUMPDEST PUSH1 0x3 DUP3 PUSH1 0x6 DUP2 GT ISZERO PUSH2 0x320A JUMPI PUSH2 0x320A PUSH2 0x3C41 JUMP JUMPDEST EQ ISZERO PUSH2 0x3238 JUMPI PUSH1 0x6 SLOAD PUSH20 0xFFFFFFFFFFFFFFFFFFFFFFFFFFFFFFFFFFFFFFFF AND PUSH4 0xF8734302 PUSH2 0x3134 DUP4 DUP1 PUSH2 0x3FFB JUMP JUMPDEST PUSH1 0x5 DUP3 PUSH1 0x6 DUP2 GT ISZERO PUSH2 0x324C JUMPI PUSH2 0x324C PUSH2 0x3C41 JUMP JUMPDEST EQ ISZERO PUSH2 0x331B JUMPI PUSH1 0x8 SLOAD PUSH20 0xFFFFFFFFFFFFFFFFFFFFFFFFFFFFFFFFFFFFFFFF AND PUSH4 0xF8734302 PUSH2 0x327A DUP4 DUP1 PUSH2 0x3FFB JUMP JUMPDEST PUSH2 0x3287 PUSH1 0x20 DUP7 ADD DUP7 PUSH2 0x4060 JUMP JUMPDEST PUSH2 0x3294 PUSH1 0x40 DUP9 ADD DUP9 PUSH2 0x4060 JUMP JUMPDEST PUSH2 0x32A1 PUSH1 0x60 DUP11 ADD DUP11 PUSH2 0x4060 JUMP JUMPDEST PUSH1 0x40 MLOAD DUP10 PUSH4 0xFFFFFFFF AND PUSH1 0xE0 SHL DUP2 MSTORE PUSH1 0x4 ADD PUSH2 0x32C4 SWAP9 SWAP8 SWAP7 SWAP6 SWAP5 SWAP4 SWAP3 SWAP2 SWAP1 PUSH2 0x431D JUMP JUMPDEST PUSH1 0x20 PUSH1 0x40 MLOAD DUP1 DUP4 SUB DUP2 PUSH1 0x0 DUP8 DUP1 EXTCODESIZE ISZERO DUP1 ISZERO PUSH2 0x32DE JUMPI PUSH1 0x0 DUP1 REVERT JUMPDEST POP GAS CALL ISZERO DUP1 ISZERO PUSH2 0x32F2 JUMPI RETURNDATASIZE PUSH1 0x0 DUP1 RETURNDATACOPY RETURNDATASIZE PUSH1 0x0 REVERT JUMPDEST POP POP POP POP PUSH1 0x40 MLOAD RETURNDATASIZE PUSH1 0x1F NOT PUSH1 0x1F DUP3 ADD AND DUP3 ADD DUP1 PUSH1 0x40 MSTORE POP DUP2 ADD SWAP1 PUSH2 0x3316 SWAP2 SWAP1 PUSH2 0x437D JUMP JUMPDEST POP POP POP JUMP JUMPDEST PUSH1 0x4 DUP3 PUSH1 0x6 DUP2 GT ISZERO PUSH2 0x332F JUMPI PUSH2 0x332F PUSH2 0x3C41 JUMP JUMPDEST EQ ISZERO PUSH2 0x335D JUMPI PUSH1 0x7 SLOAD PUSH20 0xFFFFFFFFFFFFFFFFFFFFFFFFFFFFFFFFFFFFFFFF AND PUSH4 0xA21A9280 PUSH2 0x3134 DUP4 DUP1 PUSH2 0x3FFB JUMP JUMPDEST PUSH1 0x6 DUP3 PUSH1 0x6 DUP2 GT ISZERO PUSH2 0x3371 JUMPI PUSH2 0x3371 PUSH2 0x3C41 JUMP JUMPDEST EQ ISZERO PUSH2 0xFB1 JUMPI PUSH1 0x9 SLOAD PUSH20 0xFFFFFFFFFFFFFFFFFFFFFFFFFFFFFFFFFFFFFFFF AND PUSH4 0xA21A9280 PUSH2 0x327A DUP4 DUP1 PUSH2 0x3FFB JUMP JUMPDEST PUSH1 0x0 PUSH1 0x1 PUSH2 0x33B0 PUSH1 0x20 DUP7 ADD DUP7 PUSH2 0x36FA JUMP JUMPDEST PUSH2 0x33C0 PUSH1 0x40 DUP8 ADD PUSH1 0x20 DUP9 ADD PUSH2 0x36FA JUMP JUMPDEST PUSH2 0x33D0 PUSH1 0x60 DUP9 ADD PUSH1 0x40 DUP10 ADD PUSH2 0x3F6D JUMP JUMPDEST DUP8 PUSH1 0x60 ADD CALLDATALOAD CHAINID DUP9 DUP9 PUSH1 0x40 MLOAD PUSH1 0x20 ADD PUSH2 0x33EF SWAP9 SWAP8 SWAP7 SWAP6 SWAP5 SWAP4 SWAP3 SWAP2 SWAP1 PUSH2 0x4396 JUMP JUMPDEST PUSH1 0x40 MLOAD PUSH1 0x20 DUP2 DUP4 SUB SUB DUP2 MSTORE SWAP1 PUSH1 0x40 MSTORE DUP1 MLOAD SWAP1 PUSH1 0x20 ADD KECCAK256 SWAP1 POP SWAP4 SWAP3 POP POP POP JUMP JUMPDEST PUSH1 0x0 DUP1 GAS SWAP1 POP PUSH1 0x0 DUP1 PUSH2 0x3427 PUSH1 0x40 DUP9 ADD PUSH1 0x20 DUP10 ADD PUSH2 0x36FA JUMP JUMPDEST PUSH20 0xFFFFFFFFFFFFFFFFFFFFFFFFFFFFFFFFFFFFFFFF AND CALLVALUE PUSH32 0x9C649FDF00000000000000000000000000000000000000000000000000000000 PUSH2 0x346C PUSH1 0x20 DUP12 ADD DUP12 PUSH2 0x36FA JUMP JUMPDEST PUSH2 0x347C PUSH1 0x60 DUP13 ADD PUSH1 0x40 DUP14 ADD PUSH2 0x3F6D JUMP JUMPDEST DUP11 DUP11 CALLER PUSH1 0x40 MLOAD PUSH1 0x24 ADD PUSH2 0x2F05 SWAP6 SWAP5 SWAP4 SWAP3 SWAP2 SWAP1 PUSH2 0x4435 JUMP JUMPDEST PUSH2 0x34A3 PUSH1 0x40 DUP3 ADD PUSH1 0x20 DUP4 ADD PUSH2 0x36FA JUMP JUMPDEST PUSH20 0xFFFFFFFFFFFFFFFFFFFFFFFFFFFFFFFFFFFFFFFF AND PUSH32 0xA635EB05143F74743822BBD96428928DE4C8EE8CC578299749BE9425C17BB34D PUSH1 0x1 DUP6 DUP6 PUSH2 0x34EE PUSH1 0x60 DUP8 ADD PUSH1 0x40 DUP9 ADD PUSH2 0x3F6D JUMP JUMPDEST DUP7 PUSH1 0x60 ADD CALLDATALOAD PUSH1 0x40 MLOAD PUSH2 0x30E5 SWAP6 SWAP5 SWAP4 SWAP3 SWAP2 SWAP1 PUSH2 0x42DF JUMP JUMPDEST PUSH1 0x0 DUP1 GAS SWAP1 POP PUSH1 0x0 DUP1 PUSH2 0x351D PUSH1 0x60 DUP9 ADD PUSH1 0x40 DUP10 ADD PUSH2 0x36FA JUMP JUMPDEST PUSH20 0xFFFFFFFFFFFFFFFFFFFFFFFFFFFFFFFFFFFFFFFF AND CALLVALUE PUSH32 0xBCB498200000000000000000000000000000000000000000000000000000000 PUSH2 0x3565 PUSH1 0x80 DUP12 ADD PUSH1 0x60 DUP13 ADD PUSH2 0x36FA JUMP JUMPDEST DUP11 PUSH1 0x80 ADD CALLDATALOAD DUP11 DUP11 CALLER PUSH1 0x40 MLOAD PUSH1 0x24 ADD PUSH2 0x2F05 SWAP6 SWAP5 SWAP4 SWAP3 SWAP2 SWAP1 PUSH2 0x448B JUMP JUMPDEST PUSH1 0x0 DUP1 SLOAD PUSH20 0xFFFFFFFFFFFFFFFFFFFFFFFFFFFFFFFFFFFFFFFF DUP4 DUP2 AND PUSH32 0xFFFFFFFFFFFFFFFFFFFFFFFF0000000000000000000000000000000000000000 DUP4 AND DUP2 OR DUP5 SSTORE PUSH1 0x40 MLOAD SWAP2 SWAP1 SWAP3 AND SWAP3 DUP4 SWAP2 PUSH32 0x8BE0079C531659141344CD1FD0A4F28419497F9722A3DAAFE3B4186F6B6457E0 SWAP2 SWAP1 LOG3 POP POP JUMP JUMPDEST PUSH1 0x0 GAS SWAP1 POP PUSH1 0x0 PUSH1 0xA SLOAD GASLIMIT PUSH2 0x360B SWAP2 SWAP1 PUSH2 0x3F34 JUMP JUMPDEST SWAP1 POP DUP1 DUP5 LT DUP1 ISZERO PUSH2 0x3626 JUMPI POP PUSH2 0x3622 PUSH1 0x40 DUP6 PUSH2 0x44C2 JUMP JUMPDEST DUP3 GT ISZERO JUMPDEST ISZERO PUSH2 0x362D JUMPI INVALID JUMPDEST PUSH32 0xFFDD6142BBB721F3400E3908B04B86F60649B2E4D191E3F4C50C32C3E6471D2F PUSH2 0x3657 DUP5 PUSH2 0x3672 JUMP JUMPDEST PUSH1 0x40 MLOAD PUSH2 0x3664 SWAP2 SWAP1 PUSH2 0x44FD JUMP JUMPDEST PUSH1 0x40 MLOAD DUP1 SWAP2 SUB SWAP1 LOG1 POP POP POP POP JUMP JUMPDEST PUSH1 0x60 PUSH1 0x44 DUP3 MLOAD LT ISZERO PUSH2 0x36B7 JUMPI POP POP PUSH1 0x40 DUP1 MLOAD DUP1 DUP3 ADD SWAP1 SWAP2 MSTORE PUSH1 0x1D DUP2 MSTORE PUSH32 0x5472616E73616374696F6E2072657665727465642073696C656E746C79000000 PUSH1 0x20 DUP3 ADD MSTORE SWAP1 JUMP JUMPDEST PUSH1 0x4 DUP3 ADD SWAP2 POP DUP2 DUP1 PUSH1 0x20 ADD SWAP1 MLOAD DUP2 ADD SWAP1 PUSH2 0x14EA SWAP2 SWAP1 PUSH2 0x453F JUMP JUMPDEST DUP1 CALLDATALOAD PUSH20 0xFFFFFFFFFFFFFFFFFFFFFFFFFFFFFFFFFFFFFFFF DUP2 AND DUP2 EQ PUSH2 0x36F5 JUMPI PUSH1 0x0 DUP1 REVERT JUMPDEST SWAP2 SWAP1 POP JUMP JUMPDEST PUSH1 0x0 PUSH1 0x20 DUP3 DUP5 SUB SLT ISZERO PUSH2 0x370C JUMPI PUSH1 0x0 DUP1 REVERT JUMPDEST PUSH2 0x14E7 DUP3 PUSH2 0x36D1 JUMP JUMPDEST PUSH1 0x0 PUSH1 0x20 DUP3 DUP5 SUB SLT ISZERO PUSH2 0x3727 JUMPI PUSH1 0x0 DUP1 REVERT JUMPDEST POP CALLDATALOAD SWAP2 SWAP1 POP JUMP JUMPDEST PUSH1 0x0 DUP1 DUP4 PUSH1 0x1F DUP5 ADD SLT PUSH2 0x3740 JUMPI PUSH1 0x0 DUP1 REVERT JUMPDEST POP DUP2 CALLDATALOAD PUSH8 0xFFFFFFFFFFFFFFFF DUP2 GT ISZERO PUSH2 0x3758 JUMPI PUSH1 0x0 DUP1 REVERT JUMPDEST PUSH1 0x20 DUP4 ADD SWAP2 POP DUP4 PUSH1 0x20 DUP3 PUSH1 0x5 SHL DUP6 ADD ADD GT ISZERO PUSH2 0x3773 JUMPI PUSH1 0x0 DUP1 REVERT JUMPDEST SWAP3 POP SWAP3 SWAP1 POP JUMP JUMPDEST PUSH1 0x0 DUP1 PUSH1 0x0 DUP1 PUSH1 0x0 DUP1 PUSH1 0x0 DUP1 PUSH1 0xA0 DUP10 DUP12 SUB SLT ISZERO PUSH2 0x3796 JUMPI PUSH1 0x0 DUP1 REVERT JUMPDEST PUSH2 0x379F DUP10 PUSH2 0x36D1 JUMP JUMPDEST SWAP8 POP PUSH1 0x20 DUP10 ADD CALLDATALOAD SWAP7 POP PUSH1 0x40 DUP10 ADD CALLDATALOAD PUSH8 0xFFFFFFFFFFFFFFFF DUP1 DUP3 GT ISZERO PUSH2 0x37C3 JUMPI PUSH1 0x0 DUP1 REVERT JUMPDEST PUSH2 0x37CF DUP13 DUP4 DUP14 ADD PUSH2 0x372E JUMP JUMPDEST SWAP1 SWAP9 POP SWAP7 POP PUSH1 0x60 DUP12 ADD CALLDATALOAD SWAP2 POP DUP1 DUP3 GT ISZERO PUSH2 0x37E8 JUMPI PUSH1 0x0 DUP1 REVERT JUMPDEST PUSH2 0x37F4 DUP13 DUP4 DUP14 ADD PUSH2 0x372E JUMP JUMPDEST SWAP1 SWAP7 POP SWAP5 POP PUSH1 0x80 DUP12 ADD CALLDATALOAD SWAP2 POP DUP1 DUP3 GT ISZERO PUSH2 0x380D JUMPI PUSH1 0x0 DUP1 REVERT JUMPDEST POP PUSH2 0x381A DUP12 DUP3 DUP13 ADD PUSH2 0x372E JUMP JUMPDEST SWAP10 SWAP13 SWAP9 SWAP12 POP SWAP7 SWAP10 POP SWAP5 SWAP8 SWAP4 SWAP7 SWAP3 SWAP6 SWAP5 POP POP POP JUMP JUMPDEST PUSH1 0x0 DUP1 PUSH1 0x0 DUP1 PUSH1 0x0 PUSH1 0xA0 DUP7 DUP9 SUB SLT ISZERO PUSH2 0x3846 JUMPI PUSH1 0x0 DUP1 REVERT JUMPDEST PUSH2 0x384F DUP7 PUSH2 0x36D1 JUMP JUMPDEST SWAP5 POP PUSH2 0x385D PUSH1 0x20 DUP8 ADD PUSH2 0x36D1 JUMP JUMPDEST SWAP4 POP PUSH2 0x386B PUSH1 0x40 DUP8 ADD PUSH2 0x36D1 JUMP JUMPDEST SWAP3 POP PUSH2 0x3879 PUSH1 0x60 DUP8 ADD PUSH2 0x36D1 JUMP JUMPDEST SWAP2 POP PUSH2 0x3887 PUSH1 0x80 DUP8 ADD PUSH2 0x36D1 JUMP JUMPDEST SWAP1 POP SWAP3 SWAP6 POP SWAP3 SWAP6 SWAP1 SWAP4 POP JUMP JUMPDEST PUSH1 0x0 DUP1 DUP4 PUSH1 0x1F DUP5 ADD SLT PUSH2 0x38A5 JUMPI PUSH1 0x0 DUP1 REVERT JUMPDEST POP DUP2 CALLDATALOAD PUSH8 0xFFFFFFFFFFFFFFFF DUP2 GT ISZERO PUSH2 0x38BD JUMPI PUSH1 0x0 DUP1 REVERT JUMPDEST PUSH1 0x20 DUP4 ADD SWAP2 POP DUP4 PUSH1 0x20 DUP3 DUP6 ADD ADD GT ISZERO PUSH2 0x3773 JUMPI PUSH1 0x0 DUP1 REVERT JUMPDEST PUSH1 0x0 DUP1 PUSH1 0x0 DUP1 PUSH1 0x0 DUP1 PUSH1 0x0 DUP1 PUSH1 0x0 DUP10 DUP12 SUB PUSH2 0x1A0 DUP2 SLT ISZERO PUSH2 0x38F5 JUMPI PUSH1 0x0 DUP1 REVERT JUMPDEST DUP11 CALLDATALOAD PUSH8 0xFFFFFFFFFFFFFFFF DUP1 DUP3 GT ISZERO PUSH2 0x390D JUMPI PUSH1 0x0 DUP1 REVERT JUMPDEST PUSH2 0x3919 DUP15 DUP4 DUP16 ADD PUSH2 0x3893 JUMP JUMPDEST SWAP1 SWAP13 POP SWAP11 POP DUP11 SWAP2 POP PUSH2 0x120 PUSH32 0xFFFFFFFFFFFFFFFFFFFFFFFFFFFFFFFFFFFFFFFFFFFFFFFFFFFFFFFFFFFFFFE0 DUP5 ADD SLT ISZERO PUSH2 0x3952 JUMPI PUSH1 0x0 DUP1 REVERT JUMPDEST PUSH1 0x20 DUP14 ADD SWAP10 POP PUSH2 0x140 DUP14 ADD CALLDATALOAD SWAP3 POP DUP1 DUP4 GT ISZERO PUSH2 0x396D JUMPI PUSH1 0x0 DUP1 REVERT JUMPDEST PUSH2 0x3979 DUP15 DUP5 DUP16 ADD PUSH2 0x372E JUMP JUMPDEST SWAP1 SWAP10 POP SWAP8 POP PUSH2 0x160 DUP14 ADD CALLDATALOAD SWAP3 POP DUP9 SWAP2 POP DUP1 DUP4 GT ISZERO PUSH2 0x3996 JUMPI PUSH1 0x0 DUP1 REVERT JUMPDEST PUSH2 0x39A2 DUP15 DUP5 DUP16 ADD PUSH2 0x372E JUMP JUMPDEST SWAP1 SWAP8 POP SWAP6 POP PUSH2 0x180 DUP14 ADD CALLDATALOAD SWAP3 POP DUP7 SWAP2 POP DUP1 DUP4 GT ISZERO PUSH2 0x39BF JUMPI PUSH1 0x0 DUP1 REVERT JUMPDEST POP POP PUSH2 0x39CD DUP13 DUP3 DUP14 ADD PUSH2 0x372E JUMP JUMPDEST SWAP2 POP DUP1 SWAP4 POP POP DUP1 SWAP2 POP POP SWAP3 SWAP6 SWAP9 POP SWAP3 SWAP6 SWAP9 POP SWAP3 SWAP6 SWAP9 JUMP JUMPDEST PUSH1 0x0 PUSH1 0x80 DUP3 DUP5 SUB SLT ISZERO PUSH2 0x39F6 JUMPI PUSH1 0x0 DUP1 REVERT JUMPDEST POP SWAP2 SWAP1 POP JUMP JUMPDEST PUSH1 0x0 DUP1 PUSH1 0x40 DUP4 DUP6 SUB SLT ISZERO PUSH2 0x3A0F JUMPI PUSH1 0x0 DUP1 REVERT JUMPDEST DUP3 CALLDATALOAD PUSH8 0xFFFFFFFFFFFFFFFF DUP1 DUP3 GT ISZERO PUSH2 0x3A27 JUMPI PUSH1 0x0 DUP1 REVERT JUMPDEST PUSH2 0x3A33 DUP7 DUP4 DUP8 ADD PUSH2 0x39E4 JUMP JUMPDEST SWAP4 POP PUSH1 0x20 DUP6 ADD CALLDATALOAD SWAP2 POP DUP1 DUP3 GT ISZERO PUSH2 0x3A49 JUMPI PUSH1 0x0 DUP1 REVERT JUMPDEST POP DUP4 ADD PUSH2 0x1A0 DUP2 DUP7 SUB SLT ISZERO PUSH2 0x3A5D JUMPI PUSH1 0x0 DUP1 REVERT JUMPDEST DUP1 SWAP2 POP POP SWAP3 POP SWAP3 SWAP1 POP JUMP JUMPDEST PUSH1 0x0 DUP1 PUSH1 0x0 DUP1 PUSH1 0x0 DUP1 PUSH1 0xA0 DUP8 DUP10 SUB SLT ISZERO PUSH2 0x3A81 JUMPI PUSH1 0x0 DUP1 REVERT JUMPDEST PUSH2 0x3A8A DUP8 PUSH2 0x36D1 JUMP JUMPDEST SWAP6 POP PUSH1 0x20 DUP8 ADD CALLDATALOAD SWAP5 POP PUSH2 0x3A9F PUSH1 0x40 DUP9 ADD PUSH2 0x36D1 JUMP JUMPDEST SWAP4 POP PUSH1 0x60 DUP8 ADD CALLDATALOAD SWAP3 POP PUSH1 0x80 DUP8 ADD CALLDATALOAD PUSH8 0xFFFFFFFFFFFFFFFF DUP2 GT ISZERO PUSH2 0x3AC2 JUMPI PUSH1 0x0 DUP1 REVERT JUMPDEST PUSH2 0x3ACE DUP10 DUP3 DUP11 ADD PUSH2 0x3893 JUMP JUMPDEST SWAP8 SWAP11 SWAP7 SWAP10 POP SWAP5 SWAP8 POP SWAP3 SWAP6 SWAP4 SWAP5 SWAP3 POP POP POP JUMP JUMPDEST PUSH1 0x0 DUP1 PUSH1 0x0 DUP1 PUSH1 0x0 DUP1 PUSH1 0x0 DUP1 PUSH1 0x0 PUSH2 0x100 DUP11 DUP13 SUB SLT ISZERO PUSH2 0x3AFF JUMPI PUSH1 0x0 DUP1 REVERT JUMPDEST DUP10 CALLDATALOAD PUSH8 0xFFFFFFFFFFFFFFFF DUP1 DUP3 GT ISZERO PUSH2 0x3B17 JUMPI PUSH1 0x0 DUP1 REVERT JUMPDEST PUSH2 0x3B23 DUP14 DUP4 DUP15 ADD PUSH2 0x3893 JUMP JUMPDEST SWAP1 SWAP12 POP SWAP10 POP DUP10 SWAP2 POP PUSH2 0x3B38 DUP14 PUSH1 0x20 DUP15 ADD PUSH2 0x39E4 JUMP JUMPDEST SWAP9 POP PUSH1 0xA0 DUP13 ADD CALLDATALOAD SWAP2 POP DUP1 DUP3 GT ISZERO PUSH2 0x3B4E JUMPI PUSH1 0x0 DUP1 REVERT JUMPDEST PUSH2 0x3B5A DUP14 DUP4 DUP15 ADD PUSH2 0x372E JUMP JUMPDEST SWAP1 SWAP9 POP SWAP7 POP PUSH1 0xC0 DUP13 ADD CALLDATALOAD SWAP2 POP DUP1 DUP3 GT ISZERO PUSH2 0x3B73 JUMPI PUSH1 0x0 DUP1 REVERT JUMPDEST PUSH2 0x3B7F DUP14 DUP4 DUP15 ADD PUSH2 0x372E JUMP JUMPDEST SWAP1 SWAP7 POP SWAP5 POP PUSH1 0xE0 DUP13 ADD CALLDATALOAD SWAP2 POP DUP1 DUP3 GT ISZERO PUSH2 0x3B98 JUMPI PUSH1 0x0 DUP1 REVERT JUMPDEST POP PUSH2 0x39CD DUP13 DUP3 DUP14 ADD PUSH2 0x372E JUMP JUMPDEST PUSH1 0x0 DUP1 PUSH1 0x20 DUP4 DUP6 SUB SLT ISZERO PUSH2 0x3BB8 JUMPI PUSH1 0x0 DUP1 REVERT JUMPDEST DUP3 CALLDATALOAD PUSH8 0xFFFFFFFFFFFFFFFF DUP2 GT ISZERO PUSH2 0x3BCF JUMPI PUSH1 0x0 DUP1 REVERT JUMPDEST PUSH2 0x3BDB DUP6 DUP3 DUP7 ADD PUSH2 0x3893 JUMP JUMPDEST SWAP1 SWAP7 SWAP1 SWAP6 POP SWAP4 POP POP POP POP JUMP JUMPDEST PUSH1 0x0 DUP1 PUSH1 0x0 DUP1 PUSH1 0x60 DUP6 DUP8 SUB SLT ISZERO PUSH2 0x3BFD JUMPI PUSH1 0x0 DUP1 REVERT JUMPDEST PUSH2 0x3C06 DUP6 PUSH2 0x36D1 JUMP JUMPDEST SWAP4 POP PUSH1 0x20 DUP6 ADD CALLDATALOAD SWAP3 POP PUSH1 0x40 DUP6 ADD CALLDATALOAD PUSH8 0xFFFFFFFFFFFFFFFF DUP2 GT ISZERO PUSH2 0x3C29 JUMPI PUSH1 0x0 DUP1 REVERT JUMPDEST PUSH2 0x3C35 DUP8 DUP3 DUP9 ADD PUSH2 0x3893 JUMP JUMPDEST SWAP6 SWAP9 SWAP5 SWAP8 POP SWAP6 POP POP POP POP JUMP JUMPDEST PUSH32 0x4E487B7100000000000000000000000000000000000000000000000000000000 PUSH1 0x0 MSTORE PUSH1 0x21 PUSH1 0x4 MSTORE PUSH1 0x24 PUSH1 0x0 REVERT JUMPDEST PUSH1 0x5 DUP2 LT PUSH2 0x3C80 JUMPI PUSH2 0x3C80 PUSH2 0x3C41 JUMP JUMPDEST SWAP1 MSTORE JUMP JUMPDEST PUSH1 0x20 DUP2 ADD PUSH2 0x14EA DUP3 DUP5 PUSH2 0x3C70 JUMP JUMPDEST PUSH1 0x0 JUMPDEST DUP4 DUP2 LT ISZERO PUSH2 0x3CAD JUMPI DUP2 DUP2 ADD MLOAD DUP4 DUP3 ADD MSTORE PUSH1 0x20 ADD PUSH2 0x3C95 JUMP JUMPDEST DUP4 DUP2 GT ISZERO PUSH2 0x3CBC JUMPI PUSH1 0x0 DUP5 DUP5 ADD MSTORE JUMPDEST POP POP POP POP JUMP JUMPDEST PUSH1 0x0 DUP2 MLOAD DUP1 DUP5 MSTORE PUSH2 0x3CDA DUP2 PUSH1 0x20 DUP7 ADD PUSH1 0x20 DUP7 ADD PUSH2 0x3C92 JUMP JUMPDEST PUSH1 0x1F ADD PUSH32 0xFFFFFFFFFFFFFFFFFFFFFFFFFFFFFFFFFFFFFFFFFFFFFFFFFFFFFFFFFFFFFFE0 AND SWAP3 SWAP1 SWAP3 ADD PUSH1 0x20 ADD SWAP3 SWAP2 POP POP JUMP JUMPDEST DUP2 DUP4 MSTORE DUP2 DUP2 PUSH1 0x20 DUP6 ADD CALLDATACOPY POP PUSH1 0x0 PUSH1 0x20 DUP3 DUP5 ADD ADD MSTORE PUSH1 0x0 PUSH1 0x20 PUSH32 0xFFFFFFFFFFFFFFFFFFFFFFFFFFFFFFFFFFFFFFFFFFFFFFFFFFFFFFFFFFFFFFE0 PUSH1 0x1F DUP5 ADD AND DUP5 ADD ADD SWAP1 POP SWAP3 SWAP2 POP POP JUMP JUMPDEST DUP2 DUP4 MSTORE PUSH1 0x0 PUSH1 0x20 DUP1 DUP6 ADD DUP1 DUP2 SWAP7 POP DUP6 PUSH1 0x5 SHL DUP2 ADD SWAP2 POP DUP5 PUSH1 0x0 JUMPDEST DUP8 DUP2 LT ISZERO PUSH2 0x3DF7 JUMPI DUP3 DUP5 SUB DUP10 MSTORE DUP2 CALLDATALOAD PUSH32 0xFFFFFFFFFFFFFFFFFFFFFFFFFFFFFFFFFFFFFFFFFFFFFFFFFFFFFFFFFFFFFFE1 DUP9 CALLDATASIZE SUB ADD DUP2 SLT PUSH2 0x3DAE JUMPI PUSH1 0x0 DUP1 REVERT JUMPDEST DUP8 ADD DUP1 CALLDATALOAD PUSH8 0xFFFFFFFFFFFFFFFF DUP2 GT ISZERO PUSH2 0x3DC7 JUMPI PUSH1 0x0 DUP1 REVERT JUMPDEST DUP1 CALLDATASIZE SUB DUP10 SGT ISZERO PUSH2 0x3DD6 JUMPI PUSH1 0x0 DUP1 REVERT JUMPDEST PUSH2 0x3DE3 DUP7 DUP3 DUP10 DUP6 ADD PUSH2 0x3D0C JUMP JUMPDEST SWAP11 DUP8 ADD SWAP11 SWAP6 POP POP POP SWAP1 DUP5 ADD SWAP1 PUSH1 0x1 ADD PUSH2 0x3D6F JUMP JUMPDEST POP SWAP2 SWAP8 SWAP7 POP POP POP POP POP POP POP JUMP JUMPDEST DUP2 DUP4 MSTORE PUSH1 0x0 PUSH1 0x20 DUP1 DUP6 ADD SWAP5 POP DUP3 PUSH1 0x0 JUMPDEST DUP6 DUP2 LT ISZERO PUSH2 0x3E4D JUMPI PUSH20 0xFFFFFFFFFFFFFFFFFFFFFFFFFFFFFFFFFFFFFFFF PUSH2 0x3E3A DUP4 PUSH2 0x36D1 JUMP JUMPDEST AND DUP8 MSTORE SWAP6 DUP3 ADD SWAP6 SWAP1 DUP3 ADD SWAP1 PUSH1 0x1 ADD PUSH2 0x3E14 JUMP JUMPDEST POP SWAP5 SWAP6 SWAP5 POP POP POP POP POP JUMP JUMPDEST DUP2 DUP4 MSTORE PUSH1 0x0 PUSH32 0x7FFFFFFFFFFFFFFFFFFFFFFFFFFFFFFFFFFFFFFFFFFFFFFFFFFFFFFFFFFFFFF DUP4 GT ISZERO PUSH2 0x3E8A JUMPI PUSH1 0x0 DUP1 REVERT JUMPDEST DUP3 PUSH1 0x5 SHL DUP1 DUP4 PUSH1 0x20 DUP8 ADD CALLDATACOPY PUSH1 0x0 SWAP5 ADD PUSH1 0x20 ADD SWAP4 DUP5 MSTORE POP SWAP2 SWAP3 SWAP2 POP POP JUMP JUMPDEST PUSH1 0x80 DUP2 MSTORE PUSH1 0x0 PUSH2 0x3EBA PUSH1 0x80 DUP4 ADD DUP11 PUSH2 0x3CC2 JUMP JUMPDEST DUP3 DUP2 SUB PUSH1 0x20 DUP5 ADD MSTORE PUSH2 0x3ECD DUP2 DUP10 DUP12 PUSH2 0x3D55 JUMP JUMPDEST SWAP1 POP DUP3 DUP2 SUB PUSH1 0x40 DUP5 ADD MSTORE PUSH2 0x3EE2 DUP2 DUP8 DUP10 PUSH2 0x3E04 JUMP JUMPDEST SWAP1 POP DUP3 DUP2 SUB PUSH1 0x60 DUP5 ADD MSTORE PUSH2 0x3EF7 DUP2 DUP6 DUP8 PUSH2 0x3E58 JUMP JUMPDEST SWAP11 SWAP10 POP POP POP POP POP POP POP POP POP POP JUMP JUMPDEST PUSH32 0x4E487B7100000000000000000000000000000000000000000000000000000000 PUSH1 0x0 MSTORE PUSH1 0x11 PUSH1 0x4 MSTORE PUSH1 0x24 PUSH1 0x0 REVERT JUMPDEST PUSH1 0x0 DUP3 DUP3 LT ISZERO PUSH2 0x3F46 JUMPI PUSH2 0x3F46 PUSH2 0x3F05 JUMP JUMPDEST POP SUB SWAP1 JUMP JUMPDEST DUP6 DUP2 MSTORE DUP5 PUSH1 0x20 DUP3 ADD MSTORE DUP3 DUP5 PUSH1 0x40 DUP4 ADD CALLDATACOPY PUSH1 0x40 SWAP3 ADD SWAP2 DUP3 ADD MSTORE PUSH1 0x60 ADD SWAP4 SWAP3 POP POP POP JUMP JUMPDEST PUSH1 0x0 PUSH1 0x20 DUP3 DUP5 SUB SLT ISZERO PUSH2 0x3F7F JUMPI PUSH1 0x0 DUP1 REVERT JUMPDEST DUP2 CALLDATALOAD PUSH8 0xFFFFFFFFFFFFFFFF DUP2 AND DUP2 EQ PUSH2 0x300B JUMPI PUSH1 0x0 DUP1 REVERT JUMPDEST PUSH1 0x2 DUP2 LT PUSH2 0x3C80 JUMPI PUSH2 0x3C80 PUSH2 0x3C41 JUMP JUMPDEST PUSH1 0x80 DUP2 ADD PUSH2 0x3FB5 DUP3 DUP8 PUSH2 0x3F97 JUMP JUMPDEST DUP5 PUSH1 0x20 DUP4 ADD MSTORE PUSH8 0xFFFFFFFFFFFFFFFF DUP5 AND PUSH1 0x40 DUP4 ADD MSTORE DUP3 PUSH1 0x60 DUP4 ADD MSTORE SWAP6 SWAP5 POP POP POP POP POP JUMP JUMPDEST PUSH1 0x0 PUSH1 0x20 DUP3 DUP5 SUB SLT ISZERO PUSH2 0x3FEC JUMPI PUSH1 0x0 DUP1 REVERT JUMPDEST DUP2 CALLDATALOAD PUSH1 0x7 DUP2 LT PUSH2 0x300B JUMPI PUSH1 0x0 DUP1 REVERT JUMPDEST PUSH1 0x0 DUP1 DUP4 CALLDATALOAD PUSH32 0xFFFFFFFFFFFFFFFFFFFFFFFFFFFFFFFFFFFFFFFFFFFFFFFFFFFFFFFFFFFFFFE1 DUP5 CALLDATASIZE SUB ADD DUP2 SLT PUSH2 0x4030 JUMPI PUSH1 0x0 DUP1 REVERT JUMPDEST DUP4 ADD DUP1 CALLDATALOAD SWAP2 POP PUSH8 0xFFFFFFFFFFFFFFFF DUP3 GT ISZERO PUSH2 0x404B JUMPI PUSH1 0x0 DUP1 REVERT JUMPDEST PUSH1 0x20 ADD SWAP2 POP CALLDATASIZE DUP2 SWAP1 SUB DUP3 SGT ISZERO PUSH2 0x3773 JUMPI PUSH1 0x0 DUP1 REVERT JUMPDEST PUSH1 0x0 DUP1 DUP4 CALLDATALOAD PUSH32 0xFFFFFFFFFFFFFFFFFFFFFFFFFFFFFFFFFFFFFFFFFFFFFFFFFFFFFFFFFFFFFFE1 DUP5 CALLDATASIZE SUB ADD DUP2 SLT PUSH2 0x4095 JUMPI PUSH1 0x0 DUP1 REVERT JUMPDEST DUP4 ADD DUP1 CALLDATALOAD SWAP2 POP PUSH8 0xFFFFFFFFFFFFFFFF DUP3 GT ISZERO PUSH2 0x40B0 JUMPI PUSH1 0x0 DUP1 REVERT JUMPDEST PUSH1 0x20 ADD SWAP2 POP PUSH1 0x5 DUP2 SWAP1 SHL CALLDATASIZE SUB DUP3 SGT ISZERO PUSH2 0x3773 JUMPI PUSH1 0x0 DUP1 REVERT JUMPDEST PUSH1 0x0 PUSH20 0xFFFFFFFFFFFFFFFFFFFFFFFFFFFFFFFFFFFFFFFF DUP1 DUP11 AND DUP4 MSTORE DUP9 PUSH1 0x20 DUP5 ADD MSTORE DUP1 DUP9 AND PUSH1 0x40 DUP5 ADD MSTORE POP DUP6 PUSH1 0x60 DUP4 ADD MSTORE PUSH1 0xC0 PUSH1 0x80 DUP4 ADD MSTORE PUSH2 0x410E PUSH1 0xC0 DUP4 ADD DUP6 DUP8 PUSH2 0x3D0C JUMP JUMPDEST SWAP1 POP DUP3 PUSH1 0xA0 DUP4 ADD MSTORE SWAP9 SWAP8 POP POP POP POP POP POP POP POP JUMP JUMPDEST PUSH1 0x0 DUP2 PUSH32 0xFFFFFFFFFFFFFFFFFFFFFFFFFFFFFFFFFFFFFFFFFFFFFFFFFFFFFFFFFFFFFFFF DIV DUP4 GT DUP3 ISZERO ISZERO AND ISZERO PUSH2 0x415A JUMPI PUSH2 0x415A PUSH2 0x3F05 JUMP JUMPDEST POP MUL SWAP1 JUMP JUMPDEST PUSH1 0x0 DUP3 NOT DUP3 GT ISZERO PUSH2 0x4172 JUMPI PUSH2 0x4172 PUSH2 0x3F05 JUMP JUMPDEST POP ADD SWAP1 JUMP JUMPDEST PUSH20 0xFFFFFFFFFFFFFFFFFFFFFFFFFFFFFFFFFFFFFFFF DUP7 AND DUP2 MSTORE DUP5 PUSH1 0x20 DUP3 ADD MSTORE PUSH1 0x80 PUSH1 0x40 DUP3 ADD MSTORE PUSH1 0x0 PUSH2 0x41AD PUSH1 0x80 DUP4 ADD DUP6 DUP8 PUSH2 0x3D0C JUMP JUMPDEST SWAP1 POP DUP3 PUSH1 0x60 DUP4 ADD MSTORE SWAP7 SWAP6 POP POP POP POP POP POP JUMP JUMPDEST PUSH1 0x0 PUSH1 0x20 DUP3 DUP5 SUB SLT ISZERO PUSH2 0x41D1 JUMPI PUSH1 0x0 DUP1 REVERT JUMPDEST DUP2 MLOAD DUP1 ISZERO ISZERO DUP2 EQ PUSH2 0x300B JUMPI PUSH1 0x0 DUP1 REVERT JUMPDEST PUSH1 0x2 DUP2 LT PUSH2 0x41F1 JUMPI PUSH2 0x41F1 PUSH2 0x3C41 JUMP JUMPDEST PUSH1 0xF8 SHL SWAP1 MSTORE JUMP JUMPDEST PUSH2 0x4202 DUP2 DUP6 PUSH2 0x41E1 JUMP JUMPDEST PUSH1 0x60 SWAP3 SWAP1 SWAP3 SHL PUSH32 0xFFFFFFFFFFFFFFFFFFFFFFFFFFFFFFFFFFFFFFFF000000000000000000000000 AND PUSH1 0x1 DUP4 ADD MSTORE PUSH1 0x15 DUP3 ADD MSTORE PUSH1 0x35 ADD SWAP2 SWAP1 POP JUMP JUMPDEST PUSH1 0x0 PUSH20 0xFFFFFFFFFFFFFFFFFFFFFFFFFFFFFFFFFFFFFFFF DUP1 DUP11 AND DUP4 MSTORE DUP1 DUP10 AND PUSH1 0x20 DUP5 ADD MSTORE DUP8 PUSH1 0x40 DUP5 ADD MSTORE PUSH8 0xFFFFFFFFFFFFFFFF DUP8 AND PUSH1 0x60 DUP5 ADD MSTORE PUSH1 0xC0 PUSH1 0x80 DUP5 ADD MSTORE PUSH2 0x428B PUSH1 0xC0 DUP5 ADD DUP7 DUP9 PUSH2 0x3D0C JUMP JUMPDEST SWAP2 POP DUP1 DUP5 AND PUSH1 0xA0 DUP5 ADD MSTORE POP SWAP9 SWAP8 POP POP POP POP POP POP POP POP JUMP JUMPDEST PUSH1 0x0 DUP3 MLOAD PUSH2 0x42B4 DUP2 DUP5 PUSH1 0x20 DUP8 ADD PUSH2 0x3C92 JUMP JUMPDEST SWAP2 SWAP1 SWAP2 ADD SWAP3 SWAP2 POP POP JUMP JUMPDEST PUSH1 0x0 PUSH1 0x20 DUP3 DUP5 SUB SLT ISZERO PUSH2 0x42D0 JUMPI PUSH1 0x0 DUP1 REVERT JUMPDEST DUP2 MLOAD PUSH1 0x3 DUP2 LT PUSH2 0x300B JUMPI PUSH1 0x0 DUP1 REVERT JUMPDEST PUSH1 0xA0 DUP2 ADD PUSH2 0x42ED DUP3 DUP9 PUSH2 0x3F97 JUMP JUMPDEST DUP6 PUSH1 0x20 DUP4 ADD MSTORE PUSH2 0x4300 PUSH1 0x40 DUP4 ADD DUP7 PUSH2 0x3C70 JUMP JUMPDEST PUSH8 0xFFFFFFFFFFFFFFFF SWAP4 SWAP1 SWAP4 AND PUSH1 0x60 DUP3 ADD MSTORE PUSH1 0x80 ADD MSTORE SWAP4 SWAP3 POP POP POP JUMP JUMPDEST PUSH1 0x80 DUP2 MSTORE PUSH1 0x0 PUSH2 0x4331 PUSH1 0x80 DUP4 ADD DUP11 DUP13 PUSH2 0x3D0C JUMP JUMPDEST DUP3 DUP2 SUB PUSH1 0x20 DUP5 ADD MSTORE PUSH2 0x4344 DUP2 DUP10 DUP12 PUSH2 0x3D55 JUMP JUMPDEST SWAP1 POP DUP3 DUP2 SUB PUSH1 0x40 DUP5 ADD MSTORE PUSH2 0x4359 DUP2 DUP8 DUP10 PUSH2 0x3E04 JUMP JUMPDEST SWAP1 POP DUP3 DUP2 SUB PUSH1 0x60 DUP5 ADD MSTORE PUSH2 0x436E DUP2 DUP6 DUP8 PUSH2 0x3E58 JUMP JUMPDEST SWAP12 SWAP11 POP POP POP POP POP POP POP POP POP POP POP JUMP JUMPDEST PUSH1 0x0 PUSH1 0x20 DUP3 DUP5 SUB SLT ISZERO PUSH2 0x438F JUMPI PUSH1 0x0 DUP1 REVERT JUMPDEST POP MLOAD SWAP2 SWAP1 POP JUMP JUMPDEST PUSH2 0x43A0 DUP2 DUP11 PUSH2 0x41E1 JUMP JUMPDEST PUSH1 0x0 PUSH32 0xFFFFFFFFFFFFFFFFFFFFFFFFFFFFFFFFFFFFFFFF000000000000000000000000 DUP1 DUP11 PUSH1 0x60 SHL AND PUSH1 0x1 DUP5 ADD MSTORE DUP1 DUP10 PUSH1 0x60 SHL AND PUSH1 0x15 DUP5 ADD MSTORE POP PUSH32 0xFFFFFFFFFFFFFFFF000000000000000000000000000000000000000000000000 DUP1 DUP9 PUSH1 0xC0 SHL AND PUSH1 0x29 DUP5 ADD MSTORE DUP7 PUSH1 0x31 DUP5 ADD MSTORE DUP1 DUP7 PUSH1 0xC0 SHL AND PUSH1 0x51 DUP5 ADD MSTORE POP DUP3 DUP5 PUSH1 0x59 DUP5 ADD CALLDATACOPY POP PUSH1 0x0 SWAP2 ADD PUSH1 0x59 ADD SWAP1 DUP2 MSTORE SWAP8 SWAP7 POP POP POP POP POP POP POP JUMP JUMPDEST PUSH1 0x0 PUSH20 0xFFFFFFFFFFFFFFFFFFFFFFFFFFFFFFFFFFFFFFFF DUP1 DUP9 AND DUP4 MSTORE PUSH8 0xFFFFFFFFFFFFFFFF DUP8 AND PUSH1 0x20 DUP5 ADD MSTORE PUSH1 0x80 PUSH1 0x40 DUP5 ADD MSTORE PUSH2 0x4476 PUSH1 0x80 DUP5 ADD DUP7 DUP9 PUSH2 0x3D0C JUMP JUMPDEST SWAP2 POP DUP1 DUP5 AND PUSH1 0x60 DUP5 ADD MSTORE POP SWAP7 SWAP6 POP POP POP POP POP POP JUMP JUMPDEST PUSH1 0x0 PUSH20 0xFFFFFFFFFFFFFFFFFFFFFFFFFFFFFFFFFFFFFFFF DUP1 DUP9 AND DUP4 MSTORE DUP7 PUSH1 0x20 DUP5 ADD MSTORE PUSH1 0x80 PUSH1 0x40 DUP5 ADD MSTORE PUSH2 0x4476 PUSH1 0x80 DUP5 ADD DUP7 DUP9 PUSH2 0x3D0C JUMP JUMPDEST PUSH1 0x0 DUP3 PUSH2 0x44F8 JUMPI PUSH32 0x4E487B7100000000000000000000000000000000000000000000000000000000 PUSH1 0x0 MSTORE PUSH1 0x12 PUSH1 0x4 MSTORE PUSH1 0x24 PUSH1 0x0 REVERT JUMPDEST POP DIV SWAP1 JUMP JUMPDEST PUSH1 0x20 DUP2 MSTORE PUSH1 0x0 PUSH2 0x14E7 PUSH1 0x20 DUP4 ADD DUP5 PUSH2 0x3CC2 JUMP JUMPDEST PUSH32 0x4E487B7100000000000000000000000000000000000000000000000000000000 PUSH1 0x0 MSTORE PUSH1 0x41 PUSH1 0x4 MSTORE PUSH1 0x24 PUSH1 0x0 REVERT JUMPDEST PUSH1 0x0 PUSH1 0x20 DUP3 DUP5 SUB SLT ISZERO PUSH2 0x4551 JUMPI PUSH1 0x0 DUP1 REVERT JUMPDEST DUP2 MLOAD PUSH8 0xFFFFFFFFFFFFFFFF DUP1 DUP3 GT ISZERO PUSH2 0x4569 JUMPI PUSH1 0x0 DUP1 REVERT JUMPDEST DUP2 DUP5 ADD SWAP2 POP DUP5 PUSH1 0x1F DUP4 ADD SLT PUSH2 0x457D JUMPI PUSH1 0x0 DUP1 REVERT JUMPDEST DUP2 MLOAD DUP2 DUP2 GT ISZERO PUSH2 0x458F JUMPI PUSH2 0x458F PUSH2 0x4510 JUMP JUMPDEST PUSH1 0x40 MLOAD PUSH1 0x1F DUP3 ADD PUSH32 0xFFFFFFFFFFFFFFFFFFFFFFFFFFFFFFFFFFFFFFFFFFFFFFFFFFFFFFFFFFFFFFE0 SWAP1 DUP2 AND PUSH1 0x3F ADD AND DUP2 ADD SWAP1 DUP4 DUP3 GT DUP2 DUP4 LT OR ISZERO PUSH2 0x45D5 JUMPI PUSH2 0x45D5 PUSH2 0x4510 JUMP JUMPDEST DUP2 PUSH1 0x40 MSTORE DUP3 DUP2 MSTORE DUP8 PUSH1 0x20 DUP5 DUP8 ADD ADD GT ISZERO PUSH2 0x45EE JUMPI PUSH1 0x0 DUP1 REVERT JUMPDEST PUSH2 0x45FF DUP4 PUSH1 0x20 DUP4 ADD PUSH1 0x20 DUP9 ADD PUSH2 0x3C92 JUMP JUMPDEST SWAP8 SWAP7 POP POP POP POP POP POP POP JUMP INVALID LOG2 PUSH5 0x6970667358 0x22 SLT KECCAK256 0xE3 SAR CREATE JUMPDEST 0xDE LOG2 SWAP9 0xD1 0xF6 0xE9 SELFBALANCE 0xD 0x4C PUSH22 0xA9E2D70FD2E795A681042BFCF1F3D88A278564736F6C PUSH4 0x43000809 STOP CALLER "},"methodIdentifiers":{"calcFee(bytes)":"5335dca2","executeMessage(bytes,(address,address,uint64,bytes32),bytes[],address[],uint256[])":"468a2d04","executeMessageWithTransfer(bytes,(uint8,address,address,address,uint256,uint64,uint64,bytes32,bytes32),bytes[],address[],uint256[])":"3f395aff","executeMessageWithTransferRefund(bytes,(uint8,address,address,address,uint256,uint64,uint64,bytes32,bytes32),bytes[],address[],uint256[])":"7b80ab20","executedMessages(bytes32)":"cd2abd66","feeBase()":"95e911a8","feePerByte()":"f60bbe2a","init(address,address,address,address,address)":"359ef75b","liquidityBridge()":"82980dc4","owner()":"8da5cb5b","pegBridge()":"dfa2dbaf","pegBridgeV2()":"95b12c27","pegVault()":"d8257d17","pegVaultV2()":"c66a9c5a","preExecuteMessageGasUsage()":"584e45e1","refundAndExecuteMsg((bytes,bytes[],address[],uint256[]),(bytes,(uint8,address,address,address,uint256,uint64,uint64,bytes32,bytes32),bytes[],address[],uint256[]))":"40d0d026","sendMessage(address,uint256,bytes)":"9f3ce55a","sendMessageWithTransfer(address,uint256,address,bytes32,bytes)":"4289fbb3","setFeeBase(uint256)":"06c28bd6","setFeePerByte(uint256)":"e2c1ed25","setLiquidityBridge(address)":"588be02b","setPegBridge(address)":"03cbfe66","setPegBridgeV2(address)":"82efd502","setPegVault(address)":"9b05a775","setPegVaultV2(address)":"f83b0fb9","setPreExecuteMessageGasUsage(uint256)":"4586f331","sigsVerifier()":"ccf2683b","transferAndExecuteMsg((bytes,bytes[],address[],uint256[]),(bytes,(uint8,address,address,address,uint256,uint64,uint64,bytes32,bytes32),bytes[],address[],uint256[]))":"723d0a9d","transferOwnership(address)":"f2fde38b","withdrawFee(address,uint256,bytes[],address[],uint256[])":"2ff4c411","withdrawnFees(address)":"5b3e5f50"}}}}}