{
  "_format": "hh-sol-artifact-1",
  "contractName": "DarwiniaAdapter",
  "sourceName": "contracts/adapter/DarwiniaAdapter.sol",
  "abi": [
    {
      "inputs": [
        {
          "internalType": "address",
          "name": "gatewayAddress",
          "type": "address"
        },
        {
          "internalType": "address",
          "name": "_outboundLane",
          "type": "address"
        },
        {
          "internalType": "address",
          "name": "_inboundLane",
          "type": "address"
        },
        {
          "internalType": "address",
          "name": "_feeMarket",
          "type": "address"
        }
      ],
      "stateMutability": "nonpayable",
      "type": "constructor"
    },
    {
      "anonymous": false,
      "inputs": [
        {
          "indexed": true,
          "internalType": "address",
          "name": "previousOwner",
          "type": "address"
        },
        {
          "indexed": true,
          "internalType": "address",
          "name": "newOwner",
          "type": "address"
        }
      ],
      "name": "OwnershipTransferStarted",
      "type": "event"
    },
    {
      "anonymous": false,
      "inputs": [
        {
          "indexed": true,
          "internalType": "address",
          "name": "previousOwner",
          "type": "address"
        },
        {
          "indexed": true,
          "internalType": "address",
          "name": "newOwner",
          "type": "address"
        }
      ],
      "name": "OwnershipTransferred",
      "type": "event"
    },
    {
      "inputs": [],
      "name": "acceptOwnership",
      "outputs": [],
      "stateMutability": "nonpayable",
      "type": "function"
    },
    {
      "inputs": [
        {
          "internalType": "uint32",
          "name": "bridgedChainPosition",
          "type": "uint32"
        },
        {
          "internalType": "uint32",
          "name": "bridgedLanePosition",
          "type": "uint32"
        },
        {
          "internalType": "address",
          "name": "sourceAccount",
          "type": "address"
        },
        {
          "internalType": "bytes",
          "name": "payload",
          "type": "bytes"
        }
      ],
      "name": "cross_chain_filter",
      "outputs": [
        {
          "internalType": "bool",
          "name": "",
          "type": "bool"
        }
      ],
      "stateMutability": "view",
      "type": "function"
    },
    {
      "inputs": [],
      "name": "feeMarket",
      "outputs": [
        {
          "internalType": "address",
          "name": "",
          "type": "address"
        }
      ],
      "stateMutability": "view",
      "type": "function"
    },
    {
      "inputs": [
        {
          "internalType": "address",
          "name": "_fromDappAddress",
          "type": "address"
        },
        {
          "internalType": "address",
          "name": "_toDappAddress",
          "type": "address"
        },
        {
          "internalType": "bytes",
          "name": "_messagePayload",
          "type": "bytes"
        }
      ],
      "name": "getDeliveryGas",
      "outputs": [
        {
          "internalType": "uint256",
          "name": "",
          "type": "uint256"
        }
      ],
      "stateMutability": "view",
      "type": "function"
    },
    {
      "inputs": [
        {
          "internalType": "address",
          "name": "_fromDappAddress",
          "type": "address"
        },
        {
          "internalType": "address",
          "name": "_toDappAddress",
          "type": "address"
        },
        {
          "internalType": "bytes",
          "name": "_messagePayload",
          "type": "bytes"
        }
      ],
      "name": "getRelayFee",
      "outputs": [
        {
          "internalType": "uint256",
          "name": "",
          "type": "uint256"
        }
      ],
      "stateMutability": "view",
      "type": "function"
    },
    {
      "inputs": [],
      "name": "getRemoteAdapterAddress",
      "outputs": [
        {
          "internalType": "address",
          "name": "",
          "type": "address"
        }
      ],
      "stateMutability": "view",
      "type": "function"
    },
    {
      "inputs": [],
      "name": "inboundLane",
      "outputs": [
        {
          "internalType": "address",
          "name": "",
          "type": "address"
        }
      ],
      "stateMutability": "view",
      "type": "function"
    },
    {
      "inputs": [],
      "name": "localMsgport",
      "outputs": [
        {
          "internalType": "contract IMsgport",
          "name": "",
          "type": "address"
        }
      ],
      "stateMutability": "view",
      "type": "function"
    },
    {
      "inputs": [],
      "name": "outboundLane",
      "outputs": [
        {
          "internalType": "address",
          "name": "",
          "type": "address"
        }
      ],
      "stateMutability": "view",
      "type": "function"
    },
    {
      "inputs": [],
      "name": "owner",
      "outputs": [
        {
          "internalType": "address",
          "name": "",
          "type": "address"
        }
      ],
      "stateMutability": "view",
      "type": "function"
    },
    {
      "inputs": [],
      "name": "pendingOwner",
      "outputs": [
        {
          "internalType": "address",
          "name": "",
          "type": "address"
        }
      ],
      "stateMutability": "view",
      "type": "function"
    },
    {
      "inputs": [
        {
          "internalType": "address",
          "name": "_fromDappAddress",
          "type": "address"
        },
        {
          "internalType": "address",
          "name": "_toDappAddress",
          "type": "address"
        },
        {
          "internalType": "bytes",
          "name": "_messagePayload",
          "type": "bytes"
        }
      ],
      "name": "recv",
      "outputs": [],
      "stateMutability": "nonpayable",
      "type": "function"
    },
    {
      "inputs": [],
      "name": "remoteAdapterAddress",
      "outputs": [
        {
          "internalType": "address",
          "name": "",
          "type": "address"
        }
      ],
      "stateMutability": "view",
      "type": "function"
    },
    {
      "inputs": [],
      "name": "renounceOwnership",
      "outputs": [],
      "stateMutability": "nonpayable",
      "type": "function"
    },
    {
      "inputs": [
        {
          "internalType": "address",
          "name": "_fromDappAddress",
          "type": "address"
        },
        {
          "internalType": "address",
          "name": "_toDappAddress",
          "type": "address"
        },
        {
          "internalType": "bytes",
          "name": "_messagePayload",
          "type": "bytes"
        }
      ],
      "name": "send",
      "outputs": [
        {
          "internalType": "uint256",
          "name": "",
          "type": "uint256"
        }
      ],
      "stateMutability": "payable",
      "type": "function"
    },
    {
      "inputs": [
        {
          "internalType": "address",
          "name": "_remoteAdapterAddress",
          "type": "address"
        }
      ],
      "name": "setRemoteAdapterAddress",
      "outputs": [],
      "stateMutability": "nonpayable",
      "type": "function"
    },
    {
      "inputs": [
        {
          "internalType": "address",
          "name": "newOwner",
          "type": "address"
        }
      ],
      "name": "transferOwnership",
      "outputs": [],
      "stateMutability": "nonpayable",
      "type": "function"
    }
  ],
  "bytecode": "0x6101006040523480156200001257600080fd5b50604051620012b6380380620012b6833981016040819052620000359162000103565b6001600160a01b0384166080526200004d336200006c565b6001600160a01b0392831660a05290821660c0521660e0525062000160565b600180546001600160a01b0319169055620000938162000096602090811b620009cc17901c565b50565b600080546001600160a01b038381166001600160a01b0319831681178455604051919092169283917f8be0079c531659141344cd1fd0a4f28419497f9722a3daafe3b4186f6b6457e09190a35050565b80516001600160a01b0381168114620000fe57600080fd5b919050565b600080600080608085870312156200011a57600080fd5b6200012585620000e6565b93506200013560208601620000e6565b92506200014560408601620000e6565b91506200015560608601620000e6565b905092959194509250565b60805160a05160c05160e0516110f9620001bd6000396000818161020201526105ad0152600081816102640152610a5b0152600081816103180152610ba20152600081816101ce01528181610539015261083301526110f96000f3fe60806040526004361061010e5760003560e01c806379ba5097116100a5578063cf9cbba611610074578063e30c397811610059578063e30c39781461037e578063f2fde38b146103a9578063fc8d4fd8146103c957600080fd5b8063cf9cbba61461033a578063d0d7a7ef1461035e57600080fd5b806379ba50971461029b5780638da5cb5b146102b05780639b0b3dc2146102db578063b6ebd4661461030657600080fd5b8063410f0710116100e1578063410f0710146101f057806345ea126a1461022457806360bbf1e114610252578063715018a61461028657600080fd5b806314efe9371461011357806337267fd91461016a578063394d1bca1461019a5780633e0406e3146101bc575b600080fd5b34801561011f57600080fd5b506002546101409073ffffffffffffffffffffffffffffffffffffffff1681565b60405173ffffffffffffffffffffffffffffffffffffffff90911681526020015b60405180910390f35b34801561017657600080fd5b5061018a610185366004610d8c565b6103dc565b6040519015158152602001610161565b3480156101a657600080fd5b506101ba6101b5366004610e31565b61048b565b005b3480156101c857600080fd5b506101407f000000000000000000000000000000000000000000000000000000000000000081565b3480156101fc57600080fd5b506101407f000000000000000000000000000000000000000000000000000000000000000081565b34801561023057600080fd5b5061024461023f366004610e31565b6105a9565b604051908152602001610161565b34801561025e57600080fd5b506101407f000000000000000000000000000000000000000000000000000000000000000081565b34801561029257600080fd5b506101ba610651565b3480156102a757600080fd5b506101ba610665565b3480156102bc57600080fd5b5060005473ffffffffffffffffffffffffffffffffffffffff16610140565b3480156102e757600080fd5b5060025473ffffffffffffffffffffffffffffffffffffffff16610140565b34801561031257600080fd5b506101407f000000000000000000000000000000000000000000000000000000000000000081565b34801561034657600080fd5b50610244610355366004610e31565b60009392505050565b34801561036a57600080fd5b506101ba610379366004610f21565b61071a565b34801561038a57600080fd5b5060015473ffffffffffffffffffffffffffffffffffffffff16610140565b3480156103b557600080fd5b506101ba6103c4366004610f21565b610769565b6102446103d7366004610f43565b610819565b60025460009073ffffffffffffffffffffffffffffffffffffffff16610463576040517f08c379a000000000000000000000000000000000000000000000000000000000815260206004820152600f60248201527f2172656d6f74652061646170746572000000000000000000000000000000000060448201526064015b60405180910390fd5b5060025473ffffffffffffffffffffffffffffffffffffffff84811691161495945050505050565b610496838383610a41565b6104fc576040517f08c379a000000000000000000000000000000000000000000000000000000000815260206004820152600a60248201527f217065726d697474656400000000000000000000000000000000000000000000604482015260640161045a565b6040517f394d1bca00000000000000000000000000000000000000000000000000000000815273ffffffffffffffffffffffffffffffffffffffff7f0000000000000000000000000000000000000000000000000000000000000000169063394d1bca906105729086908690869060040161100f565b600060405180830381600087803b15801561058c57600080fd5b505af11580156105a0573d6000803e3d6000fd5b50505050505050565b60007f000000000000000000000000000000000000000000000000000000000000000073ffffffffffffffffffffffffffffffffffffffff16636673cb7a6040518163ffffffff1660e01b815260040160206040518083038186803b15801561061157600080fd5b505afa158015610625573d6000803e3d6000fd5b505050506040513d601f19601f820116820180604052508101906106499190611051565b949350505050565b610659610aec565b6106636000610b6d565b565b600154339073ffffffffffffffffffffffffffffffffffffffff16811461070e576040517f08c379a000000000000000000000000000000000000000000000000000000000815260206004820152602960248201527f4f776e61626c6532537465703a2063616c6c6572206973206e6f74207468652060448201527f6e6577206f776e65720000000000000000000000000000000000000000000000606482015260840161045a565b61071781610b6d565b50565b610722610aec565b600280547fffffffffffffffffffffffff00000000000000000000000000000000000000001673ffffffffffffffffffffffffffffffffffffffff92909216919091179055565b610771610aec565b6001805473ffffffffffffffffffffffffffffffffffffffff83167fffffffffffffffffffffffff000000000000000000000000000000000000000090911681179091556107d460005473ffffffffffffffffffffffffffffffffffffffff1690565b73ffffffffffffffffffffffffffffffffffffffff167f38d16b8cac22d99fc7c124b9cd0de2d3fa1faef420bfe791d8c362d765e2270060405160405180910390a350565b60003373ffffffffffffffffffffffffffffffffffffffff7f000000000000000000000000000000000000000000000000000000000000000016146108e0576040517f08c379a000000000000000000000000000000000000000000000000000000000815260206004820152603760248201527f6e6f7420616c6c6f77656420746f2062652063616c6c6564206279206f74686560448201527f727320657863657074206c6f63616c206d7367706f7274000000000000000000606482015260840161045a565b600061090160025473ffffffffffffffffffffffffffffffffffffffff1690565b905073ffffffffffffffffffffffffffffffffffffffff8116610980576040517f08c379a000000000000000000000000000000000000000000000000000000000815260206004820152601660248201527f72656d6f74652061646170746572206e6f742073657400000000000000000000604482015260640161045a565b6109c281878787878080601f016020809104026020016040519081016040528093929190818152602001838380828437600092019190915250610b9e92505050565b9695505050505050565b6000805473ffffffffffffffffffffffffffffffffffffffff8381167fffffffffffffffffffffffff0000000000000000000000000000000000000000831681178455604051919092169283917f8be0079c531659141344cd1fd0a4f28419497f9722a3daafe3b4186f6b6457e09190a35050565b60003373ffffffffffffffffffffffffffffffffffffffff7f00000000000000000000000000000000000000000000000000000000000000001614610ae2576040517f08c379a000000000000000000000000000000000000000000000000000000000815260206004820152600c60248201527f21696e626f756e644c616e650000000000000000000000000000000000000000604482015260640161045a565b5060019392505050565b60005473ffffffffffffffffffffffffffffffffffffffff163314610663576040517f08c379a000000000000000000000000000000000000000000000000000000000815260206004820181905260248201527f4f776e61626c653a2063616c6c6572206973206e6f7420746865206f776e6572604482015260640161045a565b600180547fffffffffffffffffffffffff0000000000000000000000000000000000000000169055610717816109cc565b60007f000000000000000000000000000000000000000000000000000000000000000073ffffffffffffffffffffffffffffffffffffffff1663303d8a123487878787604051602401610bf39392919061100f565b604080517fffffffffffffffffffffffffffffffffffffffffffffffffffffffffffffffe08184030181529181526020820180517bffffffffffffffffffffffffffffffffffffffffffffffffffffffff167f394d1bca000000000000000000000000000000000000000000000000000000001790525160e085901b7fffffffff00000000000000000000000000000000000000000000000000000000168152610ca192919060040161106a565b6020604051808303818588803b158015610cba57600080fd5b505af1158015610cce573d6000803e3d6000fd5b50505050506040513d601f19601f82011682018060405250810190610cf39190611099565b67ffffffffffffffff1695945050505050565b803563ffffffff81168114610d1a57600080fd5b919050565b803573ffffffffffffffffffffffffffffffffffffffff81168114610d1a57600080fd5b60008083601f840112610d5557600080fd5b50813567ffffffffffffffff811115610d6d57600080fd5b602083019150836020828501011115610d8557600080fd5b9250929050565b600080600080600060808688031215610da457600080fd5b610dad86610d06565b9450610dbb60208701610d06565b9350610dc960408701610d1f565b9250606086013567ffffffffffffffff811115610de557600080fd5b610df188828901610d43565b969995985093965092949392505050565b7f4e487b7100000000000000000000000000000000000000000000000000000000600052604160045260246000fd5b600080600060608486031215610e4657600080fd5b610e4f84610d1f565b9250610e5d60208501610d1f565b9150604084013567ffffffffffffffff80821115610e7a57600080fd5b818601915086601f830112610e8e57600080fd5b813581811115610ea057610ea0610e02565b604051601f82017fffffffffffffffffffffffffffffffffffffffffffffffffffffffffffffffe0908116603f01168101908382118183101715610ee657610ee6610e02565b81604052828152896020848701011115610eff57600080fd5b8260208601602083013760006020848301015280955050505050509250925092565b600060208284031215610f3357600080fd5b610f3c82610d1f565b9392505050565b60008060008060608587031215610f5957600080fd5b610f6285610d1f565b9350610f7060208601610d1f565b9250604085013567ffffffffffffffff811115610f8c57600080fd5b610f9887828801610d43565b95989497509550505050565b6000815180845260005b81811015610fca57602081850181015186830182015201610fae565b81811115610fdc576000602083870101525b50601f017fffffffffffffffffffffffffffffffffffffffffffffffffffffffffffffffe0169290920160200192915050565b600073ffffffffffffffffffffffffffffffffffffffff8086168352808516602084015250606060408301526110486060830184610fa4565b95945050505050565b60006020828403121561106357600080fd5b5051919050565b73ffffffffffffffffffffffffffffffffffffffff831681526040602082015260006106496040830184610fa4565b6000602082840312156110ab57600080fd5b815167ffffffffffffffff81168114610f3c57600080fdfea26469706673582212203d9c50fc867f1621b5e0a398ad002829844133f4297168e09736e23b11a7302b64736f6c63430008090033",
  "linkReferences": {},
  "deployedLinkReferences": {}
}