{
  "_format": "hh-sol-artifact-1",
  "contractName": "TestnetCelerBscFantomAdapter",
  "sourceName": "contracts/adapter/TestnetCelerBscFantomAdapter.sol",
  "abi": [
    {
      "inputs": [
        {
          "internalType": "address",
          "name": "_msgportAddress",
          "type": "address"
        },
        {
          "internalType": "address",
          "name": "_messageBus",
          "type": "address"
        }
      ],
      "stateMutability": "nonpayable",
      "type": "constructor"
    },
    {
      "anonymous": false,
      "inputs": [
        {
          "indexed": false,
          "internalType": "address",
          "name": "messageBus",
          "type": "address"
        }
      ],
      "name": "MessageBusUpdated",
      "type": "event"
    },
    {
      "anonymous": false,
      "inputs": [
        {
          "indexed": true,
          "internalType": "address",
          "name": "previousOwner",
          "type": "address"
        },
        {
          "indexed": true,
          "internalType": "address",
          "name": "newOwner",
          "type": "address"
        }
      ],
      "name": "OwnershipTransferred",
      "type": "event"
    },
    {
      "inputs": [],
      "name": "BSC_CHAIN_ID",
      "outputs": [
        {
          "internalType": "uint64",
          "name": "",
          "type": "uint64"
        }
      ],
      "stateMutability": "view",
      "type": "function"
    },
    {
      "inputs": [],
      "name": "FANTOM_CHAIN_ID",
      "outputs": [
        {
          "internalType": "uint64",
          "name": "",
          "type": "uint64"
        }
      ],
      "stateMutability": "view",
      "type": "function"
    },
    {
      "inputs": [
        {
          "internalType": "address",
          "name": "_srcContract",
          "type": "address"
        },
        {
          "internalType": "uint64",
          "name": "_srcChainId",
          "type": "uint64"
        },
        {
          "internalType": "bytes",
          "name": "_celerMessage",
          "type": "bytes"
        },
        {
          "internalType": "address",
          "name": "",
          "type": "address"
        }
      ],
      "name": "executeMessage",
      "outputs": [
        {
          "internalType": "enum IMessageReceiverApp.ExecutionStatus",
          "name": "",
          "type": "uint8"
        }
      ],
      "stateMutability": "payable",
      "type": "function"
    },
    {
      "inputs": [
        {
          "internalType": "address",
          "name": "_sender",
          "type": "address"
        },
        {
          "internalType": "address",
          "name": "_token",
          "type": "address"
        },
        {
          "internalType": "uint256",
          "name": "_amount",
          "type": "uint256"
        },
        {
          "internalType": "uint64",
          "name": "_srcChainId",
          "type": "uint64"
        },
        {
          "internalType": "bytes",
          "name": "_message",
          "type": "bytes"
        },
        {
          "internalType": "address",
          "name": "_executor",
          "type": "address"
        }
      ],
      "name": "executeMessageWithTransfer",
      "outputs": [
        {
          "internalType": "enum IMessageReceiverApp.ExecutionStatus",
          "name": "",
          "type": "uint8"
        }
      ],
      "stateMutability": "payable",
      "type": "function"
    },
    {
      "inputs": [
        {
          "internalType": "address",
          "name": "_sender",
          "type": "address"
        },
        {
          "internalType": "address",
          "name": "_token",
          "type": "address"
        },
        {
          "internalType": "uint256",
          "name": "_amount",
          "type": "uint256"
        },
        {
          "internalType": "uint64",
          "name": "_srcChainId",
          "type": "uint64"
        },
        {
          "internalType": "bytes",
          "name": "_message",
          "type": "bytes"
        },
        {
          "internalType": "address",
          "name": "_executor",
          "type": "address"
        }
      ],
      "name": "executeMessageWithTransferFallback",
      "outputs": [
        {
          "internalType": "enum IMessageReceiverApp.ExecutionStatus",
          "name": "",
          "type": "uint8"
        }
      ],
      "stateMutability": "payable",
      "type": "function"
    },
    {
      "inputs": [
        {
          "internalType": "address",
          "name": "_token",
          "type": "address"
        },
        {
          "internalType": "uint256",
          "name": "_amount",
          "type": "uint256"
        },
        {
          "internalType": "bytes",
          "name": "_message",
          "type": "bytes"
        },
        {
          "internalType": "address",
          "name": "_executor",
          "type": "address"
        }
      ],
      "name": "executeMessageWithTransferRefund",
      "outputs": [
        {
          "internalType": "enum IMessageReceiverApp.ExecutionStatus",
          "name": "",
          "type": "uint8"
        }
      ],
      "stateMutability": "payable",
      "type": "function"
    },
    {
      "inputs": [
        {
          "internalType": "address",
          "name": "_fromDappAddress",
          "type": "address"
        },
        {
          "internalType": "address",
          "name": "_toDappAddress",
          "type": "address"
        },
        {
          "internalType": "bytes",
          "name": "_messagePayload",
          "type": "bytes"
        }
      ],
      "name": "getDeliveryGas",
      "outputs": [
        {
          "internalType": "uint256",
          "name": "",
          "type": "uint256"
        }
      ],
      "stateMutability": "view",
      "type": "function"
    },
    {
      "inputs": [
        {
          "internalType": "address",
          "name": "_fromDappAddress",
          "type": "address"
        },
        {
          "internalType": "address",
          "name": "_toDappAddress",
          "type": "address"
        },
        {
          "internalType": "bytes",
          "name": "_messagePayload",
          "type": "bytes"
        }
      ],
      "name": "getRelayFee",
      "outputs": [
        {
          "internalType": "uint256",
          "name": "",
          "type": "uint256"
        }
      ],
      "stateMutability": "view",
      "type": "function"
    },
    {
      "inputs": [],
      "name": "getRemoteAdapterAddress",
      "outputs": [
        {
          "internalType": "address",
          "name": "",
          "type": "address"
        }
      ],
      "stateMutability": "view",
      "type": "function"
    },
    {
      "inputs": [],
      "name": "localMsgport",
      "outputs": [
        {
          "internalType": "contract IMsgport",
          "name": "",
          "type": "address"
        }
      ],
      "stateMutability": "view",
      "type": "function"
    },
    {
      "inputs": [],
      "name": "messageBus",
      "outputs": [
        {
          "internalType": "address",
          "name": "",
          "type": "address"
        }
      ],
      "stateMutability": "view",
      "type": "function"
    },
    {
      "inputs": [],
      "name": "owner",
      "outputs": [
        {
          "internalType": "address",
          "name": "",
          "type": "address"
        }
      ],
      "stateMutability": "view",
      "type": "function"
    },
    {
      "inputs": [
        {
          "internalType": "address",
          "name": "_fromDappAddress",
          "type": "address"
        },
        {
          "internalType": "address",
          "name": "_toDappAddress",
          "type": "address"
        },
        {
          "internalType": "bytes",
          "name": "_messagePayload",
          "type": "bytes"
        }
      ],
      "name": "recv",
      "outputs": [],
      "stateMutability": "nonpayable",
      "type": "function"
    },
    {
      "inputs": [],
      "name": "remoteAdapterAddress",
      "outputs": [
        {
          "internalType": "address",
          "name": "",
          "type": "address"
        }
      ],
      "stateMutability": "view",
      "type": "function"
    },
    {
      "inputs": [
        {
          "internalType": "address",
          "name": "_fromDappAddress",
          "type": "address"
        },
        {
          "internalType": "address",
          "name": "_toDappAddress",
          "type": "address"
        },
        {
          "internalType": "bytes",
          "name": "_messagePayload",
          "type": "bytes"
        }
      ],
      "name": "send",
      "outputs": [
        {
          "internalType": "uint256",
          "name": "",
          "type": "uint256"
        }
      ],
      "stateMutability": "payable",
      "type": "function"
    },
    {
      "inputs": [
        {
          "internalType": "address",
          "name": "_messageBus",
          "type": "address"
        }
      ],
      "name": "setMessageBus",
      "outputs": [],
      "stateMutability": "nonpayable",
      "type": "function"
    },
    {
      "inputs": [
        {
          "internalType": "address",
          "name": "_remoteAdapterAddress",
          "type": "address"
        }
      ],
      "name": "setRemoteAdapterAddress",
      "outputs": [],
      "stateMutability": "nonpayable",
      "type": "function"
    },
    {
      "inputs": [
        {
          "internalType": "address",
          "name": "newOwner",
          "type": "address"
        }
      ],
      "name": "transferOwnership",
      "outputs": [],
      "stateMutability": "nonpayable",
      "type": "function"
    }
  ],
  "bytecode": "0x60a060405234801561001057600080fd5b506040516200143438038062001434833981016040819052610031916100d9565b6001600160a01b0382166080526100473361006d565b600180546001600160a01b0319166001600160a01b03929092169190911790555061010c565b600080546001600160a01b038381166001600160a01b0319831681178455604051919092169283917f8be0079c531659141344cd1fd0a4f28419497f9722a3daafe3b4186f6b6457e09190a35050565b80516001600160a01b03811681146100d457600080fd5b919050565b600080604083850312156100ec57600080fd5b6100f5836100bd565b9150610103602084016100bd565b90509250929050565b6080516112fe62000136600039600081816101dd015281816104800152610ac201526112fe6000f3fe6080604052600436106101295760003560e01c80639b0b3dc2116100a5578063cf9cbba611610074578063dce78e8011610059578063dce78e8014610368578063f2fde38b1461037e578063fc8d4fd81461039e57600080fd5b8063cf9cbba614610324578063d0d7a7ef1461034857600080fd5b80639b0b3dc21461028b5780639c649fdf146102b6578063a1a227fa146102c9578063a80ad651146102f657600080fd5b806345ea126a116100fc5780635ab7afc6116100e15780635ab7afc61461024d5780637cd2bffc1461024d5780638da5cb5b1461026057600080fd5b806345ea126a146101ff578063547cad121461022d57600080fd5b80630bcb49821461012e57806314efe93714610157578063394d1bca146101a95780633e0406e3146101cb575b600080fd5b61014161013c366004610e3e565b6103b1565b60405161014e9190610eb2565b60405180910390f35b34801561016357600080fd5b506002546101849073ffffffffffffffffffffffffffffffffffffffff1681565b60405173ffffffffffffffffffffffffffffffffffffffff909116815260200161014e565b3480156101b557600080fd5b506101c96101c4366004610fcd565b610443565b005b3480156101d757600080fd5b506101847f000000000000000000000000000000000000000000000000000000000000000081565b34801561020b57600080fd5b5061021f61021a366004610fcd565b6104f0565b60405190815260200161014e565b34801561023957600080fd5b506101c961024836600461102f565b6105ab565b61014161025b366004611070565b6106c1565b34801561026c57600080fd5b5060005473ffffffffffffffffffffffffffffffffffffffff16610184565b34801561029757600080fd5b5060025473ffffffffffffffffffffffffffffffffffffffff16610184565b6101416102c4366004611107565b610750565b3480156102d557600080fd5b506001546101849073ffffffffffffffffffffffffffffffffffffffff1681565b34801561030257600080fd5b5061030b606181565b60405167ffffffffffffffff909116815260200161014e565b34801561033057600080fd5b5061021f61033f366004610fcd565b60009392505050565b34801561035457600080fd5b506101c961036336600461102f565b610878565b34801561037457600080fd5b5061030b610fa281565b34801561038a57600080fd5b506101c961039936600461102f565b61095c565b61021f6103ac366004611154565b610aa8565b60015460009073ffffffffffffffffffffffffffffffffffffffff16331461043a576040517f08c379a000000000000000000000000000000000000000000000000000000000815260206004820152601960248201527f63616c6c6572206973206e6f74206d657373616765206275730000000000000060448201526064015b60405180910390fd5b95945050505050565b6040517f394d1bca00000000000000000000000000000000000000000000000000000000815273ffffffffffffffffffffffffffffffffffffffff7f0000000000000000000000000000000000000000000000000000000000000000169063394d1bca906104b990869086908690600401611224565b600060405180830381600087803b1580156104d357600080fd5b505af11580156104e7573d6000803e3d6000fd5b50505050505050565b60015460405160009173ffffffffffffffffffffffffffffffffffffffff1690635335dca29061052890879087908790602001611224565b6040516020818303038152906040526040518263ffffffff1660e01b8152600401610553919061125d565b60206040518083038186803b15801561056b57600080fd5b505afa15801561057f573d6000803e3d6000fd5b505050506040513d601f19601f820116820180604052508101906105a39190611270565b949350505050565b336105cb60005473ffffffffffffffffffffffffffffffffffffffff1690565b73ffffffffffffffffffffffffffffffffffffffff1614610648576040517f08c379a000000000000000000000000000000000000000000000000000000000815260206004820181905260248201527f4f776e61626c653a2063616c6c6572206973206e6f7420746865206f776e65726044820152606401610431565b600180547fffffffffffffffffffffffff00000000000000000000000000000000000000001673ffffffffffffffffffffffffffffffffffffffff83169081179091556040519081527f3f8223bcd8b3b875473e9f9e14e1ad075451a2b5ffd31591655da9a01516bf5e9060200160405180910390a150565b60015460009073ffffffffffffffffffffffffffffffffffffffff163314610745576040517f08c379a000000000000000000000000000000000000000000000000000000000815260206004820152601960248201527f63616c6c6572206973206e6f74206d65737361676520627573000000000000006044820152606401610431565b979650505050505050565b60015460009073ffffffffffffffffffffffffffffffffffffffff1633146107d4576040517f08c379a000000000000000000000000000000000000000000000000000000000815260206004820152601960248201527f63616c6c6572206973206e6f74206d65737361676520627573000000000000006044820152606401610431565b67ffffffffffffffff8516606114610848576040517f08c379a000000000000000000000000000000000000000000000000000000000815260206004820152600f60248201527f496e76616c696420636861696e496400000000000000000000000000000000006044820152606401610431565b6000808061085886880188610fcd565b925092509250610869838383610443565b50600198975050505050505050565b3361089860005473ffffffffffffffffffffffffffffffffffffffff1690565b73ffffffffffffffffffffffffffffffffffffffff1614610915576040517f08c379a000000000000000000000000000000000000000000000000000000000815260206004820181905260248201527f4f776e61626c653a2063616c6c6572206973206e6f7420746865206f776e65726044820152606401610431565b600280547fffffffffffffffffffffffff00000000000000000000000000000000000000001673ffffffffffffffffffffffffffffffffffffffff92909216919091179055565b3361097c60005473ffffffffffffffffffffffffffffffffffffffff1690565b73ffffffffffffffffffffffffffffffffffffffff16146109f9576040517f08c379a000000000000000000000000000000000000000000000000000000000815260206004820181905260248201527f4f776e61626c653a2063616c6c6572206973206e6f7420746865206f776e65726044820152606401610431565b73ffffffffffffffffffffffffffffffffffffffff8116610a9c576040517f08c379a000000000000000000000000000000000000000000000000000000000815260206004820152602660248201527f4f776e61626c653a206e6577206f776e657220697320746865207a65726f206160448201527f64647265737300000000000000000000000000000000000000000000000000006064820152608401610431565b610aa581610c5b565b50565b60003373ffffffffffffffffffffffffffffffffffffffff7f00000000000000000000000000000000000000000000000000000000000000001614610b6f576040517f08c379a000000000000000000000000000000000000000000000000000000000815260206004820152603760248201527f6e6f7420616c6c6f77656420746f2062652063616c6c6564206279206f74686560448201527f727320657863657074206c6f63616c206d7367706f72740000000000000000006064820152608401610431565b6000610b9060025473ffffffffffffffffffffffffffffffffffffffff1690565b905073ffffffffffffffffffffffffffffffffffffffff8116610c0f576040517f08c379a000000000000000000000000000000000000000000000000000000000815260206004820152601660248201527f72656d6f74652061646170746572206e6f7420736574000000000000000000006044820152606401610431565b610c5181878787878080601f016020809104026020016040519081016040528093929190818152602001838380828437600092019190915250610cd092505050565b9695505050505050565b6000805473ffffffffffffffffffffffffffffffffffffffff8381167fffffffffffffffffffffffff0000000000000000000000000000000000000000831681178455604051919092169283917f8be0079c531659141344cd1fd0a4f28419497f9722a3daafe3b4186f6b6457e09190a35050565b600080848484604051602001610ce893929190611224565b6040516020818303038152906040529050610d0786610fa28334610d13565b50600095945050505050565b600154610d3c9085908590859073ffffffffffffffffffffffffffffffffffffffff1685610d42565b50505050565b6040517f9f3ce55a00000000000000000000000000000000000000000000000000000000815273ffffffffffffffffffffffffffffffffffffffff831690639f3ce55a908390610d9a90899089908990600401611289565b6000604051808303818588803b158015610db357600080fd5b505af1158015610dc7573d6000803e3d6000fd5b50505050505050505050565b73ffffffffffffffffffffffffffffffffffffffff81168114610aa557600080fd5b60008083601f840112610e0757600080fd5b50813567ffffffffffffffff811115610e1f57600080fd5b602083019150836020828501011115610e3757600080fd5b9250929050565b600080600080600060808688031215610e5657600080fd5b8535610e6181610dd3565b945060208601359350604086013567ffffffffffffffff811115610e8457600080fd5b610e9088828901610df5565b9094509250506060860135610ea481610dd3565b809150509295509295909350565b6020810160038310610eed577f4e487b7100000000000000000000000000000000000000000000000000000000600052602160045260246000fd5b91905290565b7f4e487b7100000000000000000000000000000000000000000000000000000000600052604160045260246000fd5b600082601f830112610f3357600080fd5b813567ffffffffffffffff80821115610f4e57610f4e610ef3565b604051601f83017fffffffffffffffffffffffffffffffffffffffffffffffffffffffffffffffe0908116603f01168101908282118183101715610f9457610f94610ef3565b81604052838152866020858801011115610fad57600080fd5b836020870160208301376000602085830101528094505050505092915050565b600080600060608486031215610fe257600080fd5b8335610fed81610dd3565b92506020840135610ffd81610dd3565b9150604084013567ffffffffffffffff81111561101957600080fd5b61102586828701610f22565b9150509250925092565b60006020828403121561104157600080fd5b813561104c81610dd3565b9392505050565b803567ffffffffffffffff8116811461106b57600080fd5b919050565b600080600080600080600060c0888a03121561108b57600080fd5b873561109681610dd3565b965060208801356110a681610dd3565b9550604088013594506110bb60608901611053565b9350608088013567ffffffffffffffff8111156110d757600080fd5b6110e38a828b01610df5565b90945092505060a08801356110f781610dd3565b8091505092959891949750929550565b60008060008060006080868803121561111f57600080fd5b853561112a81610dd3565b945061113860208701611053565b9350604086013567ffffffffffffffff811115610e8457600080fd5b6000806000806060858703121561116a57600080fd5b843561117581610dd3565b9350602085013561118581610dd3565b9250604085013567ffffffffffffffff8111156111a157600080fd5b6111ad87828801610df5565b95989497509550505050565b6000815180845260005b818110156111df576020818501810151868301820152016111c3565b818111156111f1576000602083870101525b50601f017fffffffffffffffffffffffffffffffffffffffffffffffffffffffffffffffe0169290920160200192915050565b600073ffffffffffffffffffffffffffffffffffffffff80861683528085166020840152506060604083015261043a60608301846111b9565b60208152600061104c60208301846111b9565b60006020828403121561128257600080fd5b5051919050565b73ffffffffffffffffffffffffffffffffffffffff8416815267ffffffffffffffff8316602082015260606040820152600061043a60608301846111b956fea2646970667358221220b6793ae2cbff512e6e47ddedbb90c6399ac9c74ce29ea2bfd34640b9fe9e2b1364736f6c63430008090033",
  "linkReferences": {},
  "deployedLinkReferences": {}
}