{
  "_format": "hh-sol-artifact-1",
  "contractName": "DarwiniaMessageHub",
  "sourceName": "contracts/DarwiniaMessageHub.sol",
  "abi": [
    {
      "inputs": [
        {
          "internalType": "bytes2",
          "name": "_darwiniaParaId",
          "type": "bytes2"
        },
        {
          "internalType": "bytes2",
          "name": "_sendCallIndex",
          "type": "bytes2"
        },
        {
          "internalType": "address",
          "name": "_msgportAddress",
          "type": "address"
        }
      ],
      "stateMutability": "nonpayable",
      "type": "constructor"
    },
    {
      "inputs": [],
      "name": "DARWINIA_PARAID",
      "outputs": [
        {
          "internalType": "bytes2",
          "name": "",
          "type": "bytes2"
        }
      ],
      "stateMutability": "view",
      "type": "function"
    },
    {
      "inputs": [],
      "name": "DISPATCH",
      "outputs": [
        {
          "internalType": "address",
          "name": "",
          "type": "address"
        }
      ],
      "stateMutability": "view",
      "type": "function"
    },
    {
      "inputs": [],
      "name": "MSGPORT_ADDRESS",
      "outputs": [
        {
          "internalType": "address",
          "name": "",
          "type": "address"
        }
      ],
      "stateMutability": "view",
      "type": "function"
    },
    {
      "inputs": [],
      "name": "SEND_CALL_INDEX",
      "outputs": [
        {
          "internalType": "bytes2",
          "name": "",
          "type": "bytes2"
        }
      ],
      "stateMutability": "view",
      "type": "function"
    },
    {
      "inputs": [],
      "name": "fee",
      "outputs": [
        {
          "internalType": "uint256",
          "name": "",
          "type": "uint256"
        }
      ],
      "stateMutability": "view",
      "type": "function"
    },
    {
      "inputs": [
        {
          "internalType": "address",
          "name": "_fromDappAddress",
          "type": "address"
        },
        {
          "internalType": "bytes",
          "name": "_message",
          "type": "bytes"
        }
      ],
      "name": "recv",
      "outputs": [],
      "stateMutability": "nonpayable",
      "type": "function"
    },
    {
      "inputs": [
        {
          "internalType": "address",
          "name": "_toDappAddress",
          "type": "address"
        },
        {
          "internalType": "bytes",
          "name": "_messagePayload",
          "type": "bytes"
        }
      ],
      "name": "send",
      "outputs": [
        {
          "internalType": "uint256",
          "name": "nonce",
          "type": "uint256"
        }
      ],
      "stateMutability": "payable",
      "type": "function"
    }
  ],
  "bytecode": "0x60e060405234801561001057600080fd5b506040516200151b3803806200151b83398101604081905261003191610073565b6001600160f01b0319928316608052911660a0526001600160a01b031660c0526100c7565b80516001600160f01b03198116811461006e57600080fd5b919050565b60008060006060848603121561008857600080fd5b61009184610056565b925061009f60208501610056565b60408501519092506001600160a01b03811681146100bc57600080fd5b809150509250925092565b60805160a05160c051611402620001196000396000818160a9015281816101f8015281816103e501526104d701526000818161018d01526105a1015260008181610107015261057201526114026000f3fe6080604052600436106100705760003560e01c8063c89acc861161004e578063c89acc861461015a578063d905d5531461017b578063ddca3f43146101af578063f3fc4c29146101c457600080fd5b806304a1b84214610075578063177a55ce146100975780633eb708c7146100f5575b600080fd5b34801561008157600080fd5b50610095610090366004610c4a565b6101da565b005b3480156100a357600080fd5b506100cb7f000000000000000000000000000000000000000000000000000000000000000081565b60405173ffffffffffffffffffffffffffffffffffffffff90911681526020015b60405180910390f35b34801561010157600080fd5b506101297f000000000000000000000000000000000000000000000000000000000000000081565b6040517fffff00000000000000000000000000000000000000000000000000000000000090911681526020016100ec565b61016d610168366004610c4a565b6102ee565b6040519081526020016100ec565b34801561018757600080fd5b506101297f000000000000000000000000000000000000000000000000000000000000000081565b3480156101bb57600080fd5b5061016d610483565b3480156101d057600080fd5b506100cb61040181565b6000808080806101ec86880188610d4f565b945094509450945094507f000000000000000000000000000000000000000000000000000000000000000073ffffffffffffffffffffffffffffffffffffffff163373ffffffffffffffffffffffffffffffffffffffff16146102d6576040517f08c379a000000000000000000000000000000000000000000000000000000000815260206004820152603460248201527f44617277696e69614d6573736167654875623a206f6e6c79206163636570742060448201527f6d6573736167652066726f6d206d7367706f727400000000000000000000000060648201526084015b60405180910390fd5b6102e485898686868661056b565b5050505050505050565b600034816102fa610483565b905080821015610368576040517f08c379a00000000000000000000000000000000000000000000000000000000081526004016102cd9060208082526004908201527f2166656500000000000000000000000000000000000000000000000000000000604082015260600190565b808211156103a857336108fc61037e8385610eb7565b6040518115909202916000818181858888f193505050501580156103a6573d6000803e3d6000fd5b505b6040517f0d1e73bf00000000000000000000000000000000000000000000000000000000815273ffffffffffffffffffffffffffffffffffffffff7f00000000000000000000000000000000000000000000000000000000000000001690630d1e73bf908390610425908a908a908a906000908190600401610ece565b6020604051808303818588803b15801561043e57600080fd5b505af1158015610452573d6000803e3d6000fd5b50505050506040513d601f19601f820116820180604052508101906104779190610f49565b925050505b9392505050565b6040517f8a14789100000000000000000000000000000000000000000000000000000000815233600482015260006024820181905260a0604483015260a482018190526064820181905260848201819052907f000000000000000000000000000000000000000000000000000000000000000073ffffffffffffffffffffffffffffffffffffffff1690638a1478919060c40160206040518083038186803b15801561052e57600080fd5b505afa158015610542573d6000803e3d6000fd5b505050506040513d601f19601f820116820180604052508101906105669190610f49565b905090565b600061059b7f000000000000000000000000000000000000000000000000000000000000000087878787876106d9565b905060007f000000000000000000000000000000000000000000000000000000000000000088836040516020016105d493929190610f9d565b604051602081830303815290604052905060008061040173ffffffffffffffffffffffffffffffffffffffff168360405161060f9190610ffe565b6000604051808303816000865af19150503d806000811461064c576040519150601f19603f3d011682016040523d82523d6000602084013e610651565b606091505b5091509150816106cd5780511561066b5780518082602001fd5b6040517f08c379a000000000000000000000000000000000000000000000000000000000815260206004820152600960248201527f216469737061746368000000000000000000000000000000000000000000000060448201526064016102cd565b50505050505050505050565b606060006106f8836fffffffffffffffffffffffffffffffff16610764565b90508688828a846107128a67ffffffffffffffff16610764565b6107258a67ffffffffffffffff16610764565b61072f8d51610764565b8d6040516020016107489998979695949392919061100a565b6040516020818303038152906040529150509695505050505050565b606060408210156107b8576040517fff0000000000000000000000000000000000000000000000000000000000000060fa84901b1660208201526021015b6040516020818303038152906040529050919050565b614000821015610823576107e86107d4600284901b60016111eb565b600881811b62ffff001691901c60ff161790565b6040516020016107a2919060f09190911b7fffff00000000000000000000000000000000000000000000000000000000000016815260020190565b634000000082101561089f57610864610840600284811b906111eb565b600881811c62ff00ff1663ff00ff009290911b9190911617601081811c91901b1790565b6040516020016107a2919060e09190911b7fffffffff0000000000000000000000000000000000000000000000000000000016815260040190565b6000610a1a6109f48460008190506008817eff00ff00ff00ff00ff00ff00ff00ff00ff00ff00ff00ff00ff00ff00ff00ff16901b6008827fff00ff00ff00ff00ff00ff00ff00ff00ff00ff00ff00ff00ff00ff00ff00ff0016901c1790506010817dffff0000ffff0000ffff0000ffff0000ffff0000ffff0000ffff0000ffff16901b6010827fffff0000ffff0000ffff0000ffff0000ffff0000ffff0000ffff0000ffff000016901c1790506020817bffffffff00000000ffffffff00000000ffffffff00000000ffffffff16901b6020827fffffffff00000000ffffffff00000000ffffffff00000000ffffffff0000000016901c17905060408177ffffffffffffffff0000000000000000ffffffffffffffff16901b6040827fffffffffffffffff0000000000000000ffffffffffffffff000000000000000016901c179050608081901b608082901c179050919050565b604051602001610a0691815260200190565b604051602081830303815290604052610a6d565b805190915060006002610a2e600484610eb7565b610a3a911b60036111eb565b90508083604051602001610a4f929190611203565b6040516020818303038152906040529350505050919050565b919050565b8051606090600080610a80600184610eb7565b90505b848181518110610a9557610a9561123a565b01602001517fff000000000000000000000000000000000000000000000000000000000000001615610ac957809150610adb565b80610ad381611269565b915050610a83565b50610af2846000610aed8460016111eb565b610afa565b949350505050565b8251606090610b0983856111eb565b1115610b1457600080fd5b81610b2e575060408051602081019091526000815261047c565b60208401610b45610b3f85836111eb565b84610b4e565b95945050505050565b60608167ffffffffffffffff811115610b6957610b69610ce8565b6040519080825280601f01601f191660200182016040528015610b93576020820181803683370190505b50905060208101610ba5848285610bac565b5092915050565b60208110610be45782518252610bc36020836111eb565b9150610bd06020846111eb565b9250610bdd602082610eb7565b9050610bac565b60008115610c14576001610bf9836020610eb7565b610c05906101006113c0565b610c0f9190610eb7565b610c36565b7fffffffffffffffffffffffffffffffffffffffffffffffffffffffffffffffff5b935183518516941916939093179091525050565b600080600060408486031215610c5f57600080fd5b833573ffffffffffffffffffffffffffffffffffffffff81168114610c8357600080fd5b9250602084013567ffffffffffffffff80821115610ca057600080fd5b818601915086601f830112610cb457600080fd5b813581811115610cc357600080fd5b876020828501011115610cd557600080fd5b6020830194508093505050509250925092565b7f4e487b7100000000000000000000000000000000000000000000000000000000600052604160045260246000fd5b803567ffffffffffffffff81168114610a6857600080fd5b80356fffffffffffffffffffffffffffffffff81168114610a6857600080fd5b600080600080600060a08688031215610d6757600080fd5b85357fffff00000000000000000000000000000000000000000000000000000000000081168114610d9757600080fd5b9450602086013567ffffffffffffffff80821115610db457600080fd5b818801915088601f830112610dc857600080fd5b813581811115610dda57610dda610ce8565b604051601f82017fffffffffffffffffffffffffffffffffffffffffffffffffffffffffffffffe0908116603f01168101908382118183101715610e2057610e20610ce8565b816040528281528b6020848701011115610e3957600080fd5b826020860160208301376000602084830101528098505050505050610e6060408701610d17565b9250610e6e60608701610d17565b9150610e7c60808701610d2f565b90509295509295909350565b7f4e487b7100000000000000000000000000000000000000000000000000000000600052601160045260246000fd5b600082821015610ec957610ec9610e88565b500390565b73ffffffffffffffffffffffffffffffffffffffff8616815260806020820152836080820152838560a0830137600060a08583010152600060a07fffffffffffffffffffffffffffffffffffffffffffffffffffffffffffffffe0601f87011683010190508360408301528260608301529695505050505050565b600060208284031215610f5b57600080fd5b5051919050565b6000815160005b81811015610f835760208185018101518683015201610f69565b81811115610f92576000828601525b509290920192915050565b7fffff00000000000000000000000000000000000000000000000000000000000084811682527e010100000000000000000000000000000000000000000000000000000000006002830152831660068201526000610b456008830184610f62565b600061047c8284610f62565b7f031000000000000000000000000000000000000000000000000000000000000081527f0b0103000000000000000000000000000000000000000000000000000000000060028201527fffffffffffffffffffffffffffffffffffffffff0000000000000000000000008a60601b1660068201527e04000102000000000000000000000000000000000000000000000000000000601a8201527fffff000000000000000000000000000000000000000000000000000000000000891660208201527f040500000000000000000000000000000000000000000000000000000000000060228201526000611100602583018a610f62565b7f130001020000000000000000000000000000000000000000000000000000000081527fffff000000000000000000000000000000000000000000000000000000000000891660058201527f040500000000000000000000000000000000000000000000000000000000000060078201526111db6111d56111cf6111c96111c361119a611190600a88018f610f62565b6000815260010190565b7f0601000000000000000000000000000000000000000000000000000000000000815260020190565b8b610f62565b89610f62565b87610f62565b85610f62565b9c9b505050505050505050505050565b600082198211156111fe576111fe610e88565b500190565b7fff000000000000000000000000000000000000000000000000000000000000008360f81b1681526000610af26001830184610f62565b7f4e487b7100000000000000000000000000000000000000000000000000000000600052603260045260246000fd5b60008161127857611278610e88565b507fffffffffffffffffffffffffffffffffffffffffffffffffffffffffffffffff0190565b600181815b808511156112f757817fffffffffffffffffffffffffffffffffffffffffffffffffffffffffffffffff048211156112dd576112dd610e88565b808516156112ea57918102915b93841c93908002906112a3565b509250929050565b60008261130e575060016113ba565b8161131b575060006113ba565b8160018114611331576002811461133b57611357565b60019150506113ba565b60ff84111561134c5761134c610e88565b50506001821b6113ba565b5060208310610133831016604e8410600b841016171561137a575081810a6113ba565b611384838361129e565b807fffffffffffffffffffffffffffffffffffffffffffffffffffffffffffffffff048211156113b6576113b6610e88565b0290505b92915050565b600061047c83836112ff56fea26469706673582212206dcc476282833d2f69cfa00e9e0caf114d59152ef8cae3a4168593280e91a96364736f6c63430008090033",
  "linkReferences": {},
  "deployedLinkReferences": {}
}