{
  "_format": "hh-sol-artifact-1",
  "contractName": "MessageBusSender",
  "sourceName": "sgn-v2-contracts/contracts/message/messagebus/MessageBusSender.sol",
  "abi": [
    {
      "inputs": [
        {
          "internalType": "contract ISigsVerifier",
          "name": "_sigsVerifier",
          "type": "address"
        }
      ],
      "stateMutability": "nonpayable",
      "type": "constructor"
    },
    {
      "anonymous": false,
      "inputs": [
        {
          "indexed": false,
          "internalType": "uint256",
          "name": "feeBase",
          "type": "uint256"
        }
      ],
      "name": "FeeBaseUpdated",
      "type": "event"
    },
    {
      "anonymous": false,
      "inputs": [
        {
          "indexed": false,
          "internalType": "uint256",
          "name": "feePerByte",
          "type": "uint256"
        }
      ],
      "name": "FeePerByteUpdated",
      "type": "event"
    },
    {
      "anonymous": false,
      "inputs": [
        {
          "indexed": true,
          "internalType": "address",
          "name": "sender",
          "type": "address"
        },
        {
          "indexed": false,
          "internalType": "address",
          "name": "receiver",
          "type": "address"
        },
        {
          "indexed": false,
          "internalType": "uint256",
          "name": "dstChainId",
          "type": "uint256"
        },
        {
          "indexed": false,
          "internalType": "bytes",
          "name": "message",
          "type": "bytes"
        },
        {
          "indexed": false,
          "internalType": "uint256",
          "name": "fee",
          "type": "uint256"
        }
      ],
      "name": "Message",
      "type": "event"
    },
    {
      "anonymous": false,
      "inputs": [
        {
          "indexed": true,
          "internalType": "address",
          "name": "sender",
          "type": "address"
        },
        {
          "indexed": false,
          "internalType": "address",
          "name": "receiver",
          "type": "address"
        },
        {
          "indexed": false,
          "internalType": "uint256",
          "name": "dstChainId",
          "type": "uint256"
        },
        {
          "indexed": false,
          "internalType": "address",
          "name": "bridge",
          "type": "address"
        },
        {
          "indexed": false,
          "internalType": "bytes32",
          "name": "srcTransferId",
          "type": "bytes32"
        },
        {
          "indexed": false,
          "internalType": "bytes",
          "name": "message",
          "type": "bytes"
        },
        {
          "indexed": false,
          "internalType": "uint256",
          "name": "fee",
          "type": "uint256"
        }
      ],
      "name": "MessageWithTransfer",
      "type": "event"
    },
    {
      "anonymous": false,
      "inputs": [
        {
          "indexed": true,
          "internalType": "address",
          "name": "previousOwner",
          "type": "address"
        },
        {
          "indexed": true,
          "internalType": "address",
          "name": "newOwner",
          "type": "address"
        }
      ],
      "name": "OwnershipTransferred",
      "type": "event"
    },
    {
      "inputs": [
        {
          "internalType": "bytes",
          "name": "_message",
          "type": "bytes"
        }
      ],
      "name": "calcFee",
      "outputs": [
        {
          "internalType": "uint256",
          "name": "",
          "type": "uint256"
        }
      ],
      "stateMutability": "view",
      "type": "function"
    },
    {
      "inputs": [],
      "name": "feeBase",
      "outputs": [
        {
          "internalType": "uint256",
          "name": "",
          "type": "uint256"
        }
      ],
      "stateMutability": "view",
      "type": "function"
    },
    {
      "inputs": [],
      "name": "feePerByte",
      "outputs": [
        {
          "internalType": "uint256",
          "name": "",
          "type": "uint256"
        }
      ],
      "stateMutability": "view",
      "type": "function"
    },
    {
      "inputs": [],
      "name": "owner",
      "outputs": [
        {
          "internalType": "address",
          "name": "",
          "type": "address"
        }
      ],
      "stateMutability": "view",
      "type": "function"
    },
    {
      "inputs": [
        {
          "internalType": "address",
          "name": "_receiver",
          "type": "address"
        },
        {
          "internalType": "uint256",
          "name": "_dstChainId",
          "type": "uint256"
        },
        {
          "internalType": "bytes",
          "name": "_message",
          "type": "bytes"
        }
      ],
      "name": "sendMessage",
      "outputs": [],
      "stateMutability": "payable",
      "type": "function"
    },
    {
      "inputs": [
        {
          "internalType": "address",
          "name": "_receiver",
          "type": "address"
        },
        {
          "internalType": "uint256",
          "name": "_dstChainId",
          "type": "uint256"
        },
        {
          "internalType": "address",
          "name": "_srcBridge",
          "type": "address"
        },
        {
          "internalType": "bytes32",
          "name": "_srcTransferId",
          "type": "bytes32"
        },
        {
          "internalType": "bytes",
          "name": "_message",
          "type": "bytes"
        }
      ],
      "name": "sendMessageWithTransfer",
      "outputs": [],
      "stateMutability": "payable",
      "type": "function"
    },
    {
      "inputs": [
        {
          "internalType": "uint256",
          "name": "_fee",
          "type": "uint256"
        }
      ],
      "name": "setFeeBase",
      "outputs": [],
      "stateMutability": "nonpayable",
      "type": "function"
    },
    {
      "inputs": [
        {
          "internalType": "uint256",
          "name": "_fee",
          "type": "uint256"
        }
      ],
      "name": "setFeePerByte",
      "outputs": [],
      "stateMutability": "nonpayable",
      "type": "function"
    },
    {
      "inputs": [],
      "name": "sigsVerifier",
      "outputs": [
        {
          "internalType": "contract ISigsVerifier",
          "name": "",
          "type": "address"
        }
      ],
      "stateMutability": "view",
      "type": "function"
    },
    {
      "inputs": [
        {
          "internalType": "address",
          "name": "newOwner",
          "type": "address"
        }
      ],
      "name": "transferOwnership",
      "outputs": [],
      "stateMutability": "nonpayable",
      "type": "function"
    },
    {
      "inputs": [
        {
          "internalType": "address",
          "name": "_account",
          "type": "address"
        },
        {
          "internalType": "uint256",
          "name": "_cumulativeFee",
          "type": "uint256"
        },
        {
          "internalType": "bytes[]",
          "name": "_sigs",
          "type": "bytes[]"
        },
        {
          "internalType": "address[]",
          "name": "_signers",
          "type": "address[]"
        },
        {
          "internalType": "uint256[]",
          "name": "_powers",
          "type": "uint256[]"
        }
      ],
      "name": "withdrawFee",
      "outputs": [],
      "stateMutability": "nonpayable",
      "type": "function"
    },
    {
      "inputs": [
        {
          "internalType": "address",
          "name": "",
          "type": "address"
        }
      ],
      "name": "withdrawnFees",
      "outputs": [
        {
          "internalType": "uint256",
          "name": "",
          "type": "uint256"
        }
      ],
      "stateMutability": "view",
      "type": "function"
    }
  ],
  "bytecode": "0x60a060405234801561001057600080fd5b5060405161131a38038061131a83398101604081905261002f91610099565b61003833610049565b6001600160a01b03166080526100c9565b600080546001600160a01b038381166001600160a01b0319831681178455604051919092169283917f8be0079c531659141344cd1fd0a4f28419497f9722a3daafe3b4186f6b6457e09190a35050565b6000602082840312156100ab57600080fd5b81516001600160a01b03811681146100c257600080fd5b9392505050565b60805161122f6100eb600039600081816102080152610470015261122f6000f3fe6080604052600436106100c75760003560e01c806395e911a811610074578063e2c1ed251161004e578063e2c1ed251461022a578063f2fde38b1461024a578063f60bbe2a1461026a57600080fd5b806395e911a8146101cd5780639f3ce55a146101e3578063ccf2683b146101f657600080fd5b80635335dca2116100a55780635335dca2146101215780635b3e5f50146101545780638da5cb5b1461018157600080fd5b806306c28bd6146100cc5780632ff4c411146100ee5780634289fbb31461010e575b600080fd5b3480156100d857600080fd5b506100ec6100e7366004610bb4565b610280565b005b3480156100fa57600080fd5b506100ec610109366004610c42565b61035e565b6100ec61011c366004610d38565b610679565b34801561012d57600080fd5b5061014161013c366004610db0565b6107be565b6040519081526020015b60405180910390f35b34801561016057600080fd5b5061014161016f366004610df2565b60036020526000908152604090205481565b34801561018d57600080fd5b5060005473ffffffffffffffffffffffffffffffffffffffff165b60405173ffffffffffffffffffffffffffffffffffffffff909116815260200161014b565b3480156101d957600080fd5b5061014160015481565b6100ec6101f1366004610e0d565b6107e2565b34801561020257600080fd5b506101a87f000000000000000000000000000000000000000000000000000000000000000081565b34801561023657600080fd5b506100ec610245366004610bb4565b610921565b34801561025657600080fd5b506100ec610265366004610df2565b6109f3565b34801561027657600080fd5b5061014160025481565b336102a060005473ffffffffffffffffffffffffffffffffffffffff1690565b73ffffffffffffffffffffffffffffffffffffffff1614610322576040517f08c379a000000000000000000000000000000000000000000000000000000000815260206004820181905260248201527f4f776e61626c653a2063616c6c6572206973206e6f7420746865206f776e657260448201526064015b60405180910390fd5b60018190556040518181527f892dfdc99ecd3bb4f2f2cb118dca02f0bd16640ff156d3c6459d4282e336a5f2906020015b60405180910390a150565b600046306040516020016103c792919091825260601b7fffffffffffffffffffffffffffffffffffffffff0000000000000000000000001660208201527f77697468647261774665650000000000000000000000000000000000000000006034820152603f0190565b604080518083037fffffffffffffffffffffffffffffffffffffffffffffffffffffffffffffffe0018152828252805160209182012090830181905260608c901b7fffffffffffffffffffffffffffffffffffffffff000000000000000000000000168383015260548084018c90528251808503909101815260748401928390527f682dbc220000000000000000000000000000000000000000000000000000000090925292507f000000000000000000000000000000000000000000000000000000000000000073ffffffffffffffffffffffffffffffffffffffff169163682dbc22916104c4918b908b908b908b908b908b90607801611002565b60006040518083038186803b1580156104dc57600080fd5b505afa1580156104f0573d6000803e3d6000fd5b5050505073ffffffffffffffffffffffffffffffffffffffff8916600090815260036020526040812054610524908a6110eb565b905060008111610590576040517f08c379a000000000000000000000000000000000000000000000000000000000815260206004820152601960248201527f4e6f206e657720616d6f756e7420746f207769746864726177000000000000006044820152606401610319565b73ffffffffffffffffffffffffffffffffffffffff8a166000818152600360205260408082208c90555190919061c35090849084818181858888f193505050503d80600081146105fc576040519150601f19603f3d011682016040523d82523d6000602084013e610601565b606091505b505090508061066c576040517f08c379a000000000000000000000000000000000000000000000000000000000815260206004820152601660248201527f6661696c656420746f20776974686472617720666565000000000000000000006044820152606401610319565b5050505050505050505050565b468514156106e3576040517f08c379a000000000000000000000000000000000000000000000000000000000815260206004820152600f60248201527f496e76616c696420636861696e496400000000000000000000000000000000006044820152606401610319565b60006106ef83836107be565b90508034101561075b576040517f08c379a000000000000000000000000000000000000000000000000000000000815260206004820152601060248201527f496e73756666696369656e7420666565000000000000000000000000000000006044820152606401610319565b3373ffffffffffffffffffffffffffffffffffffffff167f172762498a59a3bc4fed3f2b63f94f17ea0193cffdc304fe7d3eaf4d342d2f66888888888888346040516107ad9796959493929190611102565b60405180910390a250505050505050565b6002546000906107ce908361115c565b6001546107db9190611199565b9392505050565b4683141561084c576040517f08c379a000000000000000000000000000000000000000000000000000000000815260206004820152600f60248201527f496e76616c696420636861696e496400000000000000000000000000000000006044820152606401610319565b600061085883836107be565b9050803410156108c4576040517f08c379a000000000000000000000000000000000000000000000000000000000815260206004820152601060248201527f496e73756666696369656e7420666565000000000000000000000000000000006044820152606401610319565b3373ffffffffffffffffffffffffffffffffffffffff167fce3972bfffe49d317e1d128047a97a3d86b25c94f6f04409f988ef854d25e0e486868686346040516109129594939291906111b1565b60405180910390a25050505050565b3361094160005473ffffffffffffffffffffffffffffffffffffffff1690565b73ffffffffffffffffffffffffffffffffffffffff16146109be576040517f08c379a000000000000000000000000000000000000000000000000000000000815260206004820181905260248201527f4f776e61626c653a2063616c6c6572206973206e6f7420746865206f776e65726044820152606401610319565b60028190556040518181527f210d4d5d2d36d571207dac98e383e2441c684684c885fb2d7c54f8d24422074c90602001610353565b33610a1360005473ffffffffffffffffffffffffffffffffffffffff1690565b73ffffffffffffffffffffffffffffffffffffffff1614610a90576040517f08c379a000000000000000000000000000000000000000000000000000000000815260206004820181905260248201527f4f776e61626c653a2063616c6c6572206973206e6f7420746865206f776e65726044820152606401610319565b73ffffffffffffffffffffffffffffffffffffffff8116610b33576040517f08c379a000000000000000000000000000000000000000000000000000000000815260206004820152602660248201527f4f776e61626c653a206e6577206f776e657220697320746865207a65726f206160448201527f64647265737300000000000000000000000000000000000000000000000000006064820152608401610319565b610b3c81610b3f565b50565b6000805473ffffffffffffffffffffffffffffffffffffffff8381167fffffffffffffffffffffffff0000000000000000000000000000000000000000831681178455604051919092169283917f8be0079c531659141344cd1fd0a4f28419497f9722a3daafe3b4186f6b6457e09190a35050565b600060208284031215610bc657600080fd5b5035919050565b803573ffffffffffffffffffffffffffffffffffffffff81168114610bf157600080fd5b919050565b60008083601f840112610c0857600080fd5b50813567ffffffffffffffff811115610c2057600080fd5b6020830191508360208260051b8501011115610c3b57600080fd5b9250929050565b60008060008060008060008060a0898b031215610c5e57600080fd5b610c6789610bcd565b975060208901359650604089013567ffffffffffffffff80821115610c8b57600080fd5b610c978c838d01610bf6565b909850965060608b0135915080821115610cb057600080fd5b610cbc8c838d01610bf6565b909650945060808b0135915080821115610cd557600080fd5b50610ce28b828c01610bf6565b999c989b5096995094979396929594505050565b60008083601f840112610d0857600080fd5b50813567ffffffffffffffff811115610d2057600080fd5b602083019150836020828501011115610c3b57600080fd5b60008060008060008060a08789031215610d5157600080fd5b610d5a87610bcd565b955060208701359450610d6f60408801610bcd565b935060608701359250608087013567ffffffffffffffff811115610d9257600080fd5b610d9e89828a01610cf6565b979a9699509497509295939492505050565b60008060208385031215610dc357600080fd5b823567ffffffffffffffff811115610dda57600080fd5b610de685828601610cf6565b90969095509350505050565b600060208284031215610e0457600080fd5b6107db82610bcd565b60008060008060608587031215610e2357600080fd5b610e2c85610bcd565b935060208501359250604085013567ffffffffffffffff811115610e4f57600080fd5b610e5b87828801610cf6565b95989497509550505050565b8183528181602085013750600060208284010152600060207fffffffffffffffffffffffffffffffffffffffffffffffffffffffffffffffe0601f840116840101905092915050565b81835260006020808501808196508560051b810191508460005b87811015610f5257828403895281357fffffffffffffffffffffffffffffffffffffffffffffffffffffffffffffffe1883603018112610f0957600080fd5b8701803567ffffffffffffffff811115610f2257600080fd5b803603891315610f3157600080fd5b610f3e8682898501610e67565b9a87019a9550505090840190600101610eca565b5091979650505050505050565b8183526000602080850194508260005b85811015610fa85773ffffffffffffffffffffffffffffffffffffffff610f9583610bcd565b1687529582019590820190600101610f6f565b509495945050505050565b81835260007f07ffffffffffffffffffffffffffffffffffffffffffffffffffffffffffffff831115610fe557600080fd5b8260051b8083602087013760009401602001938452509192915050565b608081526000885180608084015260005b81811015611030576020818c0181015160a0868401015201611013565b8181111561104257600060a083860101525b50601f017fffffffffffffffffffffffffffffffffffffffffffffffffffffffffffffffe016820182810360a09081016020850152611084908201898b610eb0565b90508281036040840152611099818789610f5f565b905082810360608401526110ae818587610fb3565b9a9950505050505050505050565b7f4e487b7100000000000000000000000000000000000000000000000000000000600052601160045260246000fd5b6000828210156110fd576110fd6110bc565b500390565b600073ffffffffffffffffffffffffffffffffffffffff808a16835288602084015280881660408401525085606083015260c0608083015261114860c083018587610e67565b90508260a083015298975050505050505050565b6000817fffffffffffffffffffffffffffffffffffffffffffffffffffffffffffffffff0483118215151615611194576111946110bc565b500290565b600082198211156111ac576111ac6110bc565b500190565b73ffffffffffffffffffffffffffffffffffffffff861681528460208201526080604082015260006111e7608083018587610e67565b9050826060830152969550505050505056fea26469706673582212209f47acc17dcd9ea746e04299e96660103cce1f9c9e0e5481e68fb6e77da03ac864736f6c63430008090033",
  "linkReferences": {},
  "deployedLinkReferences": {}
}