{
  "_format": "hh-sol-artifact-1",
  "contractName": "S2sPangolinDapp",
  "sourceName": "contracts/examples/s2s/S2sPangolinDapp.sol",
  "abi": [
    {
      "inputs": [
        {
          "internalType": "address",
          "name": "_gatewayAddress",
          "type": "address"
        }
      ],
      "stateMutability": "nonpayable",
      "type": "constructor"
    },
    {
      "inputs": [],
      "name": "gatewayAddress",
      "outputs": [
        {
          "internalType": "address",
          "name": "",
          "type": "address"
        }
      ],
      "stateMutability": "view",
      "type": "function"
    },
    {
      "inputs": [
        {
          "internalType": "address",
          "name": "pangoroDapp",
          "type": "address"
        }
      ],
      "name": "remoteAdd",
      "outputs": [],
      "stateMutability": "payable",
      "type": "function"
    }
  ],
  "bytecode": "0x608060405234801561001057600080fd5b5060405161035238038061035283398101604081905261002f91610054565b600080546001600160a01b0319166001600160a01b0392909216919091179055610084565b60006020828403121561006657600080fd5b81516001600160a01b038116811461007d57600080fd5b9392505050565b6102bf806100936000396000f3fe6080604052600436106100295760003560e01c80638b851b951461002e578063e706bf6b14610084575b600080fd5b34801561003a57600080fd5b5060005461005b9073ffffffffffffffffffffffffffffffffffffffff1681565b60405173ffffffffffffffffffffffffffffffffffffffff909116815260200160405180910390f35b610097610092366004610192565b610099565b005b604080516002602082015260009101604080517fffffffffffffffffffffffffffffffffffffffffffffffffffffffffffffffe0818403018152908290526000547f0d1e73bf00000000000000000000000000000000000000000000000000000000835290925073ffffffffffffffffffffffffffffffffffffffff1690630d1e73bf90349061013b908690869061c3509065023c3dc23c36906004016101cf565b6020604051808303818588803b15801561015457600080fd5b505af1158015610168573d6000803e3d6000fd5b50505050506040513d601f19601f8201168201806040525081019061018d9190610270565b505050565b6000602082840312156101a457600080fd5b813573ffffffffffffffffffffffffffffffffffffffff811681146101c857600080fd5b9392505050565b73ffffffffffffffffffffffffffffffffffffffff8516815260006020608081840152855180608085015260005b818110156102195787810183015185820160a0015282016101fd565b8181111561022b57600060a083870101525b5060a07fffffffffffffffffffffffffffffffffffffffffffffffffffffffffffffffe0601f8301168501019250505083604083015282606083015295945050505050565b60006020828403121561028257600080fd5b505191905056fea2646970667358221220ed912ae63056c6d3dbc81f5af3dd25d12420e4956654c7c3f0f6529322cf970f64736f6c63430008090033",
  "linkReferences": {},
  "deployedLinkReferences": {}
}