{
  "_format": "hh-sol-artifact-1",
  "contractName": "PangolinDapp",
  "sourceName": "contracts/examples/PangolinDapp.sol",
  "abi": [
    {
      "inputs": [
        {
          "internalType": "address",
          "name": "_fromDappAddress",
          "type": "address"
        },
        {
          "internalType": "bytes",
          "name": "_message",
          "type": "bytes"
        }
      ],
      "name": "recv",
      "outputs": [],
      "stateMutability": "nonpayable",
      "type": "function"
    },
    {
      "inputs": [],
      "name": "sum",
      "outputs": [
        {
          "internalType": "uint256",
          "name": "",
          "type": "uint256"
        }
      ],
      "stateMutability": "view",
      "type": "function"
    }
  ],
  "bytecode": "0x608060405234801561001057600080fd5b506101be806100206000396000f3fe608060405234801561001057600080fd5b50600436106100365760003560e01c806304a1b8421461003b578063853255cc14610050575b600080fd5b61004e610049366004610092565b61006b565b005b61005960005481565b60405190815260200160405180910390f35b600061007982840184610130565b9050806000546100899190610149565b60005550505050565b6000806000604084860312156100a757600080fd5b833573ffffffffffffffffffffffffffffffffffffffff811681146100cb57600080fd5b9250602084013567ffffffffffffffff808211156100e857600080fd5b818601915086601f8301126100fc57600080fd5b81358181111561010b57600080fd5b87602082850101111561011d57600080fd5b6020830194508093505050509250925092565b60006020828403121561014257600080fd5b5035919050565b60008219821115610183577f4e487b7100000000000000000000000000000000000000000000000000000000600052601160045260246000fd5b50019056fea2646970667358221220f9742d9ab72d6cdc6c3aaabb3fae053d8fe9c887f8bba268e52f6a497092535164736f6c63430008090033",
  "linkReferences": {},
  "deployedLinkReferences": {}
}