{
  "_format": "hh-sol-artifact-1",
  "contractName": "MessageBus",
  "sourceName": "sgn-v2-contracts/contracts/message/messagebus/MessageBus.sol",
  "abi": [
    {
      "inputs": [
        {
          "internalType": "contract ISigsVerifier",
          "name": "_sigsVerifier",
          "type": "address"
        },
        {
          "internalType": "address",
          "name": "_liquidityBridge",
          "type": "address"
        },
        {
          "internalType": "address",
          "name": "_pegBridge",
          "type": "address"
        },
        {
          "internalType": "address",
          "name": "_pegVault",
          "type": "address"
        },
        {
          "internalType": "address",
          "name": "_pegBridgeV2",
          "type": "address"
        },
        {
          "internalType": "address",
          "name": "_pegVaultV2",
          "type": "address"
        }
      ],
      "stateMutability": "nonpayable",
      "type": "constructor"
    },
    {
      "anonymous": false,
      "inputs": [
        {
          "indexed": false,
          "internalType": "string",
          "name": "reason",
          "type": "string"
        }
      ],
      "name": "CallReverted",
      "type": "event"
    },
    {
      "anonymous": false,
      "inputs": [
        {
          "indexed": false,
          "internalType": "enum MsgDataTypes.MsgType",
          "name": "msgType",
          "type": "uint8"
        },
        {
          "indexed": false,
          "internalType": "bytes32",
          "name": "msgId",
          "type": "bytes32"
        },
        {
          "indexed": false,
          "internalType": "enum MsgDataTypes.TxStatus",
          "name": "status",
          "type": "uint8"
        },
        {
          "indexed": true,
          "internalType": "address",
          "name": "receiver",
          "type": "address"
        },
        {
          "indexed": false,
          "internalType": "uint64",
          "name": "srcChainId",
          "type": "uint64"
        },
        {
          "indexed": false,
          "internalType": "bytes32",
          "name": "srcTxHash",
          "type": "bytes32"
        }
      ],
      "name": "Executed",
      "type": "event"
    },
    {
      "anonymous": false,
      "inputs": [
        {
          "indexed": false,
          "internalType": "uint256",
          "name": "feeBase",
          "type": "uint256"
        }
      ],
      "name": "FeeBaseUpdated",
      "type": "event"
    },
    {
      "anonymous": false,
      "inputs": [
        {
          "indexed": false,
          "internalType": "uint256",
          "name": "feePerByte",
          "type": "uint256"
        }
      ],
      "name": "FeePerByteUpdated",
      "type": "event"
    },
    {
      "anonymous": false,
      "inputs": [
        {
          "indexed": false,
          "internalType": "address",
          "name": "liquidityBridge",
          "type": "address"
        }
      ],
      "name": "LiquidityBridgeUpdated",
      "type": "event"
    },
    {
      "anonymous": false,
      "inputs": [
        {
          "indexed": true,
          "internalType": "address",
          "name": "sender",
          "type": "address"
        },
        {
          "indexed": false,
          "internalType": "address",
          "name": "receiver",
          "type": "address"
        },
        {
          "indexed": false,
          "internalType": "uint256",
          "name": "dstChainId",
          "type": "uint256"
        },
        {
          "indexed": false,
          "internalType": "bytes",
          "name": "message",
          "type": "bytes"
        },
        {
          "indexed": false,
          "internalType": "uint256",
          "name": "fee",
          "type": "uint256"
        }
      ],
      "name": "Message",
      "type": "event"
    },
    {
      "anonymous": false,
      "inputs": [
        {
          "indexed": true,
          "internalType": "address",
          "name": "sender",
          "type": "address"
        },
        {
          "indexed": false,
          "internalType": "address",
          "name": "receiver",
          "type": "address"
        },
        {
          "indexed": false,
          "internalType": "uint256",
          "name": "dstChainId",
          "type": "uint256"
        },
        {
          "indexed": false,
          "internalType": "address",
          "name": "bridge",
          "type": "address"
        },
        {
          "indexed": false,
          "internalType": "bytes32",
          "name": "srcTransferId",
          "type": "bytes32"
        },
        {
          "indexed": false,
          "internalType": "bytes",
          "name": "message",
          "type": "bytes"
        },
        {
          "indexed": false,
          "internalType": "uint256",
          "name": "fee",
          "type": "uint256"
        }
      ],
      "name": "MessageWithTransfer",
      "type": "event"
    },
    {
      "anonymous": false,
      "inputs": [
        {
          "indexed": false,
          "internalType": "enum MsgDataTypes.MsgType",
          "name": "msgType",
          "type": "uint8"
        },
        {
          "indexed": false,
          "internalType": "bytes32",
          "name": "msgId",
          "type": "bytes32"
        },
        {
          "indexed": false,
          "internalType": "uint64",
          "name": "srcChainId",
          "type": "uint64"
        },
        {
          "indexed": false,
          "internalType": "bytes32",
          "name": "srcTxHash",
          "type": "bytes32"
        }
      ],
      "name": "NeedRetry",
      "type": "event"
    },
    {
      "anonymous": false,
      "inputs": [
        {
          "indexed": true,
          "internalType": "address",
          "name": "previousOwner",
          "type": "address"
        },
        {
          "indexed": true,
          "internalType": "address",
          "name": "newOwner",
          "type": "address"
        }
      ],
      "name": "OwnershipTransferred",
      "type": "event"
    },
    {
      "anonymous": false,
      "inputs": [
        {
          "indexed": false,
          "internalType": "address",
          "name": "pegBridge",
          "type": "address"
        }
      ],
      "name": "PegBridgeUpdated",
      "type": "event"
    },
    {
      "anonymous": false,
      "inputs": [
        {
          "indexed": false,
          "internalType": "address",
          "name": "pegBridgeV2",
          "type": "address"
        }
      ],
      "name": "PegBridgeV2Updated",
      "type": "event"
    },
    {
      "anonymous": false,
      "inputs": [
        {
          "indexed": false,
          "internalType": "address",
          "name": "pegVault",
          "type": "address"
        }
      ],
      "name": "PegVaultUpdated",
      "type": "event"
    },
    {
      "anonymous": false,
      "inputs": [
        {
          "indexed": false,
          "internalType": "address",
          "name": "pegVaultV2",
          "type": "address"
        }
      ],
      "name": "PegVaultV2Updated",
      "type": "event"
    },
    {
      "inputs": [
        {
          "internalType": "bytes",
          "name": "_message",
          "type": "bytes"
        }
      ],
      "name": "calcFee",
      "outputs": [
        {
          "internalType": "uint256",
          "name": "",
          "type": "uint256"
        }
      ],
      "stateMutability": "view",
      "type": "function"
    },
    {
      "inputs": [
        {
          "internalType": "bytes",
          "name": "_message",
          "type": "bytes"
        },
        {
          "components": [
            {
              "internalType": "address",
              "name": "sender",
              "type": "address"
            },
            {
              "internalType": "address",
              "name": "receiver",
              "type": "address"
            },
            {
              "internalType": "uint64",
              "name": "srcChainId",
              "type": "uint64"
            },
            {
              "internalType": "bytes32",
              "name": "srcTxHash",
              "type": "bytes32"
            }
          ],
          "internalType": "struct MsgDataTypes.RouteInfo",
          "name": "_route",
          "type": "tuple"
        },
        {
          "internalType": "bytes[]",
          "name": "_sigs",
          "type": "bytes[]"
        },
        {
          "internalType": "address[]",
          "name": "_signers",
          "type": "address[]"
        },
        {
          "internalType": "uint256[]",
          "name": "_powers",
          "type": "uint256[]"
        }
      ],
      "name": "executeMessage",
      "outputs": [],
      "stateMutability": "payable",
      "type": "function"
    },
    {
      "inputs": [
        {
          "internalType": "bytes",
          "name": "_message",
          "type": "bytes"
        },
        {
          "components": [
            {
              "internalType": "enum MsgDataTypes.TransferType",
              "name": "t",
              "type": "uint8"
            },
            {
              "internalType": "address",
              "name": "sender",
              "type": "address"
            },
            {
              "internalType": "address",
              "name": "receiver",
              "type": "address"
            },
            {
              "internalType": "address",
              "name": "token",
              "type": "address"
            },
            {
              "internalType": "uint256",
              "name": "amount",
              "type": "uint256"
            },
            {
              "internalType": "uint64",
              "name": "wdseq",
              "type": "uint64"
            },
            {
              "internalType": "uint64",
              "name": "srcChainId",
              "type": "uint64"
            },
            {
              "internalType": "bytes32",
              "name": "refId",
              "type": "bytes32"
            },
            {
              "internalType": "bytes32",
              "name": "srcTxHash",
              "type": "bytes32"
            }
          ],
          "internalType": "struct MsgDataTypes.TransferInfo",
          "name": "_transfer",
          "type": "tuple"
        },
        {
          "internalType": "bytes[]",
          "name": "_sigs",
          "type": "bytes[]"
        },
        {
          "internalType": "address[]",
          "name": "_signers",
          "type": "address[]"
        },
        {
          "internalType": "uint256[]",
          "name": "_powers",
          "type": "uint256[]"
        }
      ],
      "name": "executeMessageWithTransfer",
      "outputs": [],
      "stateMutability": "payable",
      "type": "function"
    },
    {
      "inputs": [
        {
          "internalType": "bytes",
          "name": "_message",
          "type": "bytes"
        },
        {
          "components": [
            {
              "internalType": "enum MsgDataTypes.TransferType",
              "name": "t",
              "type": "uint8"
            },
            {
              "internalType": "address",
              "name": "sender",
              "type": "address"
            },
            {
              "internalType": "address",
              "name": "receiver",
              "type": "address"
            },
            {
              "internalType": "address",
              "name": "token",
              "type": "address"
            },
            {
              "internalType": "uint256",
              "name": "amount",
              "type": "uint256"
            },
            {
              "internalType": "uint64",
              "name": "wdseq",
              "type": "uint64"
            },
            {
              "internalType": "uint64",
              "name": "srcChainId",
              "type": "uint64"
            },
            {
              "internalType": "bytes32",
              "name": "refId",
              "type": "bytes32"
            },
            {
              "internalType": "bytes32",
              "name": "srcTxHash",
              "type": "bytes32"
            }
          ],
          "internalType": "struct MsgDataTypes.TransferInfo",
          "name": "_transfer",
          "type": "tuple"
        },
        {
          "internalType": "bytes[]",
          "name": "_sigs",
          "type": "bytes[]"
        },
        {
          "internalType": "address[]",
          "name": "_signers",
          "type": "address[]"
        },
        {
          "internalType": "uint256[]",
          "name": "_powers",
          "type": "uint256[]"
        }
      ],
      "name": "executeMessageWithTransferRefund",
      "outputs": [],
      "stateMutability": "payable",
      "type": "function"
    },
    {
      "inputs": [
        {
          "internalType": "bytes32",
          "name": "",
          "type": "bytes32"
        }
      ],
      "name": "executedMessages",
      "outputs": [
        {
          "internalType": "enum MsgDataTypes.TxStatus",
          "name": "",
          "type": "uint8"
        }
      ],
      "stateMutability": "view",
      "type": "function"
    },
    {
      "inputs": [],
      "name": "feeBase",
      "outputs": [
        {
          "internalType": "uint256",
          "name": "",
          "type": "uint256"
        }
      ],
      "stateMutability": "view",
      "type": "function"
    },
    {
      "inputs": [],
      "name": "feePerByte",
      "outputs": [
        {
          "internalType": "uint256",
          "name": "",
          "type": "uint256"
        }
      ],
      "stateMutability": "view",
      "type": "function"
    },
    {
      "inputs": [
        {
          "internalType": "address",
          "name": "_liquidityBridge",
          "type": "address"
        },
        {
          "internalType": "address",
          "name": "_pegBridge",
          "type": "address"
        },
        {
          "internalType": "address",
          "name": "_pegVault",
          "type": "address"
        },
        {
          "internalType": "address",
          "name": "_pegBridgeV2",
          "type": "address"
        },
        {
          "internalType": "address",
          "name": "_pegVaultV2",
          "type": "address"
        }
      ],
      "name": "init",
      "outputs": [],
      "stateMutability": "nonpayable",
      "type": "function"
    },
    {
      "inputs": [],
      "name": "liquidityBridge",
      "outputs": [
        {
          "internalType": "address",
          "name": "",
          "type": "address"
        }
      ],
      "stateMutability": "view",
      "type": "function"
    },
    {
      "inputs": [],
      "name": "owner",
      "outputs": [
        {
          "internalType": "address",
          "name": "",
          "type": "address"
        }
      ],
      "stateMutability": "view",
      "type": "function"
    },
    {
      "inputs": [],
      "name": "pegBridge",
      "outputs": [
        {
          "internalType": "address",
          "name": "",
          "type": "address"
        }
      ],
      "stateMutability": "view",
      "type": "function"
    },
    {
      "inputs": [],
      "name": "pegBridgeV2",
      "outputs": [
        {
          "internalType": "address",
          "name": "",
          "type": "address"
        }
      ],
      "stateMutability": "view",
      "type": "function"
    },
    {
      "inputs": [],
      "name": "pegVault",
      "outputs": [
        {
          "internalType": "address",
          "name": "",
          "type": "address"
        }
      ],
      "stateMutability": "view",
      "type": "function"
    },
    {
      "inputs": [],
      "name": "pegVaultV2",
      "outputs": [
        {
          "internalType": "address",
          "name": "",
          "type": "address"
        }
      ],
      "stateMutability": "view",
      "type": "function"
    },
    {
      "inputs": [],
      "name": "preExecuteMessageGasUsage",
      "outputs": [
        {
          "internalType": "uint256",
          "name": "",
          "type": "uint256"
        }
      ],
      "stateMutability": "view",
      "type": "function"
    },
    {
      "inputs": [
        {
          "components": [
            {
              "internalType": "bytes",
              "name": "request",
              "type": "bytes"
            },
            {
              "internalType": "bytes[]",
              "name": "sigs",
              "type": "bytes[]"
            },
            {
              "internalType": "address[]",
              "name": "signers",
              "type": "address[]"
            },
            {
              "internalType": "uint256[]",
              "name": "powers",
              "type": "uint256[]"
            }
          ],
          "internalType": "struct MsgDataTypes.BridgeTransferParams",
          "name": "_transferParams",
          "type": "tuple"
        },
        {
          "components": [
            {
              "internalType": "bytes",
              "name": "message",
              "type": "bytes"
            },
            {
              "components": [
                {
                  "internalType": "enum MsgDataTypes.TransferType",
                  "name": "t",
                  "type": "uint8"
                },
                {
                  "internalType": "address",
                  "name": "sender",
                  "type": "address"
                },
                {
                  "internalType": "address",
                  "name": "receiver",
                  "type": "address"
                },
                {
                  "internalType": "address",
                  "name": "token",
                  "type": "address"
                },
                {
                  "internalType": "uint256",
                  "name": "amount",
                  "type": "uint256"
                },
                {
                  "internalType": "uint64",
                  "name": "wdseq",
                  "type": "uint64"
                },
                {
                  "internalType": "uint64",
                  "name": "srcChainId",
                  "type": "uint64"
                },
                {
                  "internalType": "bytes32",
                  "name": "refId",
                  "type": "bytes32"
                },
                {
                  "internalType": "bytes32",
                  "name": "srcTxHash",
                  "type": "bytes32"
                }
              ],
              "internalType": "struct MsgDataTypes.TransferInfo",
              "name": "transfer",
              "type": "tuple"
            },
            {
              "internalType": "bytes[]",
              "name": "sigs",
              "type": "bytes[]"
            },
            {
              "internalType": "address[]",
              "name": "signers",
              "type": "address[]"
            },
            {
              "internalType": "uint256[]",
              "name": "powers",
              "type": "uint256[]"
            }
          ],
          "internalType": "struct MsgDataTypes.MsgWithTransferExecutionParams",
          "name": "_msgParams",
          "type": "tuple"
        }
      ],
      "name": "refundAndExecuteMsg",
      "outputs": [],
      "stateMutability": "nonpayable",
      "type": "function"
    },
    {
      "inputs": [
        {
          "internalType": "address",
          "name": "_receiver",
          "type": "address"
        },
        {
          "internalType": "uint256",
          "name": "_dstChainId",
          "type": "uint256"
        },
        {
          "internalType": "bytes",
          "name": "_message",
          "type": "bytes"
        }
      ],
      "name": "sendMessage",
      "outputs": [],
      "stateMutability": "payable",
      "type": "function"
    },
    {
      "inputs": [
        {
          "internalType": "address",
          "name": "_receiver",
          "type": "address"
        },
        {
          "internalType": "uint256",
          "name": "_dstChainId",
          "type": "uint256"
        },
        {
          "internalType": "address",
          "name": "_srcBridge",
          "type": "address"
        },
        {
          "internalType": "bytes32",
          "name": "_srcTransferId",
          "type": "bytes32"
        },
        {
          "internalType": "bytes",
          "name": "_message",
          "type": "bytes"
        }
      ],
      "name": "sendMessageWithTransfer",
      "outputs": [],
      "stateMutability": "payable",
      "type": "function"
    },
    {
      "inputs": [
        {
          "internalType": "uint256",
          "name": "_fee",
          "type": "uint256"
        }
      ],
      "name": "setFeeBase",
      "outputs": [],
      "stateMutability": "nonpayable",
      "type": "function"
    },
    {
      "inputs": [
        {
          "internalType": "uint256",
          "name": "_fee",
          "type": "uint256"
        }
      ],
      "name": "setFeePerByte",
      "outputs": [],
      "stateMutability": "nonpayable",
      "type": "function"
    },
    {
      "inputs": [
        {
          "internalType": "address",
          "name": "_addr",
          "type": "address"
        }
      ],
      "name": "setLiquidityBridge",
      "outputs": [],
      "stateMutability": "nonpayable",
      "type": "function"
    },
    {
      "inputs": [
        {
          "internalType": "address",
          "name": "_addr",
          "type": "address"
        }
      ],
      "name": "setPegBridge",
      "outputs": [],
      "stateMutability": "nonpayable",
      "type": "function"
    },
    {
      "inputs": [
        {
          "internalType": "address",
          "name": "_addr",
          "type": "address"
        }
      ],
      "name": "setPegBridgeV2",
      "outputs": [],
      "stateMutability": "nonpayable",
      "type": "function"
    },
    {
      "inputs": [
        {
          "internalType": "address",
          "name": "_addr",
          "type": "address"
        }
      ],
      "name": "setPegVault",
      "outputs": [],
      "stateMutability": "nonpayable",
      "type": "function"
    },
    {
      "inputs": [
        {
          "internalType": "address",
          "name": "_addr",
          "type": "address"
        }
      ],
      "name": "setPegVaultV2",
      "outputs": [],
      "stateMutability": "nonpayable",
      "type": "function"
    },
    {
      "inputs": [
        {
          "internalType": "uint256",
          "name": "_usage",
          "type": "uint256"
        }
      ],
      "name": "setPreExecuteMessageGasUsage",
      "outputs": [],
      "stateMutability": "nonpayable",
      "type": "function"
    },
    {
      "inputs": [],
      "name": "sigsVerifier",
      "outputs": [
        {
          "internalType": "contract ISigsVerifier",
          "name": "",
          "type": "address"
        }
      ],
      "stateMutability": "view",
      "type": "function"
    },
    {
      "inputs": [
        {
          "components": [
            {
              "internalType": "bytes",
              "name": "request",
              "type": "bytes"
            },
            {
              "internalType": "bytes[]",
              "name": "sigs",
              "type": "bytes[]"
            },
            {
              "internalType": "address[]",
              "name": "signers",
              "type": "address[]"
            },
            {
              "internalType": "uint256[]",
              "name": "powers",
              "type": "uint256[]"
            }
          ],
          "internalType": "struct MsgDataTypes.BridgeTransferParams",
          "name": "_transferParams",
          "type": "tuple"
        },
        {
          "components": [
            {
              "internalType": "bytes",
              "name": "message",
              "type": "bytes"
            },
            {
              "components": [
                {
                  "internalType": "enum MsgDataTypes.TransferType",
                  "name": "t",
                  "type": "uint8"
                },
                {
                  "internalType": "address",
                  "name": "sender",
                  "type": "address"
                },
                {
                  "internalType": "address",
                  "name": "receiver",
                  "type": "address"
                },
                {
                  "internalType": "address",
                  "name": "token",
                  "type": "address"
                },
                {
                  "internalType": "uint256",
                  "name": "amount",
                  "type": "uint256"
                },
                {
                  "internalType": "uint64",
                  "name": "wdseq",
                  "type": "uint64"
                },
                {
                  "internalType": "uint64",
                  "name": "srcChainId",
                  "type": "uint64"
                },
                {
                  "internalType": "bytes32",
                  "name": "refId",
                  "type": "bytes32"
                },
                {
                  "internalType": "bytes32",
                  "name": "srcTxHash",
                  "type": "bytes32"
                }
              ],
              "internalType": "struct MsgDataTypes.TransferInfo",
              "name": "transfer",
              "type": "tuple"
            },
            {
              "internalType": "bytes[]",
              "name": "sigs",
              "type": "bytes[]"
            },
            {
              "internalType": "address[]",
              "name": "signers",
              "type": "address[]"
            },
            {
              "internalType": "uint256[]",
              "name": "powers",
              "type": "uint256[]"
            }
          ],
          "internalType": "struct MsgDataTypes.MsgWithTransferExecutionParams",
          "name": "_msgParams",
          "type": "tuple"
        }
      ],
      "name": "transferAndExecuteMsg",
      "outputs": [],
      "stateMutability": "nonpayable",
      "type": "function"
    },
    {
      "inputs": [
        {
          "internalType": "address",
          "name": "newOwner",
          "type": "address"
        }
      ],
      "name": "transferOwnership",
      "outputs": [],
      "stateMutability": "nonpayable",
      "type": "function"
    },
    {
      "inputs": [
        {
          "internalType": "address",
          "name": "_account",
          "type": "address"
        },
        {
          "internalType": "uint256",
          "name": "_cumulativeFee",
          "type": "uint256"
        },
        {
          "internalType": "bytes[]",
          "name": "_sigs",
          "type": "bytes[]"
        },
        {
          "internalType": "address[]",
          "name": "_signers",
          "type": "address[]"
        },
        {
          "internalType": "uint256[]",
          "name": "_powers",
          "type": "uint256[]"
        }
      ],
      "name": "withdrawFee",
      "outputs": [],
      "stateMutability": "nonpayable",
      "type": "function"
    },
    {
      "inputs": [
        {
          "internalType": "address",
          "name": "",
          "type": "address"
        }
      ],
      "name": "withdrawnFees",
      "outputs": [
        {
          "internalType": "uint256",
          "name": "",
          "type": "uint256"
        }
      ],
      "stateMutability": "view",
      "type": "function"
    }
  ],
  "bytecode": "0x60a06040523480156200001157600080fd5b50604051620048143803806200481483398101604081905262000034916200011d565b84848484848a6200004533620000b4565b6001600160a01b03908116608052600580546001600160a01b0319908116978316979097179055600680548716958216959095179094556007805486169385169390931790925560088054851691841691909117905560098054909316911617905550620001b1945050505050565b600080546001600160a01b038381166001600160a01b0319831681178455604051919092169283917f8be0079c531659141344cd1fd0a4f28419497f9722a3daafe3b4186f6b6457e09190a35050565b6001600160a01b03811681146200011a57600080fd5b50565b60008060008060008060c087890312156200013757600080fd5b8651620001448162000104565b6020880151909650620001578162000104565b60408801519095506200016a8162000104565b60608801519094506200017d8162000104565b6080880151909350620001908162000104565b60a0880151909250620001a38162000104565b809150509295509295509295565b608051614640620001d4600039600081816104f3015261099f01526146406000f3fe6080604052600436106101d85760003560e01c806382980dc411610102578063ccf2683b11610095578063e2c1ed2511610064578063e2c1ed25146105ac578063f2fde38b146105cc578063f60bbe2a146105ec578063f83b0fb91461060257600080fd5b8063ccf2683b146104e1578063cd2abd6614610515578063d8257d1714610552578063dfa2dbaf1461057f57600080fd5b806395e911a8116100d157806395e911a81461046b5780639b05a775146104815780639f3ce55a146104a1578063c66a9c5a146104b457600080fd5b806382980dc4146103a157806382efd502146103f35780638da5cb5b1461041357806395b12c271461043e57600080fd5b80634586f3311161017a578063588be02b11610149578063588be02b146103215780635b3e5f5014610341578063723d0a9d1461036e5780637b80ab201461038e57600080fd5b80634586f331146102a5578063468a2d04146102c55780635335dca2146102d8578063584e45e11461030b57600080fd5b8063359ef75b116101b6578063359ef75b1461023f5780633f395aff1461025f57806340d0d026146102725780634289fbb31461029257600080fd5b806303cbfe66146101dd57806306c28bd6146101ff5780632ff4c4111461021f575b600080fd5b3480156101e957600080fd5b506101fd6101f83660046136fa565b610622565b005b34801561020b57600080fd5b506101fd61021a366004613715565b6107bb565b34801561022b57600080fd5b506101fd61023a36600461377a565b61088d565b34801561024b57600080fd5b506101fd61025a36600461382e565b610ba8565b6101fd61026d3660046138d5565b610bc4565b34801561027e57600080fd5b506101fd61028d3660046139fc565b610f5d565b6101fd6102a0366004613a68565b610fb5565b3480156102b157600080fd5b506101fd6102c0366004613715565b6110fa565b6101fd6102d3366004613ae0565b61119c565b3480156102e457600080fd5b506102f86102f3366004613ba5565b6114ca565b6040519081526020015b60405180910390f35b34801561031757600080fd5b506102f8600a5481565b34801561032d57600080fd5b506101fd61033c3660046136fa565b6114f0565b34801561034d57600080fd5b506102f861035c3660046136fa565b60036020526000908152604090205481565b34801561037a57600080fd5b506101fd6103893660046139fc565b61167d565b6101fd61039c3660046138d5565b6116cb565b3480156103ad57600080fd5b506005546103ce9073ffffffffffffffffffffffffffffffffffffffff1681565b60405173ffffffffffffffffffffffffffffffffffffffff9091168152602001610302565b3480156103ff57600080fd5b506101fd61040e3660046136fa565b611962565b34801561041f57600080fd5b5060005473ffffffffffffffffffffffffffffffffffffffff166103ce565b34801561044a57600080fd5b506008546103ce9073ffffffffffffffffffffffffffffffffffffffff1681565b34801561047757600080fd5b506102f860015481565b34801561048d57600080fd5b506101fd61049c3660046136fa565b611aef565b6101fd6104af366004613be7565b611c7c565b3480156104c057600080fd5b506009546103ce9073ffffffffffffffffffffffffffffffffffffffff1681565b3480156104ed57600080fd5b506103ce7f000000000000000000000000000000000000000000000000000000000000000081565b34801561052157600080fd5b50610545610530366004613715565b60046020526000908152604090205460ff1681565b6040516103029190613c84565b34801561055e57600080fd5b506007546103ce9073ffffffffffffffffffffffffffffffffffffffff1681565b34801561058b57600080fd5b506006546103ce9073ffffffffffffffffffffffffffffffffffffffff1681565b3480156105b857600080fd5b506101fd6105c7366004613715565b611dbb565b3480156105d857600080fd5b506101fd6105e73660046136fa565b611e8d565b3480156105f857600080fd5b506102f860025481565b34801561060e57600080fd5b506101fd61061d3660046136fa565b611fd9565b3361064260005473ffffffffffffffffffffffffffffffffffffffff1690565b73ffffffffffffffffffffffffffffffffffffffff16146106c4576040517f08c379a000000000000000000000000000000000000000000000000000000000815260206004820181905260248201527f4f776e61626c653a2063616c6c6572206973206e6f7420746865206f776e657260448201526064015b60405180910390fd5b73ffffffffffffffffffffffffffffffffffffffff8116610741576040517f08c379a000000000000000000000000000000000000000000000000000000000815260206004820152600f60248201527f696e76616c69642061646472657373000000000000000000000000000000000060448201526064016106bb565b600680547fffffffffffffffffffffffff00000000000000000000000000000000000000001673ffffffffffffffffffffffffffffffffffffffff83169081179091556040519081527fd60e9ceb4f54f1bfb1741a4b35fc9d806d7ed48200b523203b92248ea38fa17d906020015b60405180910390a150565b336107db60005473ffffffffffffffffffffffffffffffffffffffff1690565b73ffffffffffffffffffffffffffffffffffffffff1614610858576040517f08c379a000000000000000000000000000000000000000000000000000000000815260206004820181905260248201527f4f776e61626c653a2063616c6c6572206973206e6f7420746865206f776e657260448201526064016106bb565b60018190556040518181527f892dfdc99ecd3bb4f2f2cb118dca02f0bd16640ff156d3c6459d4282e336a5f2906020016107b0565b600046306040516020016108f692919091825260601b7fffffffffffffffffffffffffffffffffffffffff0000000000000000000000001660208201527f77697468647261774665650000000000000000000000000000000000000000006034820152603f0190565b604080518083037fffffffffffffffffffffffffffffffffffffffffffffffffffffffffffffffe0018152828252805160209182012090830181905260608c901b7fffffffffffffffffffffffffffffffffffffffff000000000000000000000000168383015260548084018c90528251808503909101815260748401928390527f682dbc220000000000000000000000000000000000000000000000000000000090925292507f000000000000000000000000000000000000000000000000000000000000000073ffffffffffffffffffffffffffffffffffffffff169163682dbc22916109f3918b908b908b908b908b908b90607801613ea7565b60006040518083038186803b158015610a0b57600080fd5b505afa158015610a1f573d6000803e3d6000fd5b5050505073ffffffffffffffffffffffffffffffffffffffff8916600090815260036020526040812054610a53908a613f34565b905060008111610abf576040517f08c379a000000000000000000000000000000000000000000000000000000000815260206004820152601960248201527f4e6f206e657720616d6f756e7420746f2077697468647261770000000000000060448201526064016106bb565b73ffffffffffffffffffffffffffffffffffffffff8a166000818152600360205260408082208c90555190919061c35090849084818181858888f193505050503d8060008114610b2b576040519150601f19603f3d011682016040523d82523d6000602084013e610b30565b606091505b5050905080610b9b576040517f08c379a000000000000000000000000000000000000000000000000000000000815260206004820152601660248201527f6661696c656420746f207769746864726177206665650000000000000000000060448201526064016106bb565b5050505050505050505050565b610bb0612166565b610bbd85858585856121f1565b5050505050565b6000610bcf886122f5565b90506000808281526004602081905260409091205460ff1690811115610bf757610bf7613c41565b14610c5e576040517f08c379a000000000000000000000000000000000000000000000000000000000815260206004820152601960248201527f7472616e7366657220616c72656164792065786563757465640000000000000060448201526064016106bb565b600081815260046020818152604080842080547fffffffffffffffffffffffffffffffffffffffffffffffffffffffffffffff0016909317909255815146918101919091527fffffffffffffffffffffffffffffffffffffffff0000000000000000000000003060601b16918101919091527f4d657373616765576974685472616e73666572000000000000000000000000006054820152606701604051602081830303815290604052805190602001209050600560009054906101000a900473ffffffffffffffffffffffffffffffffffffffff1673ffffffffffffffffffffffffffffffffffffffff1663682dbc2282848e8e8e6101000135604051602001610d6d959493929190613f4b565b6040516020818303038152906040528a8a8a8a8a8a6040518863ffffffff1660e01b8152600401610da49796959493929190613ea7565b60006040518083038186803b158015610dbc57600080fd5b505afa158015610dd0573d6000803e3d6000fd5b50505050600080610de28b8e8e612e66565b90506001816002811115610df857610df8613c41565b1415610e075760019150610eef565b6002816002811115610e1b57610e1b613c41565b1415610eba57600084815260046020526040812080547fffffffffffffffffffffffffffffffffffffffffffffffffffffffffffffff00166001835b02179055507fe49c2c954d381d1448cf824743aeff9da7a1d82078a7c9e5817269cc359bd26c6000858d60c0016020810190610e939190613f6d565b8e6101000135604051610ea99493929190613fa7565b60405180910390a150505050610f52565b610ec58b8e8e613012565b90506001816002811115610edb57610edb613c41565b1415610eea5760039150610eef565b600291505b6000848152600460208190526040909120805484927fffffffffffffffffffffffffffffffffffffffffffffffffffffffffffffff00909116906001908490811115610f3d57610f3d613c41565b0217905550610f4d84838d613073565b505050505b505050505050505050565b610f76610f706040830160208401613fda565b836130f2565b610fb1610f838280613ffb565b60208401610f95610140860186614060565b610fa3610160880188614060565b61039c6101808a018a614060565b5050565b4685141561101f576040517f08c379a000000000000000000000000000000000000000000000000000000000815260206004820152600f60248201527f496e76616c696420636861696e4964000000000000000000000000000000000060448201526064016106bb565b600061102b83836114ca565b905080341015611097576040517f08c379a000000000000000000000000000000000000000000000000000000000815260206004820152601060248201527f496e73756666696369656e74206665650000000000000000000000000000000060448201526064016106bb565b3373ffffffffffffffffffffffffffffffffffffffff167f172762498a59a3bc4fed3f2b63f94f17ea0193cffdc304fe7d3eaf4d342d2f66888888888888346040516110e997969594939291906140c8565b60405180910390a250505050505050565b3361111a60005473ffffffffffffffffffffffffffffffffffffffff1690565b73ffffffffffffffffffffffffffffffffffffffff1614611197576040517f08c379a000000000000000000000000000000000000000000000000000000000815260206004820181905260248201527f4f776e61626c653a2063616c6c6572206973206e6f7420746865206f776e657260448201526064016106bb565b600a55565b60006111a9888b8b61339f565b90506000808281526004602081905260409091205460ff16908111156111d1576111d1613c41565b14611238576040517f08c379a000000000000000000000000000000000000000000000000000000000815260206004820152601860248201527f6d65737361676520616c7265616479206578656375746564000000000000000060448201526064016106bb565b60008181526004602081815260409283902080547fffffffffffffffffffffffffffffffffffffffffffffffffffffffffffffff0016909217909155815146818301523060601b7fffffffffffffffffffffffffffffffffffffffff00000000000000000000000016818401527f4d6573736167650000000000000000000000000000000000000000000000000060548201528251603b818303018152605b820184528051920191909120600554607b8301829052609b8084018690528451808503909101815260bb8401948590527f682dbc2200000000000000000000000000000000000000000000000000000000909452909273ffffffffffffffffffffffffffffffffffffffff9091169163682dbc2291611364918c908c908c908c908c908c9060bf01613ea7565b60006040518083038186803b15801561137c57600080fd5b505afa158015611390573d6000803e3d6000fd5b505050506000806113a28b8e8e61340e565b905060018160028111156113b8576113b8613c41565b14156113c7576001915061146c565b60028160028111156113db576113db613c41565b141561146757600084815260046020526040812080547fffffffffffffffffffffffffffffffffffffffffffffffffffffffffffffff001660018302179055507fe49c2c954d381d1448cf824743aeff9da7a1d82078a7c9e5817269cc359bd26c6001858d60400160208101906114529190613f6d565b8e60600135604051610ea99493929190613fa7565b600291505b6000848152600460208190526040909120805484927fffffffffffffffffffffffffffffffffffffffffffffffffffffffffffffff009091169060019084908111156114ba576114ba613c41565b0217905550610f4d84838d613493565b6002546000906114da9083614122565b6001546114e7919061415f565b90505b92915050565b3361151060005473ffffffffffffffffffffffffffffffffffffffff1690565b73ffffffffffffffffffffffffffffffffffffffff161461158d576040517f08c379a000000000000000000000000000000000000000000000000000000000815260206004820181905260248201527f4f776e61626c653a2063616c6c6572206973206e6f7420746865206f776e657260448201526064016106bb565b73ffffffffffffffffffffffffffffffffffffffff811661160a576040517f08c379a000000000000000000000000000000000000000000000000000000000815260206004820152600f60248201527f696e76616c69642061646472657373000000000000000000000000000000000060448201526064016106bb565b600580547fffffffffffffffffffffffff00000000000000000000000000000000000000001673ffffffffffffffffffffffffffffffffffffffff83169081179091556040519081527fbf9977180dc6e6cff25598c8e59150cecd7f8e448e092633d38ab7ee223ae058906020016107b0565b611690610f706040830160208401613fda565b610fb161169d8280613ffb565b602084016116af610140860186614060565b6116bd610160880188614060565b61026d6101808a018a614060565b60006116d6886122f5565b90506000808281526004602081905260409091205460ff16908111156116fe576116fe613c41565b14611765576040517f08c379a000000000000000000000000000000000000000000000000000000000815260206004820152601960248201527f7472616e7366657220616c72656164792065786563757465640000000000000060448201526064016106bb565b600081815260046020818152604080842080547fffffffffffffffffffffffffffffffffffffffffffffffffffffffffffffff0016909317909255815146918101919091527fffffffffffffffffffffffffffffffffffffffff0000000000000000000000003060601b16918101919091527f4d657373616765576974685472616e73666572526566756e64000000000000006054820152606d01604051602081830303815290604052805190602001209050600560009054906101000a900473ffffffffffffffffffffffffffffffffffffffff1673ffffffffffffffffffffffffffffffffffffffff1663682dbc2282848e8e8e6101000135604051602001611874959493929190613f4b565b6040516020818303038152906040528a8a8a8a8a8a6040518863ffffffff1660e01b81526004016118ab9796959493929190613ea7565b60006040518083038186803b1580156118c357600080fd5b505afa1580156118d7573d6000803e3d6000fd5b505050506000806118e98b8e8e613504565b905060018160028111156118ff576118ff613c41565b141561190e5760019150610eef565b600281600281111561192257611922613c41565b1415610eea57600084815260046020526040812080547fffffffffffffffffffffffffffffffffffffffffffffffffffffffffffffff0016600183610e57565b3361198260005473ffffffffffffffffffffffffffffffffffffffff1690565b73ffffffffffffffffffffffffffffffffffffffff16146119ff576040517f08c379a000000000000000000000000000000000000000000000000000000000815260206004820181905260248201527f4f776e61626c653a2063616c6c6572206973206e6f7420746865206f776e657260448201526064016106bb565b73ffffffffffffffffffffffffffffffffffffffff8116611a7c576040517f08c379a000000000000000000000000000000000000000000000000000000000815260206004820152600f60248201527f696e76616c69642061646472657373000000000000000000000000000000000060448201526064016106bb565b600880547fffffffffffffffffffffffff00000000000000000000000000000000000000001673ffffffffffffffffffffffffffffffffffffffff83169081179091556040519081527ffb337a6c76476534518d5816caeb86263972470fedccfd047a35eb1825eaa9e8906020016107b0565b33611b0f60005473ffffffffffffffffffffffffffffffffffffffff1690565b73ffffffffffffffffffffffffffffffffffffffff1614611b8c576040517f08c379a000000000000000000000000000000000000000000000000000000000815260206004820181905260248201527f4f776e61626c653a2063616c6c6572206973206e6f7420746865206f776e657260448201526064016106bb565b73ffffffffffffffffffffffffffffffffffffffff8116611c09576040517f08c379a000000000000000000000000000000000000000000000000000000000815260206004820152600f60248201527f696e76616c69642061646472657373000000000000000000000000000000000060448201526064016106bb565b600780547fffffffffffffffffffffffff00000000000000000000000000000000000000001673ffffffffffffffffffffffffffffffffffffffff83169081179091556040519081527fa9db0c32d9c6c2f75f3b95047a9e67cc1c010eab792a4e6ca777ce918ad94aad906020016107b0565b46831415611ce6576040517f08c379a000000000000000000000000000000000000000000000000000000000815260206004820152600f60248201527f496e76616c696420636861696e4964000000000000000000000000000000000060448201526064016106bb565b6000611cf283836114ca565b905080341015611d5e576040517f08c379a000000000000000000000000000000000000000000000000000000000815260206004820152601060248201527f496e73756666696369656e74206665650000000000000000000000000000000060448201526064016106bb565b3373ffffffffffffffffffffffffffffffffffffffff167fce3972bfffe49d317e1d128047a97a3d86b25c94f6f04409f988ef854d25e0e48686868634604051611dac959493929190614177565b60405180910390a25050505050565b33611ddb60005473ffffffffffffffffffffffffffffffffffffffff1690565b73ffffffffffffffffffffffffffffffffffffffff1614611e58576040517f08c379a000000000000000000000000000000000000000000000000000000000815260206004820181905260248201527f4f776e61626c653a2063616c6c6572206973206e6f7420746865206f776e657260448201526064016106bb565b60028190556040518181527f210d4d5d2d36d571207dac98e383e2441c684684c885fb2d7c54f8d24422074c906020016107b0565b33611ead60005473ffffffffffffffffffffffffffffffffffffffff1690565b73ffffffffffffffffffffffffffffffffffffffff1614611f2a576040517f08c379a000000000000000000000000000000000000000000000000000000000815260206004820181905260248201527f4f776e61626c653a2063616c6c6572206973206e6f7420746865206f776e657260448201526064016106bb565b73ffffffffffffffffffffffffffffffffffffffff8116611fcd576040517f08c379a000000000000000000000000000000000000000000000000000000000815260206004820152602660248201527f4f776e61626c653a206e6577206f776e657220697320746865207a65726f206160448201527f646472657373000000000000000000000000000000000000000000000000000060648201526084016106bb565b611fd681613581565b50565b33611ff960005473ffffffffffffffffffffffffffffffffffffffff1690565b73ffffffffffffffffffffffffffffffffffffffff1614612076576040517f08c379a000000000000000000000000000000000000000000000000000000000815260206004820181905260248201527f4f776e61626c653a2063616c6c6572206973206e6f7420746865206f776e657260448201526064016106bb565b73ffffffffffffffffffffffffffffffffffffffff81166120f3576040517f08c379a000000000000000000000000000000000000000000000000000000000815260206004820152600f60248201527f696e76616c69642061646472657373000000000000000000000000000000000060448201526064016106bb565b600980547fffffffffffffffffffffffff00000000000000000000000000000000000000001673ffffffffffffffffffffffffffffffffffffffff83169081179091556040519081527f918a691a2a82482a10e11f43d7b627b2ba220dd08f251cb61933c42560f6fcb5906020016107b0565b60005473ffffffffffffffffffffffffffffffffffffffff16156121e6576040517f08c379a000000000000000000000000000000000000000000000000000000000815260206004820152601160248201527f6f776e657220616c72656164792073657400000000000000000000000000000060448201526064016106bb565b6121ef33613581565b565b60055473ffffffffffffffffffffffffffffffffffffffff1615612271576040517f08c379a000000000000000000000000000000000000000000000000000000000815260206004820152601b60248201527f6c697175696469747942726964676520616c726561647920736574000000000060448201526064016106bb565b600580547fffffffffffffffffffffffff000000000000000000000000000000000000000090811673ffffffffffffffffffffffffffffffffffffffff978816179091556006805482169587169590951790945560078054851693861693909317909255600880548416918516919091179055600980549092169216919091179055565b6000808060016123086020860186613fda565b600681111561231957612319613c41565b14156125425761232f60408501602086016136fa565b61233f60608601604087016136fa565b61234f60808701606088016136fa565b608087013561236460e0890160c08a01613f6d565b6040517fffffffffffffffffffffffffffffffffffffffff000000000000000000000000606096871b8116602083015294861b851660348201529290941b9092166048820152605c8101919091527fffffffffffffffff00000000000000000000000000000000000000000000000060c092831b8116607c8301524690921b909116608482015260e0850135608c82015260ac01604080518083037fffffffffffffffffffffffffffffffffffffffffffffffffffffffffffffffe00181529082905280516020909101206005547f3c64f04b0000000000000000000000000000000000000000000000000000000083526004830182905290935073ffffffffffffffffffffffffffffffffffffffff1691508190633c64f04b9060240160206040518083038186803b15801561249a57600080fd5b505afa1580156124ae573d6000803e3d6000fd5b505050506040513d601f19601f820116820180604052508101906124d291906141bf565b151560011461253d576040517f08c379a000000000000000000000000000000000000000000000000000000000815260206004820152601660248201527f6272696467652072656c6179206e6f742065786973740000000000000000000060448201526064016106bb565b612e31565b60026125516020860186613fda565b600681111561256257612562613c41565b141561275d574661257960c0860160a08701613f6d565b61258960608701604088016136fa565b61259960808801606089016136fa565b6040517fffffffffffffffff00000000000000000000000000000000000000000000000060c095861b811660208301529390941b90921660288401527fffffffffffffffffffffffffffffffffffffffff000000000000000000000000606091821b8116603085015291901b16604482015260808501356058820152607801604080518083037fffffffffffffffffffffffffffffffffffffffffffffffffffffffffffffffe00181529082905280516020909101206005547fe09ab4280000000000000000000000000000000000000000000000000000000083526004830182905290935073ffffffffffffffffffffffffffffffffffffffff169150819063e09ab4289060240160206040518083038186803b1580156126ba57600080fd5b505afa1580156126ce573d6000803e3d6000fd5b505050506040513d601f19601f820116820180604052508101906126f291906141bf565b151560011461253d576040517f08c379a000000000000000000000000000000000000000000000000000000000815260206004820152601960248201527f627269646765207769746864726177206e6f742065786973740000000000000060448201526064016106bb565b600361276c6020860186613fda565b600681111561277d5761277d613c41565b14806127a6575060046127936020860186613fda565b60068111156127a4576127a4613c41565b145b15612af6576127bb60608501604086016136fa565b6127cb60808601606087016136fa565b60808601356127e060408801602089016136fa565b6127f060e0890160c08a01613f6d565b604051606095861b7fffffffffffffffffffffffffffffffffffffffff000000000000000000000000908116602083015294861b851660348201526048810193909352931b909116606882015260c09190911b7fffffffffffffffff00000000000000000000000000000000000000000000000016607c82015260e0850135608482015260a401604080517fffffffffffffffffffffffffffffffffffffffffffffffffffffffffffffffe08184030181529190528051602090910120915060036128be6020860186613fda565b60068111156128cf576128cf613c41565b14156129e657506006546040517f01e647250000000000000000000000000000000000000000000000000000000081526004810183905273ffffffffffffffffffffffffffffffffffffffff9091169081906301e64725906024015b60206040518083038186803b15801561294357600080fd5b505afa158015612957573d6000803e3d6000fd5b505050506040513d601f19601f8201168201806040525081019061297b91906141bf565b151560011461253d576040517f08c379a000000000000000000000000000000000000000000000000000000000815260206004820152601560248201527f6d696e74207265636f7264206e6f74206578697374000000000000000000000060448201526064016106bb565b506007546040517f01e647250000000000000000000000000000000000000000000000000000000081526004810183905273ffffffffffffffffffffffffffffffffffffffff9091169081906301e647259060240160206040518083038186803b158015612a5357600080fd5b505afa158015612a67573d6000803e3d6000fd5b505050506040513d601f19601f82011682018060405250810190612a8b91906141bf565b151560011461253d576040517f08c379a000000000000000000000000000000000000000000000000000000000815260206004820152601960248201527f7769746864726177207265636f7264206e6f742065786973740000000000000060448201526064016106bb565b6005612b056020860186613fda565b6006811115612b1657612b16613c41565b1480612b3f57506006612b2c6020860186613fda565b6006811115612b3d57612b3d613c41565b145b15612e31576005612b536020860186613fda565b6006811115612b6457612b64613c41565b1415612b89575060085473ffffffffffffffffffffffffffffffffffffffff16612ba4565b5060095473ffffffffffffffffffffffffffffffffffffffff165b612bb460608501604086016136fa565b612bc460808601606087016136fa565b6080860135612bd960408801602089016136fa565b612be960e0890160c08a01613f6d565b604051606095861b7fffffffffffffffffffffffffffffffffffffffff000000000000000000000000908116602083015294861b85166034820152604881019390935290841b8316606883015260c01b7fffffffffffffffff00000000000000000000000000000000000000000000000016607c82015260e087013560848201529183901b1660a482015260b801604080517fffffffffffffffffffffffffffffffffffffffffffffffffffffffffffffffe0818403018152919052805160209091012091506005612cbe6020860186613fda565b6006811115612ccf57612ccf613c41565b1415612d28576040517f01e647250000000000000000000000000000000000000000000000000000000081526004810183905273ffffffffffffffffffffffffffffffffffffffff8216906301e647259060240161292b565b6040517f01e647250000000000000000000000000000000000000000000000000000000081526004810183905273ffffffffffffffffffffffffffffffffffffffff8216906301e647259060240160206040518083038186803b158015612d8e57600080fd5b505afa158015612da2573d6000803e3d6000fd5b505050506040513d601f19601f82011682018060405250810190612dc691906141bf565b1515600114612e31576040517f08c379a000000000000000000000000000000000000000000000000000000000815260206004820152601960248201527f7769746864726177207265636f7264206e6f742065786973740000000000000060448201526064016106bb565b60008183604051602001612e47939291906141f8565b6040516020818303038152906040528051906020012092505050919050565b6000805a9050600080612e7f60608801604089016136fa565b73ffffffffffffffffffffffffffffffffffffffff16347f7cd2bffc00000000000000000000000000000000000000000000000000000000612ec760408b0160208c016136fa565b612ed760808c0160608d016136fa565b60808c0135612eec60e08e0160c08f01613f6d565b8c8c33604051602401612f05979695949392919061423c565b604080517fffffffffffffffffffffffffffffffffffffffffffffffffffffffffffffffe08184030181529181526020820180517bffffffffffffffffffffffffffffffffffffffffffffffffffffffff167fffffffff00000000000000000000000000000000000000000000000000000000909416939093179092529051612f8e91906142a2565b60006040518083038185875af1925050503d8060008114612fcb576040519150601f19603f3d011682016040523d82523d6000602084013e612fd0565b606091505b50915091508115612ff95780806020019051810190612fef91906142be565b935050505061300b565b61300383826135f6565b600093505050505b9392505050565b6000805a905060008061302b60608801604089016136fa565b73ffffffffffffffffffffffffffffffffffffffff16347f5ab7afc600000000000000000000000000000000000000000000000000000000612ec760408b0160208c016136fa565b61308360608201604083016136fa565b73ffffffffffffffffffffffffffffffffffffffff167fa635eb05143f74743822bbd96428928de4c8ee8cc578299749be9425c17bb34d600085856130ce60e0870160c08801613f6d565b8661010001356040516130e59594939291906142df565b60405180910390a2505050565b600182600681111561310657613106613c41565b14156131b45760055473ffffffffffffffffffffffffffffffffffffffff1663cdd1b25d6131348380613ffb565b6131416020860186614060565b61314e6040880188614060565b61315b60608a018a614060565b6040518963ffffffff1660e01b815260040161317e98979695949392919061431d565b600060405180830381600087803b15801561319857600080fd5b505af11580156131ac573d6000803e3d6000fd5b505050505050565b60028260068111156131c8576131c8613c41565b14156131f65760055473ffffffffffffffffffffffffffffffffffffffff1663a21a92806131348380613ffb565b600382600681111561320a5761320a613c41565b14156132385760065473ffffffffffffffffffffffffffffffffffffffff1663f87343026131348380613ffb565b600582600681111561324c5761324c613c41565b141561331b5760085473ffffffffffffffffffffffffffffffffffffffff1663f873430261327a8380613ffb565b6132876020860186614060565b6132946040880188614060565b6132a160608a018a614060565b6040518963ffffffff1660e01b81526004016132c498979695949392919061431d565b602060405180830381600087803b1580156132de57600080fd5b505af11580156132f2573d6000803e3d6000fd5b505050506040513d601f19601f82011682018060405250810190613316919061437d565b505050565b600482600681111561332f5761332f613c41565b141561335d5760075473ffffffffffffffffffffffffffffffffffffffff1663a21a92806131348380613ffb565b600682600681111561337157613371613c41565b1415610fb15760095473ffffffffffffffffffffffffffffffffffffffff1663a21a928061327a8380613ffb565b600060016133b060208601866136fa565b6133c060408701602088016136fa565b6133d06060880160408901613f6d565b87606001354688886040516020016133ef989796959493929190614396565b6040516020818303038152906040528051906020012090509392505050565b6000805a905060008061342760408801602089016136fa565b73ffffffffffffffffffffffffffffffffffffffff16347f9c649fdf0000000000000000000000000000000000000000000000000000000061346c60208b018b6136fa565b61347c60608c0160408d01613f6d565b8a8a33604051602401612f05959493929190614435565b6134a360408201602083016136fa565b73ffffffffffffffffffffffffffffffffffffffff167fa635eb05143f74743822bbd96428928de4c8ee8cc578299749be9425c17bb34d600185856134ee6060870160408801613f6d565b86606001356040516130e59594939291906142df565b6000805a905060008061351d60608801604089016136fa565b73ffffffffffffffffffffffffffffffffffffffff16347f0bcb49820000000000000000000000000000000000000000000000000000000061356560808b0160608c016136fa565b8a608001358a8a33604051602401612f0595949392919061448b565b6000805473ffffffffffffffffffffffffffffffffffffffff8381167fffffffffffffffffffffffff0000000000000000000000000000000000000000831681178455604051919092169283917f8be0079c531659141344cd1fd0a4f28419497f9722a3daafe3b4186f6b6457e09190a35050565b60005a90506000600a544561360b9190613f34565b9050808410801561362657506136226040856144c2565b8211155b1561362d57fe5b7fffdd6142bbb721f3400e3908b04b86f60649b2e4d191e3f4c50c32c3e6471d2f61365784613672565b60405161366491906144fd565b60405180910390a150505050565b60606044825110156136b757505060408051808201909152601d81527f5472616e73616374696f6e2072657665727465642073696c656e746c79000000602082015290565b600482019150818060200190518101906114ea919061453f565b803573ffffffffffffffffffffffffffffffffffffffff811681146136f557600080fd5b919050565b60006020828403121561370c57600080fd5b6114e7826136d1565b60006020828403121561372757600080fd5b5035919050565b60008083601f84011261374057600080fd5b50813567ffffffffffffffff81111561375857600080fd5b6020830191508360208260051b850101111561377357600080fd5b9250929050565b60008060008060008060008060a0898b03121561379657600080fd5b61379f896136d1565b975060208901359650604089013567ffffffffffffffff808211156137c357600080fd5b6137cf8c838d0161372e565b909850965060608b01359150808211156137e857600080fd5b6137f48c838d0161372e565b909650945060808b013591508082111561380d57600080fd5b5061381a8b828c0161372e565b999c989b5096995094979396929594505050565b600080600080600060a0868803121561384657600080fd5b61384f866136d1565b945061385d602087016136d1565b935061386b604087016136d1565b9250613879606087016136d1565b9150613887608087016136d1565b90509295509295909350565b60008083601f8401126138a557600080fd5b50813567ffffffffffffffff8111156138bd57600080fd5b60208301915083602082850101111561377357600080fd5b6000806000806000806000806000898b036101a08112156138f557600080fd5b8a3567ffffffffffffffff8082111561390d57600080fd5b6139198e838f01613893565b909c509a508a91506101207fffffffffffffffffffffffffffffffffffffffffffffffffffffffffffffffe08401121561395257600080fd5b60208d0199506101408d013592508083111561396d57600080fd5b6139798e848f0161372e565b90995097506101608d013592508891508083111561399657600080fd5b6139a28e848f0161372e565b90975095506101808d01359250869150808311156139bf57600080fd5b50506139cd8c828d0161372e565b915080935050809150509295985092959850929598565b6000608082840312156139f657600080fd5b50919050565b60008060408385031215613a0f57600080fd5b823567ffffffffffffffff80821115613a2757600080fd5b613a33868387016139e4565b93506020850135915080821115613a4957600080fd5b5083016101a08186031215613a5d57600080fd5b809150509250929050565b60008060008060008060a08789031215613a8157600080fd5b613a8a876136d1565b955060208701359450613a9f604088016136d1565b935060608701359250608087013567ffffffffffffffff811115613ac257600080fd5b613ace89828a01613893565b979a9699509497509295939492505050565b60008060008060008060008060006101008a8c031215613aff57600080fd5b893567ffffffffffffffff80821115613b1757600080fd5b613b238d838e01613893565b909b509950899150613b388d60208e016139e4565b985060a08c0135915080821115613b4e57600080fd5b613b5a8d838e0161372e565b909850965060c08c0135915080821115613b7357600080fd5b613b7f8d838e0161372e565b909650945060e08c0135915080821115613b9857600080fd5b506139cd8c828d0161372e565b60008060208385031215613bb857600080fd5b823567ffffffffffffffff811115613bcf57600080fd5b613bdb85828601613893565b90969095509350505050565b60008060008060608587031215613bfd57600080fd5b613c06856136d1565b935060208501359250604085013567ffffffffffffffff811115613c2957600080fd5b613c3587828801613893565b95989497509550505050565b7f4e487b7100000000000000000000000000000000000000000000000000000000600052602160045260246000fd5b60058110613c8057613c80613c41565b9052565b602081016114ea8284613c70565b60005b83811015613cad578181015183820152602001613c95565b83811115613cbc576000848401525b50505050565b60008151808452613cda816020860160208601613c92565b601f017fffffffffffffffffffffffffffffffffffffffffffffffffffffffffffffffe0169290920160200192915050565b8183528181602085013750600060208284010152600060207fffffffffffffffffffffffffffffffffffffffffffffffffffffffffffffffe0601f840116840101905092915050565b81835260006020808501808196508560051b810191508460005b87811015613df757828403895281357fffffffffffffffffffffffffffffffffffffffffffffffffffffffffffffffe1883603018112613dae57600080fd5b8701803567ffffffffffffffff811115613dc757600080fd5b803603891315613dd657600080fd5b613de38682898501613d0c565b9a87019a9550505090840190600101613d6f565b5091979650505050505050565b8183526000602080850194508260005b85811015613e4d5773ffffffffffffffffffffffffffffffffffffffff613e3a836136d1565b1687529582019590820190600101613e14565b509495945050505050565b81835260007f07ffffffffffffffffffffffffffffffffffffffffffffffffffffffffffffff831115613e8a57600080fd5b8260051b8083602087013760009401602001938452509192915050565b608081526000613eba608083018a613cc2565b8281036020840152613ecd81898b613d55565b90508281036040840152613ee2818789613e04565b90508281036060840152613ef7818587613e58565b9a9950505050505050505050565b7f4e487b7100000000000000000000000000000000000000000000000000000000600052601160045260246000fd5b600082821015613f4657613f46613f05565b500390565b8581528460208201528284604083013760409201918201526060019392505050565b600060208284031215613f7f57600080fd5b813567ffffffffffffffff8116811461300b57600080fd5b60028110613c8057613c80613c41565b60808101613fb58287613f97565b84602083015267ffffffffffffffff8416604083015282606083015295945050505050565b600060208284031215613fec57600080fd5b81356007811061300b57600080fd5b60008083357fffffffffffffffffffffffffffffffffffffffffffffffffffffffffffffffe184360301811261403057600080fd5b83018035915067ffffffffffffffff82111561404b57600080fd5b60200191503681900382131561377357600080fd5b60008083357fffffffffffffffffffffffffffffffffffffffffffffffffffffffffffffffe184360301811261409557600080fd5b83018035915067ffffffffffffffff8211156140b057600080fd5b6020019150600581901b360382131561377357600080fd5b600073ffffffffffffffffffffffffffffffffffffffff808a16835288602084015280881660408401525085606083015260c0608083015261410e60c083018587613d0c565b90508260a083015298975050505050505050565b6000817fffffffffffffffffffffffffffffffffffffffffffffffffffffffffffffffff048311821515161561415a5761415a613f05565b500290565b6000821982111561417257614172613f05565b500190565b73ffffffffffffffffffffffffffffffffffffffff861681528460208201526080604082015260006141ad608083018587613d0c565b90508260608301529695505050505050565b6000602082840312156141d157600080fd5b8151801515811461300b57600080fd5b600281106141f1576141f1613c41565b60f81b9052565b61420281856141e1565b60609290921b7fffffffffffffffffffffffffffffffffffffffff0000000000000000000000001660018301526015820152603501919050565b600073ffffffffffffffffffffffffffffffffffffffff808a168352808916602084015287604084015267ffffffffffffffff8716606084015260c0608084015261428b60c084018688613d0c565b915080841660a08401525098975050505050505050565b600082516142b4818460208701613c92565b9190910192915050565b6000602082840312156142d057600080fd5b81516003811061300b57600080fd5b60a081016142ed8288613f97565b8560208301526143006040830186613c70565b67ffffffffffffffff939093166060820152608001529392505050565b608081526000614331608083018a8c613d0c565b828103602084015261434481898b613d55565b90508281036040840152614359818789613e04565b9050828103606084015261436e818587613e58565b9b9a5050505050505050505050565b60006020828403121561438f57600080fd5b5051919050565b6143a0818a6141e1565b60007fffffffffffffffffffffffffffffffffffffffff000000000000000000000000808a60601b166001840152808960601b166015840152507fffffffffffffffff000000000000000000000000000000000000000000000000808860c01b166029840152866031840152808660c01b16605184015250828460598401375060009101605901908152979650505050505050565b600073ffffffffffffffffffffffffffffffffffffffff808816835267ffffffffffffffff8716602084015260806040840152614476608084018688613d0c565b91508084166060840152509695505050505050565b600073ffffffffffffffffffffffffffffffffffffffff808816835286602084015260806040840152614476608084018688613d0c565b6000826144f8577f4e487b7100000000000000000000000000000000000000000000000000000000600052601260045260246000fd5b500490565b6020815260006114e76020830184613cc2565b7f4e487b7100000000000000000000000000000000000000000000000000000000600052604160045260246000fd5b60006020828403121561455157600080fd5b815167ffffffffffffffff8082111561456957600080fd5b818401915084601f83011261457d57600080fd5b81518181111561458f5761458f614510565b604051601f82017fffffffffffffffffffffffffffffffffffffffffffffffffffffffffffffffe0908116603f011681019083821181831017156145d5576145d5614510565b816040528281528760208487010111156145ee57600080fd5b6145ff836020830160208801613c92565b97965050505050505056fea2646970667358221220e31df05bdea298d1f6e9470d4c75a9e2d70fd2e795a681042bfcf1f3d88a278564736f6c63430008090033",
  "linkReferences": {},
  "deployedLinkReferences": {}
}