{
  "_format": "hh-sol-artifact-1",
  "contractName": "MessageBusReceiver",
  "sourceName": "sgn-v2-contracts/contracts/message/messagebus/MessageBusReceiver.sol",
  "abi": [
    {
      "inputs": [
        {
          "internalType": "address",
          "name": "_liquidityBridge",
          "type": "address"
        },
        {
          "internalType": "address",
          "name": "_pegBridge",
          "type": "address"
        },
        {
          "internalType": "address",
          "name": "_pegVault",
          "type": "address"
        },
        {
          "internalType": "address",
          "name": "_pegBridgeV2",
          "type": "address"
        },
        {
          "internalType": "address",
          "name": "_pegVaultV2",
          "type": "address"
        }
      ],
      "stateMutability": "nonpayable",
      "type": "constructor"
    },
    {
      "anonymous": false,
      "inputs": [
        {
          "indexed": false,
          "internalType": "string",
          "name": "reason",
          "type": "string"
        }
      ],
      "name": "CallReverted",
      "type": "event"
    },
    {
      "anonymous": false,
      "inputs": [
        {
          "indexed": false,
          "internalType": "enum MsgDataTypes.MsgType",
          "name": "msgType",
          "type": "uint8"
        },
        {
          "indexed": false,
          "internalType": "bytes32",
          "name": "msgId",
          "type": "bytes32"
        },
        {
          "indexed": false,
          "internalType": "enum MsgDataTypes.TxStatus",
          "name": "status",
          "type": "uint8"
        },
        {
          "indexed": true,
          "internalType": "address",
          "name": "receiver",
          "type": "address"
        },
        {
          "indexed": false,
          "internalType": "uint64",
          "name": "srcChainId",
          "type": "uint64"
        },
        {
          "indexed": false,
          "internalType": "bytes32",
          "name": "srcTxHash",
          "type": "bytes32"
        }
      ],
      "name": "Executed",
      "type": "event"
    },
    {
      "anonymous": false,
      "inputs": [
        {
          "indexed": false,
          "internalType": "address",
          "name": "liquidityBridge",
          "type": "address"
        }
      ],
      "name": "LiquidityBridgeUpdated",
      "type": "event"
    },
    {
      "anonymous": false,
      "inputs": [
        {
          "indexed": false,
          "internalType": "enum MsgDataTypes.MsgType",
          "name": "msgType",
          "type": "uint8"
        },
        {
          "indexed": false,
          "internalType": "bytes32",
          "name": "msgId",
          "type": "bytes32"
        },
        {
          "indexed": false,
          "internalType": "uint64",
          "name": "srcChainId",
          "type": "uint64"
        },
        {
          "indexed": false,
          "internalType": "bytes32",
          "name": "srcTxHash",
          "type": "bytes32"
        }
      ],
      "name": "NeedRetry",
      "type": "event"
    },
    {
      "anonymous": false,
      "inputs": [
        {
          "indexed": true,
          "internalType": "address",
          "name": "previousOwner",
          "type": "address"
        },
        {
          "indexed": true,
          "internalType": "address",
          "name": "newOwner",
          "type": "address"
        }
      ],
      "name": "OwnershipTransferred",
      "type": "event"
    },
    {
      "anonymous": false,
      "inputs": [
        {
          "indexed": false,
          "internalType": "address",
          "name": "pegBridge",
          "type": "address"
        }
      ],
      "name": "PegBridgeUpdated",
      "type": "event"
    },
    {
      "anonymous": false,
      "inputs": [
        {
          "indexed": false,
          "internalType": "address",
          "name": "pegBridgeV2",
          "type": "address"
        }
      ],
      "name": "PegBridgeV2Updated",
      "type": "event"
    },
    {
      "anonymous": false,
      "inputs": [
        {
          "indexed": false,
          "internalType": "address",
          "name": "pegVault",
          "type": "address"
        }
      ],
      "name": "PegVaultUpdated",
      "type": "event"
    },
    {
      "anonymous": false,
      "inputs": [
        {
          "indexed": false,
          "internalType": "address",
          "name": "pegVaultV2",
          "type": "address"
        }
      ],
      "name": "PegVaultV2Updated",
      "type": "event"
    },
    {
      "inputs": [
        {
          "internalType": "bytes",
          "name": "_message",
          "type": "bytes"
        },
        {
          "components": [
            {
              "internalType": "address",
              "name": "sender",
              "type": "address"
            },
            {
              "internalType": "address",
              "name": "receiver",
              "type": "address"
            },
            {
              "internalType": "uint64",
              "name": "srcChainId",
              "type": "uint64"
            },
            {
              "internalType": "bytes32",
              "name": "srcTxHash",
              "type": "bytes32"
            }
          ],
          "internalType": "struct MsgDataTypes.RouteInfo",
          "name": "_route",
          "type": "tuple"
        },
        {
          "internalType": "bytes[]",
          "name": "_sigs",
          "type": "bytes[]"
        },
        {
          "internalType": "address[]",
          "name": "_signers",
          "type": "address[]"
        },
        {
          "internalType": "uint256[]",
          "name": "_powers",
          "type": "uint256[]"
        }
      ],
      "name": "executeMessage",
      "outputs": [],
      "stateMutability": "payable",
      "type": "function"
    },
    {
      "inputs": [
        {
          "internalType": "bytes",
          "name": "_message",
          "type": "bytes"
        },
        {
          "components": [
            {
              "internalType": "enum MsgDataTypes.TransferType",
              "name": "t",
              "type": "uint8"
            },
            {
              "internalType": "address",
              "name": "sender",
              "type": "address"
            },
            {
              "internalType": "address",
              "name": "receiver",
              "type": "address"
            },
            {
              "internalType": "address",
              "name": "token",
              "type": "address"
            },
            {
              "internalType": "uint256",
              "name": "amount",
              "type": "uint256"
            },
            {
              "internalType": "uint64",
              "name": "wdseq",
              "type": "uint64"
            },
            {
              "internalType": "uint64",
              "name": "srcChainId",
              "type": "uint64"
            },
            {
              "internalType": "bytes32",
              "name": "refId",
              "type": "bytes32"
            },
            {
              "internalType": "bytes32",
              "name": "srcTxHash",
              "type": "bytes32"
            }
          ],
          "internalType": "struct MsgDataTypes.TransferInfo",
          "name": "_transfer",
          "type": "tuple"
        },
        {
          "internalType": "bytes[]",
          "name": "_sigs",
          "type": "bytes[]"
        },
        {
          "internalType": "address[]",
          "name": "_signers",
          "type": "address[]"
        },
        {
          "internalType": "uint256[]",
          "name": "_powers",
          "type": "uint256[]"
        }
      ],
      "name": "executeMessageWithTransfer",
      "outputs": [],
      "stateMutability": "payable",
      "type": "function"
    },
    {
      "inputs": [
        {
          "internalType": "bytes",
          "name": "_message",
          "type": "bytes"
        },
        {
          "components": [
            {
              "internalType": "enum MsgDataTypes.TransferType",
              "name": "t",
              "type": "uint8"
            },
            {
              "internalType": "address",
              "name": "sender",
              "type": "address"
            },
            {
              "internalType": "address",
              "name": "receiver",
              "type": "address"
            },
            {
              "internalType": "address",
              "name": "token",
              "type": "address"
            },
            {
              "internalType": "uint256",
              "name": "amount",
              "type": "uint256"
            },
            {
              "internalType": "uint64",
              "name": "wdseq",
              "type": "uint64"
            },
            {
              "internalType": "uint64",
              "name": "srcChainId",
              "type": "uint64"
            },
            {
              "internalType": "bytes32",
              "name": "refId",
              "type": "bytes32"
            },
            {
              "internalType": "bytes32",
              "name": "srcTxHash",
              "type": "bytes32"
            }
          ],
          "internalType": "struct MsgDataTypes.TransferInfo",
          "name": "_transfer",
          "type": "tuple"
        },
        {
          "internalType": "bytes[]",
          "name": "_sigs",
          "type": "bytes[]"
        },
        {
          "internalType": "address[]",
          "name": "_signers",
          "type": "address[]"
        },
        {
          "internalType": "uint256[]",
          "name": "_powers",
          "type": "uint256[]"
        }
      ],
      "name": "executeMessageWithTransferRefund",
      "outputs": [],
      "stateMutability": "payable",
      "type": "function"
    },
    {
      "inputs": [
        {
          "internalType": "bytes32",
          "name": "",
          "type": "bytes32"
        }
      ],
      "name": "executedMessages",
      "outputs": [
        {
          "internalType": "enum MsgDataTypes.TxStatus",
          "name": "",
          "type": "uint8"
        }
      ],
      "stateMutability": "view",
      "type": "function"
    },
    {
      "inputs": [],
      "name": "liquidityBridge",
      "outputs": [
        {
          "internalType": "address",
          "name": "",
          "type": "address"
        }
      ],
      "stateMutability": "view",
      "type": "function"
    },
    {
      "inputs": [],
      "name": "owner",
      "outputs": [
        {
          "internalType": "address",
          "name": "",
          "type": "address"
        }
      ],
      "stateMutability": "view",
      "type": "function"
    },
    {
      "inputs": [],
      "name": "pegBridge",
      "outputs": [
        {
          "internalType": "address",
          "name": "",
          "type": "address"
        }
      ],
      "stateMutability": "view",
      "type": "function"
    },
    {
      "inputs": [],
      "name": "pegBridgeV2",
      "outputs": [
        {
          "internalType": "address",
          "name": "",
          "type": "address"
        }
      ],
      "stateMutability": "view",
      "type": "function"
    },
    {
      "inputs": [],
      "name": "pegVault",
      "outputs": [
        {
          "internalType": "address",
          "name": "",
          "type": "address"
        }
      ],
      "stateMutability": "view",
      "type": "function"
    },
    {
      "inputs": [],
      "name": "pegVaultV2",
      "outputs": [
        {
          "internalType": "address",
          "name": "",
          "type": "address"
        }
      ],
      "stateMutability": "view",
      "type": "function"
    },
    {
      "inputs": [],
      "name": "preExecuteMessageGasUsage",
      "outputs": [
        {
          "internalType": "uint256",
          "name": "",
          "type": "uint256"
        }
      ],
      "stateMutability": "view",
      "type": "function"
    },
    {
      "inputs": [
        {
          "components": [
            {
              "internalType": "bytes",
              "name": "request",
              "type": "bytes"
            },
            {
              "internalType": "bytes[]",
              "name": "sigs",
              "type": "bytes[]"
            },
            {
              "internalType": "address[]",
              "name": "signers",
              "type": "address[]"
            },
            {
              "internalType": "uint256[]",
              "name": "powers",
              "type": "uint256[]"
            }
          ],
          "internalType": "struct MsgDataTypes.BridgeTransferParams",
          "name": "_transferParams",
          "type": "tuple"
        },
        {
          "components": [
            {
              "internalType": "bytes",
              "name": "message",
              "type": "bytes"
            },
            {
              "components": [
                {
                  "internalType": "enum MsgDataTypes.TransferType",
                  "name": "t",
                  "type": "uint8"
                },
                {
                  "internalType": "address",
                  "name": "sender",
                  "type": "address"
                },
                {
                  "internalType": "address",
                  "name": "receiver",
                  "type": "address"
                },
                {
                  "internalType": "address",
                  "name": "token",
                  "type": "address"
                },
                {
                  "internalType": "uint256",
                  "name": "amount",
                  "type": "uint256"
                },
                {
                  "internalType": "uint64",
                  "name": "wdseq",
                  "type": "uint64"
                },
                {
                  "internalType": "uint64",
                  "name": "srcChainId",
                  "type": "uint64"
                },
                {
                  "internalType": "bytes32",
                  "name": "refId",
                  "type": "bytes32"
                },
                {
                  "internalType": "bytes32",
                  "name": "srcTxHash",
                  "type": "bytes32"
                }
              ],
              "internalType": "struct MsgDataTypes.TransferInfo",
              "name": "transfer",
              "type": "tuple"
            },
            {
              "internalType": "bytes[]",
              "name": "sigs",
              "type": "bytes[]"
            },
            {
              "internalType": "address[]",
              "name": "signers",
              "type": "address[]"
            },
            {
              "internalType": "uint256[]",
              "name": "powers",
              "type": "uint256[]"
            }
          ],
          "internalType": "struct MsgDataTypes.MsgWithTransferExecutionParams",
          "name": "_msgParams",
          "type": "tuple"
        }
      ],
      "name": "refundAndExecuteMsg",
      "outputs": [],
      "stateMutability": "nonpayable",
      "type": "function"
    },
    {
      "inputs": [
        {
          "internalType": "address",
          "name": "_addr",
          "type": "address"
        }
      ],
      "name": "setLiquidityBridge",
      "outputs": [],
      "stateMutability": "nonpayable",
      "type": "function"
    },
    {
      "inputs": [
        {
          "internalType": "address",
          "name": "_addr",
          "type": "address"
        }
      ],
      "name": "setPegBridge",
      "outputs": [],
      "stateMutability": "nonpayable",
      "type": "function"
    },
    {
      "inputs": [
        {
          "internalType": "address",
          "name": "_addr",
          "type": "address"
        }
      ],
      "name": "setPegBridgeV2",
      "outputs": [],
      "stateMutability": "nonpayable",
      "type": "function"
    },
    {
      "inputs": [
        {
          "internalType": "address",
          "name": "_addr",
          "type": "address"
        }
      ],
      "name": "setPegVault",
      "outputs": [],
      "stateMutability": "nonpayable",
      "type": "function"
    },
    {
      "inputs": [
        {
          "internalType": "address",
          "name": "_addr",
          "type": "address"
        }
      ],
      "name": "setPegVaultV2",
      "outputs": [],
      "stateMutability": "nonpayable",
      "type": "function"
    },
    {
      "inputs": [
        {
          "internalType": "uint256",
          "name": "_usage",
          "type": "uint256"
        }
      ],
      "name": "setPreExecuteMessageGasUsage",
      "outputs": [],
      "stateMutability": "nonpayable",
      "type": "function"
    },
    {
      "inputs": [
        {
          "components": [
            {
              "internalType": "bytes",
              "name": "request",
              "type": "bytes"
            },
            {
              "internalType": "bytes[]",
              "name": "sigs",
              "type": "bytes[]"
            },
            {
              "internalType": "address[]",
              "name": "signers",
              "type": "address[]"
            },
            {
              "internalType": "uint256[]",
              "name": "powers",
              "type": "uint256[]"
            }
          ],
          "internalType": "struct MsgDataTypes.BridgeTransferParams",
          "name": "_transferParams",
          "type": "tuple"
        },
        {
          "components": [
            {
              "internalType": "bytes",
              "name": "message",
              "type": "bytes"
            },
            {
              "components": [
                {
                  "internalType": "enum MsgDataTypes.TransferType",
                  "name": "t",
                  "type": "uint8"
                },
                {
                  "internalType": "address",
                  "name": "sender",
                  "type": "address"
                },
                {
                  "internalType": "address",
                  "name": "receiver",
                  "type": "address"
                },
                {
                  "internalType": "address",
                  "name": "token",
                  "type": "address"
                },
                {
                  "internalType": "uint256",
                  "name": "amount",
                  "type": "uint256"
                },
                {
                  "internalType": "uint64",
                  "name": "wdseq",
                  "type": "uint64"
                },
                {
                  "internalType": "uint64",
                  "name": "srcChainId",
                  "type": "uint64"
                },
                {
                  "internalType": "bytes32",
                  "name": "refId",
                  "type": "bytes32"
                },
                {
                  "internalType": "bytes32",
                  "name": "srcTxHash",
                  "type": "bytes32"
                }
              ],
              "internalType": "struct MsgDataTypes.TransferInfo",
              "name": "transfer",
              "type": "tuple"
            },
            {
              "internalType": "bytes[]",
              "name": "sigs",
              "type": "bytes[]"
            },
            {
              "internalType": "address[]",
              "name": "signers",
              "type": "address[]"
            },
            {
              "internalType": "uint256[]",
              "name": "powers",
              "type": "uint256[]"
            }
          ],
          "internalType": "struct MsgDataTypes.MsgWithTransferExecutionParams",
          "name": "_msgParams",
          "type": "tuple"
        }
      ],
      "name": "transferAndExecuteMsg",
      "outputs": [],
      "stateMutability": "nonpayable",
      "type": "function"
    },
    {
      "inputs": [
        {
          "internalType": "address",
          "name": "newOwner",
          "type": "address"
        }
      ],
      "name": "transferOwnership",
      "outputs": [],
      "stateMutability": "nonpayable",
      "type": "function"
    }
  ],
  "bytecode": "0x60806040523480156200001157600080fd5b5060405162003a0138038062003a0183398101604081905262000034916200010f565b6200003f33620000a2565b600280546001600160a01b03199081166001600160a01b039788161790915560038054821695871695909517909455600480548516938616939093179092556005805484169185169190911790556006805490921692169190911790556200017f565b600080546001600160a01b038381166001600160a01b0319831681178455604051919092169283917f8be0079c531659141344cd1fd0a4f28419497f9722a3daafe3b4186f6b6457e09190a35050565b80516001600160a01b03811681146200010a57600080fd5b919050565b600080600080600060a086880312156200012857600080fd5b6200013386620000f2565b94506200014360208701620000f2565b93506200015360408701620000f2565b92506200016360608701620000f2565b91506200017360808701620000f2565b90509295509295909350565b613872806200018f6000396000f3fe60806040526004361061015f5760003560e01c806382efd502116100c0578063cd2abd6611610074578063dfa2dbaf11610059578063dfa2dbaf146103e9578063f2fde38b14610416578063f83b0fb91461043657600080fd5b8063cd2abd661461037f578063d8257d17146103bc57600080fd5b806395b12c27116100a557806395b12c27146103055780639b05a77514610332578063c66a9c5a1461035257600080fd5b806382efd502146102ba5780638da5cb5b146102da57600080fd5b8063584e45e111610117578063723d0a9d116100fc578063723d0a9d146102355780637b80ab201461025557806382980dc41461026857600080fd5b8063584e45e1146101ec578063588be02b1461021557600080fd5b806340d0d0261161014857806340d0d026146101995780634586f331146101b9578063468a2d04146101d957600080fd5b806303cbfe66146101645780633f395aff14610186575b600080fd5b34801561017057600080fd5b5061018461017f366004612c37565b610456565b005b610184610194366004612ce0565b6105ef565b3480156101a557600080fd5b506101846101b4366004612e07565b610985565b3480156101c557600080fd5b506101846101d4366004612e73565b6109dd565b6101846101e7366004612e8c565b610a7f565b3480156101f857600080fd5b5061020260075481565b6040519081526020015b60405180910390f35b34801561022157600080fd5b50610184610230366004612c37565b610dca565b34801561024157600080fd5b50610184610250366004612e07565b610f57565b610184610263366004612ce0565b610fa5565b34801561027457600080fd5b506002546102959073ffffffffffffffffffffffffffffffffffffffff1681565b60405173ffffffffffffffffffffffffffffffffffffffff909116815260200161020c565b3480156102c657600080fd5b506101846102d5366004612c37565b61123b565b3480156102e657600080fd5b5060005473ffffffffffffffffffffffffffffffffffffffff16610295565b34801561031157600080fd5b506005546102959073ffffffffffffffffffffffffffffffffffffffff1681565b34801561033e57600080fd5b5061018461034d366004612c37565b6113c8565b34801561035e57600080fd5b506006546102959073ffffffffffffffffffffffffffffffffffffffff1681565b34801561038b57600080fd5b506103af61039a366004612e73565b60016020526000908152604090205460ff1681565b60405161020c9190612f94565b3480156103c857600080fd5b506004546102959073ffffffffffffffffffffffffffffffffffffffff1681565b3480156103f557600080fd5b506003546102959073ffffffffffffffffffffffffffffffffffffffff1681565b34801561042257600080fd5b50610184610431366004612c37565b611555565b34801561044257600080fd5b50610184610451366004612c37565b6116a1565b3361047660005473ffffffffffffffffffffffffffffffffffffffff1690565b73ffffffffffffffffffffffffffffffffffffffff16146104f8576040517f08c379a000000000000000000000000000000000000000000000000000000000815260206004820181905260248201527f4f776e61626c653a2063616c6c6572206973206e6f7420746865206f776e657260448201526064015b60405180910390fd5b73ffffffffffffffffffffffffffffffffffffffff8116610575576040517f08c379a000000000000000000000000000000000000000000000000000000000815260206004820152600f60248201527f696e76616c69642061646472657373000000000000000000000000000000000060448201526064016104ef565b600380547fffffffffffffffffffffffff00000000000000000000000000000000000000001673ffffffffffffffffffffffffffffffffffffffff83169081179091556040519081527fd60e9ceb4f54f1bfb1741a4b35fc9d806d7ed48200b523203b92248ea38fa17d906020015b60405180910390a150565b60006105fa8861182e565b90506000808281526001602052604090205460ff16600481111561062057610620612f51565b14610687576040517f08c379a000000000000000000000000000000000000000000000000000000000815260206004820152601960248201527f7472616e7366657220616c72656164792065786563757465640000000000000060448201526064016104ef565b600081815260016020908152604080832080547fffffffffffffffffffffffffffffffffffffffffffffffffffffffffffffff00166004179055805146928101929092527fffffffffffffffffffffffffffffffffffffffff0000000000000000000000003060601b16908201527f4d657373616765576974685472616e73666572000000000000000000000000006054820152606701604051602081830303815290604052805190602001209050600260009054906101000a900473ffffffffffffffffffffffffffffffffffffffff1673ffffffffffffffffffffffffffffffffffffffff1663682dbc2282848e8e8e6101000135604051602001610792959493929190612fa2565b6040516020818303038152906040528a8a8a8a8a8a6040518863ffffffff1660e01b81526004016107c997969594939291906131fa565b60006040518083038186803b1580156107e157600080fd5b505afa1580156107f5573d6000803e3d6000fd5b505050506000806108078b8e8e61239d565b9050600181600281111561081d5761081d612f51565b141561082c5760019150610919565b600281600281111561084057610840612f51565b14156108e45760008481526001602081905260408220805490917fffffffffffffffffffffffffffffffffffffffffffffffffffffffffffffff0090911690835b02179055507fe49c2c954d381d1448cf824743aeff9da7a1d82078a7c9e5817269cc359bd26c6000858d60c00160208101906108bd9190613258565b8e61010001356040516108d39493929190613292565b60405180910390a15050505061097a565b6108ef8b8e8e612549565b9050600181600281111561090557610905612f51565b14156109145760039150610919565b600291505b6000848152600160208190526040909120805484927fffffffffffffffffffffffffffffffffffffffffffffffffffffffffffffff009091169083600481111561096557610965612f51565b021790555061097584838d6125aa565b505050505b505050505050505050565b61099e61099860408301602084016132c5565b83612629565b6109d96109ab82806132e6565b602084016109bd61014086018661334b565b6109cb61016088018861334b565b6102636101808a018a61334b565b5050565b336109fd60005473ffffffffffffffffffffffffffffffffffffffff1690565b73ffffffffffffffffffffffffffffffffffffffff1614610a7a576040517f08c379a000000000000000000000000000000000000000000000000000000000815260206004820181905260248201527f4f776e61626c653a2063616c6c6572206973206e6f7420746865206f776e657260448201526064016104ef565b600755565b6000610a8c888b8b6128d6565b90506000808281526001602052604090205460ff166004811115610ab257610ab2612f51565b14610b19576040517f08c379a000000000000000000000000000000000000000000000000000000000815260206004820152601860248201527f6d65737361676520616c7265616479206578656375746564000000000000000060448201526064016104ef565b600081815260016020908152604080832080547fffffffffffffffffffffffffffffffffffffffffffffffffffffffffffffff00166004179055805146928101929092527fffffffffffffffffffffffffffffffffffffffff0000000000000000000000003060601b16908201527f4d657373616765000000000000000000000000000000000000000000000000006054820152605b01604080517fffffffffffffffffffffffffffffffffffffffffffffffffffffffffffffffe0818403018152828252805160209182012060025491840181905283830186905282518085038401815260608501938490527f682dbc2200000000000000000000000000000000000000000000000000000000909352935073ffffffffffffffffffffffffffffffffffffffff169163682dbc2291610c61918c908c908c908c908c908c906064016131fa565b60006040518083038186803b158015610c7957600080fd5b505afa158015610c8d573d6000803e3d6000fd5b50505050600080610c9f8b8e8e612945565b90506001816002811115610cb557610cb5612f51565b1415610cc45760019150610d6e565b6002816002811115610cd857610cd8612f51565b1415610d695760008481526001602081905260408220805490917fffffffffffffffffffffffffffffffffffffffffffffffffffffffffffffff00909116908302179055507fe49c2c954d381d1448cf824743aeff9da7a1d82078a7c9e5817269cc359bd26c6001858d6040016020810190610d549190613258565b8e606001356040516108d39493929190613292565b600291505b6000848152600160208190526040909120805484927fffffffffffffffffffffffffffffffffffffffffffffffffffffffffffffff0090911690836004811115610dba57610dba612f51565b021790555061097584838d6129ca565b33610dea60005473ffffffffffffffffffffffffffffffffffffffff1690565b73ffffffffffffffffffffffffffffffffffffffff1614610e67576040517f08c379a000000000000000000000000000000000000000000000000000000000815260206004820181905260248201527f4f776e61626c653a2063616c6c6572206973206e6f7420746865206f776e657260448201526064016104ef565b73ffffffffffffffffffffffffffffffffffffffff8116610ee4576040517f08c379a000000000000000000000000000000000000000000000000000000000815260206004820152600f60248201527f696e76616c69642061646472657373000000000000000000000000000000000060448201526064016104ef565b600280547fffffffffffffffffffffffff00000000000000000000000000000000000000001673ffffffffffffffffffffffffffffffffffffffff83169081179091556040519081527fbf9977180dc6e6cff25598c8e59150cecd7f8e448e092633d38ab7ee223ae058906020016105e4565b610f6a61099860408301602084016132c5565b6109d9610f7782806132e6565b60208401610f8961014086018661334b565b610f9761016088018861334b565b6101946101808a018a61334b565b6000610fb08861182e565b90506000808281526001602052604090205460ff166004811115610fd657610fd6612f51565b1461103d576040517f08c379a000000000000000000000000000000000000000000000000000000000815260206004820152601960248201527f7472616e7366657220616c72656164792065786563757465640000000000000060448201526064016104ef565b600081815260016020908152604080832080547fffffffffffffffffffffffffffffffffffffffffffffffffffffffffffffff00166004179055805146928101929092527fffffffffffffffffffffffffffffffffffffffff0000000000000000000000003060601b16908201527f4d657373616765576974685472616e73666572526566756e64000000000000006054820152606d01604051602081830303815290604052805190602001209050600260009054906101000a900473ffffffffffffffffffffffffffffffffffffffff1673ffffffffffffffffffffffffffffffffffffffff1663682dbc2282848e8e8e6101000135604051602001611148959493929190612fa2565b6040516020818303038152906040528a8a8a8a8a8a6040518863ffffffff1660e01b815260040161117f97969594939291906131fa565b60006040518083038186803b15801561119757600080fd5b505afa1580156111ab573d6000803e3d6000fd5b505050506000806111bd8b8e8e612a3b565b905060018160028111156111d3576111d3612f51565b14156111e25760019150610919565b60028160028111156111f6576111f6612f51565b14156109145760008481526001602081905260408220805490917fffffffffffffffffffffffffffffffffffffffffffffffffffffffffffffff009091169083610881565b3361125b60005473ffffffffffffffffffffffffffffffffffffffff1690565b73ffffffffffffffffffffffffffffffffffffffff16146112d8576040517f08c379a000000000000000000000000000000000000000000000000000000000815260206004820181905260248201527f4f776e61626c653a2063616c6c6572206973206e6f7420746865206f776e657260448201526064016104ef565b73ffffffffffffffffffffffffffffffffffffffff8116611355576040517f08c379a000000000000000000000000000000000000000000000000000000000815260206004820152600f60248201527f696e76616c69642061646472657373000000000000000000000000000000000060448201526064016104ef565b600580547fffffffffffffffffffffffff00000000000000000000000000000000000000001673ffffffffffffffffffffffffffffffffffffffff83169081179091556040519081527ffb337a6c76476534518d5816caeb86263972470fedccfd047a35eb1825eaa9e8906020016105e4565b336113e860005473ffffffffffffffffffffffffffffffffffffffff1690565b73ffffffffffffffffffffffffffffffffffffffff1614611465576040517f08c379a000000000000000000000000000000000000000000000000000000000815260206004820181905260248201527f4f776e61626c653a2063616c6c6572206973206e6f7420746865206f776e657260448201526064016104ef565b73ffffffffffffffffffffffffffffffffffffffff81166114e2576040517f08c379a000000000000000000000000000000000000000000000000000000000815260206004820152600f60248201527f696e76616c69642061646472657373000000000000000000000000000000000060448201526064016104ef565b600480547fffffffffffffffffffffffff00000000000000000000000000000000000000001673ffffffffffffffffffffffffffffffffffffffff83169081179091556040519081527fa9db0c32d9c6c2f75f3b95047a9e67cc1c010eab792a4e6ca777ce918ad94aad906020016105e4565b3361157560005473ffffffffffffffffffffffffffffffffffffffff1690565b73ffffffffffffffffffffffffffffffffffffffff16146115f2576040517f08c379a000000000000000000000000000000000000000000000000000000000815260206004820181905260248201527f4f776e61626c653a2063616c6c6572206973206e6f7420746865206f776e657260448201526064016104ef565b73ffffffffffffffffffffffffffffffffffffffff8116611695576040517f08c379a000000000000000000000000000000000000000000000000000000000815260206004820152602660248201527f4f776e61626c653a206e6577206f776e657220697320746865207a65726f206160448201527f646472657373000000000000000000000000000000000000000000000000000060648201526084016104ef565b61169e81612ab8565b50565b336116c160005473ffffffffffffffffffffffffffffffffffffffff1690565b73ffffffffffffffffffffffffffffffffffffffff161461173e576040517f08c379a000000000000000000000000000000000000000000000000000000000815260206004820181905260248201527f4f776e61626c653a2063616c6c6572206973206e6f7420746865206f776e657260448201526064016104ef565b73ffffffffffffffffffffffffffffffffffffffff81166117bb576040517f08c379a000000000000000000000000000000000000000000000000000000000815260206004820152600f60248201527f696e76616c69642061646472657373000000000000000000000000000000000060448201526064016104ef565b600680547fffffffffffffffffffffffff00000000000000000000000000000000000000001673ffffffffffffffffffffffffffffffffffffffff83169081179091556040519081527f918a691a2a82482a10e11f43d7b627b2ba220dd08f251cb61933c42560f6fcb5906020016105e4565b60008080600161184160208601866132c5565b600681111561185257611852612f51565b1415611a7b576118686040850160208601612c37565b6118786060860160408701612c37565b6118886080870160608801612c37565b608087013561189d60e0890160c08a01613258565b6040517fffffffffffffffffffffffffffffffffffffffff000000000000000000000000606096871b8116602083015294861b851660348201529290941b9092166048820152605c8101919091527fffffffffffffffff00000000000000000000000000000000000000000000000060c092831b8116607c8301524690921b909116608482015260e0850135608c82015260ac01604080518083037fffffffffffffffffffffffffffffffffffffffffffffffffffffffffffffffe00181529082905280516020909101206002547f3c64f04b0000000000000000000000000000000000000000000000000000000083526004830182905290935073ffffffffffffffffffffffffffffffffffffffff1691508190633c64f04b9060240160206040518083038186803b1580156119d357600080fd5b505afa1580156119e7573d6000803e3d6000fd5b505050506040513d601f19601f82011682018060405250810190611a0b91906133b3565b1515600114611a76576040517f08c379a000000000000000000000000000000000000000000000000000000000815260206004820152601660248201527f6272696467652072656c6179206e6f742065786973740000000000000000000060448201526064016104ef565b612368565b6002611a8a60208601866132c5565b6006811115611a9b57611a9b612f51565b1415611c965746611ab260c0860160a08701613258565b611ac26060870160408801612c37565b611ad26080880160608901612c37565b6040517fffffffffffffffff00000000000000000000000000000000000000000000000060c095861b811660208301529390941b90921660288401527fffffffffffffffffffffffffffffffffffffffff000000000000000000000000606091821b8116603085015291901b16604482015260808501356058820152607801604080518083037fffffffffffffffffffffffffffffffffffffffffffffffffffffffffffffffe00181529082905280516020909101206002547fe09ab4280000000000000000000000000000000000000000000000000000000083526004830182905290935073ffffffffffffffffffffffffffffffffffffffff169150819063e09ab4289060240160206040518083038186803b158015611bf357600080fd5b505afa158015611c07573d6000803e3d6000fd5b505050506040513d601f19601f82011682018060405250810190611c2b91906133b3565b1515600114611a76576040517f08c379a000000000000000000000000000000000000000000000000000000000815260206004820152601960248201527f627269646765207769746864726177206e6f742065786973740000000000000060448201526064016104ef565b6003611ca560208601866132c5565b6006811115611cb657611cb6612f51565b1480611cdf57506004611ccc60208601866132c5565b6006811115611cdd57611cdd612f51565b145b1561202d57611cf46060850160408601612c37565b611d046080860160608701612c37565b6080860135611d196040880160208901612c37565b611d2960e0890160c08a01613258565b604051606095861b7fffffffffffffffffffffffffffffffffffffffff000000000000000000000000908116602083015294861b851660348201526048810193909352931b909116606882015260c09190911b7fffffffffffffffff00000000000000000000000000000000000000000000000016607c82015260e0850135608482015260a401604080517fffffffffffffffffffffffffffffffffffffffffffffffffffffffffffffffe0818403018152919052805160209091012091506003611df760208601866132c5565b6006811115611e0857611e08612f51565b1415611f1f57506003546040517f01e647250000000000000000000000000000000000000000000000000000000081526004810183905273ffffffffffffffffffffffffffffffffffffffff9091169081906301e64725906024015b60206040518083038186803b158015611e7c57600080fd5b505afa158015611e90573d6000803e3d6000fd5b505050506040513d601f19601f82011682018060405250810190611eb491906133b3565b1515600114611a76576040517f08c379a000000000000000000000000000000000000000000000000000000000815260206004820152601560248201527f6d696e74207265636f7264206e6f74206578697374000000000000000000000060448201526064016104ef565b50600480546040517f01e6472500000000000000000000000000000000000000000000000000000000815291820183905273ffffffffffffffffffffffffffffffffffffffff169081906301e647259060240160206040518083038186803b158015611f8a57600080fd5b505afa158015611f9e573d6000803e3d6000fd5b505050506040513d601f19601f82011682018060405250810190611fc291906133b3565b1515600114611a76576040517f08c379a000000000000000000000000000000000000000000000000000000000815260206004820152601960248201527f7769746864726177207265636f7264206e6f742065786973740000000000000060448201526064016104ef565b600561203c60208601866132c5565b600681111561204d5761204d612f51565b14806120765750600661206360208601866132c5565b600681111561207457612074612f51565b145b1561236857600561208a60208601866132c5565b600681111561209b5761209b612f51565b14156120c0575060055473ffffffffffffffffffffffffffffffffffffffff166120db565b5060065473ffffffffffffffffffffffffffffffffffffffff165b6120eb6060850160408601612c37565b6120fb6080860160608701612c37565b60808601356121106040880160208901612c37565b61212060e0890160c08a01613258565b604051606095861b7fffffffffffffffffffffffffffffffffffffffff000000000000000000000000908116602083015294861b85166034820152604881019390935290841b8316606883015260c01b7fffffffffffffffff00000000000000000000000000000000000000000000000016607c82015260e087013560848201529183901b1660a482015260b801604080517fffffffffffffffffffffffffffffffffffffffffffffffffffffffffffffffe08184030181529190528051602090910120915060056121f560208601866132c5565b600681111561220657612206612f51565b141561225f576040517f01e647250000000000000000000000000000000000000000000000000000000081526004810183905273ffffffffffffffffffffffffffffffffffffffff8216906301e6472590602401611e64565b6040517f01e647250000000000000000000000000000000000000000000000000000000081526004810183905273ffffffffffffffffffffffffffffffffffffffff8216906301e647259060240160206040518083038186803b1580156122c557600080fd5b505afa1580156122d9573d6000803e3d6000fd5b505050506040513d601f19601f820116820180604052508101906122fd91906133b3565b1515600114612368576040517f08c379a000000000000000000000000000000000000000000000000000000000815260206004820152601960248201527f7769746864726177207265636f7264206e6f742065786973740000000000000060448201526064016104ef565b6000818360405160200161237e939291906133ec565b6040516020818303038152906040528051906020012092505050919050565b6000805a90506000806123b66060880160408901612c37565b73ffffffffffffffffffffffffffffffffffffffff16347f7cd2bffc000000000000000000000000000000000000000000000000000000006123fe60408b0160208c01612c37565b61240e60808c0160608d01612c37565b60808c013561242360e08e0160c08f01613258565b8c8c3360405160240161243c9796959493929190613430565b604080517fffffffffffffffffffffffffffffffffffffffffffffffffffffffffffffffe08184030181529181526020820180517bffffffffffffffffffffffffffffffffffffffffffffffffffffffff167fffffffff000000000000000000000000000000000000000000000000000000009094169390931790925290516124c59190613496565b60006040518083038185875af1925050503d8060008114612502576040519150601f19603f3d011682016040523d82523d6000602084013e612507565b606091505b50915091508115612530578080602001905181019061252691906134b2565b9350505050612542565b61253a8382612b2d565b600093505050505b9392505050565b6000805a90506000806125626060880160408901612c37565b73ffffffffffffffffffffffffffffffffffffffff16347f5ab7afc6000000000000000000000000000000000000000000000000000000006123fe60408b0160208c01612c37565b6125ba6060820160408301612c37565b73ffffffffffffffffffffffffffffffffffffffff167fa635eb05143f74743822bbd96428928de4c8ee8cc578299749be9425c17bb34d6000858561260560e0870160c08801613258565b86610100013560405161261c9594939291906134d3565b60405180910390a2505050565b600182600681111561263d5761263d612f51565b14156126eb5760025473ffffffffffffffffffffffffffffffffffffffff1663cdd1b25d61266b83806132e6565b612678602086018661334b565b612685604088018861334b565b61269260608a018a61334b565b6040518963ffffffff1660e01b81526004016126b5989796959493929190613511565b600060405180830381600087803b1580156126cf57600080fd5b505af11580156126e3573d6000803e3d6000fd5b505050505050565b60028260068111156126ff576126ff612f51565b141561272d5760025473ffffffffffffffffffffffffffffffffffffffff1663a21a928061266b83806132e6565b600382600681111561274157612741612f51565b141561276f5760035473ffffffffffffffffffffffffffffffffffffffff1663f873430261266b83806132e6565b600582600681111561278357612783612f51565b14156128525760055473ffffffffffffffffffffffffffffffffffffffff1663f87343026127b183806132e6565b6127be602086018661334b565b6127cb604088018861334b565b6127d860608a018a61334b565b6040518963ffffffff1660e01b81526004016127fb989796959493929190613511565b602060405180830381600087803b15801561281557600080fd5b505af1158015612829573d6000803e3d6000fd5b505050506040513d601f19601f8201168201806040525081019061284d9190613571565b505050565b600482600681111561286657612866612f51565b14156128945760045473ffffffffffffffffffffffffffffffffffffffff1663a21a928061266b83806132e6565b60068260068111156128a8576128a8612f51565b14156109d95760065473ffffffffffffffffffffffffffffffffffffffff1663a21a92806127b183806132e6565b600060016128e76020860186612c37565b6128f76040870160208801612c37565b6129076060880160408901613258565b876060013546888860405160200161292698979695949392919061358a565b6040516020818303038152906040528051906020012090509392505050565b6000805a905060008061295e6040880160208901612c37565b73ffffffffffffffffffffffffffffffffffffffff16347f9c649fdf000000000000000000000000000000000000000000000000000000006129a360208b018b612c37565b6129b360608c0160408d01613258565b8a8a3360405160240161243c959493929190613629565b6129da6040820160208301612c37565b73ffffffffffffffffffffffffffffffffffffffff167fa635eb05143f74743822bbd96428928de4c8ee8cc578299749be9425c17bb34d60018585612a256060870160408801613258565b866060013560405161261c9594939291906134d3565b6000805a9050600080612a546060880160408901612c37565b73ffffffffffffffffffffffffffffffffffffffff16347f0bcb498200000000000000000000000000000000000000000000000000000000612a9c60808b0160608c01612c37565b8a608001358a8a3360405160240161243c95949392919061367f565b6000805473ffffffffffffffffffffffffffffffffffffffff8381167fffffffffffffffffffffffff0000000000000000000000000000000000000000831681178455604051919092169283917f8be0079c531659141344cd1fd0a4f28419497f9722a3daafe3b4186f6b6457e09190a35050565b60005a9050600060075445612b4291906136b6565b90508084108015612b5d5750612b596040856136f4565b8211155b15612b6457fe5b7fffdd6142bbb721f3400e3908b04b86f60649b2e4d191e3f4c50c32c3e6471d2f612b8e84612ba9565b604051612b9b919061372f565b60405180910390a150505050565b6060604482511015612bee57505060408051808201909152601d81527f5472616e73616374696f6e2072657665727465642073696c656e746c79000000602082015290565b60048201915081806020019051810190612c089190613771565b92915050565b803573ffffffffffffffffffffffffffffffffffffffff81168114612c3257600080fd5b919050565b600060208284031215612c4957600080fd5b61254282612c0e565b60008083601f840112612c6457600080fd5b50813567ffffffffffffffff811115612c7c57600080fd5b602083019150836020828501011115612c9457600080fd5b9250929050565b60008083601f840112612cad57600080fd5b50813567ffffffffffffffff811115612cc557600080fd5b6020830191508360208260051b8501011115612c9457600080fd5b6000806000806000806000806000898b036101a0811215612d0057600080fd5b8a3567ffffffffffffffff80821115612d1857600080fd5b612d248e838f01612c52565b909c509a508a91506101207fffffffffffffffffffffffffffffffffffffffffffffffffffffffffffffffe084011215612d5d57600080fd5b60208d0199506101408d0135925080831115612d7857600080fd5b612d848e848f01612c9b565b90995097506101608d0135925088915080831115612da157600080fd5b612dad8e848f01612c9b565b90975095506101808d0135925086915080831115612dca57600080fd5b5050612dd88c828d01612c9b565b915080935050809150509295985092959850929598565b600060808284031215612e0157600080fd5b50919050565b60008060408385031215612e1a57600080fd5b823567ffffffffffffffff80821115612e3257600080fd5b612e3e86838701612def565b93506020850135915080821115612e5457600080fd5b5083016101a08186031215612e6857600080fd5b809150509250929050565b600060208284031215612e8557600080fd5b5035919050565b60008060008060008060008060006101008a8c031215612eab57600080fd5b893567ffffffffffffffff80821115612ec357600080fd5b612ecf8d838e01612c52565b909b509950899150612ee48d60208e01612def565b985060a08c0135915080821115612efa57600080fd5b612f068d838e01612c9b565b909850965060c08c0135915080821115612f1f57600080fd5b612f2b8d838e01612c9b565b909650945060e08c0135915080821115612f4457600080fd5b50612dd88c828d01612c9b565b7f4e487b7100000000000000000000000000000000000000000000000000000000600052602160045260246000fd5b60058110612f9057612f90612f51565b9052565b60208101612c088284612f80565b8581528460208201528284604083013760409201918201526060019392505050565b60005b83811015612fdf578181015183820152602001612fc7565b83811115612fee576000848401525b50505050565b6000815180845261300c816020860160208601612fc4565b601f017fffffffffffffffffffffffffffffffffffffffffffffffffffffffffffffffe0169290920160200192915050565b8183528181602085013750600060208284010152600060207fffffffffffffffffffffffffffffffffffffffffffffffffffffffffffffffe0601f840116840101905092915050565b60008383855260208086019550808560051b8301018460005b8781101561314a577fffffffffffffffffffffffffffffffffffffffffffffffffffffffffffffffe085840301895281357fffffffffffffffffffffffffffffffffffffffffffffffffffffffffffffffe188360301811261310157600080fd5b8701803567ffffffffffffffff81111561311a57600080fd5b80360389131561312957600080fd5b613136858288850161303e565b9a86019a94505050908301906001016130a0565b5090979650505050505050565b8183526000602080850194508260005b858110156131a05773ffffffffffffffffffffffffffffffffffffffff61318d83612c0e565b1687529582019590820190600101613167565b509495945050505050565b81835260007f07ffffffffffffffffffffffffffffffffffffffffffffffffffffffffffffff8311156131dd57600080fd5b8260051b8083602087013760009401602001938452509192915050565b60808152600061320d608083018a612ff4565b828103602084015261322081898b613087565b90508281036040840152613235818789613157565b9050828103606084015261324a8185876131ab565b9a9950505050505050505050565b60006020828403121561326a57600080fd5b813567ffffffffffffffff8116811461254257600080fd5b60028110612f9057612f90612f51565b608081016132a08287613282565b84602083015267ffffffffffffffff8416604083015282606083015295945050505050565b6000602082840312156132d757600080fd5b81356007811061254257600080fd5b60008083357fffffffffffffffffffffffffffffffffffffffffffffffffffffffffffffffe184360301811261331b57600080fd5b83018035915067ffffffffffffffff82111561333657600080fd5b602001915036819003821315612c9457600080fd5b60008083357fffffffffffffffffffffffffffffffffffffffffffffffffffffffffffffffe184360301811261338057600080fd5b83018035915067ffffffffffffffff82111561339b57600080fd5b6020019150600581901b3603821315612c9457600080fd5b6000602082840312156133c557600080fd5b8151801515811461254257600080fd5b600281106133e5576133e5612f51565b60f81b9052565b6133f681856133d5565b60609290921b7fffffffffffffffffffffffffffffffffffffffff0000000000000000000000001660018301526015820152603501919050565b600073ffffffffffffffffffffffffffffffffffffffff808a168352808916602084015287604084015267ffffffffffffffff8716606084015260c0608084015261347f60c08401868861303e565b915080841660a08401525098975050505050505050565b600082516134a8818460208701612fc4565b9190910192915050565b6000602082840312156134c457600080fd5b81516003811061254257600080fd5b60a081016134e18288613282565b8560208301526134f46040830186612f80565b67ffffffffffffffff939093166060820152608001529392505050565b608081526000613525608083018a8c61303e565b828103602084015261353881898b613087565b9050828103604084015261354d818789613157565b905082810360608401526135628185876131ab565b9b9a5050505050505050505050565b60006020828403121561358357600080fd5b5051919050565b613594818a6133d5565b60007fffffffffffffffffffffffffffffffffffffffff000000000000000000000000808a60601b166001840152808960601b166015840152507fffffffffffffffff000000000000000000000000000000000000000000000000808860c01b166029840152866031840152808660c01b16605184015250828460598401375060009101605901908152979650505050505050565b600073ffffffffffffffffffffffffffffffffffffffff808816835267ffffffffffffffff871660208401526080604084015261366a60808401868861303e565b91508084166060840152509695505050505050565b600073ffffffffffffffffffffffffffffffffffffffff80881683528660208401526080604084015261366a60808401868861303e565b6000828210156136ef577f4e487b7100000000000000000000000000000000000000000000000000000000600052601160045260246000fd5b500390565b60008261372a577f4e487b7100000000000000000000000000000000000000000000000000000000600052601260045260246000fd5b500490565b6020815260006125426020830184612ff4565b7f4e487b7100000000000000000000000000000000000000000000000000000000600052604160045260246000fd5b60006020828403121561378357600080fd5b815167ffffffffffffffff8082111561379b57600080fd5b818401915084601f8301126137af57600080fd5b8151818111156137c1576137c1613742565b604051601f82017fffffffffffffffffffffffffffffffffffffffffffffffffffffffffffffffe0908116603f0116810190838211818310171561380757613807613742565b8160405282815287602084870101111561382057600080fd5b613831836020830160208801612fc4565b97965050505050505056fea26469706673582212207696d2741aa03d2073f910d946361cfe41ab85572d22dd1665a3a6c867da50ff64736f6c63430008090033",
  "linkReferences": {},
  "deployedLinkReferences": {}
}