{
  "_format": "hh-sol-artifact-1",
  "contractName": "DefaultMsgport",
  "sourceName": "contracts/DefaultMsgport.sol",
  "abi": [
    {
      "anonymous": false,
      "inputs": [
        {
          "indexed": false,
          "internalType": "address",
          "name": "_fromDappAddress",
          "type": "address"
        },
        {
          "indexed": false,
          "internalType": "address",
          "name": "_toDappAddress",
          "type": "address"
        },
        {
          "indexed": false,
          "internalType": "bytes",
          "name": "_message",
          "type": "bytes"
        },
        {
          "indexed": false,
          "internalType": "string",
          "name": "_reason",
          "type": "string"
        }
      ],
      "name": "DappError",
      "type": "event"
    },
    {
      "anonymous": false,
      "inputs": [
        {
          "indexed": true,
          "internalType": "address",
          "name": "previousOwner",
          "type": "address"
        },
        {
          "indexed": true,
          "internalType": "address",
          "name": "newOwner",
          "type": "address"
        }
      ],
      "name": "OwnershipTransferStarted",
      "type": "event"
    },
    {
      "anonymous": false,
      "inputs": [
        {
          "indexed": true,
          "internalType": "address",
          "name": "previousOwner",
          "type": "address"
        },
        {
          "indexed": true,
          "internalType": "address",
          "name": "newOwner",
          "type": "address"
        }
      ],
      "name": "OwnershipTransferred",
      "type": "event"
    },
    {
      "inputs": [],
      "name": "acceptOwnership",
      "outputs": [],
      "stateMutability": "nonpayable",
      "type": "function"
    },
    {
      "inputs": [],
      "name": "adapterAddress",
      "outputs": [
        {
          "internalType": "address",
          "name": "",
          "type": "address"
        }
      ],
      "stateMutability": "view",
      "type": "function"
    },
    {
      "inputs": [],
      "name": "defaultExecutionGas",
      "outputs": [
        {
          "internalType": "uint256",
          "name": "",
          "type": "uint256"
        }
      ],
      "stateMutability": "view",
      "type": "function"
    },
    {
      "inputs": [
        {
          "internalType": "address",
          "name": "_fromDappAddress",
          "type": "address"
        },
        {
          "internalType": "address",
          "name": "_toDappAddress",
          "type": "address"
        },
        {
          "internalType": "bytes",
          "name": "_messagePayload",
          "type": "bytes"
        },
        {
          "internalType": "uint256",
          "name": "_executionGas",
          "type": "uint256"
        },
        {
          "internalType": "uint256",
          "name": "_gasPrice",
          "type": "uint256"
        }
      ],
      "name": "estimateFee",
      "outputs": [
        {
          "internalType": "uint256",
          "name": "",
          "type": "uint256"
        }
      ],
      "stateMutability": "view",
      "type": "function"
    },
    {
      "inputs": [],
      "name": "owner",
      "outputs": [
        {
          "internalType": "address",
          "name": "",
          "type": "address"
        }
      ],
      "stateMutability": "view",
      "type": "function"
    },
    {
      "inputs": [],
      "name": "pendingOwner",
      "outputs": [
        {
          "internalType": "address",
          "name": "",
          "type": "address"
        }
      ],
      "stateMutability": "view",
      "type": "function"
    },
    {
      "inputs": [
        {
          "internalType": "address",
          "name": "_fromDappAddress",
          "type": "address"
        },
        {
          "internalType": "address",
          "name": "_toDappAddress",
          "type": "address"
        },
        {
          "internalType": "bytes",
          "name": "_messagePayload",
          "type": "bytes"
        }
      ],
      "name": "recv",
      "outputs": [],
      "stateMutability": "nonpayable",
      "type": "function"
    },
    {
      "inputs": [],
      "name": "renounceOwnership",
      "outputs": [],
      "stateMutability": "nonpayable",
      "type": "function"
    },
    {
      "inputs": [
        {
          "internalType": "address",
          "name": "_toDappAddress",
          "type": "address"
        },
        {
          "internalType": "bytes",
          "name": "_messagePayload",
          "type": "bytes"
        },
        {
          "internalType": "uint256",
          "name": "_executionGas",
          "type": "uint256"
        },
        {
          "internalType": "uint256",
          "name": "_gasPrice",
          "type": "uint256"
        }
      ],
      "name": "send",
      "outputs": [
        {
          "internalType": "uint256",
          "name": "",
          "type": "uint256"
        }
      ],
      "stateMutability": "payable",
      "type": "function"
    },
    {
      "inputs": [
        {
          "internalType": "address",
          "name": "_adapterAddress",
          "type": "address"
        }
      ],
      "name": "setAdapter",
      "outputs": [],
      "stateMutability": "nonpayable",
      "type": "function"
    },
    {
      "inputs": [
        {
          "internalType": "address",
          "name": "newOwner",
          "type": "address"
        }
      ],
      "name": "transferOwnership",
      "outputs": [],
      "stateMutability": "nonpayable",
      "type": "function"
    }
  ],
  "bytecode": "0x608060405234801561001057600080fd5b5061001a3361001f565b610096565b600180546001600160a01b031916905561004381610046602090811b61078e17901c565b50565b600080546001600160a01b038381166001600160a01b0319831681178455604051919092169283917f8be0079c531659141344cd1fd0a4f28419497f9722a3daafe3b4186f6b6457e09190a35050565b610f98806100a56000396000f3fe6080604052600436106100bc5760003560e01c806379ba509711610074578063ab1da79c1161004e578063ab1da79c146101e6578063e30c397814610206578063f2fde38b1461023157600080fd5b806379ba5097146101865780638a1478911461019b5780638da5cb5b146101bb57600080fd5b8063394d1bca116100a5578063394d1bca146100fd57806366c9aba61461011f578063715018a61461017157600080fd5b80630d1e73bf146100c15780632d01b827146100e7575b600080fd5b6100d46100cf366004610b6d565b610251565b6040519081526020015b60405180910390f35b3480156100f357600080fd5b506100d460035481565b34801561010957600080fd5b5061011d610118366004610bcb565b6103d2565b005b34801561012b57600080fd5b5060025461014c9073ffffffffffffffffffffffffffffffffffffffff1681565b60405173ffffffffffffffffffffffffffffffffffffffff90911681526020016100de565b34801561017d57600080fd5b5061011d6105ad565b34801561019257600080fd5b5061011d6105c1565b3480156101a757600080fd5b506100d46101b6366004610c29565b610676565b3480156101c757600080fd5b5060005473ffffffffffffffffffffffffffffffffffffffff1661014c565b3480156101f257600080fd5b5061011d610201366004610c99565b61068f565b34801561021257600080fd5b5060015473ffffffffffffffffffffffffffffffffffffffff1661014c565b34801561023d57600080fd5b5061011d61024c366004610c99565b6106de565b6000806102613387878787610803565b905034818110156102d9576040517f08c379a00000000000000000000000000000000000000000000000000000000081526004016102d09060208082526004908201527f2166656500000000000000000000000000000000000000000000000000000000604082015260600190565b60405180910390fd5b8181111561031957336108fc6102ef8484610cea565b6040518115909202916000818181858888f19350505050158015610317573d6000803e3d6000fd5b505b6002546040517ffc8d4fd800000000000000000000000000000000000000000000000000000000815273ffffffffffffffffffffffffffffffffffffffff9091169063fc8d4fd89084906103759033908c908c90600401610d6c565b6020604051808303818588803b15801561038e57600080fd5b505af11580156103a2573d6000803e3d6000fd5b50505050506040513d601f19601f820116820180604052508101906103c79190610dae565b979650505050505050565b60025473ffffffffffffffffffffffffffffffffffffffff163314610453576040517f08c379a000000000000000000000000000000000000000000000000000000000815260206004820152600860248201527f216164617074657200000000000000000000000000000000000000000000000060448201526064016102d0565b6040517f04a1b84200000000000000000000000000000000000000000000000000000000815273ffffffffffffffffffffffffffffffffffffffff8316906304a1b842906104a79086908590600401610dc7565b600060405180830381600087803b1580156104c157600080fd5b505af19250505080156104d2575060015b6105a8576104de610dfe565b806308c379a0141561054157506104f3610e1a565b806104fe5750610543565b7fba6b42a77bfcfc54df7cebd093bd1ec5ebb5ae14723c9fdc3865a577eb1d4f50848484846040516105339493929190610ec2565b60405180910390a150505050565b505b3d80801561056d576040519150601f19603f3d011682016040523d82523d6000602084013e610572565b606091505b507fba6b42a77bfcfc54df7cebd093bd1ec5ebb5ae14723c9fdc3865a577eb1d4f50848484846040516105339493929190610ec2565b505050565b6105b5610986565b6105bf6000610a07565b565b600154339073ffffffffffffffffffffffffffffffffffffffff16811461066a576040517f08c379a000000000000000000000000000000000000000000000000000000000815260206004820152602960248201527f4f776e61626c6532537465703a2063616c6c6572206973206e6f74207468652060448201527f6e6577206f776e6572000000000000000000000000000000000000000000000060648201526084016102d0565b61067381610a07565b50565b60006106858686868686610803565b9695505050505050565b610697610986565b600280547fffffffffffffffffffffffff00000000000000000000000000000000000000001673ffffffffffffffffffffffffffffffffffffffff92909216919091179055565b6106e6610986565b6001805473ffffffffffffffffffffffffffffffffffffffff83167fffffffffffffffffffffffff0000000000000000000000000000000000000000909116811790915561074960005473ffffffffffffffffffffffffffffffffffffffff1690565b73ffffffffffffffffffffffffffffffffffffffff167f38d16b8cac22d99fc7c124b9cd0de2d3fa1faef420bfe791d8c362d765e2270060405160405180910390a350565b6000805473ffffffffffffffffffffffffffffffffffffffff8381167fffffffffffffffffffffffff0000000000000000000000000000000000000000831681178455604051919092169283917f8be0079c531659141344cd1fd0a4f28419497f9722a3daafe3b4186f6b6457e09190a35050565b6002546040517f45ea126a00000000000000000000000000000000000000000000000000000000815260009173ffffffffffffffffffffffffffffffffffffffff1690829082906345ea126a90610862908b908b908b90600401610d6c565b60206040518083038186803b15801561087a57600080fd5b505afa15801561088e573d6000803e3d6000fd5b505050506040513d601f19601f820116820180604052508101906108b29190610dae565b905060008273ffffffffffffffffffffffffffffffffffffffff1663cf9cbba68a8a8a6040518463ffffffff1660e01b81526004016108f393929190610d6c565b60206040518083038186803b15801561090b57600080fd5b505afa15801561091f573d6000803e3d6000fd5b505050506040513d601f19601f820116820180604052508101906109439190610dae565b9050600086156109535786610957565b6003545b9050856109648284610f0d565b61096e9190610f25565b6109789084610f0d565b9a9950505050505050505050565b60005473ffffffffffffffffffffffffffffffffffffffff1633146105bf576040517f08c379a000000000000000000000000000000000000000000000000000000000815260206004820181905260248201527f4f776e61626c653a2063616c6c6572206973206e6f7420746865206f776e657260448201526064016102d0565b600180547fffffffffffffffffffffffff00000000000000000000000000000000000000001690556106738161078e565b803573ffffffffffffffffffffffffffffffffffffffff81168114610a5c57600080fd5b919050565b7f4e487b7100000000000000000000000000000000000000000000000000000000600052604160045260246000fd5b7fffffffffffffffffffffffffffffffffffffffffffffffffffffffffffffffe0601f830116810181811067ffffffffffffffff82111715610ad457610ad4610a61565b6040525050565b600082601f830112610aec57600080fd5b813567ffffffffffffffff811115610b0657610b06610a61565b604051610b3b60207fffffffffffffffffffffffffffffffffffffffffffffffffffffffffffffffe0601f8501160182610a90565b818152846020838601011115610b5057600080fd5b816020850160208301376000918101602001919091529392505050565b60008060008060808587031215610b8357600080fd5b610b8c85610a38565b9350602085013567ffffffffffffffff811115610ba857600080fd5b610bb487828801610adb565b949794965050505060408301359260600135919050565b600080600060608486031215610be057600080fd5b610be984610a38565b9250610bf760208501610a38565b9150604084013567ffffffffffffffff811115610c1357600080fd5b610c1f86828701610adb565b9150509250925092565b600080600080600060a08688031215610c4157600080fd5b610c4a86610a38565b9450610c5860208701610a38565b9350604086013567ffffffffffffffff811115610c7457600080fd5b610c8088828901610adb565b9598949750949560608101359550608001359392505050565b600060208284031215610cab57600080fd5b610cb482610a38565b9392505050565b7f4e487b7100000000000000000000000000000000000000000000000000000000600052601160045260246000fd5b600082821015610cfc57610cfc610cbb565b500390565b6000815180845260005b81811015610d2757602081850181015186830182015201610d0b565b81811115610d39576000602083870101525b50601f017fffffffffffffffffffffffffffffffffffffffffffffffffffffffffffffffe0169290920160200192915050565b600073ffffffffffffffffffffffffffffffffffffffff808616835280851660208401525060606040830152610da56060830184610d01565b95945050505050565b600060208284031215610dc057600080fd5b5051919050565b73ffffffffffffffffffffffffffffffffffffffff83168152604060208201526000610df66040830184610d01565b949350505050565b600060033d1115610e175760046000803e5060005160e01c5b90565b600060443d1015610e285790565b6040517ffffffffffffffffffffffffffffffffffffffffffffffffffffffffffffffffc803d016004833e81513d67ffffffffffffffff8160248401118184111715610e7657505050505090565b8285019150815181811115610e8e5750505050505090565b843d8701016020828501011115610ea85750505050505090565b610eb760208286010187610a90565b509095945050505050565b600073ffffffffffffffffffffffffffffffffffffffff808716835280861660208401525060806040830152610efb6080830185610d01565b82810360608401526103c78185610d01565b60008219821115610f2057610f20610cbb565b500190565b6000817fffffffffffffffffffffffffffffffffffffffffffffffffffffffffffffffff0483118215151615610f5d57610f5d610cbb565b50029056fea2646970667358221220ae4b9b89189f0c33859b109102e341b493651bf86093eee64de79e2bbcbfe0f364736f6c63430008090033",
  "linkReferences": {},
  "deployedLinkReferences": {}
}